{
	"security/Vault/Vault.sol": {
		"Vault": {
			"abi": [
				{
					"inputs": [
						{
							"internalType": "bytes32",
							"name": "_password",
							"type": "bytes32"
						}
					],
					"stateMutability": "nonpayable",
					"type": "constructor"
				},
				{
					"inputs": [],
					"name": "locked",
					"outputs": [
						{
							"internalType": "bool",
							"name": "",
							"type": "bool"
						}
					],
					"stateMutability": "view",
					"type": "function"
				},
				{
					"inputs": [
						{
							"internalType": "bytes32",
							"name": "_password",
							"type": "bytes32"
						}
					],
					"name": "unlock",
					"outputs": [],
					"stateMutability": "nonpayable",
					"type": "function"
				}
			],
			"devdoc": {
				"kind": "dev",
				"methods": {},
				"version": 1
			},
			"evm": {
				"assembly": "    /* \"security/Vault/Vault.sol\":60:373  contract Vault {... */\n  mstore(0x40, 0x80)\n    /* \"security/Vault/Vault.sol\":140:234  constructor(bytes32 _password) {... */\n  callvalue\n  dup1\n  iszero\n  tag_1\n  jumpi\n  revert(0x00, 0x00)\ntag_1:\n  pop\n  mload(0x40)\n  sub(codesize, bytecodeSize)\n  dup1\n  bytecodeSize\n  dup4\n  codecopy\n  dup2\n  dup2\n  add\n  0x40\n  mstore\n  dup2\n  add\n  swap1\n  tag_2\n  swap2\n  swap1\n  tag_3\n  jump\t// in\ntag_2:\n    /* \"security/Vault/Vault.sol\":191:195  true */\n  0x01\n    /* \"security/Vault/Vault.sol\":182:188  locked */\n  0x00\n  0x00\n    /* \"security/Vault/Vault.sol\":182:195  locked = true */\n  0x0100\n  exp\n  dup2\n  sload\n  dup2\n  0xff\n  mul\n  not\n  and\n  swap1\n  dup4\n  iszero\n  iszero\n  mul\n  or\n  swap1\n  sstore\n  pop\n    /* \"security/Vault/Vault.sol\":217:226  _password */\n  dup1\n    /* \"security/Vault/Vault.sol\":206:214  password */\n  0x01\n    /* \"security/Vault/Vault.sol\":206:226  password = _password */\n  dup2\n  swap1\n  sstore\n  pop\n    /* \"security/Vault/Vault.sol\":140:234  constructor(bytes32 _password) {... */\n  pop\n    /* \"security/Vault/Vault.sol\":60:373  contract Vault {... */\n  jump(tag_6)\n    /* \"#utility.yul\":88:205   */\ntag_8:\n    /* \"#utility.yul\":197:198   */\n  0x00\n    /* \"#utility.yul\":194:195   */\n  0x00\n    /* \"#utility.yul\":187:199   */\n  revert\n    /* \"#utility.yul\":334:411   */\ntag_10:\n    /* \"#utility.yul\":371:378   */\n  0x00\n    /* \"#utility.yul\":400:405   */\n  dup2\n    /* \"#utility.yul\":389:405   */\n  swap1\n  pop\n    /* \"#utility.yul\":334:411   */\n  swap2\n  swap1\n  pop\n  jump\t// out\n    /* \"#utility.yul\":417:539   */\ntag_11:\n    /* \"#utility.yul\":490:514   */\n  tag_19\n    /* \"#utility.yul\":508:513   */\n  dup2\n    /* \"#utility.yul\":490:514   */\n  tag_10\n  jump\t// in\ntag_19:\n    /* \"#utility.yul\":483:488   */\n  dup2\n    /* \"#utility.yul\":480:515   */\n  eq\n    /* \"#utility.yul\":470:533   */\n  tag_20\n  jumpi\n    /* \"#utility.yul\":529:530   */\n  0x00\n    /* \"#utility.yul\":526:527   */\n  0x00\n    /* \"#utility.yul\":519:531   */\n  revert\n    /* \"#utility.yul\":470:533   */\ntag_20:\n    /* \"#utility.yul\":417:539   */\n  pop\n  jump\t// out\n    /* \"#utility.yul\":545:688   */\ntag_12:\n    /* \"#utility.yul\":602:607   */\n  0x00\n    /* \"#utility.yul\":633:639   */\n  dup2\n    /* \"#utility.yul\":627:640   */\n  mload\n    /* \"#utility.yul\":618:640   */\n  swap1\n  pop\n    /* \"#utility.yul\":649:682   */\n  tag_22\n    /* \"#utility.yul\":676:681   */\n  dup2\n    /* \"#utility.yul\":649:682   */\n  tag_11\n  jump\t// in\ntag_22:\n    /* \"#utility.yul\":545:688   */\n  swap3\n  swap2\n  pop\n  pop\n  jump\t// out\n    /* \"#utility.yul\":694:1045   */\ntag_3:\n    /* \"#utility.yul\":764:770   */\n  0x00\n    /* \"#utility.yul\":813:815   */\n  0x20\n    /* \"#utility.yul\":801:810   */\n  dup3\n    /* \"#utility.yul\":792:799   */\n  dup5\n    /* \"#utility.yul\":788:811   */\n  sub\n    /* \"#utility.yul\":784:816   */\n  slt\n    /* \"#utility.yul\":781:900   */\n  iszero\n  tag_24\n  jumpi\n    /* \"#utility.yul\":819:898   */\n  tag_25\n  tag_8\n  jump\t// in\ntag_25:\n    /* \"#utility.yul\":781:900   */\ntag_24:\n    /* \"#utility.yul\":939:940   */\n  0x00\n    /* \"#utility.yul\":964:1028   */\n  tag_26\n    /* \"#utility.yul\":1020:1027   */\n  dup5\n    /* \"#utility.yul\":1011:1017   */\n  dup3\n    /* \"#utility.yul\":1000:1009   */\n  dup6\n    /* \"#utility.yul\":996:1018   */\n  add\n    /* \"#utility.yul\":964:1028   */\n  tag_12\n  jump\t// in\ntag_26:\n    /* \"#utility.yul\":954:1028   */\n  swap2\n  pop\n    /* \"#utility.yul\":910:1038   */\n  pop\n    /* \"#utility.yul\":694:1045   */\n  swap3\n  swap2\n  pop\n  pop\n  jump\t// out\n    /* \"security/Vault/Vault.sol\":60:373  contract Vault {... */\ntag_6:\n  dataSize(sub_0)\n  dup1\n  dataOffset(sub_0)\n  0x00\n  codecopy\n  0x00\n  return\nstop\n\nsub_0: assembly {\n        /* \"security/Vault/Vault.sol\":60:373  contract Vault {... */\n      mstore(0x40, 0x80)\n      callvalue\n      dup1\n      iszero\n      tag_1\n      jumpi\n      revert(0x00, 0x00)\n    tag_1:\n      pop\n      jumpi(tag_2, lt(calldatasize, 0x04))\n      shr(0xe0, calldataload(0x00))\n      dup1\n      0xcf309012\n      eq\n      tag_3\n      jumpi\n      dup1\n      0xec9b5b3a\n      eq\n      tag_4\n      jumpi\n    tag_2:\n      revert(0x00, 0x00)\n        /* \"security/Vault/Vault.sol\":82:100  bool public locked */\n    tag_3:\n      tag_5\n      tag_6\n      jump\t// in\n    tag_5:\n      mload(0x40)\n      tag_7\n      swap2\n      swap1\n      tag_8\n      jump\t// in\n    tag_7:\n      mload(0x40)\n      dup1\n      swap2\n      sub\n      swap1\n      return\n        /* \"security/Vault/Vault.sol\":242:370  function unlock(bytes32 _password) public {... */\n    tag_4:\n      tag_9\n      0x04\n      dup1\n      calldatasize\n      sub\n      dup2\n      add\n      swap1\n      tag_10\n      swap2\n      swap1\n      tag_11\n      jump\t// in\n    tag_10:\n      tag_12\n      jump\t// in\n    tag_9:\n      stop\n        /* \"security/Vault/Vault.sol\":82:100  bool public locked */\n    tag_6:\n      0x00\n      0x00\n      swap1\n      sload\n      swap1\n      0x0100\n      exp\n      swap1\n      div\n      0xff\n      and\n      dup2\n      jump\t// out\n        /* \"security/Vault/Vault.sol\":242:370  function unlock(bytes32 _password) public {... */\n    tag_12:\n        /* \"security/Vault/Vault.sol\":311:320  _password */\n      dup1\n        /* \"security/Vault/Vault.sol\":299:307  password */\n      sload(0x01)\n        /* \"security/Vault/Vault.sol\":299:320  password == _password */\n      sub\n        /* \"security/Vault/Vault.sol\":295:363  if (password == _password) {... */\n      tag_14\n      jumpi\n        /* \"security/Vault/Vault.sol\":346:351  false */\n      0x00\n        /* \"security/Vault/Vault.sol\":337:343  locked */\n      0x00\n      0x00\n        /* \"security/Vault/Vault.sol\":337:351  locked = false */\n      0x0100\n      exp\n      dup2\n      sload\n      dup2\n      0xff\n      mul\n      not\n      and\n      swap1\n      dup4\n      iszero\n      iszero\n      mul\n      or\n      swap1\n      sstore\n      pop\n        /* \"security/Vault/Vault.sol\":295:363  if (password == _password) {... */\n    tag_14:\n        /* \"security/Vault/Vault.sol\":242:370  function unlock(bytes32 _password) public {... */\n      pop\n      jump\t// out\n        /* \"#utility.yul\":7:97   */\n    tag_15:\n        /* \"#utility.yul\":41:48   */\n      0x00\n        /* \"#utility.yul\":84:89   */\n      dup2\n        /* \"#utility.yul\":77:90   */\n      iszero\n        /* \"#utility.yul\":70:91   */\n      iszero\n        /* \"#utility.yul\":59:91   */\n      swap1\n      pop\n        /* \"#utility.yul\":7:97   */\n      swap2\n      swap1\n      pop\n      jump\t// out\n        /* \"#utility.yul\":103:212   */\n    tag_16:\n        /* \"#utility.yul\":184:205   */\n      tag_26\n        /* \"#utility.yul\":199:204   */\n      dup2\n        /* \"#utility.yul\":184:205   */\n      tag_15\n      jump\t// in\n    tag_26:\n        /* \"#utility.yul\":179:182   */\n      dup3\n        /* \"#utility.yul\":172:206   */\n      mstore\n        /* \"#utility.yul\":103:212   */\n      pop\n      pop\n      jump\t// out\n        /* \"#utility.yul\":218:428   */\n    tag_8:\n        /* \"#utility.yul\":305:309   */\n      0x00\n        /* \"#utility.yul\":343:345   */\n      0x20\n        /* \"#utility.yul\":332:341   */\n      dup3\n        /* \"#utility.yul\":328:346   */\n      add\n        /* \"#utility.yul\":320:346   */\n      swap1\n      pop\n        /* \"#utility.yul\":356:421   */\n      tag_28\n        /* \"#utility.yul\":418:419   */\n      0x00\n        /* \"#utility.yul\":407:416   */\n      dup4\n        /* \"#utility.yul\":403:420   */\n      add\n        /* \"#utility.yul\":394:400   */\n      dup5\n        /* \"#utility.yul\":356:421   */\n      tag_16\n      jump\t// in\n    tag_28:\n        /* \"#utility.yul\":218:428   */\n      swap3\n      swap2\n      pop\n      pop\n      jump\t// out\n        /* \"#utility.yul\":515:632   */\n    tag_18:\n        /* \"#utility.yul\":624:625   */\n      0x00\n        /* \"#utility.yul\":621:622   */\n      0x00\n        /* \"#utility.yul\":614:626   */\n      revert\n        /* \"#utility.yul\":761:838   */\n    tag_20:\n        /* \"#utility.yul\":798:805   */\n      0x00\n        /* \"#utility.yul\":827:832   */\n      dup2\n        /* \"#utility.yul\":816:832   */\n      swap1\n      pop\n        /* \"#utility.yul\":761:838   */\n      swap2\n      swap1\n      pop\n      jump\t// out\n        /* \"#utility.yul\":844:966   */\n    tag_21:\n        /* \"#utility.yul\":917:941   */\n      tag_34\n        /* \"#utility.yul\":935:940   */\n      dup2\n        /* \"#utility.yul\":917:941   */\n      tag_20\n      jump\t// in\n    tag_34:\n        /* \"#utility.yul\":910:915   */\n      dup2\n        /* \"#utility.yul\":907:942   */\n      eq\n        /* \"#utility.yul\":897:960   */\n      tag_35\n      jumpi\n        /* \"#utility.yul\":956:957   */\n      0x00\n        /* \"#utility.yul\":953:954   */\n      0x00\n        /* \"#utility.yul\":946:958   */\n      revert\n        /* \"#utility.yul\":897:960   */\n    tag_35:\n        /* \"#utility.yul\":844:966   */\n      pop\n      jump\t// out\n        /* \"#utility.yul\":972:1111   */\n    tag_22:\n        /* \"#utility.yul\":1018:1023   */\n      0x00\n        /* \"#utility.yul\":1056:1062   */\n      dup2\n        /* \"#utility.yul\":1043:1063   */\n      calldataload\n        /* \"#utility.yul\":1034:1063   */\n      swap1\n      pop\n        /* \"#utility.yul\":1072:1105   */\n      tag_37\n        /* \"#utility.yul\":1099:1104   */\n      dup2\n        /* \"#utility.yul\":1072:1105   */\n      tag_21\n      jump\t// in\n    tag_37:\n        /* \"#utility.yul\":972:1111   */\n      swap3\n      swap2\n      pop\n      pop\n      jump\t// out\n        /* \"#utility.yul\":1117:1446   */\n    tag_11:\n        /* \"#utility.yul\":1176:1182   */\n      0x00\n        /* \"#utility.yul\":1225:1227   */\n      0x20\n        /* \"#utility.yul\":1213:1222   */\n      dup3\n        /* \"#utility.yul\":1204:1211   */\n      dup5\n        /* \"#utility.yul\":1200:1223   */\n      sub\n        /* \"#utility.yul\":1196:1228   */\n      slt\n        /* \"#utility.yul\":1193:1312   */\n      iszero\n      tag_39\n      jumpi\n        /* \"#utility.yul\":1231:1310   */\n      tag_40\n      tag_18\n      jump\t// in\n    tag_40:\n        /* \"#utility.yul\":1193:1312   */\n    tag_39:\n        /* \"#utility.yul\":1351:1352   */\n      0x00\n        /* \"#utility.yul\":1376:1429   */\n      tag_41\n        /* \"#utility.yul\":1421:1428   */\n      dup5\n        /* \"#utility.yul\":1412:1418   */\n      dup3\n        /* \"#utility.yul\":1401:1410   */\n      dup6\n        /* \"#utility.yul\":1397:1419   */\n      add\n        /* \"#utility.yul\":1376:1429   */\n      tag_22\n      jump\t// in\n    tag_41:\n        /* \"#utility.yul\":1366:1429   */\n      swap2\n      pop\n        /* \"#utility.yul\":1322:1439   */\n      pop\n        /* \"#utility.yul\":1117:1446   */\n      swap3\n      swap2\n      pop\n      pop\n      jump\t// out\n\n    auxdata: 0xa2646970667358221220cd901209b8fdf6435b92295caf60bbe1eed979ec73886c10c5d3805447bc5d3464736f6c634300081e0033\n}\n",
				"bytecode": {
					"linkReferences": {},
					"object": "6080604052348015600e575f5ffd5b5060405161022b38038061022b8339818101604052810190602e91906085565b60015f5f6101000a81548160ff021916908315150217905550806001819055505060ab565b5f5ffd5b5f819050919050565b6067816057565b81146070575f5ffd5b50565b5f81519050607f816060565b92915050565b5f6020828403121560975760966053565b5b5f60a2848285016073565b91505092915050565b610173806100b85f395ff3fe608060405234801561000f575f5ffd5b5060043610610034575f3560e01c8063cf30901214610038578063ec9b5b3a14610056575b5f5ffd5b610040610072565b60405161004d91906100c2565b60405180910390f35b610070600480360381019061006b9190610112565b610083565b005b5f5f9054906101000a900460ff1681565b80600154036100a5575f5f5f6101000a81548160ff0219169083151502179055505b50565b5f8115159050919050565b6100bc816100a8565b82525050565b5f6020820190506100d55f8301846100b3565b92915050565b5f5ffd5b5f819050919050565b6100f1816100df565b81146100fb575f5ffd5b50565b5f8135905061010c816100e8565b92915050565b5f60208284031215610127576101266100db565b5b5f610134848285016100fe565b9150509291505056fea2646970667358221220cd901209b8fdf6435b92295caf60bbe1eed979ec73886c10c5d3805447bc5d3464736f6c634300081e0033",
					"opcodes": "PUSH1 0x80 PUSH1 0x40 MSTORE CALLVALUE DUP1 ISZERO PUSH1 0xE JUMPI PUSH0 PUSH0 REVERT JUMPDEST POP PUSH1 0x40 MLOAD PUSH2 0x22B CODESIZE SUB DUP1 PUSH2 0x22B DUP4 CODECOPY DUP2 DUP2 ADD PUSH1 0x40 MSTORE DUP2 ADD SWAP1 PUSH1 0x2E SWAP2 SWAP1 PUSH1 0x85 JUMP JUMPDEST PUSH1 0x1 PUSH0 PUSH0 PUSH2 0x100 EXP DUP2 SLOAD DUP2 PUSH1 0xFF MUL NOT AND SWAP1 DUP4 ISZERO ISZERO MUL OR SWAP1 SSTORE POP DUP1 PUSH1 0x1 DUP2 SWAP1 SSTORE POP POP PUSH1 0xAB JUMP JUMPDEST PUSH0 PUSH0 REVERT JUMPDEST PUSH0 DUP2 SWAP1 POP SWAP2 SWAP1 POP JUMP JUMPDEST PUSH1 0x67 DUP2 PUSH1 0x57 JUMP JUMPDEST DUP2 EQ PUSH1 0x70 JUMPI PUSH0 PUSH0 REVERT JUMPDEST POP JUMP JUMPDEST PUSH0 DUP2 MLOAD SWAP1 POP PUSH1 0x7F DUP2 PUSH1 0x60 JUMP JUMPDEST SWAP3 SWAP2 POP POP JUMP JUMPDEST PUSH0 PUSH1 0x20 DUP3 DUP5 SUB SLT ISZERO PUSH1 0x97 JUMPI PUSH1 0x96 PUSH1 0x53 JUMP JUMPDEST JUMPDEST PUSH0 PUSH1 0xA2 DUP5 DUP3 DUP6 ADD PUSH1 0x73 JUMP JUMPDEST SWAP2 POP POP SWAP3 SWAP2 POP POP JUMP JUMPDEST PUSH2 0x173 DUP1 PUSH2 0xB8 PUSH0 CODECOPY PUSH0 RETURN INVALID PUSH1 0x80 PUSH1 0x40 MSTORE CALLVALUE DUP1 ISZERO PUSH2 0xF JUMPI PUSH0 PUSH0 REVERT JUMPDEST POP PUSH1 0x4 CALLDATASIZE LT PUSH2 0x34 JUMPI PUSH0 CALLDATALOAD PUSH1 0xE0 SHR DUP1 PUSH4 0xCF309012 EQ PUSH2 0x38 JUMPI DUP1 PUSH4 0xEC9B5B3A EQ PUSH2 0x56 JUMPI JUMPDEST PUSH0 PUSH0 REVERT JUMPDEST PUSH2 0x40 PUSH2 0x72 JUMP JUMPDEST PUSH1 0x40 MLOAD PUSH2 0x4D SWAP2 SWAP1 PUSH2 0xC2 JUMP JUMPDEST PUSH1 0x40 MLOAD DUP1 SWAP2 SUB SWAP1 RETURN JUMPDEST PUSH2 0x70 PUSH1 0x4 DUP1 CALLDATASIZE SUB DUP2 ADD SWAP1 PUSH2 0x6B SWAP2 SWAP1 PUSH2 0x112 JUMP JUMPDEST PUSH2 0x83 JUMP JUMPDEST STOP JUMPDEST PUSH0 PUSH0 SWAP1 SLOAD SWAP1 PUSH2 0x100 EXP SWAP1 DIV PUSH1 0xFF AND DUP2 JUMP JUMPDEST DUP1 PUSH1 0x1 SLOAD SUB PUSH2 0xA5 JUMPI PUSH0 PUSH0 PUSH0 PUSH2 0x100 EXP DUP2 SLOAD DUP2 PUSH1 0xFF MUL NOT AND SWAP1 DUP4 ISZERO ISZERO MUL OR SWAP1 SSTORE POP JUMPDEST POP JUMP JUMPDEST PUSH0 DUP2 ISZERO ISZERO SWAP1 POP SWAP2 SWAP1 POP JUMP JUMPDEST PUSH2 0xBC DUP2 PUSH2 0xA8 JUMP JUMPDEST DUP3 MSTORE POP POP JUMP JUMPDEST PUSH0 PUSH1 0x20 DUP3 ADD SWAP1 POP PUSH2 0xD5 PUSH0 DUP4 ADD DUP5 PUSH2 0xB3 JUMP JUMPDEST SWAP3 SWAP2 POP POP JUMP JUMPDEST PUSH0 PUSH0 REVERT JUMPDEST PUSH0 DUP2 SWAP1 POP SWAP2 SWAP1 POP JUMP JUMPDEST PUSH2 0xF1 DUP2 PUSH2 0xDF JUMP JUMPDEST DUP2 EQ PUSH2 0xFB JUMPI PUSH0 PUSH0 REVERT JUMPDEST POP JUMP JUMPDEST PUSH0 DUP2 CALLDATALOAD SWAP1 POP PUSH2 0x10C DUP2 PUSH2 0xE8 JUMP JUMPDEST SWAP3 SWAP2 POP POP JUMP JUMPDEST PUSH0 PUSH1 0x20 DUP3 DUP5 SUB SLT ISZERO PUSH2 0x127 JUMPI PUSH2 0x126 PUSH2 0xDB JUMP JUMPDEST JUMPDEST PUSH0 PUSH2 0x134 DUP5 DUP3 DUP6 ADD PUSH2 0xFE JUMP JUMPDEST SWAP2 POP POP SWAP3 SWAP2 POP POP JUMP INVALID LOG2 PUSH5 0x6970667358 0x22 SLT KECCAK256 0xCD SWAP1 SLT MULMOD 0xB8 REVERT 0xF6 NUMBER JUMPDEST SWAP3 0x29 TLOAD 0xAF PUSH1 0xBB RJUMPI 0xEED9 PUSH26 0xEC73886C10C5D3805447BC5D3464736F6C634300081E00330000 "
				},
				"gasEstimates": {
					"creation": {
						"codeDepositCost": "74200",
						"executionCost": "infinite",
						"totalCost": "infinite"
					},
					"external": {
						"locked()": "2443",
						"unlock(bytes32)": "26788"
					}
				},
				"methodIdentifiers": {
					"locked()": "cf309012",
					"unlock(bytes32)": "ec9b5b3a"
				}
			},
			"storageLayout": {
				"storage": [
					{
						"astId": 3,
						"contract": "security/Vault/Vault.sol:Vault",
						"label": "locked",
						"offset": 0,
						"slot": "0",
						"type": "t_bool"
					},
					{
						"astId": 5,
						"contract": "security/Vault/Vault.sol:Vault",
						"label": "password",
						"offset": 0,
						"slot": "1",
						"type": "t_bytes32"
					}
				],
				"types": {
					"t_bool": {
						"encoding": "inplace",
						"label": "bool",
						"numberOfBytes": "1"
					},
					"t_bytes32": {
						"encoding": "inplace",
						"label": "bytes32",
						"numberOfBytes": "32"
					}
				}
			},
			"userdoc": {
				"kind": "user",
				"methods": {},
				"version": 1
			}
		}
	}
}