{
	"security/Vault/Vault.sol": {
		"Hack": {
			"abi": [
				{
					"inputs": [],
					"name": "attack",
					"outputs": [],
					"stateMutability": "nonpayable",
					"type": "function"
				},
				{
					"inputs": [],
					"name": "getStatus",
					"outputs": [
						{
							"internalType": "bool",
							"name": "",
							"type": "bool"
						}
					],
					"stateMutability": "view",
					"type": "function"
				}
			],
			"devdoc": {
				"kind": "dev",
				"methods": {},
				"version": 1
			},
			"evm": {
				"assembly": "    /* \"security/Vault/Vault.sol\":377:706  contract Hack{... */\n  mstore(0x40, 0x80)\n    /* \"security/Vault/Vault.sol\":414:456  0x2e3f11CB1814734dd719954560ab011Ae5a00108 */\n  0x2e3f11cb1814734dd719954560ab011ae5a00108\n    /* \"security/Vault/Vault.sol\":397:456  address target = 0x2e3f11CB1814734dd719954560ab011Ae5a00108 */\n  0x00\n  exp(0x0100, 0x00)\n  dup2\n  sload\n  dup2\n  0xffffffffffffffffffffffffffffffffffffffff\n  mul\n  not\n  and\n  swap1\n  dup4\n  0xffffffffffffffffffffffffffffffffffffffff\n  and\n  mul\n  or\n  swap1\n  sstore\n  pop\n    /* \"security/Vault/Vault.sol\":480:486  target */\n  0x00\n  0x00\n  swap1\n  sload\n  swap1\n  0x0100\n  exp\n  swap1\n  div\n  0xffffffffffffffffffffffffffffffffffffffff\n  and\n    /* \"security/Vault/Vault.sol\":463:487  Vault vt = Vault(target) */\n  0x01\n  exp(0x0100, 0x00)\n  dup2\n  sload\n  dup2\n  0xffffffffffffffffffffffffffffffffffffffff\n  mul\n  not\n  and\n  swap1\n  dup4\n  0xffffffffffffffffffffffffffffffffffffffff\n  and\n  mul\n  or\n  swap1\n  sstore\n  pop\n    /* \"security/Vault/Vault.sol\":377:706  contract Hack{... */\n  callvalue\n  dup1\n  iszero\n  tag_1\n  jumpi\n  revert(0x00, 0x00)\ntag_1:\n  pop\n  dataSize(sub_0)\n  dup1\n  dataOffset(sub_0)\n  0x00\n  codecopy\n  0x00\n  return\nstop\n\nsub_0: assembly {\n        /* \"security/Vault/Vault.sol\":377:706  contract Hack{... */\n      mstore(0x40, 0x80)\n      callvalue\n      dup1\n      iszero\n      tag_1\n      jumpi\n      revert(0x00, 0x00)\n    tag_1:\n      pop\n      jumpi(tag_2, lt(calldatasize, 0x04))\n      shr(0xe0, calldataload(0x00))\n      dup1\n      0x4e69d560\n      eq\n      tag_3\n      jumpi\n      dup1\n      0x9e5faafc\n      eq\n      tag_4\n      jumpi\n    tag_2:\n      revert(0x00, 0x00)\n        /* \"security/Vault/Vault.sol\":620:703  function getStatus() public view returns(bool){... */\n    tag_3:\n      tag_5\n      tag_6\n      jump\t// in\n    tag_5:\n      mload(0x40)\n      tag_7\n      swap2\n      swap1\n      tag_8\n      jump\t// in\n    tag_7:\n      mload(0x40)\n      dup1\n      swap2\n      sub\n      swap1\n      return\n        /* \"security/Vault/Vault.sol\":494:614  function attack() public{... */\n    tag_4:\n      tag_9\n      tag_10\n      jump\t// in\n    tag_9:\n      stop\n        /* \"security/Vault/Vault.sol\":620:703  function getStatus() public view returns(bool){... */\n    tag_6:\n        /* \"security/Vault/Vault.sol\":661:665  bool */\n      0x00\n        /* \"security/Vault/Vault.sol\":684:686  vt */\n      0x01\n      0x00\n      swap1\n      sload\n      swap1\n      0x0100\n      exp\n      swap1\n      div\n      0xffffffffffffffffffffffffffffffffffffffff\n      and\n        /* \"security/Vault/Vault.sol\":684:693  vt.locked */\n      0xffffffffffffffffffffffffffffffffffffffff\n      and\n      0xcf309012\n        /* \"security/Vault/Vault.sol\":684:695  vt.locked() */\n      mload(0x40)\n      dup2\n      0xffffffff\n      and\n      0xe0\n      shl\n      dup2\n      mstore\n      0x04\n      add\n      0x20\n      mload(0x40)\n      dup1\n      dup4\n      sub\n      dup2\n      dup7\n      gas\n      staticcall\n      iszero\n      dup1\n      iszero\n      tag_13\n      jumpi\n      returndatacopy(0x00, 0x00, returndatasize)\n      revert(0x00, returndatasize)\n    tag_13:\n      pop\n      pop\n      pop\n      pop\n      mload(0x40)\n      returndatasize\n      not(0x1f)\n      0x1f\n      dup3\n      add\n      and\n      dup3\n      add\n      dup1\n      0x40\n      mstore\n      pop\n      dup2\n      add\n      swap1\n      tag_14\n      swap2\n      swap1\n      tag_15\n      jump\t// in\n    tag_14:\n        /* \"security/Vault/Vault.sol\":677:695  return vt.locked() */\n      swap1\n      pop\n        /* \"security/Vault/Vault.sol\":620:703  function getStatus() public view returns(bool){... */\n      swap1\n      jump\t// out\n        /* \"security/Vault/Vault.sol\":494:614  function attack() public{... */\n    tag_10:\n        /* \"security/Vault/Vault.sol\":529:531  vt */\n      0x01\n      0x00\n      swap1\n      sload\n      swap1\n      0x0100\n      exp\n      swap1\n      div\n      0xffffffffffffffffffffffffffffffffffffffff\n      and\n        /* \"security/Vault/Vault.sol\":529:538  vt.unlock */\n      0xffffffffffffffffffffffffffffffffffffffff\n      and\n      0xec9b5b3a\n        /* \"security/Vault/Vault.sol\":539:605  0x412076657279207374726f6e67207365637265742070617373776f7264203a29 */\n      0x412076657279207374726f6e67207365637265742070617373776f7264203a29\n        /* \"security/Vault/Vault.sol\":529:606  vt.unlock(0x412076657279207374726f6e67207365637265742070617373776f7264203a29) */\n      mload(0x40)\n      dup3\n      0xffffffff\n      and\n      0xe0\n      shl\n      dup2\n      mstore\n      0x04\n      add\n      tag_17\n      swap2\n      swap1\n      tag_18\n      jump\t// in\n    tag_17:\n      0x00\n      mload(0x40)\n      dup1\n      dup4\n      sub\n      dup2\n      0x00\n      dup8\n      dup1\n      extcodesize\n      iszero\n      dup1\n      iszero\n      tag_19\n      jumpi\n      revert(0x00, 0x00)\n    tag_19:\n      pop\n      gas\n      call\n      iszero\n      dup1\n      iszero\n      tag_21\n      jumpi\n      returndatacopy(0x00, 0x00, returndatasize)\n      revert(0x00, returndatasize)\n    tag_21:\n      pop\n      pop\n      pop\n      pop\n        /* \"security/Vault/Vault.sol\":494:614  function attack() public{... */\n      jump\t// out\n        /* \"#utility.yul\":7:97   */\n    tag_22:\n        /* \"#utility.yul\":41:48   */\n      0x00\n        /* \"#utility.yul\":84:89   */\n      dup2\n        /* \"#utility.yul\":77:90   */\n      iszero\n        /* \"#utility.yul\":70:91   */\n      iszero\n        /* \"#utility.yul\":59:91   */\n      swap1\n      pop\n        /* \"#utility.yul\":7:97   */\n      swap2\n      swap1\n      pop\n      jump\t// out\n        /* \"#utility.yul\":103:212   */\n    tag_23:\n        /* \"#utility.yul\":184:205   */\n      tag_37\n        /* \"#utility.yul\":199:204   */\n      dup2\n        /* \"#utility.yul\":184:205   */\n      tag_22\n      jump\t// in\n    tag_37:\n        /* \"#utility.yul\":179:182   */\n      dup3\n        /* \"#utility.yul\":172:206   */\n      mstore\n        /* \"#utility.yul\":103:212   */\n      pop\n      pop\n      jump\t// out\n        /* \"#utility.yul\":218:428   */\n    tag_8:\n        /* \"#utility.yul\":305:309   */\n      0x00\n        /* \"#utility.yul\":343:345   */\n      0x20\n        /* \"#utility.yul\":332:341   */\n      dup3\n        /* \"#utility.yul\":328:346   */\n      add\n        /* \"#utility.yul\":320:346   */\n      swap1\n      pop\n        /* \"#utility.yul\":356:421   */\n      tag_39\n        /* \"#utility.yul\":418:419   */\n      0x00\n        /* \"#utility.yul\":407:416   */\n      dup4\n        /* \"#utility.yul\":403:420   */\n      add\n        /* \"#utility.yul\":394:400   */\n      dup5\n        /* \"#utility.yul\":356:421   */\n      tag_23\n      jump\t// in\n    tag_39:\n        /* \"#utility.yul\":218:428   */\n      swap3\n      swap2\n      pop\n      pop\n      jump\t// out\n        /* \"#utility.yul\":515:632   */\n    tag_25:\n        /* \"#utility.yul\":624:625   */\n      0x00\n        /* \"#utility.yul\":621:622   */\n      0x00\n        /* \"#utility.yul\":614:626   */\n      revert\n        /* \"#utility.yul\":761:877   */\n    tag_27:\n        /* \"#utility.yul\":831:852   */\n      tag_44\n        /* \"#utility.yul\":846:851   */\n      dup2\n        /* \"#utility.yul\":831:852   */\n      tag_22\n      jump\t// in\n    tag_44:\n        /* \"#utility.yul\":824:829   */\n      dup2\n        /* \"#utility.yul\":821:853   */\n      eq\n        /* \"#utility.yul\":811:871   */\n      tag_45\n      jumpi\n        /* \"#utility.yul\":867:868   */\n      0x00\n        /* \"#utility.yul\":864:865   */\n      0x00\n        /* \"#utility.yul\":857:869   */\n      revert\n        /* \"#utility.yul\":811:871   */\n    tag_45:\n        /* \"#utility.yul\":761:877   */\n      pop\n      jump\t// out\n        /* \"#utility.yul\":883:1020   */\n    tag_28:\n        /* \"#utility.yul\":937:942   */\n      0x00\n        /* \"#utility.yul\":968:974   */\n      dup2\n        /* \"#utility.yul\":962:975   */\n      mload\n        /* \"#utility.yul\":953:975   */\n      swap1\n      pop\n        /* \"#utility.yul\":984:1014   */\n      tag_47\n        /* \"#utility.yul\":1008:1013   */\n      dup2\n        /* \"#utility.yul\":984:1014   */\n      tag_27\n      jump\t// in\n    tag_47:\n        /* \"#utility.yul\":883:1020   */\n      swap3\n      swap2\n      pop\n      pop\n      jump\t// out\n        /* \"#utility.yul\":1026:1371   */\n    tag_15:\n        /* \"#utility.yul\":1093:1099   */\n      0x00\n        /* \"#utility.yul\":1142:1144   */\n      0x20\n        /* \"#utility.yul\":1130:1139   */\n      dup3\n        /* \"#utility.yul\":1121:1128   */\n      dup5\n        /* \"#utility.yul\":1117:1140   */\n      sub\n        /* \"#utility.yul\":1113:1145   */\n      slt\n        /* \"#utility.yul\":1110:1229   */\n      iszero\n      tag_49\n      jumpi\n        /* \"#utility.yul\":1148:1227   */\n      tag_50\n      tag_25\n      jump\t// in\n    tag_50:\n        /* \"#utility.yul\":1110:1229   */\n    tag_49:\n        /* \"#utility.yul\":1268:1269   */\n      0x00\n        /* \"#utility.yul\":1293:1354   */\n      tag_51\n        /* \"#utility.yul\":1346:1353   */\n      dup5\n        /* \"#utility.yul\":1337:1343   */\n      dup3\n        /* \"#utility.yul\":1326:1335   */\n      dup6\n        /* \"#utility.yul\":1322:1344   */\n      add\n        /* \"#utility.yul\":1293:1354   */\n      tag_28\n      jump\t// in\n    tag_51:\n        /* \"#utility.yul\":1283:1354   */\n      swap2\n      pop\n        /* \"#utility.yul\":1239:1364   */\n      pop\n        /* \"#utility.yul\":1026:1371   */\n      swap3\n      swap2\n      pop\n      pop\n      jump\t// out\n        /* \"#utility.yul\":1377:1538   */\n    tag_29:\n        /* \"#utility.yul\":1498:1505   */\n      0x00\n        /* \"#utility.yul\":1527:1532   */\n      dup2\n        /* \"#utility.yul\":1516:1532   */\n      swap1\n      pop\n        /* \"#utility.yul\":1377:1538   */\n      swap2\n      swap1\n      pop\n      jump\t// out\n        /* \"#utility.yul\":1544:1621   */\n    tag_30:\n        /* \"#utility.yul\":1581:1588   */\n      0x00\n        /* \"#utility.yul\":1610:1615   */\n      dup2\n        /* \"#utility.yul\":1599:1615   */\n      swap1\n      pop\n        /* \"#utility.yul\":1544:1621   */\n      swap2\n      swap1\n      pop\n      jump\t// out\n        /* \"#utility.yul\":1627:1719   */\n    tag_31:\n        /* \"#utility.yul\":1659:1667   */\n      0x00\n        /* \"#utility.yul\":1706:1711   */\n      dup2\n        /* \"#utility.yul\":1703:1704   */\n      0x00\n        /* \"#utility.yul\":1699:1712   */\n      shl\n        /* \"#utility.yul\":1678:1712   */\n      swap1\n      pop\n        /* \"#utility.yul\":1627:1719   */\n      swap2\n      swap1\n      pop\n      jump\t// out\n        /* \"#utility.yul\":1725:2039   */\n    tag_32:\n        /* \"#utility.yul\":1859:1868   */\n      0x00\n        /* \"#utility.yul\":1892:2033   */\n      tag_56\n        /* \"#utility.yul\":1910:2032   */\n      tag_57\n        /* \"#utility.yul\":1923:2031   */\n      tag_58\n        /* \"#utility.yul\":2025:2030   */\n      dup5\n        /* \"#utility.yul\":1923:2031   */\n      tag_29\n      jump\t// in\n    tag_58:\n        /* \"#utility.yul\":1910:2032   */\n      tag_31\n      jump\t// in\n    tag_57:\n        /* \"#utility.yul\":1892:2033   */\n      tag_30\n      jump\t// in\n    tag_56:\n        /* \"#utility.yul\":1879:2033   */\n      swap1\n      pop\n        /* \"#utility.yul\":1725:2039   */\n      swap2\n      swap1\n      pop\n      jump\t// out\n        /* \"#utility.yul\":2045:2344   */\n    tag_33:\n        /* \"#utility.yul\":2216:2337   */\n      tag_60\n        /* \"#utility.yul\":2331:2336   */\n      dup2\n        /* \"#utility.yul\":2216:2337   */\n      tag_32\n      jump\t// in\n    tag_60:\n        /* \"#utility.yul\":2211:2214   */\n      dup3\n        /* \"#utility.yul\":2204:2338   */\n      mstore\n        /* \"#utility.yul\":2045:2344   */\n      pop\n      pop\n      jump\t// out\n        /* \"#utility.yul\":2350:2740   */\n    tag_18:\n        /* \"#utility.yul\":2527:2531   */\n      0x00\n        /* \"#utility.yul\":2565:2567   */\n      0x20\n        /* \"#utility.yul\":2554:2563   */\n      dup3\n        /* \"#utility.yul\":2550:2568   */\n      add\n        /* \"#utility.yul\":2542:2568   */\n      swap1\n      pop\n        /* \"#utility.yul\":2578:2733   */\n      tag_62\n        /* \"#utility.yul\":2730:2731   */\n      0x00\n        /* \"#utility.yul\":2719:2728   */\n      dup4\n        /* \"#utility.yul\":2715:2732   */\n      add\n        /* \"#utility.yul\":2706:2712   */\n      dup5\n        /* \"#utility.yul\":2578:2733   */\n      tag_33\n      jump\t// in\n    tag_62:\n        /* \"#utility.yul\":2350:2740   */\n      swap3\n      swap2\n      pop\n      pop\n      jump\t// out\n\n    auxdata: 0xa26469706673582212202cc8e11014117310823b0c9dcea3c8628e0b1791b36ac3de97fc18085db8f04a64736f6c634300081e0033\n}\n",
				"bytecode": {
					"linkReferences": {},
					"object": "6080604052732e3f11cb1814734dd719954560ab011ae5a001085f5f6101000a81548173ffffffffffffffffffffffffffffffffffffffff021916908373ffffffffffffffffffffffffffffffffffffffff1602179055505f5f9054906101000a900473ffffffffffffffffffffffffffffffffffffffff1660015f6101000a81548173ffffffffffffffffffffffffffffffffffffffff021916908373ffffffffffffffffffffffffffffffffffffffff16021790555034801560c1575f5ffd5b506102c5806100cf5f395ff3fe608060405234801561000f575f5ffd5b5060043610610034575f3560e01c80634e69d560146100385780639e5faafc14610056575b5f5ffd5b610040610060565b60405161004d91906101b7565b60405180910390f35b61005e6100f4565b005b5f60015f9054906101000a900473ffffffffffffffffffffffffffffffffffffffff1673ffffffffffffffffffffffffffffffffffffffff1663cf3090126040518163ffffffff1660e01b8152600401602060405180830381865afa1580156100cb573d5f5f3e3d5ffd5b505050506040513d601f19601f820116820180604052508101906100ef91906101fe565b905090565b60015f9054906101000a900473ffffffffffffffffffffffffffffffffffffffff1673ffffffffffffffffffffffffffffffffffffffff1663ec9b5b3a7f412076657279207374726f6e67207365637265742070617373776f7264203a296040518263ffffffff1660e01b815260040161016e9190610276565b5f604051808303815f87803b158015610185575f5ffd5b505af1158015610197573d5f5f3e3d5ffd5b50505050565b5f8115159050919050565b6101b18161019d565b82525050565b5f6020820190506101ca5f8301846101a8565b92915050565b5f5ffd5b6101dd8161019d565b81146101e7575f5ffd5b50565b5f815190506101f8816101d4565b92915050565b5f60208284031215610213576102126101d0565b5b5f610220848285016101ea565b91505092915050565b5f819050919050565b5f819050919050565b5f815f1b9050919050565b5f61026061025b61025684610229565b61023b565b610232565b9050919050565b61027081610246565b82525050565b5f6020820190506102895f830184610267565b9291505056fea26469706673582212202cc8e11014117310823b0c9dcea3c8628e0b1791b36ac3de97fc18085db8f04a64736f6c634300081e0033",
					"opcodes": "PUSH1 0x80 PUSH1 0x40 MSTORE PUSH20 0x2E3F11CB1814734DD719954560AB011AE5A00108 PUSH0 PUSH0 PUSH2 0x100 EXP DUP2 SLOAD DUP2 PUSH20 0xFFFFFFFFFFFFFFFFFFFFFFFFFFFFFFFFFFFFFFFF MUL NOT AND SWAP1 DUP4 PUSH20 0xFFFFFFFFFFFFFFFFFFFFFFFFFFFFFFFFFFFFFFFF AND MUL OR SWAP1 SSTORE POP PUSH0 PUSH0 SWAP1 SLOAD SWAP1 PUSH2 0x100 EXP SWAP1 DIV PUSH20 0xFFFFFFFFFFFFFFFFFFFFFFFFFFFFFFFFFFFFFFFF AND PUSH1 0x1 PUSH0 PUSH2 0x100 EXP DUP2 SLOAD DUP2 PUSH20 0xFFFFFFFFFFFFFFFFFFFFFFFFFFFFFFFFFFFFFFFF MUL NOT AND SWAP1 DUP4 PUSH20 0xFFFFFFFFFFFFFFFFFFFFFFFFFFFFFFFFFFFFFFFF AND MUL OR SWAP1 SSTORE POP CALLVALUE DUP1 ISZERO PUSH1 0xC1 JUMPI PUSH0 PUSH0 REVERT JUMPDEST POP PUSH2 0x2C5 DUP1 PUSH2 0xCF PUSH0 CODECOPY PUSH0 RETURN INVALID PUSH1 0x80 PUSH1 0x40 MSTORE CALLVALUE DUP1 ISZERO PUSH2 0xF JUMPI PUSH0 PUSH0 REVERT JUMPDEST POP PUSH1 0x4 CALLDATASIZE LT PUSH2 0x34 JUMPI PUSH0 CALLDATALOAD PUSH1 0xE0 SHR DUP1 PUSH4 0x4E69D560 EQ PUSH2 0x38 JUMPI DUP1 PUSH4 0x9E5FAAFC EQ PUSH2 0x56 JUMPI JUMPDEST PUSH0 PUSH0 REVERT JUMPDEST PUSH2 0x40 PUSH2 0x60 JUMP JUMPDEST PUSH1 0x40 MLOAD PUSH2 0x4D SWAP2 SWAP1 PUSH2 0x1B7 JUMP JUMPDEST PUSH1 0x40 MLOAD DUP1 SWAP2 SUB SWAP1 RETURN JUMPDEST PUSH2 0x5E PUSH2 0xF4 JUMP JUMPDEST STOP JUMPDEST PUSH0 PUSH1 0x1 PUSH0 SWAP1 SLOAD SWAP1 PUSH2 0x100 EXP SWAP1 DIV PUSH20 0xFFFFFFFFFFFFFFFFFFFFFFFFFFFFFFFFFFFFFFFF AND PUSH20 0xFFFFFFFFFFFFFFFFFFFFFFFFFFFFFFFFFFFFFFFF AND PUSH4 0xCF309012 PUSH1 0x40 MLOAD DUP2 PUSH4 0xFFFFFFFF AND PUSH1 0xE0 SHL DUP2 MSTORE PUSH1 0x4 ADD PUSH1 0x20 PUSH1 0x40 MLOAD DUP1 DUP4 SUB DUP2 DUP7 GAS STATICCALL ISZERO DUP1 ISZERO PUSH2 0xCB JUMPI RETURNDATASIZE PUSH0 PUSH0 RETURNDATACOPY RETURNDATASIZE PUSH0 REVERT JUMPDEST POP POP POP POP PUSH1 0x40 MLOAD RETURNDATASIZE PUSH1 0x1F NOT PUSH1 0x1F DUP3 ADD AND DUP3 ADD DUP1 PUSH1 0x40 MSTORE POP DUP2 ADD SWAP1 PUSH2 0xEF SWAP2 SWAP1 PUSH2 0x1FE JUMP JUMPDEST SWAP1 POP SWAP1 JUMP JUMPDEST PUSH1 0x1 PUSH0 SWAP1 SLOAD SWAP1 PUSH2 0x100 EXP SWAP1 DIV PUSH20 0xFFFFFFFFFFFFFFFFFFFFFFFFFFFFFFFFFFFFFFFF AND PUSH20 0xFFFFFFFFFFFFFFFFFFFFFFFFFFFFFFFFFFFFFFFF AND PUSH4 0xEC9B5B3A PUSH32 0x412076657279207374726F6E67207365637265742070617373776F7264203A29 PUSH1 0x40 MLOAD DUP3 PUSH4 0xFFFFFFFF AND PUSH1 0xE0 SHL DUP2 MSTORE PUSH1 0x4 ADD PUSH2 0x16E SWAP2 SWAP1 PUSH2 0x276 JUMP JUMPDEST PUSH0 PUSH1 0x40 MLOAD DUP1 DUP4 SUB DUP2 PUSH0 DUP8 DUP1 EXTCODESIZE ISZERO DUP1 ISZERO PUSH2 0x185 JUMPI PUSH0 PUSH0 REVERT JUMPDEST POP GAS CALL ISZERO DUP1 ISZERO PUSH2 0x197 JUMPI RETURNDATASIZE PUSH0 PUSH0 RETURNDATACOPY RETURNDATASIZE PUSH0 REVERT JUMPDEST POP POP POP POP JUMP JUMPDEST PUSH0 DUP2 ISZERO ISZERO SWAP1 POP SWAP2 SWAP1 POP JUMP JUMPDEST PUSH2 0x1B1 DUP2 PUSH2 0x19D JUMP JUMPDEST DUP3 MSTORE POP POP JUMP JUMPDEST PUSH0 PUSH1 0x20 DUP3 ADD SWAP1 POP PUSH2 0x1CA PUSH0 DUP4 ADD DUP5 PUSH2 0x1A8 JUMP JUMPDEST SWAP3 SWAP2 POP POP JUMP JUMPDEST PUSH0 PUSH0 REVERT JUMPDEST PUSH2 0x1DD DUP2 PUSH2 0x19D JUMP JUMPDEST DUP2 EQ PUSH2 0x1E7 JUMPI PUSH0 PUSH0 REVERT JUMPDEST POP JUMP JUMPDEST PUSH0 DUP2 MLOAD SWAP1 POP PUSH2 0x1F8 DUP2 PUSH2 0x1D4 JUMP JUMPDEST SWAP3 SWAP2 POP POP JUMP JUMPDEST PUSH0 PUSH1 0x20 DUP3 DUP5 SUB SLT ISZERO PUSH2 0x213 JUMPI PUSH2 0x212 PUSH2 0x1D0 JUMP JUMPDEST JUMPDEST PUSH0 PUSH2 0x220 DUP5 DUP3 DUP6 ADD PUSH2 0x1EA JUMP JUMPDEST SWAP2 POP POP SWAP3 SWAP2 POP POP JUMP JUMPDEST PUSH0 DUP2 SWAP1 POP SWAP2 SWAP1 POP JUMP JUMPDEST PUSH0 DUP2 SWAP1 POP SWAP2 SWAP1 POP JUMP JUMPDEST PUSH0 DUP2 PUSH0 SHL SWAP1 POP SWAP2 SWAP1 POP JUMP JUMPDEST PUSH0 PUSH2 0x260 PUSH2 0x25B PUSH2 0x256 DUP5 PUSH2 0x229 JUMP JUMPDEST PUSH2 0x23B JUMP JUMPDEST PUSH2 0x232 JUMP JUMPDEST SWAP1 POP SWAP2 SWAP1 POP JUMP JUMPDEST PUSH2 0x270 DUP2 PUSH2 0x246 JUMP JUMPDEST DUP3 MSTORE POP POP JUMP JUMPDEST PUSH0 PUSH1 0x20 DUP3 ADD SWAP1 POP PUSH2 0x289 PUSH0 DUP4 ADD DUP5 PUSH2 0x267 JUMP JUMPDEST SWAP3 SWAP2 POP POP JUMP INVALID LOG2 PUSH5 0x6970667358 0x22 SLT KECCAK256 0x2C 0xC8 RJUMPI 0x1014 GT PUSH20 0x10823B0C9DCEA3C8628E0B1791B36AC3DE97FC18 ADDMOD TSTORE 0xB8 CREATE BLOBBASEFEE PUSH5 0x736F6C6343 STOP ADDMOD 0x1E STOP CALLER "
				},
				"gasEstimates": {
					"creation": {
						"codeDepositCost": "141800",
						"executionCost": "50853",
						"totalCost": "192653"
					},
					"external": {
						"attack()": "infinite",
						"getStatus()": "infinite"
					}
				},
				"methodIdentifiers": {
					"attack()": "9e5faafc",
					"getStatus()": "4e69d560"
				}
			},
			"storageLayout": {
				"storage": [
					{
						"astId": 38,
						"contract": "security/Vault/Vault.sol:Hack",
						"label": "target",
						"offset": 0,
						"slot": "0",
						"type": "t_address"
					},
					{
						"astId": 44,
						"contract": "security/Vault/Vault.sol:Hack",
						"label": "vt",
						"offset": 0,
						"slot": "1",
						"type": "t_contract(Vault)35"
					}
				],
				"types": {
					"t_address": {
						"encoding": "inplace",
						"label": "address",
						"numberOfBytes": "20"
					},
					"t_contract(Vault)35": {
						"encoding": "inplace",
						"label": "contract Vault",
						"numberOfBytes": "20"
					}
				}
			},
			"userdoc": {
				"kind": "user",
				"methods": {},
				"version": 1
			}
		}
	}
}