{
	"learning/Solidity Smart Contract Development/Storage Factory/StorageFactoryList.sol": {
		"StorageFactory": {
			"abi": [
				{
					"inputs": [],
					"name": "createSimpleStorageContract",
					"outputs": [],
					"stateMutability": "nonpayable",
					"type": "function"
				},
				{
					"inputs": [
						{
							"internalType": "uint256",
							"name": "",
							"type": "uint256"
						}
					],
					"name": "listOfSimpleStorage",
					"outputs": [
						{
							"internalType": "contract SimpleStorage",
							"name": "",
							"type": "address"
						}
					],
					"stateMutability": "view",
					"type": "function"
				},
				{
					"inputs": [
						{
							"internalType": "uint256",
							"name": "__simpleStorageIndex",
							"type": "uint256"
						}
					],
					"name": "sfGet",
					"outputs": [
						{
							"internalType": "uint256",
							"name": "",
							"type": "uint256"
						}
					],
					"stateMutability": "view",
					"type": "function"
				},
				{
					"inputs": [
						{
							"internalType": "uint256",
							"name": "_simpleStorageIndex",
							"type": "uint256"
						},
						{
							"internalType": "uint256",
							"name": "_simpleStorageNumber",
							"type": "uint256"
						}
					],
					"name": "sfStore",
					"outputs": [],
					"stateMutability": "nonpayable",
					"type": "function"
				}
			],
			"devdoc": {
				"kind": "dev",
				"methods": {},
				"version": 1
			},
			"evm": {
				"assembly": "    /* \"learning/Solidity Smart Contract Development/Storage Factory/StorageFactoryList.sol\":117:774  contract StorageFactory{... */\n  mstore(0x40, 0x80)\n  callvalue\n  dup1\n  iszero\n  tag_1\n  jumpi\n  revert(0x00, 0x00)\ntag_1:\n  pop\n  dataSize(sub_0)\n  dup1\n  dataOffset(sub_0)\n  0x00\n  codecopy\n  0x00\n  return\nstop\n\nsub_0: assembly {\n        /* \"learning/Solidity Smart Contract Development/Storage Factory/StorageFactoryList.sol\":117:774  contract StorageFactory{... */\n      mstore(0x40, 0x80)\n      callvalue\n      dup1\n      iszero\n      tag_1\n      jumpi\n      revert(0x00, 0x00)\n    tag_1:\n      pop\n      jumpi(tag_2, lt(calldatasize, 0x04))\n      shr(0xe0, calldataload(0x00))\n      dup1\n      0x1563700f\n      eq\n      tag_3\n      jumpi\n      dup1\n      0x1dda6541\n      eq\n      tag_4\n      jumpi\n      dup1\n      0xa1786dbe\n      eq\n      tag_5\n      jumpi\n      dup1\n      0xc5f19c20\n      eq\n      tag_6\n      jumpi\n    tag_2:\n      revert(0x00, 0x00)\n        /* \"learning/Solidity Smart Contract Development/Storage Factory/StorageFactoryList.sol\":318:547  function sfStore(uint256 _simpleStorageIndex , uint256 _simpleStorageNumber) public {... */\n    tag_3:\n      tag_7\n      0x04\n      dup1\n      calldatasize\n      sub\n      dup2\n      add\n      swap1\n      tag_8\n      swap2\n      swap1\n      tag_9\n      jump\t// in\n    tag_8:\n      tag_10\n      jump\t// in\n    tag_7:\n      stop\n        /* \"learning/Solidity Smart Contract Development/Storage Factory/StorageFactoryList.sol\":200:310  function createSimpleStorageContract() public {... */\n    tag_4:\n      tag_11\n      tag_12\n      jump\t// in\n    tag_11:\n      stop\n        /* \"learning/Solidity Smart Contract Development/Storage Factory/StorageFactoryList.sol\":149:191  SimpleStorage[] public listOfSimpleStorage */\n    tag_5:\n      tag_13\n      0x04\n      dup1\n      calldatasize\n      sub\n      dup2\n      add\n      swap1\n      tag_14\n      swap2\n      swap1\n      tag_15\n      jump\t// in\n    tag_14:\n      tag_16\n      jump\t// in\n    tag_13:\n      mload(0x40)\n      tag_17\n      swap2\n      swap1\n      tag_18\n      jump\t// in\n    tag_17:\n      mload(0x40)\n      dup1\n      swap2\n      sub\n      swap1\n      return\n        /* \"learning/Solidity Smart Contract Development/Storage Factory/StorageFactoryList.sol\":555:765  function sfGet(uint256 __simpleStorageIndex) public view returns (uint256){... */\n    tag_6:\n      tag_19\n      0x04\n      dup1\n      calldatasize\n      sub\n      dup2\n      add\n      swap1\n      tag_20\n      swap2\n      swap1\n      tag_15\n      jump\t// in\n    tag_20:\n      tag_21\n      jump\t// in\n    tag_19:\n      mload(0x40)\n      tag_22\n      swap2\n      swap1\n      tag_23\n      jump\t// in\n    tag_22:\n      mload(0x40)\n      dup1\n      swap2\n      sub\n      swap1\n      return\n        /* \"learning/Solidity Smart Contract Development/Storage Factory/StorageFactoryList.sol\":318:547  function sfStore(uint256 _simpleStorageIndex , uint256 _simpleStorageNumber) public {... */\n    tag_10:\n        /* \"learning/Solidity Smart Contract Development/Storage Factory/StorageFactoryList.sol\":413:442  SimpleStorage mySimpleStorage */\n      0x00\n        /* \"learning/Solidity Smart Contract Development/Storage Factory/StorageFactoryList.sol\":445:464  listOfSimpleStorage */\n      0x00\n        /* \"learning/Solidity Smart Contract Development/Storage Factory/StorageFactoryList.sol\":465:484  _simpleStorageIndex */\n      dup4\n        /* \"learning/Solidity Smart Contract Development/Storage Factory/StorageFactoryList.sol\":445:485  listOfSimpleStorage[_simpleStorageIndex] */\n      dup2\n      sload\n      dup2\n      lt\n      tag_25\n      jumpi\n      tag_26\n      tag_27\n      jump\t// in\n    tag_26:\n    tag_25:\n      swap1\n      0x00\n      mstore\n      keccak256(0x00, 0x20)\n      add\n      0x00\n      swap1\n      sload\n      swap1\n      0x0100\n      exp\n      swap1\n      div\n      0xffffffffffffffffffffffffffffffffffffffff\n      and\n        /* \"learning/Solidity Smart Contract Development/Storage Factory/StorageFactoryList.sol\":413:485  SimpleStorage mySimpleStorage = listOfSimpleStorage[_simpleStorageIndex] */\n      swap1\n      pop\n        /* \"learning/Solidity Smart Contract Development/Storage Factory/StorageFactoryList.sol\":496:511  mySimpleStorage */\n      dup1\n        /* \"learning/Solidity Smart Contract Development/Storage Factory/StorageFactoryList.sol\":496:517  mySimpleStorage.store */\n      0xffffffffffffffffffffffffffffffffffffffff\n      and\n      0x6057361d\n        /* \"learning/Solidity Smart Contract Development/Storage Factory/StorageFactoryList.sol\":518:538  _simpleStorageNumber */\n      dup4\n        /* \"learning/Solidity Smart Contract Development/Storage Factory/StorageFactoryList.sol\":496:539  mySimpleStorage.store(_simpleStorageNumber) */\n      mload(0x40)\n      dup3\n      0xffffffff\n      and\n      0xe0\n      shl\n      dup2\n      mstore\n      0x04\n      add\n      tag_29\n      swap2\n      swap1\n      tag_23\n      jump\t// in\n    tag_29:\n      0x00\n      mload(0x40)\n      dup1\n      dup4\n      sub\n      dup2\n      0x00\n      dup8\n      dup1\n      extcodesize\n      iszero\n      dup1\n      iszero\n      tag_30\n      jumpi\n      revert(0x00, 0x00)\n    tag_30:\n      pop\n      gas\n      call\n      iszero\n      dup1\n      iszero\n      tag_32\n      jumpi\n      returndatacopy(0x00, 0x00, returndatasize)\n      revert(0x00, returndatasize)\n    tag_32:\n      pop\n      pop\n      pop\n      pop\n        /* \"learning/Solidity Smart Contract Development/Storage Factory/StorageFactoryList.sol\":402:547  {... */\n      pop\n        /* \"learning/Solidity Smart Contract Development/Storage Factory/StorageFactoryList.sol\":318:547  function sfStore(uint256 _simpleStorageIndex , uint256 _simpleStorageNumber) public {... */\n      pop\n      pop\n      jump\t// out\n        /* \"learning/Solidity Smart Contract Development/Storage Factory/StorageFactoryList.sol\":200:310  function createSimpleStorageContract() public {... */\n    tag_12:\n        /* \"learning/Solidity Smart Contract Development/Storage Factory/StorageFactoryList.sol\":257:276  listOfSimpleStorage */\n      0x00\n        /* \"learning/Solidity Smart Contract Development/Storage Factory/StorageFactoryList.sol\":282:301  new SimpleStorage() */\n      mload(0x40)\n      tag_34\n      swap1\n      tag_35\n      jump\t// in\n    tag_34:\n      mload(0x40)\n      dup1\n      swap2\n      sub\n      swap1\n      0x00\n      create\n      dup1\n      iszero\n      dup1\n      iszero\n      tag_36\n      jumpi\n      returndatacopy(0x00, 0x00, returndatasize)\n      revert(0x00, returndatasize)\n    tag_36:\n      pop\n        /* \"learning/Solidity Smart Contract Development/Storage Factory/StorageFactoryList.sol\":257:302  listOfSimpleStorage.push(new SimpleStorage()) */\n      swap1\n      dup1\n      0x01\n      dup2\n      sload\n      add\n      dup1\n      dup3\n      sstore\n      dup1\n      swap2\n      pop\n      pop\n      0x01\n      swap1\n      sub\n      swap1\n      0x00\n      mstore\n      keccak256(0x00, 0x20)\n      add\n      0x00\n      swap1\n      swap2\n      swap1\n      swap2\n      swap1\n      swap2\n      0x0100\n      exp\n      dup2\n      sload\n      dup2\n      0xffffffffffffffffffffffffffffffffffffffff\n      mul\n      not\n      and\n      swap1\n      dup4\n      0xffffffffffffffffffffffffffffffffffffffff\n      and\n      mul\n      or\n      swap1\n      sstore\n      pop\n        /* \"learning/Solidity Smart Contract Development/Storage Factory/StorageFactoryList.sol\":200:310  function createSimpleStorageContract() public {... */\n      jump\t// out\n        /* \"learning/Solidity Smart Contract Development/Storage Factory/StorageFactoryList.sol\":149:191  SimpleStorage[] public listOfSimpleStorage */\n    tag_16:\n      0x00\n      dup2\n      dup2\n      sload\n      dup2\n      lt\n      tag_38\n      jumpi\n      0x00\n      dup1\n      revert\n    tag_38:\n      swap1\n      0x00\n      mstore\n      keccak256(0x00, 0x20)\n      add\n      0x00\n      swap2\n      pop\n      sload\n      swap1\n      0x0100\n      exp\n      swap1\n      div\n      0xffffffffffffffffffffffffffffffffffffffff\n      and\n      dup2\n      jump\t// out\n        /* \"learning/Solidity Smart Contract Development/Storage Factory/StorageFactoryList.sol\":555:765  function sfGet(uint256 __simpleStorageIndex) public view returns (uint256){... */\n    tag_21:\n        /* \"learning/Solidity Smart Contract Development/Storage Factory/StorageFactoryList.sol\":621:628  uint256 */\n      0x00\n        /* \"learning/Solidity Smart Contract Development/Storage Factory/StorageFactoryList.sol\":640:669  SimpleStorage mySimpleStorage */\n      0x00\n        /* \"learning/Solidity Smart Contract Development/Storage Factory/StorageFactoryList.sol\":672:691  listOfSimpleStorage */\n      0x00\n        /* \"learning/Solidity Smart Contract Development/Storage Factory/StorageFactoryList.sol\":692:712  __simpleStorageIndex */\n      dup4\n        /* \"learning/Solidity Smart Contract Development/Storage Factory/StorageFactoryList.sol\":672:713  listOfSimpleStorage[__simpleStorageIndex] */\n      dup2\n      sload\n      dup2\n      lt\n      tag_41\n      jumpi\n      tag_42\n      tag_27\n      jump\t// in\n    tag_42:\n    tag_41:\n      swap1\n      0x00\n      mstore\n      keccak256(0x00, 0x20)\n      add\n      0x00\n      swap1\n      sload\n      swap1\n      0x0100\n      exp\n      swap1\n      div\n      0xffffffffffffffffffffffffffffffffffffffff\n      and\n        /* \"learning/Solidity Smart Contract Development/Storage Factory/StorageFactoryList.sol\":640:713  SimpleStorage mySimpleStorage = listOfSimpleStorage[__simpleStorageIndex] */\n      swap1\n      pop\n        /* \"learning/Solidity Smart Contract Development/Storage Factory/StorageFactoryList.sol\":731:746  mySimpleStorage */\n      dup1\n        /* \"learning/Solidity Smart Contract Development/Storage Factory/StorageFactoryList.sol\":731:755  mySimpleStorage.retrieve */\n      0xffffffffffffffffffffffffffffffffffffffff\n      and\n      0x2e64cec1\n        /* \"learning/Solidity Smart Contract Development/Storage Factory/StorageFactoryList.sol\":731:757  mySimpleStorage.retrieve() */\n      mload(0x40)\n      dup2\n      0xffffffff\n      and\n      0xe0\n      shl\n      dup2\n      mstore\n      0x04\n      add\n      0x20\n      mload(0x40)\n      dup1\n      dup4\n      sub\n      dup2\n      dup7\n      gas\n      staticcall\n      iszero\n      dup1\n      iszero\n      tag_45\n      jumpi\n      returndatacopy(0x00, 0x00, returndatasize)\n      revert(0x00, returndatasize)\n    tag_45:\n      pop\n      pop\n      pop\n      pop\n      mload(0x40)\n      returndatasize\n      not(0x1f)\n      0x1f\n      dup3\n      add\n      and\n      dup3\n      add\n      dup1\n      0x40\n      mstore\n      pop\n      dup2\n      add\n      swap1\n      tag_46\n      swap2\n      swap1\n      tag_47\n      jump\t// in\n    tag_46:\n        /* \"learning/Solidity Smart Contract Development/Storage Factory/StorageFactoryList.sol\":724:757  return mySimpleStorage.retrieve() */\n      swap2\n      pop\n      pop\n        /* \"learning/Solidity Smart Contract Development/Storage Factory/StorageFactoryList.sol\":555:765  function sfGet(uint256 __simpleStorageIndex) public view returns (uint256){... */\n      swap2\n      swap1\n      pop\n      jump\t// out\n    tag_35:\n      dataSize(sub_0)\n      dup1\n      dataOffset(sub_0)\n      dup4\n      codecopy\n      add\n      swap1\n      jump\t// out\n        /* \"#utility.yul\":88:205   */\n    tag_49:\n        /* \"#utility.yul\":197:198   */\n      0x00\n        /* \"#utility.yul\":194:195   */\n      0x00\n        /* \"#utility.yul\":187:199   */\n      revert\n        /* \"#utility.yul\":334:411   */\n    tag_51:\n        /* \"#utility.yul\":371:378   */\n      0x00\n        /* \"#utility.yul\":400:405   */\n      dup2\n        /* \"#utility.yul\":389:405   */\n      swap1\n      pop\n        /* \"#utility.yul\":334:411   */\n      swap2\n      swap1\n      pop\n      jump\t// out\n        /* \"#utility.yul\":417:539   */\n    tag_52:\n        /* \"#utility.yul\":490:514   */\n      tag_68\n        /* \"#utility.yul\":508:513   */\n      dup2\n        /* \"#utility.yul\":490:514   */\n      tag_51\n      jump\t// in\n    tag_68:\n        /* \"#utility.yul\":483:488   */\n      dup2\n        /* \"#utility.yul\":480:515   */\n      eq\n        /* \"#utility.yul\":470:533   */\n      tag_69\n      jumpi\n        /* \"#utility.yul\":529:530   */\n      0x00\n        /* \"#utility.yul\":526:527   */\n      0x00\n        /* \"#utility.yul\":519:531   */\n      revert\n        /* \"#utility.yul\":470:533   */\n    tag_69:\n        /* \"#utility.yul\":417:539   */\n      pop\n      jump\t// out\n        /* \"#utility.yul\":545:684   */\n    tag_53:\n        /* \"#utility.yul\":591:596   */\n      0x00\n        /* \"#utility.yul\":629:635   */\n      dup2\n        /* \"#utility.yul\":616:636   */\n      calldataload\n        /* \"#utility.yul\":607:636   */\n      swap1\n      pop\n        /* \"#utility.yul\":645:678   */\n      tag_71\n        /* \"#utility.yul\":672:677   */\n      dup2\n        /* \"#utility.yul\":645:678   */\n      tag_52\n      jump\t// in\n    tag_71:\n        /* \"#utility.yul\":545:684   */\n      swap3\n      swap2\n      pop\n      pop\n      jump\t// out\n        /* \"#utility.yul\":690:1164   */\n    tag_9:\n        /* \"#utility.yul\":758:764   */\n      0x00\n        /* \"#utility.yul\":766:772   */\n      0x00\n        /* \"#utility.yul\":815:817   */\n      0x40\n        /* \"#utility.yul\":803:812   */\n      dup4\n        /* \"#utility.yul\":794:801   */\n      dup6\n        /* \"#utility.yul\":790:813   */\n      sub\n        /* \"#utility.yul\":786:818   */\n      slt\n        /* \"#utility.yul\":783:902   */\n      iszero\n      tag_73\n      jumpi\n        /* \"#utility.yul\":821:900   */\n      tag_74\n      tag_49\n      jump\t// in\n    tag_74:\n        /* \"#utility.yul\":783:902   */\n    tag_73:\n        /* \"#utility.yul\":941:942   */\n      0x00\n        /* \"#utility.yul\":966:1019   */\n      tag_75\n        /* \"#utility.yul\":1011:1018   */\n      dup6\n        /* \"#utility.yul\":1002:1008   */\n      dup3\n        /* \"#utility.yul\":991:1000   */\n      dup7\n        /* \"#utility.yul\":987:1009   */\n      add\n        /* \"#utility.yul\":966:1019   */\n      tag_53\n      jump\t// in\n    tag_75:\n        /* \"#utility.yul\":956:1019   */\n      swap3\n      pop\n        /* \"#utility.yul\":912:1029   */\n      pop\n        /* \"#utility.yul\":1068:1070   */\n      0x20\n        /* \"#utility.yul\":1094:1147   */\n      tag_76\n        /* \"#utility.yul\":1139:1146   */\n      dup6\n        /* \"#utility.yul\":1130:1136   */\n      dup3\n        /* \"#utility.yul\":1119:1128   */\n      dup7\n        /* \"#utility.yul\":1115:1137   */\n      add\n        /* \"#utility.yul\":1094:1147   */\n      tag_53\n      jump\t// in\n    tag_76:\n        /* \"#utility.yul\":1084:1147   */\n      swap2\n      pop\n        /* \"#utility.yul\":1039:1157   */\n      pop\n        /* \"#utility.yul\":690:1164   */\n      swap3\n      pop\n      swap3\n      swap1\n      pop\n      jump\t// out\n        /* \"#utility.yul\":1170:1499   */\n    tag_15:\n        /* \"#utility.yul\":1229:1235   */\n      0x00\n        /* \"#utility.yul\":1278:1280   */\n      0x20\n        /* \"#utility.yul\":1266:1275   */\n      dup3\n        /* \"#utility.yul\":1257:1264   */\n      dup5\n        /* \"#utility.yul\":1253:1276   */\n      sub\n        /* \"#utility.yul\":1249:1281   */\n      slt\n        /* \"#utility.yul\":1246:1365   */\n      iszero\n      tag_78\n      jumpi\n        /* \"#utility.yul\":1284:1363   */\n      tag_79\n      tag_49\n      jump\t// in\n    tag_79:\n        /* \"#utility.yul\":1246:1365   */\n    tag_78:\n        /* \"#utility.yul\":1404:1405   */\n      0x00\n        /* \"#utility.yul\":1429:1482   */\n      tag_80\n        /* \"#utility.yul\":1474:1481   */\n      dup5\n        /* \"#utility.yul\":1465:1471   */\n      dup3\n        /* \"#utility.yul\":1454:1463   */\n      dup6\n        /* \"#utility.yul\":1450:1472   */\n      add\n        /* \"#utility.yul\":1429:1482   */\n      tag_53\n      jump\t// in\n    tag_80:\n        /* \"#utility.yul\":1419:1482   */\n      swap2\n      pop\n        /* \"#utility.yul\":1375:1492   */\n      pop\n        /* \"#utility.yul\":1170:1499   */\n      swap3\n      swap2\n      pop\n      pop\n      jump\t// out\n        /* \"#utility.yul\":1505:1631   */\n    tag_54:\n        /* \"#utility.yul\":1542:1549   */\n      0x00\n        /* \"#utility.yul\":1582:1624   */\n      0xffffffffffffffffffffffffffffffffffffffff\n        /* \"#utility.yul\":1575:1580   */\n      dup3\n        /* \"#utility.yul\":1571:1625   */\n      and\n        /* \"#utility.yul\":1560:1625   */\n      swap1\n      pop\n        /* \"#utility.yul\":1505:1631   */\n      swap2\n      swap1\n      pop\n      jump\t// out\n        /* \"#utility.yul\":1637:1697   */\n    tag_55:\n        /* \"#utility.yul\":1665:1668   */\n      0x00\n        /* \"#utility.yul\":1686:1691   */\n      dup2\n        /* \"#utility.yul\":1679:1691   */\n      swap1\n      pop\n        /* \"#utility.yul\":1637:1697   */\n      swap2\n      swap1\n      pop\n      jump\t// out\n        /* \"#utility.yul\":1703:1845   */\n    tag_56:\n        /* \"#utility.yul\":1753:1762   */\n      0x00\n        /* \"#utility.yul\":1786:1839   */\n      tag_84\n        /* \"#utility.yul\":1804:1838   */\n      tag_85\n        /* \"#utility.yul\":1813:1837   */\n      tag_86\n        /* \"#utility.yul\":1831:1836   */\n      dup5\n        /* \"#utility.yul\":1813:1837   */\n      tag_54\n      jump\t// in\n    tag_86:\n        /* \"#utility.yul\":1804:1838   */\n      tag_55\n      jump\t// in\n    tag_85:\n        /* \"#utility.yul\":1786:1839   */\n      tag_54\n      jump\t// in\n    tag_84:\n        /* \"#utility.yul\":1773:1839   */\n      swap1\n      pop\n        /* \"#utility.yul\":1703:1845   */\n      swap2\n      swap1\n      pop\n      jump\t// out\n        /* \"#utility.yul\":1851:1977   */\n    tag_57:\n        /* \"#utility.yul\":1901:1910   */\n      0x00\n        /* \"#utility.yul\":1934:1971   */\n      tag_88\n        /* \"#utility.yul\":1965:1970   */\n      dup3\n        /* \"#utility.yul\":1934:1971   */\n      tag_56\n      jump\t// in\n    tag_88:\n        /* \"#utility.yul\":1921:1971   */\n      swap1\n      pop\n        /* \"#utility.yul\":1851:1977   */\n      swap2\n      swap1\n      pop\n      jump\t// out\n        /* \"#utility.yul\":1983:2129   */\n    tag_58:\n        /* \"#utility.yul\":2053:2062   */\n      0x00\n        /* \"#utility.yul\":2086:2123   */\n      tag_90\n        /* \"#utility.yul\":2117:2122   */\n      dup3\n        /* \"#utility.yul\":2086:2123   */\n      tag_57\n      jump\t// in\n    tag_90:\n        /* \"#utility.yul\":2073:2123   */\n      swap1\n      pop\n        /* \"#utility.yul\":1983:2129   */\n      swap2\n      swap1\n      pop\n      jump\t// out\n        /* \"#utility.yul\":2135:2306   */\n    tag_59:\n        /* \"#utility.yul\":2242:2299   */\n      tag_92\n        /* \"#utility.yul\":2293:2298   */\n      dup2\n        /* \"#utility.yul\":2242:2299   */\n      tag_58\n      jump\t// in\n    tag_92:\n        /* \"#utility.yul\":2237:2240   */\n      dup3\n        /* \"#utility.yul\":2230:2300   */\n      mstore\n        /* \"#utility.yul\":2135:2306   */\n      pop\n      pop\n      jump\t// out\n        /* \"#utility.yul\":2312:2574   */\n    tag_18:\n        /* \"#utility.yul\":2425:2429   */\n      0x00\n        /* \"#utility.yul\":2463:2465   */\n      0x20\n        /* \"#utility.yul\":2452:2461   */\n      dup3\n        /* \"#utility.yul\":2448:2466   */\n      add\n        /* \"#utility.yul\":2440:2466   */\n      swap1\n      pop\n        /* \"#utility.yul\":2476:2567   */\n      tag_94\n        /* \"#utility.yul\":2564:2565   */\n      0x00\n        /* \"#utility.yul\":2553:2562   */\n      dup4\n        /* \"#utility.yul\":2549:2566   */\n      add\n        /* \"#utility.yul\":2540:2546   */\n      dup5\n        /* \"#utility.yul\":2476:2567   */\n      tag_59\n      jump\t// in\n    tag_94:\n        /* \"#utility.yul\":2312:2574   */\n      swap3\n      swap2\n      pop\n      pop\n      jump\t// out\n        /* \"#utility.yul\":2580:2698   */\n    tag_60:\n        /* \"#utility.yul\":2667:2691   */\n      tag_96\n        /* \"#utility.yul\":2685:2690   */\n      dup2\n        /* \"#utility.yul\":2667:2691   */\n      tag_51\n      jump\t// in\n    tag_96:\n        /* \"#utility.yul\":2662:2665   */\n      dup3\n        /* \"#utility.yul\":2655:2692   */\n      mstore\n        /* \"#utility.yul\":2580:2698   */\n      pop\n      pop\n      jump\t// out\n        /* \"#utility.yul\":2704:2926   */\n    tag_23:\n        /* \"#utility.yul\":2797:2801   */\n      0x00\n        /* \"#utility.yul\":2835:2837   */\n      0x20\n        /* \"#utility.yul\":2824:2833   */\n      dup3\n        /* \"#utility.yul\":2820:2838   */\n      add\n        /* \"#utility.yul\":2812:2838   */\n      swap1\n      pop\n        /* \"#utility.yul\":2848:2919   */\n      tag_98\n        /* \"#utility.yul\":2916:2917   */\n      0x00\n        /* \"#utility.yul\":2905:2914   */\n      dup4\n        /* \"#utility.yul\":2901:2918   */\n      add\n        /* \"#utility.yul\":2892:2898   */\n      dup5\n        /* \"#utility.yul\":2848:2919   */\n      tag_60\n      jump\t// in\n    tag_98:\n        /* \"#utility.yul\":2704:2926   */\n      swap3\n      swap2\n      pop\n      pop\n      jump\t// out\n        /* \"#utility.yul\":2932:3112   */\n    tag_27:\n        /* \"#utility.yul\":2980:3057   */\n      0x4e487b7100000000000000000000000000000000000000000000000000000000\n        /* \"#utility.yul\":2977:2978   */\n      0x00\n        /* \"#utility.yul\":2970:3058   */\n      mstore\n        /* \"#utility.yul\":3077:3081   */\n      0x32\n        /* \"#utility.yul\":3074:3075   */\n      0x04\n        /* \"#utility.yul\":3067:3082   */\n      mstore\n        /* \"#utility.yul\":3101:3105   */\n      0x24\n        /* \"#utility.yul\":3098:3099   */\n      0x00\n        /* \"#utility.yul\":3091:3106   */\n      revert\n        /* \"#utility.yul\":3118:3261   */\n    tag_61:\n        /* \"#utility.yul\":3175:3180   */\n      0x00\n        /* \"#utility.yul\":3206:3212   */\n      dup2\n        /* \"#utility.yul\":3200:3213   */\n      mload\n        /* \"#utility.yul\":3191:3213   */\n      swap1\n      pop\n        /* \"#utility.yul\":3222:3255   */\n      tag_101\n        /* \"#utility.yul\":3249:3254   */\n      dup2\n        /* \"#utility.yul\":3222:3255   */\n      tag_52\n      jump\t// in\n    tag_101:\n        /* \"#utility.yul\":3118:3261   */\n      swap3\n      swap2\n      pop\n      pop\n      jump\t// out\n        /* \"#utility.yul\":3267:3618   */\n    tag_47:\n        /* \"#utility.yul\":3337:3343   */\n      0x00\n        /* \"#utility.yul\":3386:3388   */\n      0x20\n        /* \"#utility.yul\":3374:3383   */\n      dup3\n        /* \"#utility.yul\":3365:3372   */\n      dup5\n        /* \"#utility.yul\":3361:3384   */\n      sub\n        /* \"#utility.yul\":3357:3389   */\n      slt\n        /* \"#utility.yul\":3354:3473   */\n      iszero\n      tag_103\n      jumpi\n        /* \"#utility.yul\":3392:3471   */\n      tag_104\n      tag_49\n      jump\t// in\n    tag_104:\n        /* \"#utility.yul\":3354:3473   */\n    tag_103:\n        /* \"#utility.yul\":3512:3513   */\n      0x00\n        /* \"#utility.yul\":3537:3601   */\n      tag_105\n        /* \"#utility.yul\":3593:3600   */\n      dup5\n        /* \"#utility.yul\":3584:3590   */\n      dup3\n        /* \"#utility.yul\":3573:3582   */\n      dup6\n        /* \"#utility.yul\":3569:3591   */\n      add\n        /* \"#utility.yul\":3537:3601   */\n      tag_61\n      jump\t// in\n    tag_105:\n        /* \"#utility.yul\":3527:3601   */\n      swap2\n      pop\n        /* \"#utility.yul\":3483:3611   */\n      pop\n        /* \"#utility.yul\":3267:3618   */\n      swap3\n      swap2\n      pop\n      pop\n      jump\t// out\n    stop\n\n    sub_0: assembly {\n            /* \"learning/Solidity Smart Contract Development/Storage Factory/SimpleStorage.sol\":61:714  contract SimpleStorage{... */\n          mstore(0x40, 0x80)\n          callvalue\n          dup1\n          iszero\n          tag_1\n          jumpi\n          revert(0x00, 0x00)\n        tag_1:\n          pop\n          dataSize(sub_0)\n          dup1\n          dataOffset(sub_0)\n          0x00\n          codecopy\n          0x00\n          return\n        stop\n\n        sub_0: assembly {\n                /* \"learning/Solidity Smart Contract Development/Storage Factory/SimpleStorage.sol\":61:714  contract SimpleStorage{... */\n              mstore(0x40, 0x80)\n              callvalue\n              dup1\n              iszero\n              tag_1\n              jumpi\n              revert(0x00, 0x00)\n            tag_1:\n              pop\n              jumpi(tag_2, lt(calldatasize, 0x04))\n              shr(0xe0, calldataload(0x00))\n              dup1\n              0x2e64cec1\n              eq\n              tag_3\n              jumpi\n              dup1\n              0x6057361d\n              eq\n              tag_4\n              jumpi\n              dup1\n              0x6f760f41\n              eq\n              tag_5\n              jumpi\n              dup1\n              0x8bab8dd5\n              eq\n              tag_6\n              jumpi\n            tag_2:\n              revert(0x00, 0x00)\n                /* \"learning/Solidity Smart Contract Development/Storage Factory/SimpleStorage.sol\":413:504  function retrieve() public view returns (uint256){... */\n            tag_3:\n              tag_7\n              tag_8\n              jump\t// in\n            tag_7:\n              mload(0x40)\n              tag_9\n              swap2\n              swap1\n              tag_10\n              jump\t// in\n            tag_9:\n              mload(0x40)\n              dup1\n              swap2\n              sub\n              swap1\n              return\n                /* \"learning/Solidity Smart Contract Development/Storage Factory/SimpleStorage.sol\":298:405  function store(uint256 _favoriteNumber) public virtual{... */\n            tag_4:\n              tag_11\n              0x04\n              dup1\n              calldatasize\n              sub\n              dup2\n              add\n              swap1\n              tag_12\n              swap2\n              swap1\n              tag_13\n              jump\t// in\n            tag_12:\n              tag_14\n              jump\t// in\n            tag_11:\n              stop\n                /* \"learning/Solidity Smart Contract Development/Storage Factory/SimpleStorage.sol\":512:709  function addPerson(string memory _name , uint256 _favoriteNumber) public {... */\n            tag_5:\n              tag_15\n              0x04\n              dup1\n              calldatasize\n              sub\n              dup2\n              add\n              swap1\n              tag_16\n              swap2\n              swap1\n              tag_17\n              jump\t// in\n            tag_16:\n              tag_18\n              jump\t// in\n            tag_15:\n              stop\n                /* \"learning/Solidity Smart Contract Development/Storage Factory/SimpleStorage.sol\":235:289  mapping(string => uint256) public nameToFavoriteNumber */\n            tag_6:\n              tag_19\n              0x04\n              dup1\n              calldatasize\n              sub\n              dup2\n              add\n              swap1\n              tag_20\n              swap2\n              swap1\n              tag_21\n              jump\t// in\n            tag_20:\n              tag_22\n              jump\t// in\n            tag_19:\n              mload(0x40)\n              tag_23\n              swap2\n              swap1\n              tag_10\n              jump\t// in\n            tag_23:\n              mload(0x40)\n              dup1\n              swap2\n              sub\n              swap1\n              return\n                /* \"learning/Solidity Smart Contract Development/Storage Factory/SimpleStorage.sol\":413:504  function retrieve() public view returns (uint256){... */\n            tag_8:\n                /* \"learning/Solidity Smart Contract Development/Storage Factory/SimpleStorage.sol\":454:461  uint256 */\n              0x00\n                /* \"learning/Solidity Smart Contract Development/Storage Factory/SimpleStorage.sol\":480:496  myFavoriteNumber */\n              sload(0x00)\n                /* \"learning/Solidity Smart Contract Development/Storage Factory/SimpleStorage.sol\":473:496  return myFavoriteNumber */\n              swap1\n              pop\n                /* \"learning/Solidity Smart Contract Development/Storage Factory/SimpleStorage.sol\":413:504  function retrieve() public view returns (uint256){... */\n              swap1\n              jump\t// out\n                /* \"learning/Solidity Smart Contract Development/Storage Factory/SimpleStorage.sol\":298:405  function store(uint256 _favoriteNumber) public virtual{... */\n            tag_14:\n                /* \"learning/Solidity Smart Contract Development/Storage Factory/SimpleStorage.sol\":382:397  _favoriteNumber */\n              dup1\n                /* \"learning/Solidity Smart Contract Development/Storage Factory/SimpleStorage.sol\":363:379  myFavoriteNumber */\n              0x00\n                /* \"learning/Solidity Smart Contract Development/Storage Factory/SimpleStorage.sol\":363:397  myFavoriteNumber = _favoriteNumber */\n              dup2\n              swap1\n              sstore\n              pop\n                /* \"learning/Solidity Smart Contract Development/Storage Factory/SimpleStorage.sol\":298:405  function store(uint256 _favoriteNumber) public virtual{... */\n              pop\n              jump\t// out\n                /* \"learning/Solidity Smart Contract Development/Storage Factory/SimpleStorage.sol\":512:709  function addPerson(string memory _name , uint256 _favoriteNumber) public {... */\n            tag_18:\n                /* \"learning/Solidity Smart Contract Development/Storage Factory/SimpleStorage.sol\":596:608  listOfPeople */\n              0x01\n                /* \"learning/Solidity Smart Contract Development/Storage Factory/SimpleStorage.sol\":614:644  Person(_favoriteNumber, _name) */\n              mload(0x40)\n              dup1\n              0x40\n              add\n              0x40\n              mstore\n              dup1\n                /* \"learning/Solidity Smart Contract Development/Storage Factory/SimpleStorage.sol\":621:636  _favoriteNumber */\n              dup4\n                /* \"learning/Solidity Smart Contract Development/Storage Factory/SimpleStorage.sol\":614:644  Person(_favoriteNumber, _name) */\n              dup2\n              mstore\n              0x20\n              add\n                /* \"learning/Solidity Smart Contract Development/Storage Factory/SimpleStorage.sol\":638:643  _name */\n              dup5\n                /* \"learning/Solidity Smart Contract Development/Storage Factory/SimpleStorage.sol\":614:644  Person(_favoriteNumber, _name) */\n              dup2\n              mstore\n              pop\n                /* \"learning/Solidity Smart Contract Development/Storage Factory/SimpleStorage.sol\":596:645  listOfPeople.push(Person(_favoriteNumber, _name)) */\n              swap1\n              dup1\n              0x01\n              dup2\n              sload\n              add\n              dup1\n              dup3\n              sstore\n              dup1\n              swap2\n              pop\n              pop\n              0x01\n              swap1\n              sub\n              swap1\n              0x00\n              mstore\n              keccak256(0x00, 0x20)\n              swap1\n              0x02\n              mul\n              add\n              0x00\n              swap1\n              swap2\n              swap1\n              swap2\n              swap1\n              swap2\n              pop\n              0x00\n              dup3\n              add\n              mload\n              dup2\n              0x00\n              add\n              sstore\n              0x20\n              dup3\n              add\n              mload\n              dup2\n              0x01\n              add\n              swap1\n              dup2\n              tag_28\n              swap2\n              swap1\n              tag_29\n              jump\t// in\n            tag_28:\n              pop\n              pop\n              pop\n                /* \"learning/Solidity Smart Contract Development/Storage Factory/SimpleStorage.sol\":686:701  _favoriteNumber */\n              dup1\n                /* \"learning/Solidity Smart Contract Development/Storage Factory/SimpleStorage.sol\":656:676  nameToFavoriteNumber */\n              0x02\n                /* \"learning/Solidity Smart Contract Development/Storage Factory/SimpleStorage.sol\":677:682  _name */\n              dup4\n                /* \"learning/Solidity Smart Contract Development/Storage Factory/SimpleStorage.sol\":656:683  nameToFavoriteNumber[_name] */\n              mload(0x40)\n              tag_30\n              swap2\n              swap1\n              tag_31\n              jump\t// in\n            tag_30:\n              swap1\n              dup2\n              mstore\n              0x20\n              add\n              mload(0x40)\n              dup1\n              swap2\n              sub\n              swap1\n              keccak256\n                /* \"learning/Solidity Smart Contract Development/Storage Factory/SimpleStorage.sol\":656:701  nameToFavoriteNumber[_name] = _favoriteNumber */\n              dup2\n              swap1\n              sstore\n              pop\n                /* \"learning/Solidity Smart Contract Development/Storage Factory/SimpleStorage.sol\":512:709  function addPerson(string memory _name , uint256 _favoriteNumber) public {... */\n              pop\n              pop\n              jump\t// out\n                /* \"learning/Solidity Smart Contract Development/Storage Factory/SimpleStorage.sol\":235:289  mapping(string => uint256) public nameToFavoriteNumber */\n            tag_22:\n              0x02\n              dup2\n              dup1\n              mload\n              0x20\n              dup2\n              add\n              dup3\n              add\n              dup1\n              mload\n              dup5\n              dup3\n              mstore\n              0x20\n              dup4\n              add\n              0x20\n              dup6\n              add\n              keccak256\n              dup2\n              dup4\n              mstore\n              dup1\n              swap6\n              pop\n              pop\n              pop\n              pop\n              pop\n              pop\n              0x00\n              swap2\n              pop\n              swap1\n              pop\n              sload\n              dup2\n              jump\t// out\n                /* \"#utility.yul\":7:84   */\n            tag_32:\n                /* \"#utility.yul\":44:51   */\n              0x00\n                /* \"#utility.yul\":73:78   */\n              dup2\n                /* \"#utility.yul\":62:78   */\n              swap1\n              pop\n                /* \"#utility.yul\":7:84   */\n              swap2\n              swap1\n              pop\n              jump\t// out\n                /* \"#utility.yul\":90:208   */\n            tag_33:\n                /* \"#utility.yul\":177:201   */\n              tag_73\n                /* \"#utility.yul\":195:200   */\n              dup2\n                /* \"#utility.yul\":177:201   */\n              tag_32\n              jump\t// in\n            tag_73:\n                /* \"#utility.yul\":172:175   */\n              dup3\n                /* \"#utility.yul\":165:202   */\n              mstore\n                /* \"#utility.yul\":90:208   */\n              pop\n              pop\n              jump\t// out\n                /* \"#utility.yul\":214:436   */\n            tag_10:\n                /* \"#utility.yul\":307:311   */\n              0x00\n                /* \"#utility.yul\":345:347   */\n              0x20\n                /* \"#utility.yul\":334:343   */\n              dup3\n                /* \"#utility.yul\":330:348   */\n              add\n                /* \"#utility.yul\":322:348   */\n              swap1\n              pop\n                /* \"#utility.yul\":358:429   */\n              tag_75\n                /* \"#utility.yul\":426:427   */\n              0x00\n                /* \"#utility.yul\":415:424   */\n              dup4\n                /* \"#utility.yul\":411:428   */\n              add\n                /* \"#utility.yul\":402:408   */\n              dup5\n                /* \"#utility.yul\":358:429   */\n              tag_33\n              jump\t// in\n            tag_75:\n                /* \"#utility.yul\":214:436   */\n              swap3\n              swap2\n              pop\n              pop\n              jump\t// out\n                /* \"#utility.yul\":442:517   */\n            tag_34:\n                /* \"#utility.yul\":475:481   */\n              0x00\n                /* \"#utility.yul\":508:510   */\n              0x40\n                /* \"#utility.yul\":502:511   */\n              mload\n                /* \"#utility.yul\":492:511   */\n              swap1\n              pop\n                /* \"#utility.yul\":442:517   */\n              swap1\n              jump\t// out\n                /* \"#utility.yul\":523:640   */\n            tag_35:\n                /* \"#utility.yul\":632:633   */\n              0x00\n                /* \"#utility.yul\":629:630   */\n              0x00\n                /* \"#utility.yul\":622:634   */\n              revert\n                /* \"#utility.yul\":646:763   */\n            tag_36:\n                /* \"#utility.yul\":755:756   */\n              0x00\n                /* \"#utility.yul\":752:753   */\n              0x00\n                /* \"#utility.yul\":745:757   */\n              revert\n                /* \"#utility.yul\":769:891   */\n            tag_37:\n                /* \"#utility.yul\":842:866   */\n              tag_80\n                /* \"#utility.yul\":860:865   */\n              dup2\n                /* \"#utility.yul\":842:866   */\n              tag_32\n              jump\t// in\n            tag_80:\n                /* \"#utility.yul\":835:840   */\n              dup2\n                /* \"#utility.yul\":832:867   */\n              eq\n                /* \"#utility.yul\":822:885   */\n              tag_81\n              jumpi\n                /* \"#utility.yul\":881:882   */\n              0x00\n                /* \"#utility.yul\":878:879   */\n              0x00\n                /* \"#utility.yul\":871:883   */\n              revert\n                /* \"#utility.yul\":822:885   */\n            tag_81:\n                /* \"#utility.yul\":769:891   */\n              pop\n              jump\t// out\n                /* \"#utility.yul\":897:1036   */\n            tag_38:\n                /* \"#utility.yul\":943:948   */\n              0x00\n                /* \"#utility.yul\":981:987   */\n              dup2\n                /* \"#utility.yul\":968:988   */\n              calldataload\n                /* \"#utility.yul\":959:988   */\n              swap1\n              pop\n                /* \"#utility.yul\":997:1030   */\n              tag_83\n                /* \"#utility.yul\":1024:1029   */\n              dup2\n                /* \"#utility.yul\":997:1030   */\n              tag_37\n              jump\t// in\n            tag_83:\n                /* \"#utility.yul\":897:1036   */\n              swap3\n              swap2\n              pop\n              pop\n              jump\t// out\n                /* \"#utility.yul\":1042:1371   */\n            tag_13:\n                /* \"#utility.yul\":1101:1107   */\n              0x00\n                /* \"#utility.yul\":1150:1152   */\n              0x20\n                /* \"#utility.yul\":1138:1147   */\n              dup3\n                /* \"#utility.yul\":1129:1136   */\n              dup5\n                /* \"#utility.yul\":1125:1148   */\n              sub\n                /* \"#utility.yul\":1121:1153   */\n              slt\n                /* \"#utility.yul\":1118:1237   */\n              iszero\n              tag_85\n              jumpi\n                /* \"#utility.yul\":1156:1235   */\n              tag_86\n              tag_35\n              jump\t// in\n            tag_86:\n                /* \"#utility.yul\":1118:1237   */\n            tag_85:\n                /* \"#utility.yul\":1276:1277   */\n              0x00\n                /* \"#utility.yul\":1301:1354   */\n              tag_87\n                /* \"#utility.yul\":1346:1353   */\n              dup5\n                /* \"#utility.yul\":1337:1343   */\n              dup3\n                /* \"#utility.yul\":1326:1335   */\n              dup6\n                /* \"#utility.yul\":1322:1344   */\n              add\n                /* \"#utility.yul\":1301:1354   */\n              tag_38\n              jump\t// in\n            tag_87:\n                /* \"#utility.yul\":1291:1354   */\n              swap2\n              pop\n                /* \"#utility.yul\":1247:1364   */\n              pop\n                /* \"#utility.yul\":1042:1371   */\n              swap3\n              swap2\n              pop\n              pop\n              jump\t// out\n                /* \"#utility.yul\":1377:1494   */\n            tag_39:\n                /* \"#utility.yul\":1486:1487   */\n              0x00\n                /* \"#utility.yul\":1483:1484   */\n              0x00\n                /* \"#utility.yul\":1476:1488   */\n              revert\n                /* \"#utility.yul\":1500:1617   */\n            tag_40:\n                /* \"#utility.yul\":1609:1610   */\n              0x00\n                /* \"#utility.yul\":1606:1607   */\n              0x00\n                /* \"#utility.yul\":1599:1611   */\n              revert\n                /* \"#utility.yul\":1623:1725   */\n            tag_41:\n                /* \"#utility.yul\":1664:1670   */\n              0x00\n                /* \"#utility.yul\":1715:1717   */\n              0x1f\n                /* \"#utility.yul\":1711:1718   */\n              not\n                /* \"#utility.yul\":1706:1708   */\n              0x1f\n                /* \"#utility.yul\":1699:1704   */\n              dup4\n                /* \"#utility.yul\":1695:1709   */\n              add\n                /* \"#utility.yul\":1691:1719   */\n              and\n                /* \"#utility.yul\":1681:1719   */\n              swap1\n              pop\n                /* \"#utility.yul\":1623:1725   */\n              swap2\n              swap1\n              pop\n              jump\t// out\n                /* \"#utility.yul\":1731:1911   */\n            tag_42:\n                /* \"#utility.yul\":1779:1856   */\n              0x4e487b7100000000000000000000000000000000000000000000000000000000\n                /* \"#utility.yul\":1776:1777   */\n              0x00\n                /* \"#utility.yul\":1769:1857   */\n              mstore\n                /* \"#utility.yul\":1876:1880   */\n              0x41\n                /* \"#utility.yul\":1873:1874   */\n              0x04\n                /* \"#utility.yul\":1866:1881   */\n              mstore\n                /* \"#utility.yul\":1900:1904   */\n              0x24\n                /* \"#utility.yul\":1897:1898   */\n              0x00\n                /* \"#utility.yul\":1890:1905   */\n              revert\n                /* \"#utility.yul\":1917:2198   */\n            tag_43:\n                /* \"#utility.yul\":2000:2027   */\n              tag_93\n                /* \"#utility.yul\":2022:2026   */\n              dup3\n                /* \"#utility.yul\":2000:2027   */\n              tag_41\n              jump\t// in\n            tag_93:\n                /* \"#utility.yul\":1992:1998   */\n              dup2\n                /* \"#utility.yul\":1988:2028   */\n              add\n                /* \"#utility.yul\":2130:2136   */\n              dup2\n                /* \"#utility.yul\":2118:2128   */\n              dup2\n                /* \"#utility.yul\":2115:2137   */\n              lt\n                /* \"#utility.yul\":2094:2112   */\n              0xffffffffffffffff\n                /* \"#utility.yul\":2082:2092   */\n              dup3\n                /* \"#utility.yul\":2079:2113   */\n              gt\n                /* \"#utility.yul\":2076:2138   */\n              or\n                /* \"#utility.yul\":2073:2161   */\n              iszero\n              tag_94\n              jumpi\n                /* \"#utility.yul\":2141:2159   */\n              tag_95\n              tag_42\n              jump\t// in\n            tag_95:\n                /* \"#utility.yul\":2073:2161   */\n            tag_94:\n                /* \"#utility.yul\":2181:2191   */\n              dup1\n                /* \"#utility.yul\":2177:2179   */\n              0x40\n                /* \"#utility.yul\":2170:2192   */\n              mstore\n                /* \"#utility.yul\":1960:2198   */\n              pop\n                /* \"#utility.yul\":1917:2198   */\n              pop\n              pop\n              jump\t// out\n                /* \"#utility.yul\":2204:2333   */\n            tag_44:\n                /* \"#utility.yul\":2238:2244   */\n              0x00\n                /* \"#utility.yul\":2265:2285   */\n              tag_97\n              tag_34\n              jump\t// in\n            tag_97:\n                /* \"#utility.yul\":2255:2285   */\n              swap1\n              pop\n                /* \"#utility.yul\":2294:2327   */\n              tag_98\n                /* \"#utility.yul\":2322:2326   */\n              dup3\n                /* \"#utility.yul\":2314:2320   */\n              dup3\n                /* \"#utility.yul\":2294:2327   */\n              tag_43\n              jump\t// in\n            tag_98:\n                /* \"#utility.yul\":2204:2333   */\n              swap2\n              swap1\n              pop\n              jump\t// out\n                /* \"#utility.yul\":2339:2647   */\n            tag_45:\n                /* \"#utility.yul\":2401:2405   */\n              0x00\n                /* \"#utility.yul\":2491:2509   */\n              0xffffffffffffffff\n                /* \"#utility.yul\":2483:2489   */\n              dup3\n                /* \"#utility.yul\":2480:2510   */\n              gt\n                /* \"#utility.yul\":2477:2533   */\n              iszero\n              tag_100\n              jumpi\n                /* \"#utility.yul\":2513:2531   */\n              tag_101\n              tag_42\n              jump\t// in\n            tag_101:\n                /* \"#utility.yul\":2477:2533   */\n            tag_100:\n                /* \"#utility.yul\":2551:2580   */\n              tag_102\n                /* \"#utility.yul\":2573:2579   */\n              dup3\n                /* \"#utility.yul\":2551:2580   */\n              tag_41\n              jump\t// in\n            tag_102:\n                /* \"#utility.yul\":2543:2580   */\n              swap1\n              pop\n                /* \"#utility.yul\":2635:2639   */\n              0x20\n                /* \"#utility.yul\":2629:2633   */\n              dup2\n                /* \"#utility.yul\":2625:2640   */\n              add\n                /* \"#utility.yul\":2617:2640   */\n              swap1\n              pop\n                /* \"#utility.yul\":2339:2647   */\n              swap2\n              swap1\n              pop\n              jump\t// out\n                /* \"#utility.yul\":2653:2801   */\n            tag_46:\n                /* \"#utility.yul\":2751:2757   */\n              dup3\n                /* \"#utility.yul\":2746:2749   */\n              dup2\n                /* \"#utility.yul\":2741:2744   */\n              dup4\n                /* \"#utility.yul\":2728:2758   */\n              calldatacopy\n                /* \"#utility.yul\":2792:2793   */\n              0x00\n                /* \"#utility.yul\":2783:2789   */\n              dup4\n                /* \"#utility.yul\":2778:2781   */\n              dup4\n                /* \"#utility.yul\":2774:2790   */\n              add\n                /* \"#utility.yul\":2767:2794   */\n              mstore\n                /* \"#utility.yul\":2653:2801   */\n              pop\n              pop\n              pop\n              jump\t// out\n                /* \"#utility.yul\":2807:3232   */\n            tag_47:\n                /* \"#utility.yul\":2885:2890   */\n              0x00\n                /* \"#utility.yul\":2910:2976   */\n              tag_105\n                /* \"#utility.yul\":2926:2975   */\n              tag_106\n                /* \"#utility.yul\":2968:2974   */\n              dup5\n                /* \"#utility.yul\":2926:2975   */\n              tag_45\n              jump\t// in\n            tag_106:\n                /* \"#utility.yul\":2910:2976   */\n              tag_44\n              jump\t// in\n            tag_105:\n                /* \"#utility.yul\":2901:2976   */\n              swap1\n              pop\n                /* \"#utility.yul\":2999:3005   */\n              dup3\n                /* \"#utility.yul\":2992:2997   */\n              dup2\n                /* \"#utility.yul\":2985:3006   */\n              mstore\n                /* \"#utility.yul\":3037:3041   */\n              0x20\n                /* \"#utility.yul\":3030:3035   */\n              dup2\n                /* \"#utility.yul\":3026:3042   */\n              add\n                /* \"#utility.yul\":3075:3078   */\n              dup5\n                /* \"#utility.yul\":3066:3072   */\n              dup5\n                /* \"#utility.yul\":3061:3064   */\n              dup5\n                /* \"#utility.yul\":3057:3073   */\n              add\n                /* \"#utility.yul\":3054:3079   */\n              gt\n                /* \"#utility.yul\":3051:3163   */\n              iszero\n              tag_107\n              jumpi\n                /* \"#utility.yul\":3082:3161   */\n              tag_108\n              tag_40\n              jump\t// in\n            tag_108:\n                /* \"#utility.yul\":3051:3163   */\n            tag_107:\n                /* \"#utility.yul\":3172:3226   */\n              tag_109\n                /* \"#utility.yul\":3219:3225   */\n              dup5\n                /* \"#utility.yul\":3214:3217   */\n              dup3\n                /* \"#utility.yul\":3209:3212   */\n              dup6\n                /* \"#utility.yul\":3172:3226   */\n              tag_46\n              jump\t// in\n            tag_109:\n                /* \"#utility.yul\":2891:3232   */\n              pop\n                /* \"#utility.yul\":2807:3232   */\n              swap4\n              swap3\n              pop\n              pop\n              pop\n              jump\t// out\n                /* \"#utility.yul\":3252:3592   */\n            tag_48:\n                /* \"#utility.yul\":3308:3313   */\n              0x00\n                /* \"#utility.yul\":3357:3360   */\n              dup3\n                /* \"#utility.yul\":3350:3354   */\n              0x1f\n                /* \"#utility.yul\":3342:3348   */\n              dup4\n                /* \"#utility.yul\":3338:3355   */\n              add\n                /* \"#utility.yul\":3334:3361   */\n              slt\n                /* \"#utility.yul\":3324:3446   */\n              tag_111\n              jumpi\n                /* \"#utility.yul\":3365:3444   */\n              tag_112\n              tag_39\n              jump\t// in\n            tag_112:\n                /* \"#utility.yul\":3324:3446   */\n            tag_111:\n                /* \"#utility.yul\":3482:3488   */\n              dup2\n                /* \"#utility.yul\":3469:3489   */\n              calldataload\n                /* \"#utility.yul\":3507:3586   */\n              tag_113\n                /* \"#utility.yul\":3582:3585   */\n              dup5\n                /* \"#utility.yul\":3574:3580   */\n              dup3\n                /* \"#utility.yul\":3567:3571   */\n              0x20\n                /* \"#utility.yul\":3559:3565   */\n              dup7\n                /* \"#utility.yul\":3555:3572   */\n              add\n                /* \"#utility.yul\":3507:3586   */\n              tag_47\n              jump\t// in\n            tag_113:\n                /* \"#utility.yul\":3498:3586   */\n              swap2\n              pop\n                /* \"#utility.yul\":3314:3592   */\n              pop\n                /* \"#utility.yul\":3252:3592   */\n              swap3\n              swap2\n              pop\n              pop\n              jump\t// out\n                /* \"#utility.yul\":3598:4252   */\n            tag_17:\n                /* \"#utility.yul\":3676:3682   */\n              0x00\n                /* \"#utility.yul\":3684:3690   */\n              0x00\n                /* \"#utility.yul\":3733:3735   */\n              0x40\n                /* \"#utility.yul\":3721:3730   */\n              dup4\n                /* \"#utility.yul\":3712:3719   */\n              dup6\n                /* \"#utility.yul\":3708:3731   */\n              sub\n                /* \"#utility.yul\":3704:3736   */\n              slt\n                /* \"#utility.yul\":3701:3820   */\n              iszero\n              tag_115\n              jumpi\n                /* \"#utility.yul\":3739:3818   */\n              tag_116\n              tag_35\n              jump\t// in\n            tag_116:\n                /* \"#utility.yul\":3701:3820   */\n            tag_115:\n                /* \"#utility.yul\":3887:3888   */\n              0x00\n                /* \"#utility.yul\":3876:3885   */\n              dup4\n                /* \"#utility.yul\":3872:3889   */\n              add\n                /* \"#utility.yul\":3859:3890   */\n              calldataload\n                /* \"#utility.yul\":3917:3935   */\n              0xffffffffffffffff\n                /* \"#utility.yul\":3909:3915   */\n              dup2\n                /* \"#utility.yul\":3906:3936   */\n              gt\n                /* \"#utility.yul\":3903:4020   */\n              iszero\n              tag_117\n              jumpi\n                /* \"#utility.yul\":3939:4018   */\n              tag_118\n              tag_36\n              jump\t// in\n            tag_118:\n                /* \"#utility.yul\":3903:4020   */\n            tag_117:\n                /* \"#utility.yul\":4044:4107   */\n              tag_119\n                /* \"#utility.yul\":4099:4106   */\n              dup6\n                /* \"#utility.yul\":4090:4096   */\n              dup3\n                /* \"#utility.yul\":4079:4088   */\n              dup7\n                /* \"#utility.yul\":4075:4097   */\n              add\n                /* \"#utility.yul\":4044:4107   */\n              tag_48\n              jump\t// in\n            tag_119:\n                /* \"#utility.yul\":4034:4107   */\n              swap3\n              pop\n                /* \"#utility.yul\":3830:4117   */\n              pop\n                /* \"#utility.yul\":4156:4158   */\n              0x20\n                /* \"#utility.yul\":4182:4235   */\n              tag_120\n                /* \"#utility.yul\":4227:4234   */\n              dup6\n                /* \"#utility.yul\":4218:4224   */\n              dup3\n                /* \"#utility.yul\":4207:4216   */\n              dup7\n                /* \"#utility.yul\":4203:4225   */\n              add\n                /* \"#utility.yul\":4182:4235   */\n              tag_38\n              jump\t// in\n            tag_120:\n                /* \"#utility.yul\":4172:4235   */\n              swap2\n              pop\n                /* \"#utility.yul\":4127:4245   */\n              pop\n                /* \"#utility.yul\":3598:4252   */\n              swap3\n              pop\n              swap3\n              swap1\n              pop\n              jump\t// out\n                /* \"#utility.yul\":4258:4767   */\n            tag_21:\n                /* \"#utility.yul\":4327:4333   */\n              0x00\n                /* \"#utility.yul\":4376:4378   */\n              0x20\n                /* \"#utility.yul\":4364:4373   */\n              dup3\n                /* \"#utility.yul\":4355:4362   */\n              dup5\n                /* \"#utility.yul\":4351:4374   */\n              sub\n                /* \"#utility.yul\":4347:4379   */\n              slt\n                /* \"#utility.yul\":4344:4463   */\n              iszero\n              tag_122\n              jumpi\n                /* \"#utility.yul\":4382:4461   */\n              tag_123\n              tag_35\n              jump\t// in\n            tag_123:\n                /* \"#utility.yul\":4344:4463   */\n            tag_122:\n                /* \"#utility.yul\":4530:4531   */\n              0x00\n                /* \"#utility.yul\":4519:4528   */\n              dup3\n                /* \"#utility.yul\":4515:4532   */\n              add\n                /* \"#utility.yul\":4502:4533   */\n              calldataload\n                /* \"#utility.yul\":4560:4578   */\n              0xffffffffffffffff\n                /* \"#utility.yul\":4552:4558   */\n              dup2\n                /* \"#utility.yul\":4549:4579   */\n              gt\n                /* \"#utility.yul\":4546:4663   */\n              iszero\n              tag_124\n              jumpi\n                /* \"#utility.yul\":4582:4661   */\n              tag_125\n              tag_36\n              jump\t// in\n            tag_125:\n                /* \"#utility.yul\":4546:4663   */\n            tag_124:\n                /* \"#utility.yul\":4687:4750   */\n              tag_126\n                /* \"#utility.yul\":4742:4749   */\n              dup5\n                /* \"#utility.yul\":4733:4739   */\n              dup3\n                /* \"#utility.yul\":4722:4731   */\n              dup6\n                /* \"#utility.yul\":4718:4740   */\n              add\n                /* \"#utility.yul\":4687:4750   */\n              tag_48\n              jump\t// in\n            tag_126:\n                /* \"#utility.yul\":4677:4750   */\n              swap2\n              pop\n                /* \"#utility.yul\":4473:4760   */\n              pop\n                /* \"#utility.yul\":4258:4767   */\n              swap3\n              swap2\n              pop\n              pop\n              jump\t// out\n                /* \"#utility.yul\":4773:4872   */\n            tag_49:\n                /* \"#utility.yul\":4825:4831   */\n              0x00\n                /* \"#utility.yul\":4859:4864   */\n              dup2\n                /* \"#utility.yul\":4853:4865   */\n              mload\n                /* \"#utility.yul\":4843:4865   */\n              swap1\n              pop\n                /* \"#utility.yul\":4773:4872   */\n              swap2\n              swap1\n              pop\n              jump\t// out\n                /* \"#utility.yul\":4878:5058   */\n            tag_50:\n                /* \"#utility.yul\":4926:5003   */\n              0x4e487b7100000000000000000000000000000000000000000000000000000000\n                /* \"#utility.yul\":4923:4924   */\n              0x00\n                /* \"#utility.yul\":4916:5004   */\n              mstore\n                /* \"#utility.yul\":5023:5027   */\n              0x22\n                /* \"#utility.yul\":5020:5021   */\n              0x04\n                /* \"#utility.yul\":5013:5028   */\n              mstore\n                /* \"#utility.yul\":5047:5051   */\n              0x24\n                /* \"#utility.yul\":5044:5045   */\n              0x00\n                /* \"#utility.yul\":5037:5052   */\n              revert\n                /* \"#utility.yul\":5064:5384   */\n            tag_51:\n                /* \"#utility.yul\":5108:5114   */\n              0x00\n                /* \"#utility.yul\":5145:5146   */\n              0x02\n                /* \"#utility.yul\":5139:5143   */\n              dup3\n                /* \"#utility.yul\":5135:5147   */\n              div\n                /* \"#utility.yul\":5125:5147   */\n              swap1\n              pop\n                /* \"#utility.yul\":5192:5193   */\n              0x01\n                /* \"#utility.yul\":5186:5190   */\n              dup3\n                /* \"#utility.yul\":5182:5194   */\n              and\n                /* \"#utility.yul\":5213:5231   */\n              dup1\n                /* \"#utility.yul\":5203:5284   */\n              tag_130\n              jumpi\n                /* \"#utility.yul\":5269:5273   */\n              0x7f\n                /* \"#utility.yul\":5261:5267   */\n              dup3\n                /* \"#utility.yul\":5257:5274   */\n              and\n                /* \"#utility.yul\":5247:5274   */\n              swap2\n              pop\n                /* \"#utility.yul\":5203:5284   */\n            tag_130:\n                /* \"#utility.yul\":5331:5333   */\n              0x20\n                /* \"#utility.yul\":5323:5329   */\n              dup3\n                /* \"#utility.yul\":5320:5334   */\n              lt\n                /* \"#utility.yul\":5300:5318   */\n              dup2\n                /* \"#utility.yul\":5297:5335   */\n              sub\n                /* \"#utility.yul\":5294:5378   */\n              tag_131\n              jumpi\n                /* \"#utility.yul\":5350:5368   */\n              tag_132\n              tag_50\n              jump\t// in\n            tag_132:\n                /* \"#utility.yul\":5294:5378   */\n            tag_131:\n                /* \"#utility.yul\":5115:5384   */\n              pop\n                /* \"#utility.yul\":5064:5384   */\n              swap2\n              swap1\n              pop\n              jump\t// out\n                /* \"#utility.yul\":5390:5531   */\n            tag_52:\n                /* \"#utility.yul\":5439:5443   */\n              0x00\n                /* \"#utility.yul\":5462:5465   */\n              dup2\n                /* \"#utility.yul\":5454:5465   */\n              swap1\n              pop\n                /* \"#utility.yul\":5485:5488   */\n              dup2\n                /* \"#utility.yul\":5482:5483   */\n              0x00\n                /* \"#utility.yul\":5475:5489   */\n              mstore\n                /* \"#utility.yul\":5519:5523   */\n              0x20\n                /* \"#utility.yul\":5516:5517   */\n              0x00\n                /* \"#utility.yul\":5506:5524   */\n              keccak256\n                /* \"#utility.yul\":5498:5524   */\n              swap1\n              pop\n                /* \"#utility.yul\":5390:5531   */\n              swap2\n              swap1\n              pop\n              jump\t// out\n                /* \"#utility.yul\":5537:5630   */\n            tag_53:\n                /* \"#utility.yul\":5574:5580   */\n              0x00\n                /* \"#utility.yul\":5621:5623   */\n              0x20\n                /* \"#utility.yul\":5616:5618   */\n              0x1f\n                /* \"#utility.yul\":5609:5614   */\n              dup4\n                /* \"#utility.yul\":5605:5619   */\n              add\n                /* \"#utility.yul\":5601:5624   */\n              div\n                /* \"#utility.yul\":5591:5624   */\n              swap1\n              pop\n                /* \"#utility.yul\":5537:5630   */\n              swap2\n              swap1\n              pop\n              jump\t// out\n                /* \"#utility.yul\":5636:5743   */\n            tag_54:\n                /* \"#utility.yul\":5680:5688   */\n              0x00\n                /* \"#utility.yul\":5730:5735   */\n              dup3\n                /* \"#utility.yul\":5724:5728   */\n              dup3\n                /* \"#utility.yul\":5720:5736   */\n              shl\n                /* \"#utility.yul\":5699:5736   */\n              swap1\n              pop\n                /* \"#utility.yul\":5636:5743   */\n              swap3\n              swap2\n              pop\n              pop\n              jump\t// out\n                /* \"#utility.yul\":5749:6142   */\n            tag_55:\n                /* \"#utility.yul\":5818:5824   */\n              0x00\n                /* \"#utility.yul\":5868:5869   */\n              0x08\n                /* \"#utility.yul\":5856:5866   */\n              dup4\n                /* \"#utility.yul\":5852:5870   */\n              mul\n                /* \"#utility.yul\":5891:5988   */\n              tag_137\n                /* \"#utility.yul\":5921:5987   */\n              0xffffffffffffffffffffffffffffffffffffffffffffffffffffffffffffffff\n                /* \"#utility.yul\":5910:5919   */\n              dup3\n                /* \"#utility.yul\":5891:5988   */\n              tag_54\n              jump\t// in\n            tag_137:\n                /* \"#utility.yul\":6009:6048   */\n              tag_138\n                /* \"#utility.yul\":6039:6047   */\n              dup7\n                /* \"#utility.yul\":6028:6037   */\n              dup4\n                /* \"#utility.yul\":6009:6048   */\n              tag_54\n              jump\t// in\n            tag_138:\n                /* \"#utility.yul\":5997:6048   */\n              swap6\n              pop\n                /* \"#utility.yul\":6081:6085   */\n              dup1\n                /* \"#utility.yul\":6077:6086   */\n              not\n                /* \"#utility.yul\":6070:6075   */\n              dup5\n                /* \"#utility.yul\":6066:6087   */\n              and\n                /* \"#utility.yul\":6057:6087   */\n              swap4\n              pop\n                /* \"#utility.yul\":6130:6134   */\n              dup1\n                /* \"#utility.yul\":6120:6128   */\n              dup7\n                /* \"#utility.yul\":6116:6135   */\n              and\n                /* \"#utility.yul\":6109:6114   */\n              dup5\n                /* \"#utility.yul\":6106:6136   */\n              or\n                /* \"#utility.yul\":6096:6136   */\n              swap3\n              pop\n                /* \"#utility.yul\":5825:6142   */\n              pop\n              pop\n                /* \"#utility.yul\":5749:6142   */\n              swap4\n              swap3\n              pop\n              pop\n              pop\n              jump\t// out\n                /* \"#utility.yul\":6148:6208   */\n            tag_56:\n                /* \"#utility.yul\":6176:6179   */\n              0x00\n                /* \"#utility.yul\":6197:6202   */\n              dup2\n                /* \"#utility.yul\":6190:6202   */\n              swap1\n              pop\n                /* \"#utility.yul\":6148:6208   */\n              swap2\n              swap1\n              pop\n              jump\t// out\n                /* \"#utility.yul\":6214:6356   */\n            tag_57:\n                /* \"#utility.yul\":6264:6273   */\n              0x00\n                /* \"#utility.yul\":6297:6350   */\n              tag_141\n                /* \"#utility.yul\":6315:6349   */\n              tag_142\n                /* \"#utility.yul\":6324:6348   */\n              tag_143\n                /* \"#utility.yul\":6342:6347   */\n              dup5\n                /* \"#utility.yul\":6324:6348   */\n              tag_32\n              jump\t// in\n            tag_143:\n                /* \"#utility.yul\":6315:6349   */\n              tag_56\n              jump\t// in\n            tag_142:\n                /* \"#utility.yul\":6297:6350   */\n              tag_32\n              jump\t// in\n            tag_141:\n                /* \"#utility.yul\":6284:6350   */\n              swap1\n              pop\n                /* \"#utility.yul\":6214:6356   */\n              swap2\n              swap1\n              pop\n              jump\t// out\n                /* \"#utility.yul\":6362:6437   */\n            tag_58:\n                /* \"#utility.yul\":6405:6408   */\n              0x00\n                /* \"#utility.yul\":6426:6431   */\n              dup2\n                /* \"#utility.yul\":6419:6431   */\n              swap1\n              pop\n                /* \"#utility.yul\":6362:6437   */\n              swap2\n              swap1\n              pop\n              jump\t// out\n                /* \"#utility.yul\":6443:6712   */\n            tag_59:\n                /* \"#utility.yul\":6553:6592   */\n              tag_146\n                /* \"#utility.yul\":6584:6591   */\n              dup4\n                /* \"#utility.yul\":6553:6592   */\n              tag_57\n              jump\t// in\n            tag_146:\n                /* \"#utility.yul\":6614:6705   */\n              tag_147\n                /* \"#utility.yul\":6663:6704   */\n              tag_148\n                /* \"#utility.yul\":6687:6703   */\n              dup3\n                /* \"#utility.yul\":6663:6704   */\n              tag_58\n              jump\t// in\n            tag_148:\n                /* \"#utility.yul\":6655:6661   */\n              dup5\n                /* \"#utility.yul\":6648:6652   */\n              dup5\n                /* \"#utility.yul\":6642:6653   */\n              sload\n                /* \"#utility.yul\":6614:6705   */\n              tag_55\n              jump\t// in\n            tag_147:\n                /* \"#utility.yul\":6608:6612   */\n              dup3\n                /* \"#utility.yul\":6601:6706   */\n              sstore\n                /* \"#utility.yul\":6519:6712   */\n              pop\n                /* \"#utility.yul\":6443:6712   */\n              pop\n              pop\n              pop\n              jump\t// out\n                /* \"#utility.yul\":6718:6791   */\n            tag_60:\n                /* \"#utility.yul\":6763:6766   */\n              0x00\n                /* \"#utility.yul\":6784:6785   */\n              0x00\n                /* \"#utility.yul\":6777:6785   */\n              swap1\n              pop\n                /* \"#utility.yul\":6718:6791   */\n              swap1\n              jump\t// out\n                /* \"#utility.yul\":6797:6986   */\n            tag_61:\n                /* \"#utility.yul\":6874:6906   */\n              tag_151\n              tag_60\n              jump\t// in\n            tag_151:\n                /* \"#utility.yul\":6915:6980   */\n              tag_152\n                /* \"#utility.yul\":6973:6979   */\n              dup2\n                /* \"#utility.yul\":6965:6971   */\n              dup5\n                /* \"#utility.yul\":6959:6963   */\n              dup5\n                /* \"#utility.yul\":6915:6980   */\n              tag_59\n              jump\t// in\n            tag_152:\n                /* \"#utility.yul\":6850:6986   */\n              pop\n                /* \"#utility.yul\":6797:6986   */\n              pop\n              pop\n              jump\t// out\n                /* \"#utility.yul\":6992:7178   */\n            tag_62:\n                /* \"#utility.yul\":7052:7172   */\n            tag_154:\n                /* \"#utility.yul\":7069:7072   */\n              dup2\n                /* \"#utility.yul\":7062:7067   */\n              dup2\n                /* \"#utility.yul\":7059:7073   */\n              lt\n                /* \"#utility.yul\":7052:7172   */\n              iszero\n              tag_156\n              jumpi\n                /* \"#utility.yul\":7123:7162   */\n              tag_157\n                /* \"#utility.yul\":7160:7161   */\n              0x00\n                /* \"#utility.yul\":7153:7158   */\n              dup3\n                /* \"#utility.yul\":7123:7162   */\n              tag_61\n              jump\t// in\n            tag_157:\n                /* \"#utility.yul\":7096:7097   */\n              0x01\n                /* \"#utility.yul\":7089:7094   */\n              dup2\n                /* \"#utility.yul\":7085:7098   */\n              add\n                /* \"#utility.yul\":7076:7098   */\n              swap1\n              pop\n                /* \"#utility.yul\":7052:7172   */\n              jump(tag_154)\n            tag_156:\n                /* \"#utility.yul\":6992:7178   */\n              pop\n              pop\n              jump\t// out\n                /* \"#utility.yul\":7184:7727   */\n            tag_63:\n                /* \"#utility.yul\":7285:7287   */\n              0x1f\n                /* \"#utility.yul\":7280:7283   */\n              dup3\n                /* \"#utility.yul\":7277:7288   */\n              gt\n                /* \"#utility.yul\":7274:7720   */\n              iszero\n              tag_159\n              jumpi\n                /* \"#utility.yul\":7319:7357   */\n              tag_160\n                /* \"#utility.yul\":7351:7356   */\n              dup2\n                /* \"#utility.yul\":7319:7357   */\n              tag_52\n              jump\t// in\n            tag_160:\n                /* \"#utility.yul\":7403:7432   */\n              tag_161\n                /* \"#utility.yul\":7421:7431   */\n              dup5\n                /* \"#utility.yul\":7403:7432   */\n              tag_53\n              jump\t// in\n            tag_161:\n                /* \"#utility.yul\":7393:7401   */\n              dup2\n                /* \"#utility.yul\":7389:7433   */\n              add\n                /* \"#utility.yul\":7586:7588   */\n              0x20\n                /* \"#utility.yul\":7574:7584   */\n              dup6\n                /* \"#utility.yul\":7571:7589   */\n              lt\n                /* \"#utility.yul\":7568:7617   */\n              iszero\n              tag_162\n              jumpi\n                /* \"#utility.yul\":7607:7615   */\n              dup2\n                /* \"#utility.yul\":7592:7615   */\n              swap1\n              pop\n                /* \"#utility.yul\":7568:7617   */\n            tag_162:\n                /* \"#utility.yul\":7630:7710   */\n              tag_163\n                /* \"#utility.yul\":7686:7708   */\n              tag_164\n                /* \"#utility.yul\":7704:7707   */\n              dup6\n                /* \"#utility.yul\":7686:7708   */\n              tag_53\n              jump\t// in\n            tag_164:\n                /* \"#utility.yul\":7676:7684   */\n              dup4\n                /* \"#utility.yul\":7672:7709   */\n              add\n                /* \"#utility.yul\":7659:7670   */\n              dup3\n                /* \"#utility.yul\":7630:7710   */\n              tag_62\n              jump\t// in\n            tag_163:\n                /* \"#utility.yul\":7289:7720   */\n              pop\n              pop\n                /* \"#utility.yul\":7274:7720   */\n            tag_159:\n                /* \"#utility.yul\":7184:7727   */\n              pop\n              pop\n              pop\n              jump\t// out\n                /* \"#utility.yul\":7733:7850   */\n            tag_64:\n                /* \"#utility.yul\":7787:7795   */\n              0x00\n                /* \"#utility.yul\":7837:7842   */\n              dup3\n                /* \"#utility.yul\":7831:7835   */\n              dup3\n                /* \"#utility.yul\":7827:7843   */\n              shr\n                /* \"#utility.yul\":7806:7843   */\n              swap1\n              pop\n                /* \"#utility.yul\":7733:7850   */\n              swap3\n              swap2\n              pop\n              pop\n              jump\t// out\n                /* \"#utility.yul\":7856:8025   */\n            tag_65:\n                /* \"#utility.yul\":7900:7906   */\n              0x00\n                /* \"#utility.yul\":7933:7984   */\n              tag_167\n                /* \"#utility.yul\":7981:7982   */\n              0x00\n                /* \"#utility.yul\":7977:7983   */\n              not\n                /* \"#utility.yul\":7969:7974   */\n              dup5\n                /* \"#utility.yul\":7966:7967   */\n              0x08\n                /* \"#utility.yul\":7962:7975   */\n              mul\n                /* \"#utility.yul\":7933:7984   */\n              tag_64\n              jump\t// in\n            tag_167:\n                /* \"#utility.yul\":7929:7985   */\n              not\n                /* \"#utility.yul\":8014:8018   */\n              dup1\n                /* \"#utility.yul\":8008:8012   */\n              dup4\n                /* \"#utility.yul\":8004:8019   */\n              and\n                /* \"#utility.yul\":7994:8019   */\n              swap2\n              pop\n                /* \"#utility.yul\":7907:8025   */\n              pop\n                /* \"#utility.yul\":7856:8025   */\n              swap3\n              swap2\n              pop\n              pop\n              jump\t// out\n                /* \"#utility.yul\":8030:8325   */\n            tag_66:\n                /* \"#utility.yul\":8106:8110   */\n              0x00\n                /* \"#utility.yul\":8252:8281   */\n              tag_169\n                /* \"#utility.yul\":8277:8280   */\n              dup4\n                /* \"#utility.yul\":8271:8275   */\n              dup4\n                /* \"#utility.yul\":8252:8281   */\n              tag_65\n              jump\t// in\n            tag_169:\n                /* \"#utility.yul\":8244:8281   */\n              swap2\n              pop\n                /* \"#utility.yul\":8314:8317   */\n              dup3\n                /* \"#utility.yul\":8311:8312   */\n              0x02\n                /* \"#utility.yul\":8307:8318   */\n              mul\n                /* \"#utility.yul\":8301:8305   */\n              dup3\n                /* \"#utility.yul\":8298:8319   */\n              or\n                /* \"#utility.yul\":8290:8319   */\n              swap1\n              pop\n                /* \"#utility.yul\":8030:8325   */\n              swap3\n              swap2\n              pop\n              pop\n              jump\t// out\n                /* \"#utility.yul\":8330:9725   */\n            tag_29:\n                /* \"#utility.yul\":8447:8484   */\n              tag_171\n                /* \"#utility.yul\":8480:8483   */\n              dup3\n                /* \"#utility.yul\":8447:8484   */\n              tag_49\n              jump\t// in\n            tag_171:\n                /* \"#utility.yul\":8549:8567   */\n              0xffffffffffffffff\n                /* \"#utility.yul\":8541:8547   */\n              dup2\n                /* \"#utility.yul\":8538:8568   */\n              gt\n                /* \"#utility.yul\":8535:8591   */\n              iszero\n              tag_172\n              jumpi\n                /* \"#utility.yul\":8571:8589   */\n              tag_173\n              tag_42\n              jump\t// in\n            tag_173:\n                /* \"#utility.yul\":8535:8591   */\n            tag_172:\n                /* \"#utility.yul\":8615:8653   */\n              tag_174\n                /* \"#utility.yul\":8647:8651   */\n              dup3\n                /* \"#utility.yul\":8641:8652   */\n              sload\n                /* \"#utility.yul\":8615:8653   */\n              tag_51\n              jump\t// in\n            tag_174:\n                /* \"#utility.yul\":8700:8767   */\n              tag_175\n                /* \"#utility.yul\":8760:8766   */\n              dup3\n                /* \"#utility.yul\":8752:8758   */\n              dup3\n                /* \"#utility.yul\":8746:8750   */\n              dup6\n                /* \"#utility.yul\":8700:8767   */\n              tag_63\n              jump\t// in\n            tag_175:\n                /* \"#utility.yul\":8794:8795   */\n              0x00\n                /* \"#utility.yul\":8818:8822   */\n              0x20\n                /* \"#utility.yul\":8805:8822   */\n              swap1\n              pop\n                /* \"#utility.yul\":8850:8852   */\n              0x1f\n                /* \"#utility.yul\":8842:8848   */\n              dup4\n                /* \"#utility.yul\":8839:8853   */\n              gt\n                /* \"#utility.yul\":8867:8868   */\n              0x01\n                /* \"#utility.yul\":8862:9480   */\n              dup2\n              eq\n              tag_177\n              jumpi\n                /* \"#utility.yul\":9524:9525   */\n              0x00\n                /* \"#utility.yul\":9541:9547   */\n              dup5\n                /* \"#utility.yul\":9538:9615   */\n              iszero\n              tag_178\n              jumpi\n                /* \"#utility.yul\":9590:9599   */\n              dup3\n                /* \"#utility.yul\":9585:9588   */\n              dup8\n                /* \"#utility.yul\":9581:9600   */\n              add\n                /* \"#utility.yul\":9575:9601   */\n              mload\n                /* \"#utility.yul\":9566:9601   */\n              swap1\n              pop\n                /* \"#utility.yul\":9538:9615   */\n            tag_178:\n                /* \"#utility.yul\":9641:9708   */\n              tag_179\n                /* \"#utility.yul\":9701:9707   */\n              dup6\n                /* \"#utility.yul\":9694:9699   */\n              dup3\n                /* \"#utility.yul\":9641:9708   */\n              tag_66\n              jump\t// in\n            tag_179:\n                /* \"#utility.yul\":9635:9639   */\n              dup7\n                /* \"#utility.yul\":9628:9709   */\n              sstore\n                /* \"#utility.yul\":9497:9719   */\n              pop\n                /* \"#utility.yul\":8832:9719   */\n              jump(tag_176)\n                /* \"#utility.yul\":8862:9480   */\n            tag_177:\n                /* \"#utility.yul\":8914:8918   */\n              0x1f\n                /* \"#utility.yul\":8910:8919   */\n              not\n                /* \"#utility.yul\":8902:8908   */\n              dup5\n                /* \"#utility.yul\":8898:8920   */\n              and\n                /* \"#utility.yul\":8948:8985   */\n              tag_180\n                /* \"#utility.yul\":8980:8984   */\n              dup7\n                /* \"#utility.yul\":8948:8985   */\n              tag_52\n              jump\t// in\n            tag_180:\n                /* \"#utility.yul\":9007:9008   */\n              0x00\n                /* \"#utility.yul\":9021:9229   */\n            tag_181:\n                /* \"#utility.yul\":9035:9042   */\n              dup3\n                /* \"#utility.yul\":9032:9033   */\n              dup2\n                /* \"#utility.yul\":9029:9043   */\n              lt\n                /* \"#utility.yul\":9021:9229   */\n              iszero\n              tag_183\n              jumpi\n                /* \"#utility.yul\":9114:9123   */\n              dup5\n                /* \"#utility.yul\":9109:9112   */\n              dup10\n                /* \"#utility.yul\":9105:9124   */\n              add\n                /* \"#utility.yul\":9099:9125   */\n              mload\n                /* \"#utility.yul\":9091:9097   */\n              dup3\n                /* \"#utility.yul\":9084:9126   */\n              sstore\n                /* \"#utility.yul\":9165:9166   */\n              0x01\n                /* \"#utility.yul\":9157:9163   */\n              dup3\n                /* \"#utility.yul\":9153:9167   */\n              add\n                /* \"#utility.yul\":9143:9167   */\n              swap2\n              pop\n                /* \"#utility.yul\":9212:9214   */\n              0x20\n                /* \"#utility.yul\":9201:9210   */\n              dup6\n                /* \"#utility.yul\":9197:9215   */\n              add\n                /* \"#utility.yul\":9184:9215   */\n              swap5\n              pop\n                /* \"#utility.yul\":9058:9062   */\n              0x20\n                /* \"#utility.yul\":9055:9056   */\n              dup2\n                /* \"#utility.yul\":9051:9063   */\n              add\n                /* \"#utility.yul\":9046:9063   */\n              swap1\n              pop\n                /* \"#utility.yul\":9021:9229   */\n              jump(tag_181)\n            tag_183:\n                /* \"#utility.yul\":9257:9263   */\n              dup7\n                /* \"#utility.yul\":9248:9255   */\n              dup4\n                /* \"#utility.yul\":9245:9264   */\n              lt\n                /* \"#utility.yul\":9242:9421   */\n              iszero\n              tag_184\n              jumpi\n                /* \"#utility.yul\":9315:9324   */\n              dup5\n                /* \"#utility.yul\":9310:9313   */\n              dup10\n                /* \"#utility.yul\":9306:9325   */\n              add\n                /* \"#utility.yul\":9300:9326   */\n              mload\n                /* \"#utility.yul\":9358:9406   */\n              tag_185\n                /* \"#utility.yul\":9400:9404   */\n              0x1f\n                /* \"#utility.yul\":9392:9398   */\n              dup10\n                /* \"#utility.yul\":9388:9405   */\n              and\n                /* \"#utility.yul\":9377:9386   */\n              dup3\n                /* \"#utility.yul\":9358:9406   */\n              tag_65\n              jump\t// in\n            tag_185:\n                /* \"#utility.yul\":9350:9356   */\n              dup4\n                /* \"#utility.yul\":9343:9407   */\n              sstore\n                /* \"#utility.yul\":9265:9421   */\n              pop\n                /* \"#utility.yul\":9242:9421   */\n            tag_184:\n                /* \"#utility.yul\":9467:9468   */\n              0x01\n                /* \"#utility.yul\":9463:9464   */\n              0x02\n                /* \"#utility.yul\":9455:9461   */\n              dup9\n                /* \"#utility.yul\":9451:9465   */\n              mul\n                /* \"#utility.yul\":9447:9469   */\n              add\n                /* \"#utility.yul\":9441:9445   */\n              dup9\n                /* \"#utility.yul\":9434:9470   */\n              sstore\n                /* \"#utility.yul\":8869:9480   */\n              pop\n              pop\n              pop\n                /* \"#utility.yul\":8832:9719   */\n            tag_176:\n              pop\n                /* \"#utility.yul\":8422:9725   */\n              pop\n              pop\n              pop\n                /* \"#utility.yul\":8330:9725   */\n              pop\n              pop\n              jump\t// out\n                /* \"#utility.yul\":9731:9879   */\n            tag_67:\n                /* \"#utility.yul\":9833:9844   */\n              0x00\n                /* \"#utility.yul\":9870:9873   */\n              dup2\n                /* \"#utility.yul\":9855:9873   */\n              swap1\n              pop\n                /* \"#utility.yul\":9731:9879   */\n              swap3\n              swap2\n              pop\n              pop\n              jump\t// out\n                /* \"#utility.yul\":9885:10024   */\n            tag_68:\n                /* \"#utility.yul\":9974:9980   */\n              dup3\n                /* \"#utility.yul\":9969:9972   */\n              dup2\n                /* \"#utility.yul\":9964:9967   */\n              dup4\n                /* \"#utility.yul\":9958:9981   */\n              mcopy\n                /* \"#utility.yul\":10015:10016   */\n              0x00\n                /* \"#utility.yul\":10006:10012   */\n              dup4\n                /* \"#utility.yul\":10001:10004   */\n              dup4\n                /* \"#utility.yul\":9997:10013   */\n              add\n                /* \"#utility.yul\":9990:10017   */\n              mstore\n                /* \"#utility.yul\":9885:10024   */\n              pop\n              pop\n              pop\n              jump\t// out\n                /* \"#utility.yul\":10030:10420   */\n            tag_69:\n                /* \"#utility.yul\":10136:10139   */\n              0x00\n                /* \"#utility.yul\":10164:10203   */\n              tag_189\n                /* \"#utility.yul\":10197:10202   */\n              dup3\n                /* \"#utility.yul\":10164:10203   */\n              tag_49\n              jump\t// in\n            tag_189:\n                /* \"#utility.yul\":10219:10308   */\n              tag_190\n                /* \"#utility.yul\":10301:10307   */\n              dup2\n                /* \"#utility.yul\":10296:10299   */\n              dup6\n                /* \"#utility.yul\":10219:10308   */\n              tag_67\n              jump\t// in\n            tag_190:\n                /* \"#utility.yul\":10212:10308   */\n              swap4\n              pop\n                /* \"#utility.yul\":10317:10382   */\n              tag_191\n                /* \"#utility.yul\":10375:10381   */\n              dup2\n                /* \"#utility.yul\":10370:10373   */\n              dup6\n                /* \"#utility.yul\":10363:10367   */\n              0x20\n                /* \"#utility.yul\":10356:10361   */\n              dup7\n                /* \"#utility.yul\":10352:10368   */\n              add\n                /* \"#utility.yul\":10317:10382   */\n              tag_68\n              jump\t// in\n            tag_191:\n                /* \"#utility.yul\":10407:10413   */\n              dup1\n                /* \"#utility.yul\":10402:10405   */\n              dup5\n                /* \"#utility.yul\":10398:10414   */\n              add\n                /* \"#utility.yul\":10391:10414   */\n              swap2\n              pop\n                /* \"#utility.yul\":10140:10420   */\n              pop\n                /* \"#utility.yul\":10030:10420   */\n              swap3\n              swap2\n              pop\n              pop\n              jump\t// out\n                /* \"#utility.yul\":10426:10701   */\n            tag_31:\n                /* \"#utility.yul\":10558:10561   */\n              0x00\n                /* \"#utility.yul\":10580:10675   */\n              tag_193\n                /* \"#utility.yul\":10671:10674   */\n              dup3\n                /* \"#utility.yul\":10662:10668   */\n              dup5\n                /* \"#utility.yul\":10580:10675   */\n              tag_69\n              jump\t// in\n            tag_193:\n                /* \"#utility.yul\":10573:10675   */\n              swap2\n              pop\n                /* \"#utility.yul\":10692:10695   */\n              dup2\n                /* \"#utility.yul\":10685:10695   */\n              swap1\n              pop\n                /* \"#utility.yul\":10426:10701   */\n              swap3\n              swap2\n              pop\n              pop\n              jump\t// out\n\n            auxdata: 0xa26469706673582212201f4134f059fe0301eecb500f67cca74bf021c301f9e7c85b5e98b8a5edbbc5be64736f6c634300081e0033\n        }\n    }\n\n    auxdata: 0xa26469706673582212205b35cf47fe1ff29181948670919dd51e86e35c747576900dbdba5d7a8d42796c64736f6c634300081e0033\n}\n",
				"bytecode": {
					"linkReferences": {},
					"object": "6080604052348015600e575f5ffd5b50610c8b8061001c5f395ff3fe608060405234801561000f575f5ffd5b506004361061004a575f3560e01c80631563700f1461004e5780631dda65411461006a578063a1786dbe14610074578063c5f19c20146100a4575b5f5ffd5b61006860048036038101906100639190610335565b6100d4565b005b61007261017d565b005b61008e60048036038101906100899190610373565b610203565b60405161009b9190610418565b60405180910390f35b6100be60048036038101906100b99190610373565b61023d565b6040516100cb9190610440565b60405180910390f35b5f5f83815481106100e8576100e7610459565b5b905f5260205f20015f9054906101000a900473ffffffffffffffffffffffffffffffffffffffff1690508073ffffffffffffffffffffffffffffffffffffffff16636057361d836040518263ffffffff1660e01b815260040161014b9190610440565b5f604051808303815f87803b158015610162575f5ffd5b505af1158015610174573d5f5f3e3d5ffd5b50505050505050565b5f60405161018a906102f1565b604051809103905ff0801580156101a3573d5f5f3e3d5ffd5b50908060018154018082558091505060019003905f5260205f20015f9091909190916101000a81548173ffffffffffffffffffffffffffffffffffffffff021916908373ffffffffffffffffffffffffffffffffffffffff160217905550565b5f8181548110610211575f80fd5b905f5260205f20015f915054906101000a900473ffffffffffffffffffffffffffffffffffffffff1681565b5f5f5f838154811061025257610251610459565b5b905f5260205f20015f9054906101000a900473ffffffffffffffffffffffffffffffffffffffff1690508073ffffffffffffffffffffffffffffffffffffffff16632e64cec16040518163ffffffff1660e01b8152600401602060405180830381865afa1580156102c5573d5f5f3e3d5ffd5b505050506040513d601f19601f820116820180604052508101906102e9919061049a565b915050919050565b610790806104c683390190565b5f5ffd5b5f819050919050565b61031481610302565b811461031e575f5ffd5b50565b5f8135905061032f8161030b565b92915050565b5f5f6040838503121561034b5761034a6102fe565b5b5f61035885828601610321565b925050602061036985828601610321565b9150509250929050565b5f60208284031215610388576103876102fe565b5b5f61039584828501610321565b91505092915050565b5f73ffffffffffffffffffffffffffffffffffffffff82169050919050565b5f819050919050565b5f6103e06103db6103d68461039e565b6103bd565b61039e565b9050919050565b5f6103f1826103c6565b9050919050565b5f610402826103e7565b9050919050565b610412816103f8565b82525050565b5f60208201905061042b5f830184610409565b92915050565b61043a81610302565b82525050565b5f6020820190506104535f830184610431565b92915050565b7f4e487b71000000000000000000000000000000000000000000000000000000005f52603260045260245ffd5b5f815190506104948161030b565b92915050565b5f602082840312156104af576104ae6102fe565b5b5f6104bc84828501610486565b9150509291505056fe6080604052348015600e575f5ffd5b506107748061001c5f395ff3fe608060405234801561000f575f5ffd5b506004361061004a575f3560e01c80632e64cec11461004e5780636057361d1461006c5780636f760f41146100885780638bab8dd5146100a4575b5f5ffd5b6100566100d4565b60405161006391906101ae565b60405180910390f35b61008660048036038101906100819190610202565b6100dc565b005b6100a2600480360381019061009d9190610369565b6100e5565b005b6100be60048036038101906100b991906103c3565b610169565b6040516100cb91906101ae565b60405180910390f35b5f5f54905090565b805f8190555050565b6001604051806040016040528083815260200184815250908060018154018082558091505060019003905f5260205f2090600202015f909190919091505f820151815f0155602082015181600101908161013f9190610611565b505050806002836040516101539190610728565b9081526020016040518091039020819055505050565b6002818051602081018201805184825260208301602085012081835280955050505050505f915090505481565b5f819050919050565b6101a881610196565b82525050565b5f6020820190506101c15f83018461019f565b92915050565b5f604051905090565b5f5ffd5b5f5ffd5b6101e181610196565b81146101eb575f5ffd5b50565b5f813590506101fc816101d8565b92915050565b5f60208284031215610217576102166101d0565b5b5f610224848285016101ee565b91505092915050565b5f5ffd5b5f5ffd5b5f601f19601f8301169050919050565b7f4e487b71000000000000000000000000000000000000000000000000000000005f52604160045260245ffd5b61027b82610235565b810181811067ffffffffffffffff8211171561029a57610299610245565b5b80604052505050565b5f6102ac6101c7565b90506102b88282610272565b919050565b5f67ffffffffffffffff8211156102d7576102d6610245565b5b6102e082610235565b9050602081019050919050565b828183375f83830152505050565b5f61030d610308846102bd565b6102a3565b90508281526020810184848401111561032957610328610231565b5b6103348482856102ed565b509392505050565b5f82601f8301126103505761034f61022d565b5b81356103608482602086016102fb565b91505092915050565b5f5f6040838503121561037f5761037e6101d0565b5b5f83013567ffffffffffffffff81111561039c5761039b6101d4565b5b6103a88582860161033c565b92505060206103b9858286016101ee565b9150509250929050565b5f602082840312156103d8576103d76101d0565b5b5f82013567ffffffffffffffff8111156103f5576103f46101d4565b5b6104018482850161033c565b91505092915050565b5f81519050919050565b7f4e487b71000000000000000000000000000000000000000000000000000000005f52602260045260245ffd5b5f600282049050600182168061045857607f821691505b60208210810361046b5761046a610414565b5b50919050565b5f819050815f5260205f209050919050565b5f6020601f8301049050919050565b5f82821b905092915050565b5f600883026104cd7fffffffffffffffffffffffffffffffffffffffffffffffffffffffffffffffff82610492565b6104d78683610492565b95508019841693508086168417925050509392505050565b5f819050919050565b5f61051261050d61050884610196565b6104ef565b610196565b9050919050565b5f819050919050565b61052b836104f8565b61053f61053782610519565b84845461049e565b825550505050565b5f5f905090565b610556610547565b610561818484610522565b505050565b5b81811015610584576105795f8261054e565b600181019050610567565b5050565b601f8211156105c95761059a81610471565b6105a384610483565b810160208510156105b2578190505b6105c66105be85610483565b830182610566565b50505b505050565b5f82821c905092915050565b5f6105e95f19846008026105ce565b1980831691505092915050565b5f61060183836105da565b9150826002028217905092915050565b61061a8261040a565b67ffffffffffffffff81111561063357610632610245565b5b61063d8254610441565b610648828285610588565b5f60209050601f831160018114610679575f8415610667578287015190505b61067185826105f6565b8655506106d8565b601f19841661068786610471565b5f5b828110156106ae57848901518255600182019150602085019450602081019050610689565b868310156106cb57848901516106c7601f8916826105da565b8355505b6001600288020188555050505b505050505050565b5f81905092915050565b8281835e5f83830152505050565b5f6107028261040a565b61070c81856106e0565b935061071c8185602086016106ea565b80840191505092915050565b5f61073382846106f8565b91508190509291505056fea26469706673582212201f4134f059fe0301eecb500f67cca74bf021c301f9e7c85b5e98b8a5edbbc5be64736f6c634300081e0033a26469706673582212205b35cf47fe1ff29181948670919dd51e86e35c747576900dbdba5d7a8d42796c64736f6c634300081e0033",
					"opcodes": "PUSH1 0x80 PUSH1 0x40 MSTORE CALLVALUE DUP1 ISZERO PUSH1 0xE JUMPI PUSH0 PUSH0 REVERT JUMPDEST POP PUSH2 0xC8B DUP1 PUSH2 0x1C PUSH0 CODECOPY PUSH0 RETURN INVALID PUSH1 0x80 PUSH1 0x40 MSTORE CALLVALUE DUP1 ISZERO PUSH2 0xF JUMPI PUSH0 PUSH0 REVERT JUMPDEST POP PUSH1 0x4 CALLDATASIZE LT PUSH2 0x4A JUMPI PUSH0 CALLDATALOAD PUSH1 0xE0 SHR DUP1 PUSH4 0x1563700F EQ PUSH2 0x4E JUMPI DUP1 PUSH4 0x1DDA6541 EQ PUSH2 0x6A JUMPI DUP1 PUSH4 0xA1786DBE EQ PUSH2 0x74 JUMPI DUP1 PUSH4 0xC5F19C20 EQ PUSH2 0xA4 JUMPI JUMPDEST PUSH0 PUSH0 REVERT JUMPDEST PUSH2 0x68 PUSH1 0x4 DUP1 CALLDATASIZE SUB DUP2 ADD SWAP1 PUSH2 0x63 SWAP2 SWAP1 PUSH2 0x335 JUMP JUMPDEST PUSH2 0xD4 JUMP JUMPDEST STOP JUMPDEST PUSH2 0x72 PUSH2 0x17D JUMP JUMPDEST STOP JUMPDEST PUSH2 0x8E PUSH1 0x4 DUP1 CALLDATASIZE SUB DUP2 ADD SWAP1 PUSH2 0x89 SWAP2 SWAP1 PUSH2 0x373 JUMP JUMPDEST PUSH2 0x203 JUMP JUMPDEST PUSH1 0x40 MLOAD PUSH2 0x9B SWAP2 SWAP1 PUSH2 0x418 JUMP JUMPDEST PUSH1 0x40 MLOAD DUP1 SWAP2 SUB SWAP1 RETURN JUMPDEST PUSH2 0xBE PUSH1 0x4 DUP1 CALLDATASIZE SUB DUP2 ADD SWAP1 PUSH2 0xB9 SWAP2 SWAP1 PUSH2 0x373 JUMP JUMPDEST PUSH2 0x23D JUMP JUMPDEST PUSH1 0x40 MLOAD PUSH2 0xCB SWAP2 SWAP1 PUSH2 0x440 JUMP JUMPDEST PUSH1 0x40 MLOAD DUP1 SWAP2 SUB SWAP1 RETURN JUMPDEST PUSH0 PUSH0 DUP4 DUP2 SLOAD DUP2 LT PUSH2 0xE8 JUMPI PUSH2 0xE7 PUSH2 0x459 JUMP JUMPDEST JUMPDEST SWAP1 PUSH0 MSTORE PUSH1 0x20 PUSH0 KECCAK256 ADD PUSH0 SWAP1 SLOAD SWAP1 PUSH2 0x100 EXP SWAP1 DIV PUSH20 0xFFFFFFFFFFFFFFFFFFFFFFFFFFFFFFFFFFFFFFFF AND SWAP1 POP DUP1 PUSH20 0xFFFFFFFFFFFFFFFFFFFFFFFFFFFFFFFFFFFFFFFF AND PUSH4 0x6057361D DUP4 PUSH1 0x40 MLOAD DUP3 PUSH4 0xFFFFFFFF AND PUSH1 0xE0 SHL DUP2 MSTORE PUSH1 0x4 ADD PUSH2 0x14B SWAP2 SWAP1 PUSH2 0x440 JUMP JUMPDEST PUSH0 PUSH1 0x40 MLOAD DUP1 DUP4 SUB DUP2 PUSH0 DUP8 DUP1 EXTCODESIZE ISZERO DUP1 ISZERO PUSH2 0x162 JUMPI PUSH0 PUSH0 REVERT JUMPDEST POP GAS CALL ISZERO DUP1 ISZERO PUSH2 0x174 JUMPI RETURNDATASIZE PUSH0 PUSH0 RETURNDATACOPY RETURNDATASIZE PUSH0 REVERT JUMPDEST POP POP POP POP POP POP POP JUMP JUMPDEST PUSH0 PUSH1 0x40 MLOAD PUSH2 0x18A SWAP1 PUSH2 0x2F1 JUMP JUMPDEST PUSH1 0x40 MLOAD DUP1 SWAP2 SUB SWAP1 PUSH0 CREATE DUP1 ISZERO DUP1 ISZERO PUSH2 0x1A3 JUMPI RETURNDATASIZE PUSH0 PUSH0 RETURNDATACOPY RETURNDATASIZE PUSH0 REVERT JUMPDEST POP SWAP1 DUP1 PUSH1 0x1 DUP2 SLOAD ADD DUP1 DUP3 SSTORE DUP1 SWAP2 POP POP PUSH1 0x1 SWAP1 SUB SWAP1 PUSH0 MSTORE PUSH1 0x20 PUSH0 KECCAK256 ADD PUSH0 SWAP1 SWAP2 SWAP1 SWAP2 SWAP1 SWAP2 PUSH2 0x100 EXP DUP2 SLOAD DUP2 PUSH20 0xFFFFFFFFFFFFFFFFFFFFFFFFFFFFFFFFFFFFFFFF MUL NOT AND SWAP1 DUP4 PUSH20 0xFFFFFFFFFFFFFFFFFFFFFFFFFFFFFFFFFFFFFFFF AND MUL OR SWAP1 SSTORE POP JUMP JUMPDEST PUSH0 DUP2 DUP2 SLOAD DUP2 LT PUSH2 0x211 JUMPI PUSH0 DUP1 REVERT JUMPDEST SWAP1 PUSH0 MSTORE PUSH1 0x20 PUSH0 KECCAK256 ADD PUSH0 SWAP2 POP SLOAD SWAP1 PUSH2 0x100 EXP SWAP1 DIV PUSH20 0xFFFFFFFFFFFFFFFFFFFFFFFFFFFFFFFFFFFFFFFF AND DUP2 JUMP JUMPDEST PUSH0 PUSH0 PUSH0 DUP4 DUP2 SLOAD DUP2 LT PUSH2 0x252 JUMPI PUSH2 0x251 PUSH2 0x459 JUMP JUMPDEST JUMPDEST SWAP1 PUSH0 MSTORE PUSH1 0x20 PUSH0 KECCAK256 ADD PUSH0 SWAP1 SLOAD SWAP1 PUSH2 0x100 EXP SWAP1 DIV PUSH20 0xFFFFFFFFFFFFFFFFFFFFFFFFFFFFFFFFFFFFFFFF AND SWAP1 POP DUP1 PUSH20 0xFFFFFFFFFFFFFFFFFFFFFFFFFFFFFFFFFFFFFFFF AND PUSH4 0x2E64CEC1 PUSH1 0x40 MLOAD DUP2 PUSH4 0xFFFFFFFF AND PUSH1 0xE0 SHL DUP2 MSTORE PUSH1 0x4 ADD PUSH1 0x20 PUSH1 0x40 MLOAD DUP1 DUP4 SUB DUP2 DUP7 GAS STATICCALL ISZERO DUP1 ISZERO PUSH2 0x2C5 JUMPI RETURNDATASIZE PUSH0 PUSH0 RETURNDATACOPY RETURNDATASIZE PUSH0 REVERT JUMPDEST POP POP POP POP PUSH1 0x40 MLOAD RETURNDATASIZE PUSH1 0x1F NOT PUSH1 0x1F DUP3 ADD AND DUP3 ADD DUP1 PUSH1 0x40 MSTORE POP DUP2 ADD SWAP1 PUSH2 0x2E9 SWAP2 SWAP1 PUSH2 0x49A JUMP JUMPDEST SWAP2 POP POP SWAP2 SWAP1 POP JUMP JUMPDEST PUSH2 0x790 DUP1 PUSH2 0x4C6 DUP4 CODECOPY ADD SWAP1 JUMP JUMPDEST PUSH0 PUSH0 REVERT JUMPDEST PUSH0 DUP2 SWAP1 POP SWAP2 SWAP1 POP JUMP JUMPDEST PUSH2 0x314 DUP2 PUSH2 0x302 JUMP JUMPDEST DUP2 EQ PUSH2 0x31E JUMPI PUSH0 PUSH0 REVERT JUMPDEST POP JUMP JUMPDEST PUSH0 DUP2 CALLDATALOAD SWAP1 POP PUSH2 0x32F DUP2 PUSH2 0x30B JUMP JUMPDEST SWAP3 SWAP2 POP POP JUMP JUMPDEST PUSH0 PUSH0 PUSH1 0x40 DUP4 DUP6 SUB SLT ISZERO PUSH2 0x34B JUMPI PUSH2 0x34A PUSH2 0x2FE JUMP JUMPDEST JUMPDEST PUSH0 PUSH2 0x358 DUP6 DUP3 DUP7 ADD PUSH2 0x321 JUMP JUMPDEST SWAP3 POP POP PUSH1 0x20 PUSH2 0x369 DUP6 DUP3 DUP7 ADD PUSH2 0x321 JUMP JUMPDEST SWAP2 POP POP SWAP3 POP SWAP3 SWAP1 POP JUMP JUMPDEST PUSH0 PUSH1 0x20 DUP3 DUP5 SUB SLT ISZERO PUSH2 0x388 JUMPI PUSH2 0x387 PUSH2 0x2FE JUMP JUMPDEST JUMPDEST PUSH0 PUSH2 0x395 DUP5 DUP3 DUP6 ADD PUSH2 0x321 JUMP JUMPDEST SWAP2 POP POP SWAP3 SWAP2 POP POP JUMP JUMPDEST PUSH0 PUSH20 0xFFFFFFFFFFFFFFFFFFFFFFFFFFFFFFFFFFFFFFFF DUP3 AND SWAP1 POP SWAP2 SWAP1 POP JUMP JUMPDEST PUSH0 DUP2 SWAP1 POP SWAP2 SWAP1 POP JUMP JUMPDEST PUSH0 PUSH2 0x3E0 PUSH2 0x3DB PUSH2 0x3D6 DUP5 PUSH2 0x39E JUMP JUMPDEST PUSH2 0x3BD JUMP JUMPDEST PUSH2 0x39E JUMP JUMPDEST SWAP1 POP SWAP2 SWAP1 POP JUMP JUMPDEST PUSH0 PUSH2 0x3F1 DUP3 PUSH2 0x3C6 JUMP JUMPDEST SWAP1 POP SWAP2 SWAP1 POP JUMP JUMPDEST PUSH0 PUSH2 0x402 DUP3 PUSH2 0x3E7 JUMP JUMPDEST SWAP1 POP SWAP2 SWAP1 POP JUMP JUMPDEST PUSH2 0x412 DUP2 PUSH2 0x3F8 JUMP JUMPDEST DUP3 MSTORE POP POP JUMP JUMPDEST PUSH0 PUSH1 0x20 DUP3 ADD SWAP1 POP PUSH2 0x42B PUSH0 DUP4 ADD DUP5 PUSH2 0x409 JUMP JUMPDEST SWAP3 SWAP2 POP POP JUMP JUMPDEST PUSH2 0x43A DUP2 PUSH2 0x302 JUMP JUMPDEST DUP3 MSTORE POP POP JUMP JUMPDEST PUSH0 PUSH1 0x20 DUP3 ADD SWAP1 POP PUSH2 0x453 PUSH0 DUP4 ADD DUP5 PUSH2 0x431 JUMP JUMPDEST SWAP3 SWAP2 POP POP JUMP JUMPDEST PUSH32 0x4E487B7100000000000000000000000000000000000000000000000000000000 PUSH0 MSTORE PUSH1 0x32 PUSH1 0x4 MSTORE PUSH1 0x24 PUSH0 REVERT JUMPDEST PUSH0 DUP2 MLOAD SWAP1 POP PUSH2 0x494 DUP2 PUSH2 0x30B JUMP JUMPDEST SWAP3 SWAP2 POP POP JUMP JUMPDEST PUSH0 PUSH1 0x20 DUP3 DUP5 SUB SLT ISZERO PUSH2 0x4AF JUMPI PUSH2 0x4AE PUSH2 0x2FE JUMP JUMPDEST JUMPDEST PUSH0 PUSH2 0x4BC DUP5 DUP3 DUP6 ADD PUSH2 0x486 JUMP JUMPDEST SWAP2 POP POP SWAP3 SWAP2 POP POP JUMP INVALID PUSH1 0x80 PUSH1 0x40 MSTORE CALLVALUE DUP1 ISZERO PUSH1 0xE JUMPI PUSH0 PUSH0 REVERT JUMPDEST POP PUSH2 0x774 DUP1 PUSH2 0x1C PUSH0 CODECOPY PUSH0 RETURN INVALID PUSH1 0x80 PUSH1 0x40 MSTORE CALLVALUE DUP1 ISZERO PUSH2 0xF JUMPI PUSH0 PUSH0 REVERT JUMPDEST POP PUSH1 0x4 CALLDATASIZE LT PUSH2 0x4A JUMPI PUSH0 CALLDATALOAD PUSH1 0xE0 SHR DUP1 PUSH4 0x2E64CEC1 EQ PUSH2 0x4E JUMPI DUP1 PUSH4 0x6057361D EQ PUSH2 0x6C JUMPI DUP1 PUSH4 0x6F760F41 EQ PUSH2 0x88 JUMPI DUP1 PUSH4 0x8BAB8DD5 EQ PUSH2 0xA4 JUMPI JUMPDEST PUSH0 PUSH0 REVERT JUMPDEST PUSH2 0x56 PUSH2 0xD4 JUMP JUMPDEST PUSH1 0x40 MLOAD PUSH2 0x63 SWAP2 SWAP1 PUSH2 0x1AE JUMP JUMPDEST PUSH1 0x40 MLOAD DUP1 SWAP2 SUB SWAP1 RETURN JUMPDEST PUSH2 0x86 PUSH1 0x4 DUP1 CALLDATASIZE SUB DUP2 ADD SWAP1 PUSH2 0x81 SWAP2 SWAP1 PUSH2 0x202 JUMP JUMPDEST PUSH2 0xDC JUMP JUMPDEST STOP JUMPDEST PUSH2 0xA2 PUSH1 0x4 DUP1 CALLDATASIZE SUB DUP2 ADD SWAP1 PUSH2 0x9D SWAP2 SWAP1 PUSH2 0x369 JUMP JUMPDEST PUSH2 0xE5 JUMP JUMPDEST STOP JUMPDEST PUSH2 0xBE PUSH1 0x4 DUP1 CALLDATASIZE SUB DUP2 ADD SWAP1 PUSH2 0xB9 SWAP2 SWAP1 PUSH2 0x3C3 JUMP JUMPDEST PUSH2 0x169 JUMP JUMPDEST PUSH1 0x40 MLOAD PUSH2 0xCB SWAP2 SWAP1 PUSH2 0x1AE JUMP JUMPDEST PUSH1 0x40 MLOAD DUP1 SWAP2 SUB SWAP1 RETURN JUMPDEST PUSH0 PUSH0 SLOAD SWAP1 POP SWAP1 JUMP JUMPDEST DUP1 PUSH0 DUP2 SWAP1 SSTORE POP POP JUMP JUMPDEST PUSH1 0x1 PUSH1 0x40 MLOAD DUP1 PUSH1 0x40 ADD PUSH1 0x40 MSTORE DUP1 DUP4 DUP2 MSTORE PUSH1 0x20 ADD DUP5 DUP2 MSTORE POP SWAP1 DUP1 PUSH1 0x1 DUP2 SLOAD ADD DUP1 DUP3 SSTORE DUP1 SWAP2 POP POP PUSH1 0x1 SWAP1 SUB SWAP1 PUSH0 MSTORE PUSH1 0x20 PUSH0 KECCAK256 SWAP1 PUSH1 0x2 MUL ADD PUSH0 SWAP1 SWAP2 SWAP1 SWAP2 SWAP1 SWAP2 POP PUSH0 DUP3 ADD MLOAD DUP2 PUSH0 ADD SSTORE PUSH1 0x20 DUP3 ADD MLOAD DUP2 PUSH1 0x1 ADD SWAP1 DUP2 PUSH2 0x13F SWAP2 SWAP1 PUSH2 0x611 JUMP JUMPDEST POP POP POP DUP1 PUSH1 0x2 DUP4 PUSH1 0x40 MLOAD PUSH2 0x153 SWAP2 SWAP1 PUSH2 0x728 JUMP JUMPDEST SWAP1 DUP2 MSTORE PUSH1 0x20 ADD PUSH1 0x40 MLOAD DUP1 SWAP2 SUB SWAP1 KECCAK256 DUP2 SWAP1 SSTORE POP POP POP JUMP JUMPDEST PUSH1 0x2 DUP2 DUP1 MLOAD PUSH1 0x20 DUP2 ADD DUP3 ADD DUP1 MLOAD DUP5 DUP3 MSTORE PUSH1 0x20 DUP4 ADD PUSH1 0x20 DUP6 ADD KECCAK256 DUP2 DUP4 MSTORE DUP1 SWAP6 POP POP POP POP POP POP PUSH0 SWAP2 POP SWAP1 POP SLOAD DUP2 JUMP JUMPDEST PUSH0 DUP2 SWAP1 POP SWAP2 SWAP1 POP JUMP JUMPDEST PUSH2 0x1A8 DUP2 PUSH2 0x196 JUMP JUMPDEST DUP3 MSTORE POP POP JUMP JUMPDEST PUSH0 PUSH1 0x20 DUP3 ADD SWAP1 POP PUSH2 0x1C1 PUSH0 DUP4 ADD DUP5 PUSH2 0x19F JUMP JUMPDEST SWAP3 SWAP2 POP POP JUMP JUMPDEST PUSH0 PUSH1 0x40 MLOAD SWAP1 POP SWAP1 JUMP JUMPDEST PUSH0 PUSH0 REVERT JUMPDEST PUSH0 PUSH0 REVERT JUMPDEST PUSH2 0x1E1 DUP2 PUSH2 0x196 JUMP JUMPDEST DUP2 EQ PUSH2 0x1EB JUMPI PUSH0 PUSH0 REVERT JUMPDEST POP JUMP JUMPDEST PUSH0 DUP2 CALLDATALOAD SWAP1 POP PUSH2 0x1FC DUP2 PUSH2 0x1D8 JUMP JUMPDEST SWAP3 SWAP2 POP POP JUMP JUMPDEST PUSH0 PUSH1 0x20 DUP3 DUP5 SUB SLT ISZERO PUSH2 0x217 JUMPI PUSH2 0x216 PUSH2 0x1D0 JUMP JUMPDEST JUMPDEST PUSH0 PUSH2 0x224 DUP5 DUP3 DUP6 ADD PUSH2 0x1EE JUMP JUMPDEST SWAP2 POP POP SWAP3 SWAP2 POP POP JUMP JUMPDEST PUSH0 PUSH0 REVERT JUMPDEST PUSH0 PUSH0 REVERT JUMPDEST PUSH0 PUSH1 0x1F NOT PUSH1 0x1F DUP4 ADD AND SWAP1 POP SWAP2 SWAP1 POP JUMP JUMPDEST PUSH32 0x4E487B7100000000000000000000000000000000000000000000000000000000 PUSH0 MSTORE PUSH1 0x41 PUSH1 0x4 MSTORE PUSH1 0x24 PUSH0 REVERT JUMPDEST PUSH2 0x27B DUP3 PUSH2 0x235 JUMP JUMPDEST DUP2 ADD DUP2 DUP2 LT PUSH8 0xFFFFFFFFFFFFFFFF DUP3 GT OR ISZERO PUSH2 0x29A JUMPI PUSH2 0x299 PUSH2 0x245 JUMP JUMPDEST JUMPDEST DUP1 PUSH1 0x40 MSTORE POP POP POP JUMP JUMPDEST PUSH0 PUSH2 0x2AC PUSH2 0x1C7 JUMP JUMPDEST SWAP1 POP PUSH2 0x2B8 DUP3 DUP3 PUSH2 0x272 JUMP JUMPDEST SWAP2 SWAP1 POP JUMP JUMPDEST PUSH0 PUSH8 0xFFFFFFFFFFFFFFFF DUP3 GT ISZERO PUSH2 0x2D7 JUMPI PUSH2 0x2D6 PUSH2 0x245 JUMP JUMPDEST JUMPDEST PUSH2 0x2E0 DUP3 PUSH2 0x235 JUMP JUMPDEST SWAP1 POP PUSH1 0x20 DUP2 ADD SWAP1 POP SWAP2 SWAP1 POP JUMP JUMPDEST DUP3 DUP2 DUP4 CALLDATACOPY PUSH0 DUP4 DUP4 ADD MSTORE POP POP POP JUMP JUMPDEST PUSH0 PUSH2 0x30D PUSH2 0x308 DUP5 PUSH2 0x2BD JUMP JUMPDEST PUSH2 0x2A3 JUMP JUMPDEST SWAP1 POP DUP3 DUP2 MSTORE PUSH1 0x20 DUP2 ADD DUP5 DUP5 DUP5 ADD GT ISZERO PUSH2 0x329 JUMPI PUSH2 0x328 PUSH2 0x231 JUMP JUMPDEST JUMPDEST PUSH2 0x334 DUP5 DUP3 DUP6 PUSH2 0x2ED JUMP JUMPDEST POP SWAP4 SWAP3 POP POP POP JUMP JUMPDEST PUSH0 DUP3 PUSH1 0x1F DUP4 ADD SLT PUSH2 0x350 JUMPI PUSH2 0x34F PUSH2 0x22D JUMP JUMPDEST JUMPDEST DUP2 CALLDATALOAD PUSH2 0x360 DUP5 DUP3 PUSH1 0x20 DUP7 ADD PUSH2 0x2FB JUMP JUMPDEST SWAP2 POP POP SWAP3 SWAP2 POP POP JUMP JUMPDEST PUSH0 PUSH0 PUSH1 0x40 DUP4 DUP6 SUB SLT ISZERO PUSH2 0x37F JUMPI PUSH2 0x37E PUSH2 0x1D0 JUMP JUMPDEST JUMPDEST PUSH0 DUP4 ADD CALLDATALOAD PUSH8 0xFFFFFFFFFFFFFFFF DUP2 GT ISZERO PUSH2 0x39C JUMPI PUSH2 0x39B PUSH2 0x1D4 JUMP JUMPDEST JUMPDEST PUSH2 0x3A8 DUP6 DUP3 DUP7 ADD PUSH2 0x33C JUMP JUMPDEST SWAP3 POP POP PUSH1 0x20 PUSH2 0x3B9 DUP6 DUP3 DUP7 ADD PUSH2 0x1EE JUMP JUMPDEST SWAP2 POP POP SWAP3 POP SWAP3 SWAP1 POP JUMP JUMPDEST PUSH0 PUSH1 0x20 DUP3 DUP5 SUB SLT ISZERO PUSH2 0x3D8 JUMPI PUSH2 0x3D7 PUSH2 0x1D0 JUMP JUMPDEST JUMPDEST PUSH0 DUP3 ADD CALLDATALOAD PUSH8 0xFFFFFFFFFFFFFFFF DUP2 GT ISZERO PUSH2 0x3F5 JUMPI PUSH2 0x3F4 PUSH2 0x1D4 JUMP JUMPDEST JUMPDEST PUSH2 0x401 DUP5 DUP3 DUP6 ADD PUSH2 0x33C JUMP JUMPDEST SWAP2 POP POP SWAP3 SWAP2 POP POP JUMP JUMPDEST PUSH0 DUP2 MLOAD SWAP1 POP SWAP2 SWAP1 POP JUMP JUMPDEST PUSH32 0x4E487B7100000000000000000000000000000000000000000000000000000000 PUSH0 MSTORE PUSH1 0x22 PUSH1 0x4 MSTORE PUSH1 0x24 PUSH0 REVERT JUMPDEST PUSH0 PUSH1 0x2 DUP3 DIV SWAP1 POP PUSH1 0x1 DUP3 AND DUP1 PUSH2 0x458 JUMPI PUSH1 0x7F DUP3 AND SWAP2 POP JUMPDEST PUSH1 0x20 DUP3 LT DUP2 SUB PUSH2 0x46B JUMPI PUSH2 0x46A PUSH2 0x414 JUMP JUMPDEST JUMPDEST POP SWAP2 SWAP1 POP JUMP JUMPDEST PUSH0 DUP2 SWAP1 POP DUP2 PUSH0 MSTORE PUSH1 0x20 PUSH0 KECCAK256 SWAP1 POP SWAP2 SWAP1 POP JUMP JUMPDEST PUSH0 PUSH1 0x20 PUSH1 0x1F DUP4 ADD DIV SWAP1 POP SWAP2 SWAP1 POP JUMP JUMPDEST PUSH0 DUP3 DUP3 SHL SWAP1 POP SWAP3 SWAP2 POP POP JUMP JUMPDEST PUSH0 PUSH1 0x8 DUP4 MUL PUSH2 0x4CD PUSH32 0xFFFFFFFFFFFFFFFFFFFFFFFFFFFFFFFFFFFFFFFFFFFFFFFFFFFFFFFFFFFFFFFF DUP3 PUSH2 0x492 JUMP JUMPDEST PUSH2 0x4D7 DUP7 DUP4 PUSH2 0x492 JUMP JUMPDEST SWAP6 POP DUP1 NOT DUP5 AND SWAP4 POP DUP1 DUP7 AND DUP5 OR SWAP3 POP POP POP SWAP4 SWAP3 POP POP POP JUMP JUMPDEST PUSH0 DUP2 SWAP1 POP SWAP2 SWAP1 POP JUMP JUMPDEST PUSH0 PUSH2 0x512 PUSH2 0x50D PUSH2 0x508 DUP5 PUSH2 0x196 JUMP JUMPDEST PUSH2 0x4EF JUMP JUMPDEST PUSH2 0x196 JUMP JUMPDEST SWAP1 POP SWAP2 SWAP1 POP JUMP JUMPDEST PUSH0 DUP2 SWAP1 POP SWAP2 SWAP1 POP JUMP JUMPDEST PUSH2 0x52B DUP4 PUSH2 0x4F8 JUMP JUMPDEST PUSH2 0x53F PUSH2 0x537 DUP3 PUSH2 0x519 JUMP JUMPDEST DUP5 DUP5 SLOAD PUSH2 0x49E JUMP JUMPDEST DUP3 SSTORE POP POP POP POP JUMP JUMPDEST PUSH0 PUSH0 SWAP1 POP SWAP1 JUMP JUMPDEST PUSH2 0x556 PUSH2 0x547 JUMP JUMPDEST PUSH2 0x561 DUP2 DUP5 DUP5 PUSH2 0x522 JUMP JUMPDEST POP POP POP JUMP JUMPDEST JUMPDEST DUP2 DUP2 LT ISZERO PUSH2 0x584 JUMPI PUSH2 0x579 PUSH0 DUP3 PUSH2 0x54E JUMP JUMPDEST PUSH1 0x1 DUP2 ADD SWAP1 POP PUSH2 0x567 JUMP JUMPDEST POP POP JUMP JUMPDEST PUSH1 0x1F DUP3 GT ISZERO PUSH2 0x5C9 JUMPI PUSH2 0x59A DUP2 PUSH2 0x471 JUMP JUMPDEST PUSH2 0x5A3 DUP5 PUSH2 0x483 JUMP JUMPDEST DUP2 ADD PUSH1 0x20 DUP6 LT ISZERO PUSH2 0x5B2 JUMPI DUP2 SWAP1 POP JUMPDEST PUSH2 0x5C6 PUSH2 0x5BE DUP6 PUSH2 0x483 JUMP JUMPDEST DUP4 ADD DUP3 PUSH2 0x566 JUMP JUMPDEST POP POP JUMPDEST POP POP POP JUMP JUMPDEST PUSH0 DUP3 DUP3 SHR SWAP1 POP SWAP3 SWAP2 POP POP JUMP JUMPDEST PUSH0 PUSH2 0x5E9 PUSH0 NOT DUP5 PUSH1 0x8 MUL PUSH2 0x5CE JUMP JUMPDEST NOT DUP1 DUP4 AND SWAP2 POP POP SWAP3 SWAP2 POP POP JUMP JUMPDEST PUSH0 PUSH2 0x601 DUP4 DUP4 PUSH2 0x5DA JUMP JUMPDEST SWAP2 POP DUP3 PUSH1 0x2 MUL DUP3 OR SWAP1 POP SWAP3 SWAP2 POP POP JUMP JUMPDEST PUSH2 0x61A DUP3 PUSH2 0x40A JUMP JUMPDEST PUSH8 0xFFFFFFFFFFFFFFFF DUP2 GT ISZERO PUSH2 0x633 JUMPI PUSH2 0x632 PUSH2 0x245 JUMP JUMPDEST JUMPDEST PUSH2 0x63D DUP3 SLOAD PUSH2 0x441 JUMP JUMPDEST PUSH2 0x648 DUP3 DUP3 DUP6 PUSH2 0x588 JUMP JUMPDEST PUSH0 PUSH1 0x20 SWAP1 POP PUSH1 0x1F DUP4 GT PUSH1 0x1 DUP2 EQ PUSH2 0x679 JUMPI PUSH0 DUP5 ISZERO PUSH2 0x667 JUMPI DUP3 DUP8 ADD MLOAD SWAP1 POP JUMPDEST PUSH2 0x671 DUP6 DUP3 PUSH2 0x5F6 JUMP JUMPDEST DUP7 SSTORE POP PUSH2 0x6D8 JUMP JUMPDEST PUSH1 0x1F NOT DUP5 AND PUSH2 0x687 DUP7 PUSH2 0x471 JUMP JUMPDEST PUSH0 JUMPDEST DUP3 DUP2 LT ISZERO PUSH2 0x6AE JUMPI DUP5 DUP10 ADD MLOAD DUP3 SSTORE PUSH1 0x1 DUP3 ADD SWAP2 POP PUSH1 0x20 DUP6 ADD SWAP5 POP PUSH1 0x20 DUP2 ADD SWAP1 POP PUSH2 0x689 JUMP JUMPDEST DUP7 DUP4 LT ISZERO PUSH2 0x6CB JUMPI DUP5 DUP10 ADD MLOAD PUSH2 0x6C7 PUSH1 0x1F DUP10 AND DUP3 PUSH2 0x5DA JUMP JUMPDEST DUP4 SSTORE POP JUMPDEST PUSH1 0x1 PUSH1 0x2 DUP9 MUL ADD DUP9 SSTORE POP POP POP JUMPDEST POP POP POP POP POP POP JUMP JUMPDEST PUSH0 DUP2 SWAP1 POP SWAP3 SWAP2 POP POP JUMP JUMPDEST DUP3 DUP2 DUP4 MCOPY PUSH0 DUP4 DUP4 ADD MSTORE POP POP POP JUMP JUMPDEST PUSH0 PUSH2 0x702 DUP3 PUSH2 0x40A JUMP JUMPDEST PUSH2 0x70C DUP2 DUP6 PUSH2 0x6E0 JUMP JUMPDEST SWAP4 POP PUSH2 0x71C DUP2 DUP6 PUSH1 0x20 DUP7 ADD PUSH2 0x6EA JUMP JUMPDEST DUP1 DUP5 ADD SWAP2 POP POP SWAP3 SWAP2 POP POP JUMP JUMPDEST PUSH0 PUSH2 0x733 DUP3 DUP5 PUSH2 0x6F8 JUMP JUMPDEST SWAP2 POP DUP2 SWAP1 POP SWAP3 SWAP2 POP POP JUMP INVALID LOG2 PUSH5 0x6970667358 0x22 SLT KECCAK256 0x1F COINBASE CALLVALUE CREATE MSIZE INVALID SUB ADD RETURNCONTRACT 0xCB POP 0xF PUSH8 0xCCA74BF021C301F9 SWAPN 0xC8 JUMPDEST MCOPY SWAP9 0xB8 0xA5 0xED 0xBB 0xC5 0xBE PUSH5 0x736F6C6343 STOP ADDMOD 0x1E STOP CALLER LOG2 PUSH5 0x6970667358 0x22 SLT KECCAK256 JUMPDEST CALLDATALOAD 0xCF SELFBALANCE INVALID 0x1F CALLCODE SWAP2 DUP2 SWAP5 DUP7 PUSH17 0x919DD51E86E35C747576900DBDBA5D7A8D TIMESTAMP PUSH26 0x6C64736F6C634300081E00330000000000000000000000000000 "
				},
				"gasEstimates": {
					"creation": {
						"codeDepositCost": "642200",
						"executionCost": "674",
						"totalCost": "642874"
					},
					"external": {
						"createSimpleStorageContract()": "infinite",
						"listOfSimpleStorage(uint256)": "infinite",
						"sfGet(uint256)": "infinite",
						"sfStore(uint256,uint256)": "infinite"
					}
				},
				"methodIdentifiers": {
					"createSimpleStorageContract()": "1dda6541",
					"listOfSimpleStorage(uint256)": "a1786dbe",
					"sfGet(uint256)": "c5f19c20",
					"sfStore(uint256,uint256)": "1563700f"
				}
			},
			"storageLayout": {
				"storage": [
					{
						"astId": 69,
						"contract": "learning/Solidity Smart Contract Development/Storage Factory/StorageFactoryList.sol:StorageFactory",
						"label": "listOfSimpleStorage",
						"offset": 0,
						"slot": "0",
						"type": "t_array(t_contract(SimpleStorage)58)dyn_storage"
					}
				],
				"types": {
					"t_array(t_contract(SimpleStorage)58)dyn_storage": {
						"base": "t_contract(SimpleStorage)58",
						"encoding": "dynamic_array",
						"label": "contract SimpleStorage[]",
						"numberOfBytes": "32"
					},
					"t_contract(SimpleStorage)58": {
						"encoding": "inplace",
						"label": "contract SimpleStorage",
						"numberOfBytes": "20"
					}
				}
			},
			"userdoc": {
				"kind": "user",
				"methods": {},
				"version": 1
			}
		}
	}
}