{
	"security/etheranut/Fallback/Hack.sol": {
		"Fallback": {
			"abi": [
				{
					"inputs": [],
					"stateMutability": "nonpayable",
					"type": "constructor"
				},
				{
					"inputs": [],
					"name": "contribute",
					"outputs": [],
					"stateMutability": "payable",
					"type": "function"
				},
				{
					"inputs": [
						{
							"internalType": "address",
							"name": "",
							"type": "address"
						}
					],
					"name": "contributions",
					"outputs": [
						{
							"internalType": "uint256",
							"name": "",
							"type": "uint256"
						}
					],
					"stateMutability": "view",
					"type": "function"
				},
				{
					"inputs": [],
					"name": "getContribution",
					"outputs": [
						{
							"internalType": "uint256",
							"name": "",
							"type": "uint256"
						}
					],
					"stateMutability": "view",
					"type": "function"
				},
				{
					"inputs": [],
					"name": "owner",
					"outputs": [
						{
							"internalType": "address",
							"name": "",
							"type": "address"
						}
					],
					"stateMutability": "view",
					"type": "function"
				},
				{
					"inputs": [],
					"name": "withdraw",
					"outputs": [],
					"stateMutability": "nonpayable",
					"type": "function"
				},
				{
					"stateMutability": "payable",
					"type": "receive"
				}
			],
			"devdoc": {
				"kind": "dev",
				"methods": {},
				"version": 1
			},
			"evm": {
				"assembly": "    /* \"security/etheranut/Fallback/Hack.sol\":60:1011  contract Fallback {... */\n  mstore(0x40, 0x80)\n    /* \"security/etheranut/Fallback/Hack.sol\":169:275  constructor() {... */\n  callvalue\n  dup1\n  iszero\n  tag_1\n  jumpi\n  revert(0x00, 0x00)\ntag_1:\n  pop\n    /* \"security/etheranut/Fallback/Hack.sol\":202:212  msg.sender */\n  caller\n    /* \"security/etheranut/Fallback/Hack.sol\":194:199  owner */\n  0x01\n  0x00\n    /* \"security/etheranut/Fallback/Hack.sol\":194:212  owner = msg.sender */\n  0x0100\n  exp\n  dup2\n  sload\n  dup2\n  0xffffffffffffffffffffffffffffffffffffffff\n  mul\n  not\n  and\n  swap1\n  dup4\n  0xffffffffffffffffffffffffffffffffffffffff\n  and\n  mul\n  or\n  swap1\n  sstore\n  pop\n    /* \"security/etheranut/Fallback/Hack.sol\":251:267  1000 * (1 ether) */\n  0x3635c9adc5dea00000\n    /* \"security/etheranut/Fallback/Hack.sol\":223:236  contributions */\n  0x00\n    /* \"security/etheranut/Fallback/Hack.sol\":223:248  contributions[msg.sender] */\n  0x00\n    /* \"security/etheranut/Fallback/Hack.sol\":237:247  msg.sender */\n  caller\n    /* \"security/etheranut/Fallback/Hack.sol\":223:248  contributions[msg.sender] */\n  0xffffffffffffffffffffffffffffffffffffffff\n  and\n  0xffffffffffffffffffffffffffffffffffffffff\n  and\n  dup2\n  mstore\n  0x20\n  add\n  swap1\n  dup2\n  mstore\n  0x20\n  add\n  0x00\n  keccak256\n    /* \"security/etheranut/Fallback/Hack.sol\":223:267  contributions[msg.sender] = 1000 * (1 ether) */\n  dup2\n  swap1\n  sstore\n  pop\n    /* \"security/etheranut/Fallback/Hack.sol\":60:1011  contract Fallback {... */\n  dataSize(sub_0)\n  dup1\n  dataOffset(sub_0)\n  0x00\n  codecopy\n  0x00\n  return\nstop\n\nsub_0: assembly {\n        /* \"security/etheranut/Fallback/Hack.sol\":60:1011  contract Fallback {... */\n      mstore(0x40, 0x80)\n      jumpi(tag_1, lt(calldatasize, 0x04))\n      shr(0xe0, calldataload(0x00))\n      dup1\n      0x3ccfd60b\n      eq\n      tag_3\n      jumpi\n      dup1\n      0x42e94c90\n      eq\n      tag_4\n      jumpi\n      dup1\n      0x8da5cb5b\n      eq\n      tag_5\n      jumpi\n      dup1\n      0xd7bb99ba\n      eq\n      tag_6\n      jumpi\n      dup1\n      0xf10fdf5c\n      eq\n      tag_7\n      jumpi\n      jump(tag_2)\n    tag_1:\n      jumpi(tag_2, calldatasize)\n        /* \"security/etheranut/Fallback/Hack.sol\":936:937  0 */\n      0x00\n        /* \"security/etheranut/Fallback/Hack.sol\":924:933  msg.value */\n      callvalue\n        /* \"security/etheranut/Fallback/Hack.sol\":924:937  msg.value > 0 */\n      gt\n        /* \"security/etheranut/Fallback/Hack.sol\":924:970  msg.value > 0 && contributions[msg.sender] > 0 */\n      dup1\n      iszero\n      tag_10\n      jumpi\n      pop\n        /* \"security/etheranut/Fallback/Hack.sol\":969:970  0 */\n      0x00\n        /* \"security/etheranut/Fallback/Hack.sol\":941:954  contributions */\n      0x00\n        /* \"security/etheranut/Fallback/Hack.sol\":941:966  contributions[msg.sender] */\n      0x00\n        /* \"security/etheranut/Fallback/Hack.sol\":955:965  msg.sender */\n      caller\n        /* \"security/etheranut/Fallback/Hack.sol\":941:966  contributions[msg.sender] */\n      0xffffffffffffffffffffffffffffffffffffffff\n      and\n      0xffffffffffffffffffffffffffffffffffffffff\n      and\n      dup2\n      mstore\n      0x20\n      add\n      swap1\n      dup2\n      mstore\n      0x20\n      add\n      0x00\n      keccak256\n      sload\n        /* \"security/etheranut/Fallback/Hack.sol\":941:970  contributions[msg.sender] > 0 */\n      gt\n        /* \"security/etheranut/Fallback/Hack.sol\":924:970  msg.value > 0 && contributions[msg.sender] > 0 */\n    tag_10:\n        /* \"security/etheranut/Fallback/Hack.sol\":916:971  require(msg.value > 0 && contributions[msg.sender] > 0) */\n      tag_11\n      jumpi\n      revert(0x00, 0x00)\n    tag_11:\n        /* \"security/etheranut/Fallback/Hack.sol\":990:1000  msg.sender */\n      caller\n        /* \"security/etheranut/Fallback/Hack.sol\":982:987  owner */\n      0x01\n      0x00\n        /* \"security/etheranut/Fallback/Hack.sol\":982:1000  owner = msg.sender */\n      0x0100\n      exp\n      dup2\n      sload\n      dup2\n      0xffffffffffffffffffffffffffffffffffffffff\n      mul\n      not\n      and\n      swap1\n      dup4\n      0xffffffffffffffffffffffffffffffffffffffff\n      and\n      mul\n      or\n      swap1\n      sstore\n      stop\n        /* \"security/etheranut/Fallback/Hack.sol\":60:1011  contract Fallback {... */\n    tag_2:\n      revert(0x00, 0x00)\n        /* \"security/etheranut/Fallback/Hack.sol\":768:870  function withdraw() public onlyOwner {... */\n    tag_3:\n      callvalue\n      dup1\n      iszero\n      tag_12\n      jumpi\n      revert(0x00, 0x00)\n    tag_12:\n      pop\n      tag_13\n      tag_14\n      jump\t// in\n    tag_13:\n      stop\n        /* \"security/etheranut/Fallback/Hack.sol\":85:133  mapping(address => uint256) public contributions */\n    tag_4:\n      callvalue\n      dup1\n      iszero\n      tag_15\n      jumpi\n      revert(0x00, 0x00)\n    tag_15:\n      pop\n      tag_16\n      0x04\n      dup1\n      calldatasize\n      sub\n      dup2\n      add\n      swap1\n      tag_17\n      swap2\n      swap1\n      tag_18\n      jump\t// in\n    tag_17:\n      tag_19\n      jump\t// in\n    tag_16:\n      mload(0x40)\n      tag_20\n      swap2\n      swap1\n      tag_21\n      jump\t// in\n    tag_20:\n      mload(0x40)\n      dup1\n      swap2\n      sub\n      swap1\n      return\n        /* \"security/etheranut/Fallback/Hack.sol\":140:160  address public owner */\n    tag_5:\n      callvalue\n      dup1\n      iszero\n      tag_22\n      jumpi\n      revert(0x00, 0x00)\n    tag_22:\n      pop\n      tag_23\n      tag_24\n      jump\t// in\n    tag_23:\n      mload(0x40)\n      tag_25\n      swap2\n      swap1\n      tag_26\n      jump\t// in\n    tag_25:\n      mload(0x40)\n      dup1\n      swap2\n      sub\n      swap1\n      return\n        /* \"security/etheranut/Fallback/Hack.sol\":398:644  function contribute() public payable {... */\n    tag_6:\n      tag_27\n      tag_28\n      jump\t// in\n    tag_27:\n      stop\n        /* \"security/etheranut/Fallback/Hack.sol\":652:760  function getContribution() public view returns (uint256) {... */\n    tag_7:\n      callvalue\n      dup1\n      iszero\n      tag_29\n      jumpi\n      revert(0x00, 0x00)\n    tag_29:\n      pop\n      tag_30\n      tag_31\n      jump\t// in\n    tag_30:\n      mload(0x40)\n      tag_32\n      swap2\n      swap1\n      tag_21\n      jump\t// in\n    tag_32:\n      mload(0x40)\n      dup1\n      swap2\n      sub\n      swap1\n      return\n        /* \"security/etheranut/Fallback/Hack.sol\":768:870  function withdraw() public onlyOwner {... */\n    tag_14:\n        /* \"security/etheranut/Fallback/Hack.sol\":337:342  owner */\n      0x01\n      0x00\n      swap1\n      sload\n      swap1\n      0x0100\n      exp\n      swap1\n      div\n      0xffffffffffffffffffffffffffffffffffffffff\n      and\n        /* \"security/etheranut/Fallback/Hack.sol\":323:342  msg.sender == owner */\n      0xffffffffffffffffffffffffffffffffffffffff\n      and\n        /* \"security/etheranut/Fallback/Hack.sol\":323:333  msg.sender */\n      caller\n        /* \"security/etheranut/Fallback/Hack.sol\":323:342  msg.sender == owner */\n      0xffffffffffffffffffffffffffffffffffffffff\n      and\n      eq\n        /* \"security/etheranut/Fallback/Hack.sol\":315:370  require(msg.sender == owner, \"caller is not the owner\") */\n      tag_34\n      jumpi\n      mload(0x40)\n      0x08c379a000000000000000000000000000000000000000000000000000000000\n      dup2\n      mstore\n      0x04\n      add\n      tag_35\n      swap1\n      tag_36\n      jump\t// in\n    tag_35:\n      mload(0x40)\n      dup1\n      swap2\n      sub\n      swap1\n      revert\n    tag_34:\n        /* \"security/etheranut/Fallback/Hack.sol\":824:829  owner */\n      0x01\n      0x00\n      swap1\n      sload\n      swap1\n      0x0100\n      exp\n      swap1\n      div\n      0xffffffffffffffffffffffffffffffffffffffff\n      and\n        /* \"security/etheranut/Fallback/Hack.sol\":816:839  payable(owner).transfer */\n      0xffffffffffffffffffffffffffffffffffffffff\n      and\n        /* \"security/etheranut/Fallback/Hack.sol\":816:862  payable(owner).transfer(address(this).balance) */\n      0x08fc\n        /* \"security/etheranut/Fallback/Hack.sol\":840:861  address(this).balance */\n      selfbalance\n        /* \"security/etheranut/Fallback/Hack.sol\":816:862  payable(owner).transfer(address(this).balance) */\n      swap1\n      dup2\n      iszero\n      mul\n      swap1\n      mload(0x40)\n      0x00\n      mload(0x40)\n      dup1\n      dup4\n      sub\n      dup2\n      dup6\n      dup9\n      dup9\n      call\n      swap4\n      pop\n      pop\n      pop\n      pop\n      iszero\n      dup1\n      iszero\n      tag_39\n      jumpi\n      returndatacopy(0x00, 0x00, returndatasize)\n      revert(0x00, returndatasize)\n    tag_39:\n      pop\n        /* \"security/etheranut/Fallback/Hack.sol\":768:870  function withdraw() public onlyOwner {... */\n      jump\t// out\n        /* \"security/etheranut/Fallback/Hack.sol\":85:133  mapping(address => uint256) public contributions */\n    tag_19:\n      mstore(0x20, 0x00)\n      dup1\n      0x00\n      mstore\n      keccak256(0x00, 0x40)\n      0x00\n      swap2\n      pop\n      swap1\n      pop\n      sload\n      dup2\n      jump\t// out\n        /* \"security/etheranut/Fallback/Hack.sol\":140:160  address public owner */\n    tag_24:\n      0x01\n      0x00\n      swap1\n      sload\n      swap1\n      0x0100\n      exp\n      swap1\n      div\n      0xffffffffffffffffffffffffffffffffffffffff\n      and\n      dup2\n      jump\t// out\n        /* \"security/etheranut/Fallback/Hack.sol\":398:644  function contribute() public payable {... */\n    tag_28:\n        /* \"security/etheranut/Fallback/Hack.sol\":466:477  0.001 ether */\n      0x038d7ea4c68000\n        /* \"security/etheranut/Fallback/Hack.sol\":454:463  msg.value */\n      callvalue\n        /* \"security/etheranut/Fallback/Hack.sol\":454:477  msg.value < 0.001 ether */\n      lt\n        /* \"security/etheranut/Fallback/Hack.sol\":446:478  require(msg.value < 0.001 ether) */\n      tag_41\n      jumpi\n      revert(0x00, 0x00)\n    tag_41:\n        /* \"security/etheranut/Fallback/Hack.sol\":518:527  msg.value */\n      callvalue\n        /* \"security/etheranut/Fallback/Hack.sol\":489:502  contributions */\n      0x00\n        /* \"security/etheranut/Fallback/Hack.sol\":489:514  contributions[msg.sender] */\n      0x00\n        /* \"security/etheranut/Fallback/Hack.sol\":503:513  msg.sender */\n      caller\n        /* \"security/etheranut/Fallback/Hack.sol\":489:514  contributions[msg.sender] */\n      0xffffffffffffffffffffffffffffffffffffffff\n      and\n      0xffffffffffffffffffffffffffffffffffffffff\n      and\n      dup2\n      mstore\n      0x20\n      add\n      swap1\n      dup2\n      mstore\n      0x20\n      add\n      0x00\n      keccak256\n      0x00\n        /* \"security/etheranut/Fallback/Hack.sol\":489:527  contributions[msg.sender] += msg.value */\n      dup3\n      dup3\n      sload\n      tag_42\n      swap2\n      swap1\n      tag_43\n      jump\t// in\n    tag_42:\n      swap3\n      pop\n      pop\n      dup2\n      swap1\n      sstore\n      pop\n        /* \"security/etheranut/Fallback/Hack.sol\":570:583  contributions */\n      0x00\n        /* \"security/etheranut/Fallback/Hack.sol\":570:590  contributions[owner] */\n      0x00\n        /* \"security/etheranut/Fallback/Hack.sol\":584:589  owner */\n      0x01\n      0x00\n      swap1\n      sload\n      swap1\n      0x0100\n      exp\n      swap1\n      div\n      0xffffffffffffffffffffffffffffffffffffffff\n      and\n        /* \"security/etheranut/Fallback/Hack.sol\":570:590  contributions[owner] */\n      0xffffffffffffffffffffffffffffffffffffffff\n      and\n      0xffffffffffffffffffffffffffffffffffffffff\n      and\n      dup2\n      mstore\n      0x20\n      add\n      swap1\n      dup2\n      mstore\n      0x20\n      add\n      0x00\n      keccak256\n      sload\n        /* \"security/etheranut/Fallback/Hack.sol\":542:555  contributions */\n      0x00\n        /* \"security/etheranut/Fallback/Hack.sol\":542:567  contributions[msg.sender] */\n      0x00\n        /* \"security/etheranut/Fallback/Hack.sol\":556:566  msg.sender */\n      caller\n        /* \"security/etheranut/Fallback/Hack.sol\":542:567  contributions[msg.sender] */\n      0xffffffffffffffffffffffffffffffffffffffff\n      and\n      0xffffffffffffffffffffffffffffffffffffffff\n      and\n      dup2\n      mstore\n      0x20\n      add\n      swap1\n      dup2\n      mstore\n      0x20\n      add\n      0x00\n      keccak256\n      sload\n        /* \"security/etheranut/Fallback/Hack.sol\":542:590  contributions[msg.sender] > contributions[owner] */\n      gt\n        /* \"security/etheranut/Fallback/Hack.sol\":538:637  if (contributions[msg.sender] > contributions[owner]) {... */\n      iszero\n      tag_44\n      jumpi\n        /* \"security/etheranut/Fallback/Hack.sol\":615:625  msg.sender */\n      caller\n        /* \"security/etheranut/Fallback/Hack.sol\":607:612  owner */\n      0x01\n      0x00\n        /* \"security/etheranut/Fallback/Hack.sol\":607:625  owner = msg.sender */\n      0x0100\n      exp\n      dup2\n      sload\n      dup2\n      0xffffffffffffffffffffffffffffffffffffffff\n      mul\n      not\n      and\n      swap1\n      dup4\n      0xffffffffffffffffffffffffffffffffffffffff\n      and\n      mul\n      or\n      swap1\n      sstore\n      pop\n        /* \"security/etheranut/Fallback/Hack.sol\":538:637  if (contributions[msg.sender] > contributions[owner]) {... */\n    tag_44:\n        /* \"security/etheranut/Fallback/Hack.sol\":398:644  function contribute() public payable {... */\n      jump\t// out\n        /* \"security/etheranut/Fallback/Hack.sol\":652:760  function getContribution() public view returns (uint256) {... */\n    tag_31:\n        /* \"security/etheranut/Fallback/Hack.sol\":700:707  uint256 */\n      0x00\n        /* \"security/etheranut/Fallback/Hack.sol\":727:740  contributions */\n      0x00\n        /* \"security/etheranut/Fallback/Hack.sol\":727:752  contributions[msg.sender] */\n      0x00\n        /* \"security/etheranut/Fallback/Hack.sol\":741:751  msg.sender */\n      caller\n        /* \"security/etheranut/Fallback/Hack.sol\":727:752  contributions[msg.sender] */\n      0xffffffffffffffffffffffffffffffffffffffff\n      and\n      0xffffffffffffffffffffffffffffffffffffffff\n      and\n      dup2\n      mstore\n      0x20\n      add\n      swap1\n      dup2\n      mstore\n      0x20\n      add\n      0x00\n      keccak256\n      sload\n        /* \"security/etheranut/Fallback/Hack.sol\":720:752  return contributions[msg.sender] */\n      swap1\n      pop\n        /* \"security/etheranut/Fallback/Hack.sol\":652:760  function getContribution() public view returns (uint256) {... */\n      swap1\n      jump\t// out\n        /* \"#utility.yul\":88:205   */\n    tag_47:\n        /* \"#utility.yul\":197:198   */\n      0x00\n        /* \"#utility.yul\":194:195   */\n      0x00\n        /* \"#utility.yul\":187:199   */\n      revert\n        /* \"#utility.yul\":334:460   */\n    tag_49:\n        /* \"#utility.yul\":371:378   */\n      0x00\n        /* \"#utility.yul\":411:453   */\n      0xffffffffffffffffffffffffffffffffffffffff\n        /* \"#utility.yul\":404:409   */\n      dup3\n        /* \"#utility.yul\":400:454   */\n      and\n        /* \"#utility.yul\":389:454   */\n      swap1\n      pop\n        /* \"#utility.yul\":334:460   */\n      swap2\n      swap1\n      pop\n      jump\t// out\n        /* \"#utility.yul\":466:562   */\n    tag_50:\n        /* \"#utility.yul\":503:510   */\n      0x00\n        /* \"#utility.yul\":532:556   */\n      tag_66\n        /* \"#utility.yul\":550:555   */\n      dup3\n        /* \"#utility.yul\":532:556   */\n      tag_49\n      jump\t// in\n    tag_66:\n        /* \"#utility.yul\":521:556   */\n      swap1\n      pop\n        /* \"#utility.yul\":466:562   */\n      swap2\n      swap1\n      pop\n      jump\t// out\n        /* \"#utility.yul\":568:690   */\n    tag_51:\n        /* \"#utility.yul\":641:665   */\n      tag_68\n        /* \"#utility.yul\":659:664   */\n      dup2\n        /* \"#utility.yul\":641:665   */\n      tag_50\n      jump\t// in\n    tag_68:\n        /* \"#utility.yul\":634:639   */\n      dup2\n        /* \"#utility.yul\":631:666   */\n      eq\n        /* \"#utility.yul\":621:684   */\n      tag_69\n      jumpi\n        /* \"#utility.yul\":680:681   */\n      0x00\n        /* \"#utility.yul\":677:678   */\n      0x00\n        /* \"#utility.yul\":670:682   */\n      revert\n        /* \"#utility.yul\":621:684   */\n    tag_69:\n        /* \"#utility.yul\":568:690   */\n      pop\n      jump\t// out\n        /* \"#utility.yul\":696:835   */\n    tag_52:\n        /* \"#utility.yul\":742:747   */\n      0x00\n        /* \"#utility.yul\":780:786   */\n      dup2\n        /* \"#utility.yul\":767:787   */\n      calldataload\n        /* \"#utility.yul\":758:787   */\n      swap1\n      pop\n        /* \"#utility.yul\":796:829   */\n      tag_71\n        /* \"#utility.yul\":823:828   */\n      dup2\n        /* \"#utility.yul\":796:829   */\n      tag_51\n      jump\t// in\n    tag_71:\n        /* \"#utility.yul\":696:835   */\n      swap3\n      swap2\n      pop\n      pop\n      jump\t// out\n        /* \"#utility.yul\":841:1170   */\n    tag_18:\n        /* \"#utility.yul\":900:906   */\n      0x00\n        /* \"#utility.yul\":949:951   */\n      0x20\n        /* \"#utility.yul\":937:946   */\n      dup3\n        /* \"#utility.yul\":928:935   */\n      dup5\n        /* \"#utility.yul\":924:947   */\n      sub\n        /* \"#utility.yul\":920:952   */\n      slt\n        /* \"#utility.yul\":917:1036   */\n      iszero\n      tag_73\n      jumpi\n        /* \"#utility.yul\":955:1034   */\n      tag_74\n      tag_47\n      jump\t// in\n    tag_74:\n        /* \"#utility.yul\":917:1036   */\n    tag_73:\n        /* \"#utility.yul\":1075:1076   */\n      0x00\n        /* \"#utility.yul\":1100:1153   */\n      tag_75\n        /* \"#utility.yul\":1145:1152   */\n      dup5\n        /* \"#utility.yul\":1136:1142   */\n      dup3\n        /* \"#utility.yul\":1125:1134   */\n      dup6\n        /* \"#utility.yul\":1121:1143   */\n      add\n        /* \"#utility.yul\":1100:1153   */\n      tag_52\n      jump\t// in\n    tag_75:\n        /* \"#utility.yul\":1090:1153   */\n      swap2\n      pop\n        /* \"#utility.yul\":1046:1163   */\n      pop\n        /* \"#utility.yul\":841:1170   */\n      swap3\n      swap2\n      pop\n      pop\n      jump\t// out\n        /* \"#utility.yul\":1176:1253   */\n    tag_53:\n        /* \"#utility.yul\":1213:1220   */\n      0x00\n        /* \"#utility.yul\":1242:1247   */\n      dup2\n        /* \"#utility.yul\":1231:1247   */\n      swap1\n      pop\n        /* \"#utility.yul\":1176:1253   */\n      swap2\n      swap1\n      pop\n      jump\t// out\n        /* \"#utility.yul\":1259:1377   */\n    tag_54:\n        /* \"#utility.yul\":1346:1370   */\n      tag_78\n        /* \"#utility.yul\":1364:1369   */\n      dup2\n        /* \"#utility.yul\":1346:1370   */\n      tag_53\n      jump\t// in\n    tag_78:\n        /* \"#utility.yul\":1341:1344   */\n      dup3\n        /* \"#utility.yul\":1334:1371   */\n      mstore\n        /* \"#utility.yul\":1259:1377   */\n      pop\n      pop\n      jump\t// out\n        /* \"#utility.yul\":1383:1605   */\n    tag_21:\n        /* \"#utility.yul\":1476:1480   */\n      0x00\n        /* \"#utility.yul\":1514:1516   */\n      0x20\n        /* \"#utility.yul\":1503:1512   */\n      dup3\n        /* \"#utility.yul\":1499:1517   */\n      add\n        /* \"#utility.yul\":1491:1517   */\n      swap1\n      pop\n        /* \"#utility.yul\":1527:1598   */\n      tag_80\n        /* \"#utility.yul\":1595:1596   */\n      0x00\n        /* \"#utility.yul\":1584:1593   */\n      dup4\n        /* \"#utility.yul\":1580:1597   */\n      add\n        /* \"#utility.yul\":1571:1577   */\n      dup5\n        /* \"#utility.yul\":1527:1598   */\n      tag_54\n      jump\t// in\n    tag_80:\n        /* \"#utility.yul\":1383:1605   */\n      swap3\n      swap2\n      pop\n      pop\n      jump\t// out\n        /* \"#utility.yul\":1611:1729   */\n    tag_55:\n        /* \"#utility.yul\":1698:1722   */\n      tag_82\n        /* \"#utility.yul\":1716:1721   */\n      dup2\n        /* \"#utility.yul\":1698:1722   */\n      tag_50\n      jump\t// in\n    tag_82:\n        /* \"#utility.yul\":1693:1696   */\n      dup3\n        /* \"#utility.yul\":1686:1723   */\n      mstore\n        /* \"#utility.yul\":1611:1729   */\n      pop\n      pop\n      jump\t// out\n        /* \"#utility.yul\":1735:1957   */\n    tag_26:\n        /* \"#utility.yul\":1828:1832   */\n      0x00\n        /* \"#utility.yul\":1866:1868   */\n      0x20\n        /* \"#utility.yul\":1855:1864   */\n      dup3\n        /* \"#utility.yul\":1851:1869   */\n      add\n        /* \"#utility.yul\":1843:1869   */\n      swap1\n      pop\n        /* \"#utility.yul\":1879:1950   */\n      tag_84\n        /* \"#utility.yul\":1947:1948   */\n      0x00\n        /* \"#utility.yul\":1936:1945   */\n      dup4\n        /* \"#utility.yul\":1932:1949   */\n      add\n        /* \"#utility.yul\":1923:1929   */\n      dup5\n        /* \"#utility.yul\":1879:1950   */\n      tag_55\n      jump\t// in\n    tag_84:\n        /* \"#utility.yul\":1735:1957   */\n      swap3\n      swap2\n      pop\n      pop\n      jump\t// out\n        /* \"#utility.yul\":1963:2132   */\n    tag_56:\n        /* \"#utility.yul\":2047:2058   */\n      0x00\n        /* \"#utility.yul\":2081:2087   */\n      dup3\n        /* \"#utility.yul\":2076:2079   */\n      dup3\n        /* \"#utility.yul\":2069:2088   */\n      mstore\n        /* \"#utility.yul\":2121:2125   */\n      0x20\n        /* \"#utility.yul\":2116:2119   */\n      dup3\n        /* \"#utility.yul\":2112:2126   */\n      add\n        /* \"#utility.yul\":2097:2126   */\n      swap1\n      pop\n        /* \"#utility.yul\":1963:2132   */\n      swap3\n      swap2\n      pop\n      pop\n      jump\t// out\n        /* \"#utility.yul\":2138:2311   */\n    tag_57:\n        /* \"#utility.yul\":2278:2303   */\n      0x63616c6c6572206973206e6f7420746865206f776e6572000000000000000000\n        /* \"#utility.yul\":2274:2275   */\n      0x00\n        /* \"#utility.yul\":2266:2272   */\n      dup3\n        /* \"#utility.yul\":2262:2276   */\n      add\n        /* \"#utility.yul\":2255:2304   */\n      mstore\n        /* \"#utility.yul\":2138:2311   */\n      pop\n      jump\t// out\n        /* \"#utility.yul\":2317:2683   */\n    tag_58:\n        /* \"#utility.yul\":2459:2462   */\n      0x00\n        /* \"#utility.yul\":2480:2547   */\n      tag_88\n        /* \"#utility.yul\":2544:2546   */\n      0x17\n        /* \"#utility.yul\":2539:2542   */\n      dup4\n        /* \"#utility.yul\":2480:2547   */\n      tag_56\n      jump\t// in\n    tag_88:\n        /* \"#utility.yul\":2473:2547   */\n      swap2\n      pop\n        /* \"#utility.yul\":2556:2649   */\n      tag_89\n        /* \"#utility.yul\":2645:2648   */\n      dup3\n        /* \"#utility.yul\":2556:2649   */\n      tag_57\n      jump\t// in\n    tag_89:\n        /* \"#utility.yul\":2674:2676   */\n      0x20\n        /* \"#utility.yul\":2669:2672   */\n      dup3\n        /* \"#utility.yul\":2665:2677   */\n      add\n        /* \"#utility.yul\":2658:2677   */\n      swap1\n      pop\n        /* \"#utility.yul\":2317:2683   */\n      swap2\n      swap1\n      pop\n      jump\t// out\n        /* \"#utility.yul\":2689:3108   */\n    tag_36:\n        /* \"#utility.yul\":2855:2859   */\n      0x00\n        /* \"#utility.yul\":2893:2895   */\n      0x20\n        /* \"#utility.yul\":2882:2891   */\n      dup3\n        /* \"#utility.yul\":2878:2896   */\n      add\n        /* \"#utility.yul\":2870:2896   */\n      swap1\n      pop\n        /* \"#utility.yul\":2942:2951   */\n      dup2\n        /* \"#utility.yul\":2936:2940   */\n      dup2\n        /* \"#utility.yul\":2932:2952   */\n      sub\n        /* \"#utility.yul\":2928:2929   */\n      0x00\n        /* \"#utility.yul\":2917:2926   */\n      dup4\n        /* \"#utility.yul\":2913:2930   */\n      add\n        /* \"#utility.yul\":2906:2953   */\n      mstore\n        /* \"#utility.yul\":2970:3101   */\n      tag_91\n        /* \"#utility.yul\":3096:3100   */\n      dup2\n        /* \"#utility.yul\":2970:3101   */\n      tag_58\n      jump\t// in\n    tag_91:\n        /* \"#utility.yul\":2962:3101   */\n      swap1\n      pop\n        /* \"#utility.yul\":2689:3108   */\n      swap2\n      swap1\n      pop\n      jump\t// out\n        /* \"#utility.yul\":3114:3294   */\n    tag_59:\n        /* \"#utility.yul\":3162:3239   */\n      0x4e487b7100000000000000000000000000000000000000000000000000000000\n        /* \"#utility.yul\":3159:3160   */\n      0x00\n        /* \"#utility.yul\":3152:3240   */\n      mstore\n        /* \"#utility.yul\":3259:3263   */\n      0x11\n        /* \"#utility.yul\":3256:3257   */\n      0x04\n        /* \"#utility.yul\":3249:3264   */\n      mstore\n        /* \"#utility.yul\":3283:3287   */\n      0x24\n        /* \"#utility.yul\":3280:3281   */\n      0x00\n        /* \"#utility.yul\":3273:3288   */\n      revert\n        /* \"#utility.yul\":3300:3491   */\n    tag_43:\n        /* \"#utility.yul\":3340:3343   */\n      0x00\n        /* \"#utility.yul\":3359:3379   */\n      tag_94\n        /* \"#utility.yul\":3377:3378   */\n      dup3\n        /* \"#utility.yul\":3359:3379   */\n      tag_53\n      jump\t// in\n    tag_94:\n        /* \"#utility.yul\":3354:3379   */\n      swap2\n      pop\n        /* \"#utility.yul\":3393:3413   */\n      tag_95\n        /* \"#utility.yul\":3411:3412   */\n      dup4\n        /* \"#utility.yul\":3393:3413   */\n      tag_53\n      jump\t// in\n    tag_95:\n        /* \"#utility.yul\":3388:3413   */\n      swap3\n      pop\n        /* \"#utility.yul\":3436:3437   */\n      dup3\n        /* \"#utility.yul\":3433:3434   */\n      dup3\n        /* \"#utility.yul\":3429:3438   */\n      add\n        /* \"#utility.yul\":3422:3438   */\n      swap1\n      pop\n        /* \"#utility.yul\":3457:3460   */\n      dup1\n        /* \"#utility.yul\":3454:3455   */\n      dup3\n        /* \"#utility.yul\":3451:3461   */\n      gt\n        /* \"#utility.yul\":3448:3484   */\n      iszero\n      tag_96\n      jumpi\n        /* \"#utility.yul\":3464:3482   */\n      tag_97\n      tag_59\n      jump\t// in\n    tag_97:\n        /* \"#utility.yul\":3448:3484   */\n    tag_96:\n        /* \"#utility.yul\":3300:3491   */\n      swap3\n      swap2\n      pop\n      pop\n      jump\t// out\n\n    auxdata: 0xa2646970667358221220587364eb37839dc5240c90301aed4279db63ad2a73723bc8aa0109039eaf6bdc64736f6c634300081e0033\n}\n",
				"bytecode": {
					"linkReferences": {},
					"object": "6080604052348015600e575f5ffd5b503360015f6101000a81548173ffffffffffffffffffffffffffffffffffffffff021916908373ffffffffffffffffffffffffffffffffffffffff160217905550683635c9adc5dea000005f5f3373ffffffffffffffffffffffffffffffffffffffff1673ffffffffffffffffffffffffffffffffffffffff1681526020019081526020015f2081905550610643806100a65f395ff3fe60806040526004361061004d575f3560e01c80633ccfd60b146100e957806342e94c90146100ff5780638da5cb5b1461013b578063d7bb99ba14610165578063f10fdf5c1461016f576100e5565b366100e5575f3411801561009c57505f5f5f3373ffffffffffffffffffffffffffffffffffffffff1673ffffffffffffffffffffffffffffffffffffffff1681526020019081526020015f2054115b6100a4575f5ffd5b3360015f6101000a81548173ffffffffffffffffffffffffffffffffffffffff021916908373ffffffffffffffffffffffffffffffffffffffff1602179055005b5f5ffd5b3480156100f4575f5ffd5b506100fd610199565b005b34801561010a575f5ffd5b50610125600480360381019061012091906104b1565b61028f565b60405161013291906104f4565b60405180910390f35b348015610146575f5ffd5b5061014f6102a3565b60405161015c919061051c565b60405180910390f35b61016d6102c8565b005b34801561017a575f5ffd5b50610183610410565b60405161019091906104f4565b60405180910390f35b60015f9054906101000a900473ffffffffffffffffffffffffffffffffffffffff1673ffffffffffffffffffffffffffffffffffffffff163373ffffffffffffffffffffffffffffffffffffffff1614610228576040517f08c379a000000000000000000000000000000000000000000000000000000000815260040161021f9061058f565b60405180910390fd5b60015f9054906101000a900473ffffffffffffffffffffffffffffffffffffffff1673ffffffffffffffffffffffffffffffffffffffff166108fc4790811502906040515f60405180830381858888f1935050505015801561028c573d5f5f3e3d5ffd5b50565b5f602052805f5260405f205f915090505481565b60015f9054906101000a900473ffffffffffffffffffffffffffffffffffffffff1681565b66038d7ea4c6800034106102da575f5ffd5b345f5f3373ffffffffffffffffffffffffffffffffffffffff1673ffffffffffffffffffffffffffffffffffffffff1681526020019081526020015f205f82825461032591906105da565b925050819055505f5f60015f9054906101000a900473ffffffffffffffffffffffffffffffffffffffff1673ffffffffffffffffffffffffffffffffffffffff1673ffffffffffffffffffffffffffffffffffffffff1681526020019081526020015f20545f5f3373ffffffffffffffffffffffffffffffffffffffff1673ffffffffffffffffffffffffffffffffffffffff1681526020019081526020015f2054111561040e573360015f6101000a81548173ffffffffffffffffffffffffffffffffffffffff021916908373ffffffffffffffffffffffffffffffffffffffff1602179055505b565b5f5f5f3373ffffffffffffffffffffffffffffffffffffffff1673ffffffffffffffffffffffffffffffffffffffff1681526020019081526020015f2054905090565b5f5ffd5b5f73ffffffffffffffffffffffffffffffffffffffff82169050919050565b5f61048082610457565b9050919050565b61049081610476565b811461049a575f5ffd5b50565b5f813590506104ab81610487565b92915050565b5f602082840312156104c6576104c5610453565b5b5f6104d38482850161049d565b91505092915050565b5f819050919050565b6104ee816104dc565b82525050565b5f6020820190506105075f8301846104e5565b92915050565b61051681610476565b82525050565b5f60208201905061052f5f83018461050d565b92915050565b5f82825260208201905092915050565b7f63616c6c6572206973206e6f7420746865206f776e65720000000000000000005f82015250565b5f610579601783610535565b915061058482610545565b602082019050919050565b5f6020820190508181035f8301526105a68161056d565b9050919050565b7f4e487b71000000000000000000000000000000000000000000000000000000005f52601160045260245ffd5b5f6105e4826104dc565b91506105ef836104dc565b9250828201905080821115610607576106066105ad565b5b9291505056fea2646970667358221220587364eb37839dc5240c90301aed4279db63ad2a73723bc8aa0109039eaf6bdc64736f6c634300081e0033",
					"opcodes": "PUSH1 0x80 PUSH1 0x40 MSTORE CALLVALUE DUP1 ISZERO PUSH1 0xE JUMPI PUSH0 PUSH0 REVERT JUMPDEST POP CALLER PUSH1 0x1 PUSH0 PUSH2 0x100 EXP DUP2 SLOAD DUP2 PUSH20 0xFFFFFFFFFFFFFFFFFFFFFFFFFFFFFFFFFFFFFFFF MUL NOT AND SWAP1 DUP4 PUSH20 0xFFFFFFFFFFFFFFFFFFFFFFFFFFFFFFFFFFFFFFFF AND MUL OR SWAP1 SSTORE POP PUSH9 0x3635C9ADC5DEA00000 PUSH0 PUSH0 CALLER PUSH20 0xFFFFFFFFFFFFFFFFFFFFFFFFFFFFFFFFFFFFFFFF AND PUSH20 0xFFFFFFFFFFFFFFFFFFFFFFFFFFFFFFFFFFFFFFFF AND DUP2 MSTORE PUSH1 0x20 ADD SWAP1 DUP2 MSTORE PUSH1 0x20 ADD PUSH0 KECCAK256 DUP2 SWAP1 SSTORE POP PUSH2 0x643 DUP1 PUSH2 0xA6 PUSH0 CODECOPY PUSH0 RETURN INVALID PUSH1 0x80 PUSH1 0x40 MSTORE PUSH1 0x4 CALLDATASIZE LT PUSH2 0x4D JUMPI PUSH0 CALLDATALOAD PUSH1 0xE0 SHR DUP1 PUSH4 0x3CCFD60B EQ PUSH2 0xE9 JUMPI DUP1 PUSH4 0x42E94C90 EQ PUSH2 0xFF JUMPI DUP1 PUSH4 0x8DA5CB5B EQ PUSH2 0x13B JUMPI DUP1 PUSH4 0xD7BB99BA EQ PUSH2 0x165 JUMPI DUP1 PUSH4 0xF10FDF5C EQ PUSH2 0x16F JUMPI PUSH2 0xE5 JUMP JUMPDEST CALLDATASIZE PUSH2 0xE5 JUMPI PUSH0 CALLVALUE GT DUP1 ISZERO PUSH2 0x9C JUMPI POP PUSH0 PUSH0 PUSH0 CALLER PUSH20 0xFFFFFFFFFFFFFFFFFFFFFFFFFFFFFFFFFFFFFFFF AND PUSH20 0xFFFFFFFFFFFFFFFFFFFFFFFFFFFFFFFFFFFFFFFF AND DUP2 MSTORE PUSH1 0x20 ADD SWAP1 DUP2 MSTORE PUSH1 0x20 ADD PUSH0 KECCAK256 SLOAD GT JUMPDEST PUSH2 0xA4 JUMPI PUSH0 PUSH0 REVERT JUMPDEST CALLER PUSH1 0x1 PUSH0 PUSH2 0x100 EXP DUP2 SLOAD DUP2 PUSH20 0xFFFFFFFFFFFFFFFFFFFFFFFFFFFFFFFFFFFFFFFF MUL NOT AND SWAP1 DUP4 PUSH20 0xFFFFFFFFFFFFFFFFFFFFFFFFFFFFFFFFFFFFFFFF AND MUL OR SWAP1 SSTORE STOP JUMPDEST PUSH0 PUSH0 REVERT JUMPDEST CALLVALUE DUP1 ISZERO PUSH2 0xF4 JUMPI PUSH0 PUSH0 REVERT JUMPDEST POP PUSH2 0xFD PUSH2 0x199 JUMP JUMPDEST STOP JUMPDEST CALLVALUE DUP1 ISZERO PUSH2 0x10A JUMPI PUSH0 PUSH0 REVERT JUMPDEST POP PUSH2 0x125 PUSH1 0x4 DUP1 CALLDATASIZE SUB DUP2 ADD SWAP1 PUSH2 0x120 SWAP2 SWAP1 PUSH2 0x4B1 JUMP JUMPDEST PUSH2 0x28F JUMP JUMPDEST PUSH1 0x40 MLOAD PUSH2 0x132 SWAP2 SWAP1 PUSH2 0x4F4 JUMP JUMPDEST PUSH1 0x40 MLOAD DUP1 SWAP2 SUB SWAP1 RETURN JUMPDEST CALLVALUE DUP1 ISZERO PUSH2 0x146 JUMPI PUSH0 PUSH0 REVERT JUMPDEST POP PUSH2 0x14F PUSH2 0x2A3 JUMP JUMPDEST PUSH1 0x40 MLOAD PUSH2 0x15C SWAP2 SWAP1 PUSH2 0x51C JUMP JUMPDEST PUSH1 0x40 MLOAD DUP1 SWAP2 SUB SWAP1 RETURN JUMPDEST PUSH2 0x16D PUSH2 0x2C8 JUMP JUMPDEST STOP JUMPDEST CALLVALUE DUP1 ISZERO PUSH2 0x17A JUMPI PUSH0 PUSH0 REVERT JUMPDEST POP PUSH2 0x183 PUSH2 0x410 JUMP JUMPDEST PUSH1 0x40 MLOAD PUSH2 0x190 SWAP2 SWAP1 PUSH2 0x4F4 JUMP JUMPDEST PUSH1 0x40 MLOAD DUP1 SWAP2 SUB SWAP1 RETURN JUMPDEST PUSH1 0x1 PUSH0 SWAP1 SLOAD SWAP1 PUSH2 0x100 EXP SWAP1 DIV PUSH20 0xFFFFFFFFFFFFFFFFFFFFFFFFFFFFFFFFFFFFFFFF AND PUSH20 0xFFFFFFFFFFFFFFFFFFFFFFFFFFFFFFFFFFFFFFFF AND CALLER PUSH20 0xFFFFFFFFFFFFFFFFFFFFFFFFFFFFFFFFFFFFFFFF AND EQ PUSH2 0x228 JUMPI PUSH1 0x40 MLOAD PUSH32 0x8C379A000000000000000000000000000000000000000000000000000000000 DUP2 MSTORE PUSH1 0x4 ADD PUSH2 0x21F SWAP1 PUSH2 0x58F JUMP JUMPDEST PUSH1 0x40 MLOAD DUP1 SWAP2 SUB SWAP1 REVERT JUMPDEST PUSH1 0x1 PUSH0 SWAP1 SLOAD SWAP1 PUSH2 0x100 EXP SWAP1 DIV PUSH20 0xFFFFFFFFFFFFFFFFFFFFFFFFFFFFFFFFFFFFFFFF AND PUSH20 0xFFFFFFFFFFFFFFFFFFFFFFFFFFFFFFFFFFFFFFFF AND PUSH2 0x8FC SELFBALANCE SWAP1 DUP2 ISZERO MUL SWAP1 PUSH1 0x40 MLOAD PUSH0 PUSH1 0x40 MLOAD DUP1 DUP4 SUB DUP2 DUP6 DUP9 DUP9 CALL SWAP4 POP POP POP POP ISZERO DUP1 ISZERO PUSH2 0x28C JUMPI RETURNDATASIZE PUSH0 PUSH0 RETURNDATACOPY RETURNDATASIZE PUSH0 REVERT JUMPDEST POP JUMP JUMPDEST PUSH0 PUSH1 0x20 MSTORE DUP1 PUSH0 MSTORE PUSH1 0x40 PUSH0 KECCAK256 PUSH0 SWAP2 POP SWAP1 POP SLOAD DUP2 JUMP JUMPDEST PUSH1 0x1 PUSH0 SWAP1 SLOAD SWAP1 PUSH2 0x100 EXP SWAP1 DIV PUSH20 0xFFFFFFFFFFFFFFFFFFFFFFFFFFFFFFFFFFFFFFFF AND DUP2 JUMP JUMPDEST PUSH7 0x38D7EA4C68000 CALLVALUE LT PUSH2 0x2DA JUMPI PUSH0 PUSH0 REVERT JUMPDEST CALLVALUE PUSH0 PUSH0 CALLER PUSH20 0xFFFFFFFFFFFFFFFFFFFFFFFFFFFFFFFFFFFFFFFF AND PUSH20 0xFFFFFFFFFFFFFFFFFFFFFFFFFFFFFFFFFFFFFFFF AND DUP2 MSTORE PUSH1 0x20 ADD SWAP1 DUP2 MSTORE PUSH1 0x20 ADD PUSH0 KECCAK256 PUSH0 DUP3 DUP3 SLOAD PUSH2 0x325 SWAP2 SWAP1 PUSH2 0x5DA JUMP JUMPDEST SWAP3 POP POP DUP2 SWAP1 SSTORE POP PUSH0 PUSH0 PUSH1 0x1 PUSH0 SWAP1 SLOAD SWAP1 PUSH2 0x100 EXP SWAP1 DIV PUSH20 0xFFFFFFFFFFFFFFFFFFFFFFFFFFFFFFFFFFFFFFFF AND PUSH20 0xFFFFFFFFFFFFFFFFFFFFFFFFFFFFFFFFFFFFFFFF AND PUSH20 0xFFFFFFFFFFFFFFFFFFFFFFFFFFFFFFFFFFFFFFFF AND DUP2 MSTORE PUSH1 0x20 ADD SWAP1 DUP2 MSTORE PUSH1 0x20 ADD PUSH0 KECCAK256 SLOAD PUSH0 PUSH0 CALLER PUSH20 0xFFFFFFFFFFFFFFFFFFFFFFFFFFFFFFFFFFFFFFFF AND PUSH20 0xFFFFFFFFFFFFFFFFFFFFFFFFFFFFFFFFFFFFFFFF AND DUP2 MSTORE PUSH1 0x20 ADD SWAP1 DUP2 MSTORE PUSH1 0x20 ADD PUSH0 KECCAK256 SLOAD GT ISZERO PUSH2 0x40E JUMPI CALLER PUSH1 0x1 PUSH0 PUSH2 0x100 EXP DUP2 SLOAD DUP2 PUSH20 0xFFFFFFFFFFFFFFFFFFFFFFFFFFFFFFFFFFFFFFFF MUL NOT AND SWAP1 DUP4 PUSH20 0xFFFFFFFFFFFFFFFFFFFFFFFFFFFFFFFFFFFFFFFF AND MUL OR SWAP1 SSTORE POP JUMPDEST JUMP JUMPDEST PUSH0 PUSH0 PUSH0 CALLER PUSH20 0xFFFFFFFFFFFFFFFFFFFFFFFFFFFFFFFFFFFFFFFF AND PUSH20 0xFFFFFFFFFFFFFFFFFFFFFFFFFFFFFFFFFFFFFFFF AND DUP2 MSTORE PUSH1 0x20 ADD SWAP1 DUP2 MSTORE PUSH1 0x20 ADD PUSH0 KECCAK256 SLOAD SWAP1 POP SWAP1 JUMP JUMPDEST PUSH0 PUSH0 REVERT JUMPDEST PUSH0 PUSH20 0xFFFFFFFFFFFFFFFFFFFFFFFFFFFFFFFFFFFFFFFF DUP3 AND SWAP1 POP SWAP2 SWAP1 POP JUMP JUMPDEST PUSH0 PUSH2 0x480 DUP3 PUSH2 0x457 JUMP JUMPDEST SWAP1 POP SWAP2 SWAP1 POP JUMP JUMPDEST PUSH2 0x490 DUP2 PUSH2 0x476 JUMP JUMPDEST DUP2 EQ PUSH2 0x49A JUMPI PUSH0 PUSH0 REVERT JUMPDEST POP JUMP JUMPDEST PUSH0 DUP2 CALLDATALOAD SWAP1 POP PUSH2 0x4AB DUP2 PUSH2 0x487 JUMP JUMPDEST SWAP3 SWAP2 POP POP JUMP JUMPDEST PUSH0 PUSH1 0x20 DUP3 DUP5 SUB SLT ISZERO PUSH2 0x4C6 JUMPI PUSH2 0x4C5 PUSH2 0x453 JUMP JUMPDEST JUMPDEST PUSH0 PUSH2 0x4D3 DUP5 DUP3 DUP6 ADD PUSH2 0x49D JUMP JUMPDEST SWAP2 POP POP SWAP3 SWAP2 POP POP JUMP JUMPDEST PUSH0 DUP2 SWAP1 POP SWAP2 SWAP1 POP JUMP JUMPDEST PUSH2 0x4EE DUP2 PUSH2 0x4DC JUMP JUMPDEST DUP3 MSTORE POP POP JUMP JUMPDEST PUSH0 PUSH1 0x20 DUP3 ADD SWAP1 POP PUSH2 0x507 PUSH0 DUP4 ADD DUP5 PUSH2 0x4E5 JUMP JUMPDEST SWAP3 SWAP2 POP POP JUMP JUMPDEST PUSH2 0x516 DUP2 PUSH2 0x476 JUMP JUMPDEST DUP3 MSTORE POP POP JUMP JUMPDEST PUSH0 PUSH1 0x20 DUP3 ADD SWAP1 POP PUSH2 0x52F PUSH0 DUP4 ADD DUP5 PUSH2 0x50D JUMP JUMPDEST SWAP3 SWAP2 POP POP JUMP JUMPDEST PUSH0 DUP3 DUP3 MSTORE PUSH1 0x20 DUP3 ADD SWAP1 POP SWAP3 SWAP2 POP POP JUMP JUMPDEST PUSH32 0x63616C6C6572206973206E6F7420746865206F776E6572000000000000000000 PUSH0 DUP3 ADD MSTORE POP JUMP JUMPDEST PUSH0 PUSH2 0x579 PUSH1 0x17 DUP4 PUSH2 0x535 JUMP JUMPDEST SWAP2 POP PUSH2 0x584 DUP3 PUSH2 0x545 JUMP JUMPDEST PUSH1 0x20 DUP3 ADD SWAP1 POP SWAP2 SWAP1 POP JUMP JUMPDEST PUSH0 PUSH1 0x20 DUP3 ADD SWAP1 POP DUP2 DUP2 SUB PUSH0 DUP4 ADD MSTORE PUSH2 0x5A6 DUP2 PUSH2 0x56D JUMP JUMPDEST SWAP1 POP SWAP2 SWAP1 POP JUMP JUMPDEST PUSH32 0x4E487B7100000000000000000000000000000000000000000000000000000000 PUSH0 MSTORE PUSH1 0x11 PUSH1 0x4 MSTORE PUSH1 0x24 PUSH0 REVERT JUMPDEST PUSH0 PUSH2 0x5E4 DUP3 PUSH2 0x4DC JUMP JUMPDEST SWAP2 POP PUSH2 0x5EF DUP4 PUSH2 0x4DC JUMP JUMPDEST SWAP3 POP DUP3 DUP3 ADD SWAP1 POP DUP1 DUP3 GT ISZERO PUSH2 0x607 JUMPI PUSH2 0x606 PUSH2 0x5AD JUMP JUMPDEST JUMPDEST SWAP3 SWAP2 POP POP JUMP INVALID LOG2 PUSH5 0x6970667358 0x22 SLT KECCAK256 PC PUSH20 0x64EB37839DC5240C90301AED4279DB63AD2A7372 EXTCODESIZE 0xC8 0xAA ADD MULMOD SUB SWAP15 0xAF PUSH12 0xDC64736F6C634300081E0033 "
				},
				"gasEstimates": {
					"creation": {
						"codeDepositCost": "320600",
						"executionCost": "46825",
						"totalCost": "367425"
					},
					"external": {
						"contribute()": "infinite",
						"contributions(address)": "2801",
						"getContribution()": "2584",
						"owner()": "2530",
						"withdraw()": "infinite"
					}
				},
				"methodIdentifiers": {
					"contribute()": "d7bb99ba",
					"contributions(address)": "42e94c90",
					"getContribution()": "f10fdf5c",
					"owner()": "8da5cb5b",
					"withdraw()": "3ccfd60b"
				}
			},
			"storageLayout": {
				"storage": [
					{
						"astId": 5,
						"contract": "security/etheranut/Fallback/Hack.sol:Fallback",
						"label": "contributions",
						"offset": 0,
						"slot": "0",
						"type": "t_mapping(t_address,t_uint256)"
					},
					{
						"astId": 7,
						"contract": "security/etheranut/Fallback/Hack.sol:Fallback",
						"label": "owner",
						"offset": 0,
						"slot": "1",
						"type": "t_address"
					}
				],
				"types": {
					"t_address": {
						"encoding": "inplace",
						"label": "address",
						"numberOfBytes": "20"
					},
					"t_mapping(t_address,t_uint256)": {
						"encoding": "mapping",
						"key": "t_address",
						"label": "mapping(address => uint256)",
						"numberOfBytes": "32",
						"value": "t_uint256"
					},
					"t_uint256": {
						"encoding": "inplace",
						"label": "uint256",
						"numberOfBytes": "32"
					}
				}
			},
			"userdoc": {
				"kind": "user",
				"methods": {},
				"version": 1
			}
		}
	}
}