{
	"learning/Solidity Smart Contract Development/Fund Me/FundMeImportArtificially.sol": {
		"FundMe": {
			"abi": [
				{
					"inputs": [],
					"name": "fund",
					"outputs": [],
					"stateMutability": "payable",
					"type": "function"
				},
				{
					"inputs": [],
					"name": "getPrice",
					"outputs": [],
					"stateMutability": "nonpayable",
					"type": "function"
				},
				{
					"inputs": [],
					"name": "getVersion",
					"outputs": [
						{
							"internalType": "uint256",
							"name": "",
							"type": "uint256"
						}
					],
					"stateMutability": "view",
					"type": "function"
				},
				{
					"inputs": [],
					"name": "myValue",
					"outputs": [
						{
							"internalType": "uint256",
							"name": "",
							"type": "uint256"
						}
					],
					"stateMutability": "view",
					"type": "function"
				},
				{
					"inputs": [],
					"name": "withdraw",
					"outputs": [],
					"stateMutability": "nonpayable",
					"type": "function"
				}
			],
			"devdoc": {
				"kind": "dev",
				"methods": {},
				"version": 1
			},
			"evm": {
				"assembly": "    /* \"learning/Solidity Smart Contract Development/Fund Me/FundMeImportArtificially.sol\":701:1385  contract FundMe{... */\n  mstore(0x40, 0x80)\n    /* \"learning/Solidity Smart Contract Development/Fund Me/FundMeImportArtificially.sol\":746:747  5 */\n  0x05\n    /* \"learning/Solidity Smart Contract Development/Fund Me/FundMeImportArtificially.sol\":725:747  uint256 minimumUSD = 5 */\n  0x00\n  sstore\n    /* \"learning/Solidity Smart Contract Development/Fund Me/FundMeImportArtificially.sol\":779:780  1 */\n  0x01\n    /* \"learning/Solidity Smart Contract Development/Fund Me/FundMeImportArtificially.sol\":754:780  uint256 public myValue = 1 */\n  dup1\n  sstore\n    /* \"learning/Solidity Smart Contract Development/Fund Me/FundMeImportArtificially.sol\":701:1385  contract FundMe{... */\n  callvalue\n  dup1\n  iszero\n  tag_1\n  jumpi\n  revert(0x00, 0x00)\ntag_1:\n  pop\n  dataSize(sub_0)\n  dup1\n  dataOffset(sub_0)\n  0x00\n  codecopy\n  0x00\n  return\nstop\n\nsub_0: assembly {\n        /* \"learning/Solidity Smart Contract Development/Fund Me/FundMeImportArtificially.sol\":701:1385  contract FundMe{... */\n      mstore(0x40, 0x80)\n      jumpi(tag_1, lt(calldatasize, 0x04))\n      shr(0xe0, calldataload(0x00))\n      dup1\n      0x0d8e6e2c\n      eq\n      tag_2\n      jumpi\n      dup1\n      0x3ccfd60b\n      eq\n      tag_3\n      jumpi\n      dup1\n      0x47f1aae7\n      eq\n      tag_4\n      jumpi\n      dup1\n      0x98d5fdca\n      eq\n      tag_5\n      jumpi\n      dup1\n      0xb60d4288\n      eq\n      tag_6\n      jumpi\n    tag_1:\n      revert(0x00, 0x00)\n        /* \"learning/Solidity Smart Contract Development/Fund Me/FundMeImportArtificially.sol\":1185:1338  function getVersion() public view returns (uint256) {... */\n    tag_2:\n      callvalue\n      dup1\n      iszero\n      tag_7\n      jumpi\n      revert(0x00, 0x00)\n    tag_7:\n      pop\n      tag_8\n      tag_9\n      jump\t// in\n    tag_8:\n      mload(0x40)\n      tag_10\n      swap2\n      swap1\n      tag_11\n      jump\t// in\n    tag_10:\n      mload(0x40)\n      dup1\n      swap2\n      sub\n      swap1\n      return\n        /* \"learning/Solidity Smart Contract Development/Fund Me/FundMeImportArtificially.sol\":1346:1382  function withdraw() public{... */\n    tag_3:\n      callvalue\n      dup1\n      iszero\n      tag_12\n      jumpi\n      revert(0x00, 0x00)\n    tag_12:\n      pop\n      tag_13\n      tag_14\n      jump\t// in\n    tag_13:\n      stop\n        /* \"learning/Solidity Smart Contract Development/Fund Me/FundMeImportArtificially.sol\":754:780  uint256 public myValue = 1 */\n    tag_4:\n      callvalue\n      dup1\n      iszero\n      tag_15\n      jumpi\n      revert(0x00, 0x00)\n    tag_15:\n      pop\n      tag_16\n      tag_17\n      jump\t// in\n    tag_16:\n      mload(0x40)\n      tag_18\n      swap2\n      swap1\n      tag_11\n      jump\t// in\n    tag_18:\n      mload(0x40)\n      dup1\n      swap2\n      sub\n      swap1\n      return\n        /* \"learning/Solidity Smart Contract Development/Fund Me/FundMeImportArtificially.sol\":1052:1177  function getPrice() public{... */\n    tag_5:\n      callvalue\n      dup1\n      iszero\n      tag_19\n      jumpi\n      revert(0x00, 0x00)\n    tag_19:\n      pop\n      tag_20\n      tag_21\n      jump\t// in\n    tag_20:\n      stop\n        /* \"learning/Solidity Smart Contract Development/Fund Me/FundMeImportArtificially.sol\":789:1044  function fund() public payable{... */\n    tag_6:\n      tag_22\n      tag_23\n      jump\t// in\n    tag_22:\n      stop\n        /* \"learning/Solidity Smart Contract Development/Fund Me/FundMeImportArtificially.sol\":1185:1338  function getVersion() public view returns (uint256) {... */\n    tag_9:\n        /* \"learning/Solidity Smart Contract Development/Fund Me/FundMeImportArtificially.sol\":1228:1235  uint256 */\n      0x00\n        /* \"learning/Solidity Smart Contract Development/Fund Me/FundMeImportArtificially.sol\":1277:1319  0x694AA1769357215DE4FAC081bf1f309aDC325306 */\n      0x694aa1769357215de4fac081bf1f309adc325306\n        /* \"learning/Solidity Smart Contract Development/Fund Me/FundMeImportArtificially.sol\":1255:1328  AggregatorV3Interface(0x694AA1769357215DE4FAC081bf1f309aDC325306).version */\n      0xffffffffffffffffffffffffffffffffffffffff\n      and\n      0x54fd4d50\n        /* \"learning/Solidity Smart Contract Development/Fund Me/FundMeImportArtificially.sol\":1255:1330  AggregatorV3Interface(0x694AA1769357215DE4FAC081bf1f309aDC325306).version() */\n      mload(0x40)\n      dup2\n      0xffffffff\n      and\n      0xe0\n      shl\n      dup2\n      mstore\n      0x04\n      add\n      0x20\n      mload(0x40)\n      dup1\n      dup4\n      sub\n      dup2\n      dup7\n      gas\n      staticcall\n      iszero\n      dup1\n      iszero\n      tag_26\n      jumpi\n      returndatacopy(0x00, 0x00, returndatasize)\n      revert(0x00, returndatasize)\n    tag_26:\n      pop\n      pop\n      pop\n      pop\n      mload(0x40)\n      returndatasize\n      not(0x1f)\n      0x1f\n      dup3\n      add\n      and\n      dup3\n      add\n      dup1\n      0x40\n      mstore\n      pop\n      dup2\n      add\n      swap1\n      tag_27\n      swap2\n      swap1\n      tag_28\n      jump\t// in\n    tag_27:\n        /* \"learning/Solidity Smart Contract Development/Fund Me/FundMeImportArtificially.sol\":1248:1330  return AggregatorV3Interface(0x694AA1769357215DE4FAC081bf1f309aDC325306).version() */\n      swap1\n      pop\n        /* \"learning/Solidity Smart Contract Development/Fund Me/FundMeImportArtificially.sol\":1185:1338  function getVersion() public view returns (uint256) {... */\n      swap1\n      jump\t// out\n        /* \"learning/Solidity Smart Contract Development/Fund Me/FundMeImportArtificially.sol\":1346:1382  function withdraw() public{... */\n    tag_14:\n      jump\t// out\n        /* \"learning/Solidity Smart Contract Development/Fund Me/FundMeImportArtificially.sol\":754:780  uint256 public myValue = 1 */\n    tag_17:\n      sload(0x01)\n      dup2\n      jump\t// out\n        /* \"learning/Solidity Smart Contract Development/Fund Me/FundMeImportArtificially.sol\":1052:1177  function getPrice() public{... */\n    tag_21:\n      jump\t// out\n        /* \"learning/Solidity Smart Contract Development/Fund Me/FundMeImportArtificially.sol\":789:1044  function fund() public payable{... */\n    tag_23:\n        /* \"learning/Solidity Smart Contract Development/Fund Me/FundMeImportArtificially.sol\":849:850  2 */\n      0x02\n        /* \"learning/Solidity Smart Contract Development/Fund Me/FundMeImportArtificially.sol\":840:847  myValue */\n      sload(0x01)\n        /* \"learning/Solidity Smart Contract Development/Fund Me/FundMeImportArtificially.sol\":840:850  myValue +2 */\n      tag_32\n      swap2\n      swap1\n      tag_33\n      jump\t// in\n    tag_32:\n        /* \"learning/Solidity Smart Contract Development/Fund Me/FundMeImportArtificially.sol\":830:837  myValue */\n      0x01\n        /* \"learning/Solidity Smart Contract Development/Fund Me/FundMeImportArtificially.sol\":830:850  myValue = myValue +2 */\n      dup2\n      swap1\n      sstore\n      pop\n        /* \"learning/Solidity Smart Contract Development/Fund Me/FundMeImportArtificially.sol\":881:885  1e18 */\n      0x0de0b6b3a7640000\n        /* \"learning/Solidity Smart Contract Development/Fund Me/FundMeImportArtificially.sol\":869:878  msg.value */\n      callvalue\n        /* \"learning/Solidity Smart Contract Development/Fund Me/FundMeImportArtificially.sol\":869:885  msg.value > 1e18 */\n      gt\n        /* \"learning/Solidity Smart Contract Development/Fund Me/FundMeImportArtificially.sol\":861:913  require(msg.value > 1e18 , \"didn't send enough ETH\") */\n      tag_34\n      jumpi\n      mload(0x40)\n      0x08c379a000000000000000000000000000000000000000000000000000000000\n      dup2\n      mstore\n      0x04\n      add\n      tag_35\n      swap1\n      tag_36\n      jump\t// in\n    tag_35:\n      mload(0x40)\n      dup1\n      swap2\n      sub\n      swap1\n      revert\n    tag_34:\n        /* \"learning/Solidity Smart Contract Development/Fund Me/FundMeImportArtificially.sol\":789:1044  function fund() public payable{... */\n      jump\t// out\n        /* \"#utility.yul\":7:84   */\n    tag_37:\n        /* \"#utility.yul\":44:51   */\n      0x00\n        /* \"#utility.yul\":73:78   */\n      dup2\n        /* \"#utility.yul\":62:78   */\n      swap1\n      pop\n        /* \"#utility.yul\":7:84   */\n      swap2\n      swap1\n      pop\n      jump\t// out\n        /* \"#utility.yul\":90:208   */\n    tag_38:\n        /* \"#utility.yul\":177:201   */\n      tag_51\n        /* \"#utility.yul\":195:200   */\n      dup2\n        /* \"#utility.yul\":177:201   */\n      tag_37\n      jump\t// in\n    tag_51:\n        /* \"#utility.yul\":172:175   */\n      dup3\n        /* \"#utility.yul\":165:202   */\n      mstore\n        /* \"#utility.yul\":90:208   */\n      pop\n      pop\n      jump\t// out\n        /* \"#utility.yul\":214:436   */\n    tag_11:\n        /* \"#utility.yul\":307:311   */\n      0x00\n        /* \"#utility.yul\":345:347   */\n      0x20\n        /* \"#utility.yul\":334:343   */\n      dup3\n        /* \"#utility.yul\":330:348   */\n      add\n        /* \"#utility.yul\":322:348   */\n      swap1\n      pop\n        /* \"#utility.yul\":358:429   */\n      tag_53\n        /* \"#utility.yul\":426:427   */\n      0x00\n        /* \"#utility.yul\":415:424   */\n      dup4\n        /* \"#utility.yul\":411:428   */\n      add\n        /* \"#utility.yul\":402:408   */\n      dup5\n        /* \"#utility.yul\":358:429   */\n      tag_38\n      jump\t// in\n    tag_53:\n        /* \"#utility.yul\":214:436   */\n      swap3\n      swap2\n      pop\n      pop\n      jump\t// out\n        /* \"#utility.yul\":523:640   */\n    tag_40:\n        /* \"#utility.yul\":632:633   */\n      0x00\n        /* \"#utility.yul\":629:630   */\n      0x00\n        /* \"#utility.yul\":622:634   */\n      revert\n        /* \"#utility.yul\":769:891   */\n    tag_42:\n        /* \"#utility.yul\":842:866   */\n      tag_58\n        /* \"#utility.yul\":860:865   */\n      dup2\n        /* \"#utility.yul\":842:866   */\n      tag_37\n      jump\t// in\n    tag_58:\n        /* \"#utility.yul\":835:840   */\n      dup2\n        /* \"#utility.yul\":832:867   */\n      eq\n        /* \"#utility.yul\":822:885   */\n      tag_59\n      jumpi\n        /* \"#utility.yul\":881:882   */\n      0x00\n        /* \"#utility.yul\":878:879   */\n      0x00\n        /* \"#utility.yul\":871:883   */\n      revert\n        /* \"#utility.yul\":822:885   */\n    tag_59:\n        /* \"#utility.yul\":769:891   */\n      pop\n      jump\t// out\n        /* \"#utility.yul\":897:1040   */\n    tag_43:\n        /* \"#utility.yul\":954:959   */\n      0x00\n        /* \"#utility.yul\":985:991   */\n      dup2\n        /* \"#utility.yul\":979:992   */\n      mload\n        /* \"#utility.yul\":970:992   */\n      swap1\n      pop\n        /* \"#utility.yul\":1001:1034   */\n      tag_61\n        /* \"#utility.yul\":1028:1033   */\n      dup2\n        /* \"#utility.yul\":1001:1034   */\n      tag_42\n      jump\t// in\n    tag_61:\n        /* \"#utility.yul\":897:1040   */\n      swap3\n      swap2\n      pop\n      pop\n      jump\t// out\n        /* \"#utility.yul\":1046:1397   */\n    tag_28:\n        /* \"#utility.yul\":1116:1122   */\n      0x00\n        /* \"#utility.yul\":1165:1167   */\n      0x20\n        /* \"#utility.yul\":1153:1162   */\n      dup3\n        /* \"#utility.yul\":1144:1151   */\n      dup5\n        /* \"#utility.yul\":1140:1163   */\n      sub\n        /* \"#utility.yul\":1136:1168   */\n      slt\n        /* \"#utility.yul\":1133:1252   */\n      iszero\n      tag_63\n      jumpi\n        /* \"#utility.yul\":1171:1250   */\n      tag_64\n      tag_40\n      jump\t// in\n    tag_64:\n        /* \"#utility.yul\":1133:1252   */\n    tag_63:\n        /* \"#utility.yul\":1291:1292   */\n      0x00\n        /* \"#utility.yul\":1316:1380   */\n      tag_65\n        /* \"#utility.yul\":1372:1379   */\n      dup5\n        /* \"#utility.yul\":1363:1369   */\n      dup3\n        /* \"#utility.yul\":1352:1361   */\n      dup6\n        /* \"#utility.yul\":1348:1370   */\n      add\n        /* \"#utility.yul\":1316:1380   */\n      tag_43\n      jump\t// in\n    tag_65:\n        /* \"#utility.yul\":1306:1380   */\n      swap2\n      pop\n        /* \"#utility.yul\":1262:1390   */\n      pop\n        /* \"#utility.yul\":1046:1397   */\n      swap3\n      swap2\n      pop\n      pop\n      jump\t// out\n        /* \"#utility.yul\":1403:1583   */\n    tag_44:\n        /* \"#utility.yul\":1451:1528   */\n      0x4e487b7100000000000000000000000000000000000000000000000000000000\n        /* \"#utility.yul\":1448:1449   */\n      0x00\n        /* \"#utility.yul\":1441:1529   */\n      mstore\n        /* \"#utility.yul\":1548:1552   */\n      0x11\n        /* \"#utility.yul\":1545:1546   */\n      0x04\n        /* \"#utility.yul\":1538:1553   */\n      mstore\n        /* \"#utility.yul\":1572:1576   */\n      0x24\n        /* \"#utility.yul\":1569:1570   */\n      0x00\n        /* \"#utility.yul\":1562:1577   */\n      revert\n        /* \"#utility.yul\":1589:1780   */\n    tag_33:\n        /* \"#utility.yul\":1629:1632   */\n      0x00\n        /* \"#utility.yul\":1648:1668   */\n      tag_68\n        /* \"#utility.yul\":1666:1667   */\n      dup3\n        /* \"#utility.yul\":1648:1668   */\n      tag_37\n      jump\t// in\n    tag_68:\n        /* \"#utility.yul\":1643:1668   */\n      swap2\n      pop\n        /* \"#utility.yul\":1682:1702   */\n      tag_69\n        /* \"#utility.yul\":1700:1701   */\n      dup4\n        /* \"#utility.yul\":1682:1702   */\n      tag_37\n      jump\t// in\n    tag_69:\n        /* \"#utility.yul\":1677:1702   */\n      swap3\n      pop\n        /* \"#utility.yul\":1725:1726   */\n      dup3\n        /* \"#utility.yul\":1722:1723   */\n      dup3\n        /* \"#utility.yul\":1718:1727   */\n      add\n        /* \"#utility.yul\":1711:1727   */\n      swap1\n      pop\n        /* \"#utility.yul\":1746:1749   */\n      dup1\n        /* \"#utility.yul\":1743:1744   */\n      dup3\n        /* \"#utility.yul\":1740:1750   */\n      gt\n        /* \"#utility.yul\":1737:1773   */\n      iszero\n      tag_70\n      jumpi\n        /* \"#utility.yul\":1753:1771   */\n      tag_71\n      tag_44\n      jump\t// in\n    tag_71:\n        /* \"#utility.yul\":1737:1773   */\n    tag_70:\n        /* \"#utility.yul\":1589:1780   */\n      swap3\n      swap2\n      pop\n      pop\n      jump\t// out\n        /* \"#utility.yul\":1786:1955   */\n    tag_45:\n        /* \"#utility.yul\":1870:1881   */\n      0x00\n        /* \"#utility.yul\":1904:1910   */\n      dup3\n        /* \"#utility.yul\":1899:1902   */\n      dup3\n        /* \"#utility.yul\":1892:1911   */\n      mstore\n        /* \"#utility.yul\":1944:1948   */\n      0x20\n        /* \"#utility.yul\":1939:1942   */\n      dup3\n        /* \"#utility.yul\":1935:1949   */\n      add\n        /* \"#utility.yul\":1920:1949   */\n      swap1\n      pop\n        /* \"#utility.yul\":1786:1955   */\n      swap3\n      swap2\n      pop\n      pop\n      jump\t// out\n        /* \"#utility.yul\":1961:2133   */\n    tag_46:\n        /* \"#utility.yul\":2101:2125   */\n      0x6469646e27742073656e6420656e6f7567682045544800000000000000000000\n        /* \"#utility.yul\":2097:2098   */\n      0x00\n        /* \"#utility.yul\":2089:2095   */\n      dup3\n        /* \"#utility.yul\":2085:2099   */\n      add\n        /* \"#utility.yul\":2078:2126   */\n      mstore\n        /* \"#utility.yul\":1961:2133   */\n      pop\n      jump\t// out\n        /* \"#utility.yul\":2139:2505   */\n    tag_47:\n        /* \"#utility.yul\":2281:2284   */\n      0x00\n        /* \"#utility.yul\":2302:2369   */\n      tag_75\n        /* \"#utility.yul\":2366:2368   */\n      0x16\n        /* \"#utility.yul\":2361:2364   */\n      dup4\n        /* \"#utility.yul\":2302:2369   */\n      tag_45\n      jump\t// in\n    tag_75:\n        /* \"#utility.yul\":2295:2369   */\n      swap2\n      pop\n        /* \"#utility.yul\":2378:2471   */\n      tag_76\n        /* \"#utility.yul\":2467:2470   */\n      dup3\n        /* \"#utility.yul\":2378:2471   */\n      tag_46\n      jump\t// in\n    tag_76:\n        /* \"#utility.yul\":2496:2498   */\n      0x20\n        /* \"#utility.yul\":2491:2494   */\n      dup3\n        /* \"#utility.yul\":2487:2499   */\n      add\n        /* \"#utility.yul\":2480:2499   */\n      swap1\n      pop\n        /* \"#utility.yul\":2139:2505   */\n      swap2\n      swap1\n      pop\n      jump\t// out\n        /* \"#utility.yul\":2511:2930   */\n    tag_36:\n        /* \"#utility.yul\":2677:2681   */\n      0x00\n        /* \"#utility.yul\":2715:2717   */\n      0x20\n        /* \"#utility.yul\":2704:2713   */\n      dup3\n        /* \"#utility.yul\":2700:2718   */\n      add\n        /* \"#utility.yul\":2692:2718   */\n      swap1\n      pop\n        /* \"#utility.yul\":2764:2773   */\n      dup2\n        /* \"#utility.yul\":2758:2762   */\n      dup2\n        /* \"#utility.yul\":2754:2774   */\n      sub\n        /* \"#utility.yul\":2750:2751   */\n      0x00\n        /* \"#utility.yul\":2739:2748   */\n      dup4\n        /* \"#utility.yul\":2735:2752   */\n      add\n        /* \"#utility.yul\":2728:2775   */\n      mstore\n        /* \"#utility.yul\":2792:2923   */\n      tag_78\n        /* \"#utility.yul\":2918:2922   */\n      dup2\n        /* \"#utility.yul\":2792:2923   */\n      tag_47\n      jump\t// in\n    tag_78:\n        /* \"#utility.yul\":2784:2923   */\n      swap1\n      pop\n        /* \"#utility.yul\":2511:2930   */\n      swap2\n      swap1\n      pop\n      jump\t// out\n\n    auxdata: 0xa264697066735822122041759a9f0919b2f188920fa3c3dd291cd418be9c85d7e8d2ea1af07ca340cbb564736f6c634300081e0033\n}\n",
				"bytecode": {
					"linkReferences": {},
					"object": "608060405260055f55600180553480156016575f5ffd5b50610361806100245f395ff3fe608060405260043610610049575f3560e01c80630d8e6e2c1461004d5780633ccfd60b1461007757806347f1aae71461008d57806398d5fdca146100b7578063b60d4288146100cd575b5f5ffd5b348015610058575f5ffd5b506100616100d7565b60405161006e91906101e1565b60405180910390f35b348015610082575f5ffd5b5061008b61015e565b005b348015610098575f5ffd5b506100a1610160565b6040516100ae91906101e1565b60405180910390f35b3480156100c2575f5ffd5b506100cb610166565b005b6100d5610168565b005b5f73694aa1769357215de4fac081bf1f309adc32530673ffffffffffffffffffffffffffffffffffffffff166354fd4d506040518163ffffffff1660e01b8152600401602060405180830381865afa158015610135573d5f5f3e3d5ffd5b505050506040513d601f19601f820116820180604052508101906101599190610228565b905090565b565b60015481565b565b60026001546101779190610280565b600181905550670de0b6b3a764000034116101c7576040517f08c379a00000000000000000000000000000000000000000000000000000000081526004016101be9061030d565b60405180910390fd5b565b5f819050919050565b6101db816101c9565b82525050565b5f6020820190506101f45f8301846101d2565b92915050565b5f5ffd5b610207816101c9565b8114610211575f5ffd5b50565b5f81519050610222816101fe565b92915050565b5f6020828403121561023d5761023c6101fa565b5b5f61024a84828501610214565b91505092915050565b7f4e487b71000000000000000000000000000000000000000000000000000000005f52601160045260245ffd5b5f61028a826101c9565b9150610295836101c9565b92508282019050808211156102ad576102ac610253565b5b92915050565b5f82825260208201905092915050565b7f6469646e27742073656e6420656e6f75676820455448000000000000000000005f82015250565b5f6102f76016836102b3565b9150610302826102c3565b602082019050919050565b5f6020820190508181035f830152610324816102eb565b905091905056fea264697066735822122041759a9f0919b2f188920fa3c3dd291cd418be9c85d7e8d2ea1af07ca340cbb564736f6c634300081e0033",
					"opcodes": "PUSH1 0x80 PUSH1 0x40 MSTORE PUSH1 0x5 PUSH0 SSTORE PUSH1 0x1 DUP1 SSTORE CALLVALUE DUP1 ISZERO PUSH1 0x16 JUMPI PUSH0 PUSH0 REVERT JUMPDEST POP PUSH2 0x361 DUP1 PUSH2 0x24 PUSH0 CODECOPY PUSH0 RETURN INVALID PUSH1 0x80 PUSH1 0x40 MSTORE PUSH1 0x4 CALLDATASIZE LT PUSH2 0x49 JUMPI PUSH0 CALLDATALOAD PUSH1 0xE0 SHR DUP1 PUSH4 0xD8E6E2C EQ PUSH2 0x4D JUMPI DUP1 PUSH4 0x3CCFD60B EQ PUSH2 0x77 JUMPI DUP1 PUSH4 0x47F1AAE7 EQ PUSH2 0x8D JUMPI DUP1 PUSH4 0x98D5FDCA EQ PUSH2 0xB7 JUMPI DUP1 PUSH4 0xB60D4288 EQ PUSH2 0xCD JUMPI JUMPDEST PUSH0 PUSH0 REVERT JUMPDEST CALLVALUE DUP1 ISZERO PUSH2 0x58 JUMPI PUSH0 PUSH0 REVERT JUMPDEST POP PUSH2 0x61 PUSH2 0xD7 JUMP JUMPDEST PUSH1 0x40 MLOAD PUSH2 0x6E SWAP2 SWAP1 PUSH2 0x1E1 JUMP JUMPDEST PUSH1 0x40 MLOAD DUP1 SWAP2 SUB SWAP1 RETURN JUMPDEST CALLVALUE DUP1 ISZERO PUSH2 0x82 JUMPI PUSH0 PUSH0 REVERT JUMPDEST POP PUSH2 0x8B PUSH2 0x15E JUMP JUMPDEST STOP JUMPDEST CALLVALUE DUP1 ISZERO PUSH2 0x98 JUMPI PUSH0 PUSH0 REVERT JUMPDEST POP PUSH2 0xA1 PUSH2 0x160 JUMP JUMPDEST PUSH1 0x40 MLOAD PUSH2 0xAE SWAP2 SWAP1 PUSH2 0x1E1 JUMP JUMPDEST PUSH1 0x40 MLOAD DUP1 SWAP2 SUB SWAP1 RETURN JUMPDEST CALLVALUE DUP1 ISZERO PUSH2 0xC2 JUMPI PUSH0 PUSH0 REVERT JUMPDEST POP PUSH2 0xCB PUSH2 0x166 JUMP JUMPDEST STOP JUMPDEST PUSH2 0xD5 PUSH2 0x168 JUMP JUMPDEST STOP JUMPDEST PUSH0 PUSH20 0x694AA1769357215DE4FAC081BF1F309ADC325306 PUSH20 0xFFFFFFFFFFFFFFFFFFFFFFFFFFFFFFFFFFFFFFFF AND PUSH4 0x54FD4D50 PUSH1 0x40 MLOAD DUP2 PUSH4 0xFFFFFFFF AND PUSH1 0xE0 SHL DUP2 MSTORE PUSH1 0x4 ADD PUSH1 0x20 PUSH1 0x40 MLOAD DUP1 DUP4 SUB DUP2 DUP7 GAS STATICCALL ISZERO DUP1 ISZERO PUSH2 0x135 JUMPI RETURNDATASIZE PUSH0 PUSH0 RETURNDATACOPY RETURNDATASIZE PUSH0 REVERT JUMPDEST POP POP POP POP PUSH1 0x40 MLOAD RETURNDATASIZE PUSH1 0x1F NOT PUSH1 0x1F DUP3 ADD AND DUP3 ADD DUP1 PUSH1 0x40 MSTORE POP DUP2 ADD SWAP1 PUSH2 0x159 SWAP2 SWAP1 PUSH2 0x228 JUMP JUMPDEST SWAP1 POP SWAP1 JUMP JUMPDEST JUMP JUMPDEST PUSH1 0x1 SLOAD DUP2 JUMP JUMPDEST JUMP JUMPDEST PUSH1 0x2 PUSH1 0x1 SLOAD PUSH2 0x177 SWAP2 SWAP1 PUSH2 0x280 JUMP JUMPDEST PUSH1 0x1 DUP2 SWAP1 SSTORE POP PUSH8 0xDE0B6B3A7640000 CALLVALUE GT PUSH2 0x1C7 JUMPI PUSH1 0x40 MLOAD PUSH32 0x8C379A000000000000000000000000000000000000000000000000000000000 DUP2 MSTORE PUSH1 0x4 ADD PUSH2 0x1BE SWAP1 PUSH2 0x30D JUMP JUMPDEST PUSH1 0x40 MLOAD DUP1 SWAP2 SUB SWAP1 REVERT JUMPDEST JUMP JUMPDEST PUSH0 DUP2 SWAP1 POP SWAP2 SWAP1 POP JUMP JUMPDEST PUSH2 0x1DB DUP2 PUSH2 0x1C9 JUMP JUMPDEST DUP3 MSTORE POP POP JUMP JUMPDEST PUSH0 PUSH1 0x20 DUP3 ADD SWAP1 POP PUSH2 0x1F4 PUSH0 DUP4 ADD DUP5 PUSH2 0x1D2 JUMP JUMPDEST SWAP3 SWAP2 POP POP JUMP JUMPDEST PUSH0 PUSH0 REVERT JUMPDEST PUSH2 0x207 DUP2 PUSH2 0x1C9 JUMP JUMPDEST DUP2 EQ PUSH2 0x211 JUMPI PUSH0 PUSH0 REVERT JUMPDEST POP JUMP JUMPDEST PUSH0 DUP2 MLOAD SWAP1 POP PUSH2 0x222 DUP2 PUSH2 0x1FE JUMP JUMPDEST SWAP3 SWAP2 POP POP JUMP JUMPDEST PUSH0 PUSH1 0x20 DUP3 DUP5 SUB SLT ISZERO PUSH2 0x23D JUMPI PUSH2 0x23C PUSH2 0x1FA JUMP JUMPDEST JUMPDEST PUSH0 PUSH2 0x24A DUP5 DUP3 DUP6 ADD PUSH2 0x214 JUMP JUMPDEST SWAP2 POP POP SWAP3 SWAP2 POP POP JUMP JUMPDEST PUSH32 0x4E487B7100000000000000000000000000000000000000000000000000000000 PUSH0 MSTORE PUSH1 0x11 PUSH1 0x4 MSTORE PUSH1 0x24 PUSH0 REVERT JUMPDEST PUSH0 PUSH2 0x28A DUP3 PUSH2 0x1C9 JUMP JUMPDEST SWAP2 POP PUSH2 0x295 DUP4 PUSH2 0x1C9 JUMP JUMPDEST SWAP3 POP DUP3 DUP3 ADD SWAP1 POP DUP1 DUP3 GT ISZERO PUSH2 0x2AD JUMPI PUSH2 0x2AC PUSH2 0x253 JUMP JUMPDEST JUMPDEST SWAP3 SWAP2 POP POP JUMP JUMPDEST PUSH0 DUP3 DUP3 MSTORE PUSH1 0x20 DUP3 ADD SWAP1 POP SWAP3 SWAP2 POP POP JUMP JUMPDEST PUSH32 0x6469646E27742073656E6420656E6F7567682045544800000000000000000000 PUSH0 DUP3 ADD MSTORE POP JUMP JUMPDEST PUSH0 PUSH2 0x2F7 PUSH1 0x16 DUP4 PUSH2 0x2B3 JUMP JUMPDEST SWAP2 POP PUSH2 0x302 DUP3 PUSH2 0x2C3 JUMP JUMPDEST PUSH1 0x20 DUP3 ADD SWAP1 POP SWAP2 SWAP1 POP JUMP JUMPDEST PUSH0 PUSH1 0x20 DUP3 ADD SWAP1 POP DUP2 DUP2 SUB PUSH0 DUP4 ADD MSTORE PUSH2 0x324 DUP2 PUSH2 0x2EB JUMP JUMPDEST SWAP1 POP SWAP2 SWAP1 POP JUMP INVALID LOG2 PUSH5 0x6970667358 0x22 SLT KECCAK256 COINBASE PUSH22 0x9A9F0919B2F188920FA3C3DD291CD418BE9C85D7E8D2 0xEA BYTE CREATE PUSH29 0xA340CBB564736F6C634300081E00330000000000000000000000000000 "
				},
				"gasEstimates": {
					"creation": {
						"codeDepositCost": "173000",
						"executionCost": "44429",
						"totalCost": "217429"
					},
					"external": {
						"fund()": "infinite",
						"getPrice()": "187",
						"getVersion()": "infinite",
						"myValue()": "2447",
						"withdraw()": "143"
					}
				},
				"methodIdentifiers": {
					"fund()": "b60d4288",
					"getPrice()": "98d5fdca",
					"getVersion()": "0d8e6e2c",
					"myValue()": "47f1aae7",
					"withdraw()": "3ccfd60b"
				}
			},
			"storageLayout": {
				"storage": [
					{
						"astId": 48,
						"contract": "learning/Solidity Smart Contract Development/Fund Me/FundMeImportArtificially.sol:FundMe",
						"label": "minimumUSD",
						"offset": 0,
						"slot": "0",
						"type": "t_uint256"
					},
					{
						"astId": 51,
						"contract": "learning/Solidity Smart Contract Development/Fund Me/FundMeImportArtificially.sol:FundMe",
						"label": "myValue",
						"offset": 0,
						"slot": "1",
						"type": "t_uint256"
					}
				],
				"types": {
					"t_uint256": {
						"encoding": "inplace",
						"label": "uint256",
						"numberOfBytes": "32"
					}
				}
			},
			"userdoc": {
				"kind": "user",
				"methods": {},
				"version": 1
			}
		}
	}
}