{
	"learning/Solidity Smart Contract Development/Fund Me/FundMe.sol": {
		"FundMe": {
			"abi": [
				{
					"inputs": [],
					"stateMutability": "nonpayable",
					"type": "constructor"
				},
				{
					"inputs": [],
					"name": "MINIMUM_USD",
					"outputs": [
						{
							"internalType": "uint256",
							"name": "",
							"type": "uint256"
						}
					],
					"stateMutability": "view",
					"type": "function"
				},
				{
					"inputs": [
						{
							"internalType": "address",
							"name": "funder",
							"type": "address"
						}
					],
					"name": "addressToAmountFunded",
					"outputs": [
						{
							"internalType": "uint256",
							"name": "amountFunded",
							"type": "uint256"
						}
					],
					"stateMutability": "view",
					"type": "function"
				},
				{
					"inputs": [],
					"name": "fund",
					"outputs": [],
					"stateMutability": "payable",
					"type": "function"
				},
				{
					"inputs": [
						{
							"internalType": "uint256",
							"name": "",
							"type": "uint256"
						}
					],
					"name": "funders",
					"outputs": [
						{
							"internalType": "address",
							"name": "",
							"type": "address"
						}
					],
					"stateMutability": "view",
					"type": "function"
				},
				{
					"inputs": [],
					"name": "myValue",
					"outputs": [
						{
							"internalType": "uint256",
							"name": "",
							"type": "uint256"
						}
					],
					"stateMutability": "view",
					"type": "function"
				},
				{
					"inputs": [],
					"name": "owner",
					"outputs": [
						{
							"internalType": "address",
							"name": "",
							"type": "address"
						}
					],
					"stateMutability": "view",
					"type": "function"
				},
				{
					"inputs": [],
					"name": "withdraw",
					"outputs": [],
					"stateMutability": "nonpayable",
					"type": "function"
				}
			],
			"devdoc": {
				"kind": "dev",
				"methods": {},
				"version": 1
			},
			"evm": {
				"assembly": "    /* \"learning/Solidity Smart Contract Development/Fund Me/FundMe.sol\":320:2413  contract FundMe{... */\n  mstore(0x40, 0xa0)\n    /* \"learning/Solidity Smart Contract Development/Fund Me/FundMe.sol\":575:576  1 */\n  0x01\n    /* \"learning/Solidity Smart Contract Development/Fund Me/FundMe.sol\":550:576  uint256 public myValue = 1 */\n  0x02\n  sstore\n    /* \"learning/Solidity Smart Contract Development/Fund Me/FundMe.sol\":710:760  constructor(){... */\n  callvalue\n  dup1\n  iszero\n  tag_1\n  jumpi\n  revert(0x00, 0x00)\ntag_1:\n  pop\n    /* \"learning/Solidity Smart Contract Development/Fund Me/FundMe.sol\":742:752  msg.sender */\n  caller\n    /* \"learning/Solidity Smart Contract Development/Fund Me/FundMe.sol\":734:752  owner = msg.sender */\n  0xffffffffffffffffffffffffffffffffffffffff\n  and\n  0x80\n  dup2\n  0xffffffffffffffffffffffffffffffffffffffff\n  and\n  dup2\n  mstore\n  pop\n  pop\n    /* \"learning/Solidity Smart Contract Development/Fund Me/FundMe.sol\":320:2413  contract FundMe{... */\n  mload(0x80)\n  codecopy(0x00, dataOffset(sub_0), dataSize(sub_0))\n  0x00\n  assignImmutable(\"0xdb37925934a3d3177db64e11f5e0156ceb8a756fee58ded16e549afa607ddb1d\")\n  return(0x00, dataSize(sub_0))\nstop\n\nsub_0: assembly {\n        /* \"learning/Solidity Smart Contract Development/Fund Me/FundMe.sol\":320:2413  contract FundMe{... */\n      mstore(0x40, 0x80)\n      jumpi(tag_1, lt(calldatasize, 0x04))\n      shr(0xe0, calldataload(0x00))\n      dup1\n      0x6b69a592\n      gt\n      tag_9\n      jumpi\n      dup1\n      0x6b69a592\n      eq\n      tag_5\n      jumpi\n      dup1\n      0x8da5cb5b\n      eq\n      tag_6\n      jumpi\n      dup1\n      0xb60d4288\n      eq\n      tag_7\n      jumpi\n      dup1\n      0xdc0d3dff\n      eq\n      tag_8\n      jumpi\n      jump(tag_1)\n    tag_9:\n      dup1\n      0x3ccfd60b\n      eq\n      tag_2\n      jumpi\n      dup1\n      0x3e47d6f3\n      eq\n      tag_3\n      jumpi\n      dup1\n      0x47f1aae7\n      eq\n      tag_4\n      jumpi\n    tag_1:\n      revert(0x00, 0x00)\n        /* \"learning/Solidity Smart Contract Development/Fund Me/FundMe.sol\":1341:2298  function withdraw() public onlyOwner{... */\n    tag_2:\n      callvalue\n      dup1\n      iszero\n      tag_10\n      jumpi\n      revert(0x00, 0x00)\n    tag_10:\n      pop\n      tag_11\n      tag_12\n      jump\t// in\n    tag_11:\n      stop\n        /* \"learning/Solidity Smart Contract Development/Fund Me/FundMe.sol\":414:490  mapping(address funder => uint256 amountFunded) public addressToAmountFunded */\n    tag_3:\n      callvalue\n      dup1\n      iszero\n      tag_13\n      jumpi\n      revert(0x00, 0x00)\n    tag_13:\n      pop\n      tag_14\n      0x04\n      dup1\n      calldatasize\n      sub\n      dup2\n      add\n      swap1\n      tag_15\n      swap2\n      swap1\n      tag_16\n      jump\t// in\n    tag_15:\n      tag_17\n      jump\t// in\n    tag_14:\n      mload(0x40)\n      tag_18\n      swap2\n      swap1\n      tag_19\n      jump\t// in\n    tag_18:\n      mload(0x40)\n      dup1\n      swap2\n      sub\n      swap1\n      return\n        /* \"learning/Solidity Smart Contract Development/Fund Me/FundMe.sol\":550:576  uint256 public myValue = 1 */\n    tag_4:\n      callvalue\n      dup1\n      iszero\n      tag_20\n      jumpi\n      revert(0x00, 0x00)\n    tag_20:\n      pop\n      tag_21\n      tag_22\n      jump\t// in\n    tag_21:\n      mload(0x40)\n      tag_23\n      swap2\n      swap1\n      tag_19\n      jump\t// in\n    tag_23:\n      mload(0x40)\n      dup1\n      swap2\n      sub\n      swap1\n      return\n        /* \"learning/Solidity Smart Contract Development/Fund Me/FundMe.sol\":497:543  uint256 public constant MINIMUM_USD = 5 * 1e18 */\n    tag_5:\n      callvalue\n      dup1\n      iszero\n      tag_24\n      jumpi\n      revert(0x00, 0x00)\n    tag_24:\n      pop\n      tag_25\n      tag_26\n      jump\t// in\n    tag_25:\n      mload(0x40)\n      tag_27\n      swap2\n      swap1\n      tag_19\n      jump\t// in\n    tag_27:\n      mload(0x40)\n      dup1\n      swap2\n      sub\n      swap1\n      return\n        /* \"learning/Solidity Smart Contract Development/Fund Me/FundMe.sol\":583:613  address public immutable owner */\n    tag_6:\n      callvalue\n      dup1\n      iszero\n      tag_28\n      jumpi\n      revert(0x00, 0x00)\n    tag_28:\n      pop\n      tag_29\n      tag_30\n      jump\t// in\n    tag_29:\n      mload(0x40)\n      tag_31\n      swap2\n      swap1\n      tag_32\n      jump\t// in\n    tag_31:\n      mload(0x40)\n      dup1\n      swap2\n      sub\n      swap1\n      return\n        /* \"learning/Solidity Smart Contract Development/Fund Me/FundMe.sol\":768:1331  function fund() public payable{... */\n    tag_7:\n      tag_33\n      tag_34\n      jump\t// in\n    tag_33:\n      stop\n        /* \"learning/Solidity Smart Contract Development/Fund Me/FundMe.sol\":383:407  address[] public funders */\n    tag_8:\n      callvalue\n      dup1\n      iszero\n      tag_35\n      jumpi\n      revert(0x00, 0x00)\n    tag_35:\n      pop\n      tag_36\n      0x04\n      dup1\n      calldatasize\n      sub\n      dup2\n      add\n      swap1\n      tag_37\n      swap2\n      swap1\n      tag_38\n      jump\t// in\n    tag_37:\n      tag_39\n      jump\t// in\n    tag_36:\n      mload(0x40)\n      tag_40\n      swap2\n      swap1\n      tag_32\n      jump\t// in\n    tag_40:\n      mload(0x40)\n      dup1\n      swap2\n      sub\n      swap1\n      return\n        /* \"learning/Solidity Smart Contract Development/Fund Me/FundMe.sol\":1341:2298  function withdraw() public onlyOwner{... */\n    tag_12:\n        /* \"learning/Solidity Smart Contract Development/Fund Me/FundMe.sol\":2359:2364  owner */\n      immutable(\"0xdb37925934a3d3177db64e11f5e0156ceb8a756fee58ded16e549afa607ddb1d\")\n        /* \"learning/Solidity Smart Contract Development/Fund Me/FundMe.sol\":2345:2364  msg.sender == owner */\n      0xffffffffffffffffffffffffffffffffffffffff\n      and\n        /* \"learning/Solidity Smart Contract Development/Fund Me/FundMe.sol\":2345:2355  msg.sender */\n      caller\n        /* \"learning/Solidity Smart Contract Development/Fund Me/FundMe.sol\":2345:2364  msg.sender == owner */\n      0xffffffffffffffffffffffffffffffffffffffff\n      and\n      eq\n        /* \"learning/Solidity Smart Contract Development/Fund Me/FundMe.sol\":2337:2390  require(msg.sender == owner , \"Sender is not owner!\") */\n      tag_42\n      jumpi\n      mload(0x40)\n      0x08c379a000000000000000000000000000000000000000000000000000000000\n      dup2\n      mstore\n      0x04\n      add\n      tag_43\n      swap1\n      tag_44\n      jump\t// in\n    tag_43:\n      mload(0x40)\n      dup1\n      swap2\n      sub\n      swap1\n      revert\n    tag_42:\n        /* \"learning/Solidity Smart Contract Development/Fund Me/FundMe.sol\":1452:1471  uint256 funderIndex */\n      0x00\n        /* \"learning/Solidity Smart Contract Development/Fund Me/FundMe.sol\":1474:1475  0 */\n      0x00\n        /* \"learning/Solidity Smart Contract Development/Fund Me/FundMe.sol\":1452:1475  uint256 funderIndex = 0 */\n      swap1\n      pop\n        /* \"learning/Solidity Smart Contract Development/Fund Me/FundMe.sol\":1448:1633  for(uint256 funderIndex = 0; funderIndex < funders.length; funderIndex++){... */\n    tag_46:\n        /* \"learning/Solidity Smart Contract Development/Fund Me/FundMe.sol\":1491:1498  funders */\n      0x00\n        /* \"learning/Solidity Smart Contract Development/Fund Me/FundMe.sol\":1491:1505  funders.length */\n      dup1\n      sload\n      swap1\n      pop\n        /* \"learning/Solidity Smart Contract Development/Fund Me/FundMe.sol\":1477:1488  funderIndex */\n      dup2\n        /* \"learning/Solidity Smart Contract Development/Fund Me/FundMe.sol\":1477:1505  funderIndex < funders.length */\n      lt\n        /* \"learning/Solidity Smart Contract Development/Fund Me/FundMe.sol\":1448:1633  for(uint256 funderIndex = 0; funderIndex < funders.length; funderIndex++){... */\n      iszero\n      tag_47\n      jumpi\n        /* \"learning/Solidity Smart Contract Development/Fund Me/FundMe.sol\":1536:1550  address funder */\n      0x00\n        /* \"learning/Solidity Smart Contract Development/Fund Me/FundMe.sol\":1553:1560  funders */\n      0x00\n        /* \"learning/Solidity Smart Contract Development/Fund Me/FundMe.sol\":1561:1572  funderIndex */\n      dup3\n        /* \"learning/Solidity Smart Contract Development/Fund Me/FundMe.sol\":1553:1573  funders[funderIndex] */\n      dup2\n      sload\n      dup2\n      lt\n      tag_49\n      jumpi\n      tag_50\n      tag_51\n      jump\t// in\n    tag_50:\n    tag_49:\n      swap1\n      0x00\n      mstore\n      keccak256(0x00, 0x20)\n      add\n      0x00\n      swap1\n      sload\n      swap1\n      0x0100\n      exp\n      swap1\n      div\n      0xffffffffffffffffffffffffffffffffffffffff\n      and\n        /* \"learning/Solidity Smart Contract Development/Fund Me/FundMe.sol\":1536:1573  address funder = funders[funderIndex] */\n      swap1\n      pop\n        /* \"learning/Solidity Smart Contract Development/Fund Me/FundMe.sol\":1620:1621  0 */\n      0x00\n        /* \"learning/Solidity Smart Contract Development/Fund Me/FundMe.sol\":1588:1609  addressToAmountFunded */\n      0x01\n        /* \"learning/Solidity Smart Contract Development/Fund Me/FundMe.sol\":1588:1617  addressToAmountFunded[funder] */\n      0x00\n        /* \"learning/Solidity Smart Contract Development/Fund Me/FundMe.sol\":1610:1616  funder */\n      dup4\n        /* \"learning/Solidity Smart Contract Development/Fund Me/FundMe.sol\":1588:1617  addressToAmountFunded[funder] */\n      0xffffffffffffffffffffffffffffffffffffffff\n      and\n      0xffffffffffffffffffffffffffffffffffffffff\n      and\n      dup2\n      mstore\n      0x20\n      add\n      swap1\n      dup2\n      mstore\n      0x20\n      add\n      0x00\n      keccak256\n        /* \"learning/Solidity Smart Contract Development/Fund Me/FundMe.sol\":1588:1621  addressToAmountFunded[funder] = 0 */\n      dup2\n      swap1\n      sstore\n      pop\n        /* \"learning/Solidity Smart Contract Development/Fund Me/FundMe.sol\":1521:1633  {... */\n      pop\n        /* \"learning/Solidity Smart Contract Development/Fund Me/FundMe.sol\":1507:1520  funderIndex++ */\n      dup1\n      dup1\n      0x01\n      add\n      swap2\n      pop\n      pop\n        /* \"learning/Solidity Smart Contract Development/Fund Me/FundMe.sol\":1448:1633  for(uint256 funderIndex = 0; funderIndex < funders.length; funderIndex++){... */\n      jump(tag_46)\n    tag_47:\n      pop\n        /* \"learning/Solidity Smart Contract Development/Fund Me/FundMe.sol\":1667:1668  0 */\n      0x00\n        /* \"learning/Solidity Smart Contract Development/Fund Me/FundMe.sol\":1653:1669  new address[](0) */\n      0xffffffffffffffff\n      dup2\n      gt\n      iszero\n      tag_53\n      jumpi\n      tag_54\n      tag_55\n      jump\t// in\n    tag_54:\n    tag_53:\n      mload(0x40)\n      swap1\n      dup1\n      dup3\n      mstore\n      dup1\n      0x20\n      mul\n      0x20\n      add\n      dup3\n      add\n      0x40\n      mstore\n      dup1\n      iszero\n      tag_56\n      jumpi\n      dup2\n      0x20\n      add\n      0x20\n      dup3\n      mul\n      dup1\n      calldatasize\n      dup4\n      calldatacopy\n      dup1\n      dup3\n      add\n      swap2\n      pop\n      pop\n      swap1\n      pop\n    tag_56:\n      pop\n        /* \"learning/Solidity Smart Contract Development/Fund Me/FundMe.sol\":1643:1650  funders */\n      0x00\n        /* \"learning/Solidity Smart Contract Development/Fund Me/FundMe.sol\":1643:1669  funders = new address[](0) */\n      swap1\n      dup1\n      mload\n      swap1\n      0x20\n      add\n      swap1\n      tag_57\n      swap3\n      swap2\n      swap1\n      tag_58\n      jump\t// in\n    tag_57:\n      pop\n        /* \"learning/Solidity Smart Contract Development/Fund Me/FundMe.sol\":2161:2177  bool callSuccess */\n      0x00\n        /* \"learning/Solidity Smart Contract Development/Fund Me/FundMe.sol\":2192:2202  msg.sender */\n      caller\n        /* \"learning/Solidity Smart Contract Development/Fund Me/FundMe.sol\":2184:2208  payable(msg.sender).call */\n      0xffffffffffffffffffffffffffffffffffffffff\n      and\n        /* \"learning/Solidity Smart Contract Development/Fund Me/FundMe.sol\":2216:2237  address(this).balance */\n      selfbalance\n        /* \"learning/Solidity Smart Contract Development/Fund Me/FundMe.sol\":2184:2242  payable(msg.sender).call{value: address(this).balance}(\"\") */\n      mload(0x40)\n      tag_59\n      swap1\n      tag_60\n      jump\t// in\n    tag_59:\n      0x00\n      mload(0x40)\n      dup1\n      dup4\n      sub\n      dup2\n      dup6\n      dup8\n      gas\n      call\n      swap3\n      pop\n      pop\n      pop\n      returndatasize\n      dup1\n      0x00\n      dup2\n      eq\n      tag_63\n      jumpi\n      mload(0x40)\n      swap2\n      pop\n      and(add(returndatasize, 0x3f), not(0x1f))\n      dup3\n      add\n      0x40\n      mstore\n      returndatasize\n      dup3\n      mstore\n      returndatasize\n      0x00\n      0x20\n      dup5\n      add\n      returndatacopy\n      jump(tag_62)\n    tag_63:\n      0x60\n      swap2\n      pop\n    tag_62:\n      pop\n        /* \"learning/Solidity Smart Contract Development/Fund Me/FundMe.sol\":2160:2242  (bool callSuccess , ) = payable(msg.sender).call{value: address(this).balance}(\"\") */\n      pop\n      swap1\n      pop\n        /* \"learning/Solidity Smart Contract Development/Fund Me/FundMe.sol\":2261:2272  callSuccess */\n      dup1\n        /* \"learning/Solidity Smart Contract Development/Fund Me/FundMe.sol\":2253:2290  require(callSuccess , \"call failed!\") */\n      tag_64\n      jumpi\n      mload(0x40)\n      0x08c379a000000000000000000000000000000000000000000000000000000000\n      dup2\n      mstore\n      0x04\n      add\n      tag_65\n      swap1\n      tag_66\n      jump\t// in\n    tag_65:\n      mload(0x40)\n      dup1\n      swap2\n      sub\n      swap1\n      revert\n    tag_64:\n        /* \"learning/Solidity Smart Contract Development/Fund Me/FundMe.sol\":1377:2298  {... */\n      pop\n        /* \"learning/Solidity Smart Contract Development/Fund Me/FundMe.sol\":1341:2298  function withdraw() public onlyOwner{... */\n      jump\t// out\n        /* \"learning/Solidity Smart Contract Development/Fund Me/FundMe.sol\":414:490  mapping(address funder => uint256 amountFunded) public addressToAmountFunded */\n    tag_17:\n      mstore(0x20, 0x01)\n      dup1\n      0x00\n      mstore\n      keccak256(0x00, 0x40)\n      0x00\n      swap2\n      pop\n      swap1\n      pop\n      sload\n      dup2\n      jump\t// out\n        /* \"learning/Solidity Smart Contract Development/Fund Me/FundMe.sol\":550:576  uint256 public myValue = 1 */\n    tag_22:\n      sload(0x02)\n      dup2\n      jump\t// out\n        /* \"learning/Solidity Smart Contract Development/Fund Me/FundMe.sol\":497:543  uint256 public constant MINIMUM_USD = 5 * 1e18 */\n    tag_26:\n        /* \"learning/Solidity Smart Contract Development/Fund Me/FundMe.sol\":535:543  5 * 1e18 */\n      0x4563918244f40000\n        /* \"learning/Solidity Smart Contract Development/Fund Me/FundMe.sol\":497:543  uint256 public constant MINIMUM_USD = 5 * 1e18 */\n      dup2\n      jump\t// out\n        /* \"learning/Solidity Smart Contract Development/Fund Me/FundMe.sol\":583:613  address public immutable owner */\n    tag_30:\n      immutable(\"0xdb37925934a3d3177db64e11f5e0156ceb8a756fee58ded16e549afa607ddb1d\")\n      dup2\n      jump\t// out\n        /* \"learning/Solidity Smart Contract Development/Fund Me/FundMe.sol\":768:1331  function fund() public payable{... */\n    tag_34:\n        /* \"learning/Solidity Smart Contract Development/Fund Me/FundMe.sol\":535:543  5 * 1e18 */\n      0x4563918244f40000\n        /* \"learning/Solidity Smart Contract Development/Fund Me/FundMe.sol\":941:950  msg.value */\n      callvalue\n        /* \"learning/Solidity Smart Contract Development/Fund Me/FundMe.sol\":941:968  msg.value.getConversionRate */\n      linkerSymbol(\"eb1accbc40c030346ea7971cc9883981e2ca3312265cfa082e92d4e16af6b223\")\n      0x6e5b6b28\n      swap1\n      swap2\n        /* \"learning/Solidity Smart Contract Development/Fund Me/FundMe.sol\":941:970  msg.value.getConversionRate() */\n      mload(0x40)\n      dup3\n      0xffffffff\n      and\n      0xe0\n      shl\n      dup2\n      mstore\n      0x04\n      add\n      tag_68\n      swap2\n      swap1\n      tag_69\n      jump\t// in\n    tag_68:\n      0x20\n      mload(0x40)\n      dup1\n      dup4\n      sub\n      dup2\n      dup7\n      gas\n      delegatecall\n      iszero\n      dup1\n      iszero\n      tag_71\n      jumpi\n      returndatacopy(0x00, 0x00, returndatasize)\n      revert(0x00, returndatasize)\n    tag_71:\n      pop\n      pop\n      pop\n      pop\n      mload(0x40)\n      returndatasize\n      not(0x1f)\n      0x1f\n      dup3\n      add\n      and\n      dup3\n      add\n      dup1\n      0x40\n      mstore\n      pop\n      dup2\n      add\n      swap1\n      tag_72\n      swap2\n      swap1\n      tag_73\n      jump\t// in\n    tag_72:\n        /* \"learning/Solidity Smart Contract Development/Fund Me/FundMe.sol\":941:985  msg.value.getConversionRate() >= MINIMUM_USD */\n      lt\n      iszero\n        /* \"learning/Solidity Smart Contract Development/Fund Me/FundMe.sol\":933:1013  require(msg.value.getConversionRate() >= MINIMUM_USD , \"didn't send enough ETH\") */\n      tag_74\n      jumpi\n      mload(0x40)\n      0x08c379a000000000000000000000000000000000000000000000000000000000\n      dup2\n      mstore\n      0x04\n      add\n      tag_75\n      swap1\n      tag_76\n      jump\t// in\n    tag_75:\n      mload(0x40)\n      dup1\n      swap2\n      sub\n      swap1\n      revert\n    tag_74:\n        /* \"learning/Solidity Smart Contract Development/Fund Me/FundMe.sol\":1148:1155  funders */\n      0x00\n        /* \"learning/Solidity Smart Contract Development/Fund Me/FundMe.sol\":1161:1171  msg.sender */\n      caller\n        /* \"learning/Solidity Smart Contract Development/Fund Me/FundMe.sol\":1148:1172  funders.push(msg.sender) */\n      swap1\n      dup1\n      0x01\n      dup2\n      sload\n      add\n      dup1\n      dup3\n      sstore\n      dup1\n      swap2\n      pop\n      pop\n      0x01\n      swap1\n      sub\n      swap1\n      0x00\n      mstore\n      keccak256(0x00, 0x20)\n      add\n      0x00\n      swap1\n      swap2\n      swap1\n      swap2\n      swap1\n      swap2\n      0x0100\n      exp\n      dup2\n      sload\n      dup2\n      0xffffffffffffffffffffffffffffffffffffffff\n      mul\n      not\n      and\n      swap1\n      dup4\n      0xffffffffffffffffffffffffffffffffffffffff\n      and\n      mul\n      or\n      swap1\n      sstore\n      pop\n        /* \"learning/Solidity Smart Contract Development/Fund Me/FundMe.sol\":1314:1323  msg.value */\n      callvalue\n        /* \"learning/Solidity Smart Contract Development/Fund Me/FundMe.sol\":1277:1298  addressToAmountFunded */\n      0x01\n        /* \"learning/Solidity Smart Contract Development/Fund Me/FundMe.sol\":1277:1310  addressToAmountFunded[msg.sender] */\n      0x00\n        /* \"learning/Solidity Smart Contract Development/Fund Me/FundMe.sol\":1299:1309  msg.sender */\n      caller\n        /* \"learning/Solidity Smart Contract Development/Fund Me/FundMe.sol\":1277:1310  addressToAmountFunded[msg.sender] */\n      0xffffffffffffffffffffffffffffffffffffffff\n      and\n      0xffffffffffffffffffffffffffffffffffffffff\n      and\n      dup2\n      mstore\n      0x20\n      add\n      swap1\n      dup2\n      mstore\n      0x20\n      add\n      0x00\n      keccak256\n      0x00\n        /* \"learning/Solidity Smart Contract Development/Fund Me/FundMe.sol\":1277:1323  addressToAmountFunded[msg.sender] += msg.value */\n      dup3\n      dup3\n      sload\n      tag_78\n      swap2\n      swap1\n      tag_79\n      jump\t// in\n    tag_78:\n      swap3\n      pop\n      pop\n      dup2\n      swap1\n      sstore\n      pop\n        /* \"learning/Solidity Smart Contract Development/Fund Me/FundMe.sol\":768:1331  function fund() public payable{... */\n      jump\t// out\n        /* \"learning/Solidity Smart Contract Development/Fund Me/FundMe.sol\":383:407  address[] public funders */\n    tag_39:\n      0x00\n      dup2\n      dup2\n      sload\n      dup2\n      lt\n      tag_80\n      jumpi\n      0x00\n      dup1\n      revert\n    tag_80:\n      swap1\n      0x00\n      mstore\n      keccak256(0x00, 0x20)\n      add\n      0x00\n      swap2\n      pop\n      sload\n      swap1\n      0x0100\n      exp\n      swap1\n      div\n      0xffffffffffffffffffffffffffffffffffffffff\n      and\n      dup2\n      jump\t// out\n    tag_58:\n      dup3\n      dup1\n      sload\n      dup3\n      dup3\n      sstore\n      swap1\n      0x00\n      mstore\n      keccak256(0x00, 0x20)\n      swap1\n      dup2\n      add\n      swap3\n      dup3\n      iszero\n      tag_82\n      jumpi\n      swap2\n      0x20\n      mul\n      dup3\n      add\n    tag_83:\n      dup3\n      dup2\n      gt\n      iszero\n      tag_84\n      jumpi\n      dup3\n      mload\n      dup3\n      exp(0x0100, 0x00)\n      dup2\n      sload\n      dup2\n      0xffffffffffffffffffffffffffffffffffffffff\n      mul\n      not\n      and\n      swap1\n      dup4\n      0xffffffffffffffffffffffffffffffffffffffff\n      and\n      mul\n      or\n      swap1\n      sstore\n      pop\n      swap2\n      0x20\n      add\n      swap2\n      swap1\n      0x01\n      add\n      swap1\n      jump(tag_83)\n    tag_84:\n    tag_82:\n      pop\n      swap1\n      pop\n      tag_85\n      swap2\n      swap1\n      tag_86\n      jump\t// in\n    tag_85:\n      pop\n      swap1\n      jump\t// out\n    tag_86:\n    tag_87:\n      dup1\n      dup3\n      gt\n      iszero\n      tag_88\n      jumpi\n      0x00\n      dup2\n      0x00\n      swap1\n      sstore\n      pop\n      0x01\n      add\n      jump(tag_87)\n    tag_88:\n      pop\n      swap1\n      jump\t// out\n        /* \"#utility.yul\":88:205   */\n    tag_90:\n        /* \"#utility.yul\":197:198   */\n      0x00\n        /* \"#utility.yul\":194:195   */\n      0x00\n        /* \"#utility.yul\":187:199   */\n      revert\n        /* \"#utility.yul\":334:460   */\n    tag_92:\n        /* \"#utility.yul\":371:378   */\n      0x00\n        /* \"#utility.yul\":411:453   */\n      0xffffffffffffffffffffffffffffffffffffffff\n        /* \"#utility.yul\":404:409   */\n      dup3\n        /* \"#utility.yul\":400:454   */\n      and\n        /* \"#utility.yul\":389:454   */\n      swap1\n      pop\n        /* \"#utility.yul\":334:460   */\n      swap2\n      swap1\n      pop\n      jump\t// out\n        /* \"#utility.yul\":466:562   */\n    tag_93:\n        /* \"#utility.yul\":503:510   */\n      0x00\n        /* \"#utility.yul\":532:556   */\n      tag_120\n        /* \"#utility.yul\":550:555   */\n      dup3\n        /* \"#utility.yul\":532:556   */\n      tag_92\n      jump\t// in\n    tag_120:\n        /* \"#utility.yul\":521:556   */\n      swap1\n      pop\n        /* \"#utility.yul\":466:562   */\n      swap2\n      swap1\n      pop\n      jump\t// out\n        /* \"#utility.yul\":568:690   */\n    tag_94:\n        /* \"#utility.yul\":641:665   */\n      tag_122\n        /* \"#utility.yul\":659:664   */\n      dup2\n        /* \"#utility.yul\":641:665   */\n      tag_93\n      jump\t// in\n    tag_122:\n        /* \"#utility.yul\":634:639   */\n      dup2\n        /* \"#utility.yul\":631:666   */\n      eq\n        /* \"#utility.yul\":621:684   */\n      tag_123\n      jumpi\n        /* \"#utility.yul\":680:681   */\n      0x00\n        /* \"#utility.yul\":677:678   */\n      0x00\n        /* \"#utility.yul\":670:682   */\n      revert\n        /* \"#utility.yul\":621:684   */\n    tag_123:\n        /* \"#utility.yul\":568:690   */\n      pop\n      jump\t// out\n        /* \"#utility.yul\":696:835   */\n    tag_95:\n        /* \"#utility.yul\":742:747   */\n      0x00\n        /* \"#utility.yul\":780:786   */\n      dup2\n        /* \"#utility.yul\":767:787   */\n      calldataload\n        /* \"#utility.yul\":758:787   */\n      swap1\n      pop\n        /* \"#utility.yul\":796:829   */\n      tag_125\n        /* \"#utility.yul\":823:828   */\n      dup2\n        /* \"#utility.yul\":796:829   */\n      tag_94\n      jump\t// in\n    tag_125:\n        /* \"#utility.yul\":696:835   */\n      swap3\n      swap2\n      pop\n      pop\n      jump\t// out\n        /* \"#utility.yul\":841:1170   */\n    tag_16:\n        /* \"#utility.yul\":900:906   */\n      0x00\n        /* \"#utility.yul\":949:951   */\n      0x20\n        /* \"#utility.yul\":937:946   */\n      dup3\n        /* \"#utility.yul\":928:935   */\n      dup5\n        /* \"#utility.yul\":924:947   */\n      sub\n        /* \"#utility.yul\":920:952   */\n      slt\n        /* \"#utility.yul\":917:1036   */\n      iszero\n      tag_127\n      jumpi\n        /* \"#utility.yul\":955:1034   */\n      tag_128\n      tag_90\n      jump\t// in\n    tag_128:\n        /* \"#utility.yul\":917:1036   */\n    tag_127:\n        /* \"#utility.yul\":1075:1076   */\n      0x00\n        /* \"#utility.yul\":1100:1153   */\n      tag_129\n        /* \"#utility.yul\":1145:1152   */\n      dup5\n        /* \"#utility.yul\":1136:1142   */\n      dup3\n        /* \"#utility.yul\":1125:1134   */\n      dup6\n        /* \"#utility.yul\":1121:1143   */\n      add\n        /* \"#utility.yul\":1100:1153   */\n      tag_95\n      jump\t// in\n    tag_129:\n        /* \"#utility.yul\":1090:1153   */\n      swap2\n      pop\n        /* \"#utility.yul\":1046:1163   */\n      pop\n        /* \"#utility.yul\":841:1170   */\n      swap3\n      swap2\n      pop\n      pop\n      jump\t// out\n        /* \"#utility.yul\":1176:1253   */\n    tag_96:\n        /* \"#utility.yul\":1213:1220   */\n      0x00\n        /* \"#utility.yul\":1242:1247   */\n      dup2\n        /* \"#utility.yul\":1231:1247   */\n      swap1\n      pop\n        /* \"#utility.yul\":1176:1253   */\n      swap2\n      swap1\n      pop\n      jump\t// out\n        /* \"#utility.yul\":1259:1377   */\n    tag_97:\n        /* \"#utility.yul\":1346:1370   */\n      tag_132\n        /* \"#utility.yul\":1364:1369   */\n      dup2\n        /* \"#utility.yul\":1346:1370   */\n      tag_96\n      jump\t// in\n    tag_132:\n        /* \"#utility.yul\":1341:1344   */\n      dup3\n        /* \"#utility.yul\":1334:1371   */\n      mstore\n        /* \"#utility.yul\":1259:1377   */\n      pop\n      pop\n      jump\t// out\n        /* \"#utility.yul\":1383:1605   */\n    tag_19:\n        /* \"#utility.yul\":1476:1480   */\n      0x00\n        /* \"#utility.yul\":1514:1516   */\n      0x20\n        /* \"#utility.yul\":1503:1512   */\n      dup3\n        /* \"#utility.yul\":1499:1517   */\n      add\n        /* \"#utility.yul\":1491:1517   */\n      swap1\n      pop\n        /* \"#utility.yul\":1527:1598   */\n      tag_134\n        /* \"#utility.yul\":1595:1596   */\n      0x00\n        /* \"#utility.yul\":1584:1593   */\n      dup4\n        /* \"#utility.yul\":1580:1597   */\n      add\n        /* \"#utility.yul\":1571:1577   */\n      dup5\n        /* \"#utility.yul\":1527:1598   */\n      tag_97\n      jump\t// in\n    tag_134:\n        /* \"#utility.yul\":1383:1605   */\n      swap3\n      swap2\n      pop\n      pop\n      jump\t// out\n        /* \"#utility.yul\":1611:1729   */\n    tag_98:\n        /* \"#utility.yul\":1698:1722   */\n      tag_136\n        /* \"#utility.yul\":1716:1721   */\n      dup2\n        /* \"#utility.yul\":1698:1722   */\n      tag_93\n      jump\t// in\n    tag_136:\n        /* \"#utility.yul\":1693:1696   */\n      dup3\n        /* \"#utility.yul\":1686:1723   */\n      mstore\n        /* \"#utility.yul\":1611:1729   */\n      pop\n      pop\n      jump\t// out\n        /* \"#utility.yul\":1735:1957   */\n    tag_32:\n        /* \"#utility.yul\":1828:1832   */\n      0x00\n        /* \"#utility.yul\":1866:1868   */\n      0x20\n        /* \"#utility.yul\":1855:1864   */\n      dup3\n        /* \"#utility.yul\":1851:1869   */\n      add\n        /* \"#utility.yul\":1843:1869   */\n      swap1\n      pop\n        /* \"#utility.yul\":1879:1950   */\n      tag_138\n        /* \"#utility.yul\":1947:1948   */\n      0x00\n        /* \"#utility.yul\":1936:1945   */\n      dup4\n        /* \"#utility.yul\":1932:1949   */\n      add\n        /* \"#utility.yul\":1923:1929   */\n      dup5\n        /* \"#utility.yul\":1879:1950   */\n      tag_98\n      jump\t// in\n    tag_138:\n        /* \"#utility.yul\":1735:1957   */\n      swap3\n      swap2\n      pop\n      pop\n      jump\t// out\n        /* \"#utility.yul\":1963:2085   */\n    tag_99:\n        /* \"#utility.yul\":2036:2060   */\n      tag_140\n        /* \"#utility.yul\":2054:2059   */\n      dup2\n        /* \"#utility.yul\":2036:2060   */\n      tag_96\n      jump\t// in\n    tag_140:\n        /* \"#utility.yul\":2029:2034   */\n      dup2\n        /* \"#utility.yul\":2026:2061   */\n      eq\n        /* \"#utility.yul\":2016:2079   */\n      tag_141\n      jumpi\n        /* \"#utility.yul\":2075:2076   */\n      0x00\n        /* \"#utility.yul\":2072:2073   */\n      0x00\n        /* \"#utility.yul\":2065:2077   */\n      revert\n        /* \"#utility.yul\":2016:2079   */\n    tag_141:\n        /* \"#utility.yul\":1963:2085   */\n      pop\n      jump\t// out\n        /* \"#utility.yul\":2091:2230   */\n    tag_100:\n        /* \"#utility.yul\":2137:2142   */\n      0x00\n        /* \"#utility.yul\":2175:2181   */\n      dup2\n        /* \"#utility.yul\":2162:2182   */\n      calldataload\n        /* \"#utility.yul\":2153:2182   */\n      swap1\n      pop\n        /* \"#utility.yul\":2191:2224   */\n      tag_143\n        /* \"#utility.yul\":2218:2223   */\n      dup2\n        /* \"#utility.yul\":2191:2224   */\n      tag_99\n      jump\t// in\n    tag_143:\n        /* \"#utility.yul\":2091:2230   */\n      swap3\n      swap2\n      pop\n      pop\n      jump\t// out\n        /* \"#utility.yul\":2236:2565   */\n    tag_38:\n        /* \"#utility.yul\":2295:2301   */\n      0x00\n        /* \"#utility.yul\":2344:2346   */\n      0x20\n        /* \"#utility.yul\":2332:2341   */\n      dup3\n        /* \"#utility.yul\":2323:2330   */\n      dup5\n        /* \"#utility.yul\":2319:2342   */\n      sub\n        /* \"#utility.yul\":2315:2347   */\n      slt\n        /* \"#utility.yul\":2312:2431   */\n      iszero\n      tag_145\n      jumpi\n        /* \"#utility.yul\":2350:2429   */\n      tag_146\n      tag_90\n      jump\t// in\n    tag_146:\n        /* \"#utility.yul\":2312:2431   */\n    tag_145:\n        /* \"#utility.yul\":2470:2471   */\n      0x00\n        /* \"#utility.yul\":2495:2548   */\n      tag_147\n        /* \"#utility.yul\":2540:2547   */\n      dup5\n        /* \"#utility.yul\":2531:2537   */\n      dup3\n        /* \"#utility.yul\":2520:2529   */\n      dup6\n        /* \"#utility.yul\":2516:2538   */\n      add\n        /* \"#utility.yul\":2495:2548   */\n      tag_100\n      jump\t// in\n    tag_147:\n        /* \"#utility.yul\":2485:2548   */\n      swap2\n      pop\n        /* \"#utility.yul\":2441:2558   */\n      pop\n        /* \"#utility.yul\":2236:2565   */\n      swap3\n      swap2\n      pop\n      pop\n      jump\t// out\n        /* \"#utility.yul\":2571:2740   */\n    tag_101:\n        /* \"#utility.yul\":2655:2666   */\n      0x00\n        /* \"#utility.yul\":2689:2695   */\n      dup3\n        /* \"#utility.yul\":2684:2687   */\n      dup3\n        /* \"#utility.yul\":2677:2696   */\n      mstore\n        /* \"#utility.yul\":2729:2733   */\n      0x20\n        /* \"#utility.yul\":2724:2727   */\n      dup3\n        /* \"#utility.yul\":2720:2734   */\n      add\n        /* \"#utility.yul\":2705:2734   */\n      swap1\n      pop\n        /* \"#utility.yul\":2571:2740   */\n      swap3\n      swap2\n      pop\n      pop\n      jump\t// out\n        /* \"#utility.yul\":2746:2916   */\n    tag_102:\n        /* \"#utility.yul\":2886:2908   */\n      0x53656e646572206973206e6f74206f776e657221000000000000000000000000\n        /* \"#utility.yul\":2882:2883   */\n      0x00\n        /* \"#utility.yul\":2874:2880   */\n      dup3\n        /* \"#utility.yul\":2870:2884   */\n      add\n        /* \"#utility.yul\":2863:2909   */\n      mstore\n        /* \"#utility.yul\":2746:2916   */\n      pop\n      jump\t// out\n        /* \"#utility.yul\":2922:3288   */\n    tag_103:\n        /* \"#utility.yul\":3064:3067   */\n      0x00\n        /* \"#utility.yul\":3085:3152   */\n      tag_151\n        /* \"#utility.yul\":3149:3151   */\n      0x14\n        /* \"#utility.yul\":3144:3147   */\n      dup4\n        /* \"#utility.yul\":3085:3152   */\n      tag_101\n      jump\t// in\n    tag_151:\n        /* \"#utility.yul\":3078:3152   */\n      swap2\n      pop\n        /* \"#utility.yul\":3161:3254   */\n      tag_152\n        /* \"#utility.yul\":3250:3253   */\n      dup3\n        /* \"#utility.yul\":3161:3254   */\n      tag_102\n      jump\t// in\n    tag_152:\n        /* \"#utility.yul\":3279:3281   */\n      0x20\n        /* \"#utility.yul\":3274:3277   */\n      dup3\n        /* \"#utility.yul\":3270:3282   */\n      add\n        /* \"#utility.yul\":3263:3282   */\n      swap1\n      pop\n        /* \"#utility.yul\":2922:3288   */\n      swap2\n      swap1\n      pop\n      jump\t// out\n        /* \"#utility.yul\":3294:3713   */\n    tag_44:\n        /* \"#utility.yul\":3460:3464   */\n      0x00\n        /* \"#utility.yul\":3498:3500   */\n      0x20\n        /* \"#utility.yul\":3487:3496   */\n      dup3\n        /* \"#utility.yul\":3483:3501   */\n      add\n        /* \"#utility.yul\":3475:3501   */\n      swap1\n      pop\n        /* \"#utility.yul\":3547:3556   */\n      dup2\n        /* \"#utility.yul\":3541:3545   */\n      dup2\n        /* \"#utility.yul\":3537:3557   */\n      sub\n        /* \"#utility.yul\":3533:3534   */\n      0x00\n        /* \"#utility.yul\":3522:3531   */\n      dup4\n        /* \"#utility.yul\":3518:3535   */\n      add\n        /* \"#utility.yul\":3511:3558   */\n      mstore\n        /* \"#utility.yul\":3575:3706   */\n      tag_154\n        /* \"#utility.yul\":3701:3705   */\n      dup2\n        /* \"#utility.yul\":3575:3706   */\n      tag_103\n      jump\t// in\n    tag_154:\n        /* \"#utility.yul\":3567:3706   */\n      swap1\n      pop\n        /* \"#utility.yul\":3294:3713   */\n      swap2\n      swap1\n      pop\n      jump\t// out\n        /* \"#utility.yul\":3719:3899   */\n    tag_51:\n        /* \"#utility.yul\":3767:3844   */\n      0x4e487b7100000000000000000000000000000000000000000000000000000000\n        /* \"#utility.yul\":3764:3765   */\n      0x00\n        /* \"#utility.yul\":3757:3845   */\n      mstore\n        /* \"#utility.yul\":3864:3868   */\n      0x32\n        /* \"#utility.yul\":3861:3862   */\n      0x04\n        /* \"#utility.yul\":3854:3869   */\n      mstore\n        /* \"#utility.yul\":3888:3892   */\n      0x24\n        /* \"#utility.yul\":3885:3886   */\n      0x00\n        /* \"#utility.yul\":3878:3893   */\n      revert\n        /* \"#utility.yul\":3905:4085   */\n    tag_55:\n        /* \"#utility.yul\":3953:4030   */\n      0x4e487b7100000000000000000000000000000000000000000000000000000000\n        /* \"#utility.yul\":3950:3951   */\n      0x00\n        /* \"#utility.yul\":3943:4031   */\n      mstore\n        /* \"#utility.yul\":4050:4054   */\n      0x41\n        /* \"#utility.yul\":4047:4048   */\n      0x04\n        /* \"#utility.yul\":4040:4055   */\n      mstore\n        /* \"#utility.yul\":4074:4078   */\n      0x24\n        /* \"#utility.yul\":4071:4072   */\n      0x00\n        /* \"#utility.yul\":4064:4079   */\n      revert\n        /* \"#utility.yul\":4091:4238   */\n    tag_104:\n        /* \"#utility.yul\":4192:4203   */\n      0x00\n        /* \"#utility.yul\":4229:4232   */\n      dup2\n        /* \"#utility.yul\":4214:4232   */\n      swap1\n      pop\n        /* \"#utility.yul\":4091:4238   */\n      swap3\n      swap2\n      pop\n      pop\n      jump\t// out\n        /* \"#utility.yul\":4244:4358   */\n    tag_105:\n      pop\n      jump\t// out\n        /* \"#utility.yul\":4364:4762   */\n    tag_106:\n        /* \"#utility.yul\":4523:4526   */\n      0x00\n        /* \"#utility.yul\":4544:4627   */\n      tag_160\n        /* \"#utility.yul\":4625:4626   */\n      0x00\n        /* \"#utility.yul\":4620:4623   */\n      dup4\n        /* \"#utility.yul\":4544:4627   */\n      tag_104\n      jump\t// in\n    tag_160:\n        /* \"#utility.yul\":4537:4627   */\n      swap2\n      pop\n        /* \"#utility.yul\":4636:4729   */\n      tag_161\n        /* \"#utility.yul\":4725:4728   */\n      dup3\n        /* \"#utility.yul\":4636:4729   */\n      tag_105\n      jump\t// in\n    tag_161:\n        /* \"#utility.yul\":4754:4755   */\n      0x00\n        /* \"#utility.yul\":4749:4752   */\n      dup3\n        /* \"#utility.yul\":4745:4756   */\n      add\n        /* \"#utility.yul\":4738:4756   */\n      swap1\n      pop\n        /* \"#utility.yul\":4364:4762   */\n      swap2\n      swap1\n      pop\n      jump\t// out\n        /* \"#utility.yul\":4768:5147   */\n    tag_60:\n        /* \"#utility.yul\":4952:4955   */\n      0x00\n        /* \"#utility.yul\":4974:5121   */\n      tag_163\n        /* \"#utility.yul\":5117:5120   */\n      dup3\n        /* \"#utility.yul\":4974:5121   */\n      tag_106\n      jump\t// in\n    tag_163:\n        /* \"#utility.yul\":4967:5121   */\n      swap2\n      pop\n        /* \"#utility.yul\":5138:5141   */\n      dup2\n        /* \"#utility.yul\":5131:5141   */\n      swap1\n      pop\n        /* \"#utility.yul\":4768:5147   */\n      swap2\n      swap1\n      pop\n      jump\t// out\n        /* \"#utility.yul\":5153:5315   */\n    tag_107:\n        /* \"#utility.yul\":5293:5307   */\n      0x63616c6c206661696c6564210000000000000000000000000000000000000000\n        /* \"#utility.yul\":5289:5290   */\n      0x00\n        /* \"#utility.yul\":5281:5287   */\n      dup3\n        /* \"#utility.yul\":5277:5291   */\n      add\n        /* \"#utility.yul\":5270:5308   */\n      mstore\n        /* \"#utility.yul\":5153:5315   */\n      pop\n      jump\t// out\n        /* \"#utility.yul\":5321:5687   */\n    tag_108:\n        /* \"#utility.yul\":5463:5466   */\n      0x00\n        /* \"#utility.yul\":5484:5551   */\n      tag_166\n        /* \"#utility.yul\":5548:5550   */\n      0x0c\n        /* \"#utility.yul\":5543:5546   */\n      dup4\n        /* \"#utility.yul\":5484:5551   */\n      tag_101\n      jump\t// in\n    tag_166:\n        /* \"#utility.yul\":5477:5551   */\n      swap2\n      pop\n        /* \"#utility.yul\":5560:5653   */\n      tag_167\n        /* \"#utility.yul\":5649:5652   */\n      dup3\n        /* \"#utility.yul\":5560:5653   */\n      tag_107\n      jump\t// in\n    tag_167:\n        /* \"#utility.yul\":5678:5680   */\n      0x20\n        /* \"#utility.yul\":5673:5676   */\n      dup3\n        /* \"#utility.yul\":5669:5681   */\n      add\n        /* \"#utility.yul\":5662:5681   */\n      swap1\n      pop\n        /* \"#utility.yul\":5321:5687   */\n      swap2\n      swap1\n      pop\n      jump\t// out\n        /* \"#utility.yul\":5693:6112   */\n    tag_66:\n        /* \"#utility.yul\":5859:5863   */\n      0x00\n        /* \"#utility.yul\":5897:5899   */\n      0x20\n        /* \"#utility.yul\":5886:5895   */\n      dup3\n        /* \"#utility.yul\":5882:5900   */\n      add\n        /* \"#utility.yul\":5874:5900   */\n      swap1\n      pop\n        /* \"#utility.yul\":5946:5955   */\n      dup2\n        /* \"#utility.yul\":5940:5944   */\n      dup2\n        /* \"#utility.yul\":5936:5956   */\n      sub\n        /* \"#utility.yul\":5932:5933   */\n      0x00\n        /* \"#utility.yul\":5921:5930   */\n      dup4\n        /* \"#utility.yul\":5917:5934   */\n      add\n        /* \"#utility.yul\":5910:5957   */\n      mstore\n        /* \"#utility.yul\":5974:6105   */\n      tag_169\n        /* \"#utility.yul\":6100:6104   */\n      dup2\n        /* \"#utility.yul\":5974:6105   */\n      tag_108\n      jump\t// in\n    tag_169:\n        /* \"#utility.yul\":5966:6105   */\n      swap1\n      pop\n        /* \"#utility.yul\":5693:6112   */\n      swap2\n      swap1\n      pop\n      jump\t// out\n        /* \"#utility.yul\":6118:6244   */\n    tag_109:\n        /* \"#utility.yul\":6213:6237   */\n      tag_171\n        /* \"#utility.yul\":6231:6236   */\n      dup2\n        /* \"#utility.yul\":6213:6237   */\n      tag_96\n      jump\t// in\n    tag_171:\n        /* \"#utility.yul\":6208:6211   */\n      dup3\n        /* \"#utility.yul\":6201:6238   */\n      mstore\n        /* \"#utility.yul\":6118:6244   */\n      pop\n      pop\n      jump\t// out\n        /* \"#utility.yul\":6250:6488   */\n    tag_69:\n        /* \"#utility.yul\":6351:6355   */\n      0x00\n        /* \"#utility.yul\":6389:6391   */\n      0x20\n        /* \"#utility.yul\":6378:6387   */\n      dup3\n        /* \"#utility.yul\":6374:6392   */\n      add\n        /* \"#utility.yul\":6366:6392   */\n      swap1\n      pop\n        /* \"#utility.yul\":6402:6481   */\n      tag_173\n        /* \"#utility.yul\":6478:6479   */\n      0x00\n        /* \"#utility.yul\":6467:6476   */\n      dup4\n        /* \"#utility.yul\":6463:6480   */\n      add\n        /* \"#utility.yul\":6454:6460   */\n      dup5\n        /* \"#utility.yul\":6402:6481   */\n      tag_109\n      jump\t// in\n    tag_173:\n        /* \"#utility.yul\":6250:6488   */\n      swap3\n      swap2\n      pop\n      pop\n      jump\t// out\n        /* \"#utility.yul\":6494:6637   */\n    tag_110:\n        /* \"#utility.yul\":6551:6556   */\n      0x00\n        /* \"#utility.yul\":6582:6588   */\n      dup2\n        /* \"#utility.yul\":6576:6589   */\n      mload\n        /* \"#utility.yul\":6567:6589   */\n      swap1\n      pop\n        /* \"#utility.yul\":6598:6631   */\n      tag_175\n        /* \"#utility.yul\":6625:6630   */\n      dup2\n        /* \"#utility.yul\":6598:6631   */\n      tag_99\n      jump\t// in\n    tag_175:\n        /* \"#utility.yul\":6494:6637   */\n      swap3\n      swap2\n      pop\n      pop\n      jump\t// out\n        /* \"#utility.yul\":6643:6994   */\n    tag_73:\n        /* \"#utility.yul\":6713:6719   */\n      0x00\n        /* \"#utility.yul\":6762:6764   */\n      0x20\n        /* \"#utility.yul\":6750:6759   */\n      dup3\n        /* \"#utility.yul\":6741:6748   */\n      dup5\n        /* \"#utility.yul\":6737:6760   */\n      sub\n        /* \"#utility.yul\":6733:6765   */\n      slt\n        /* \"#utility.yul\":6730:6849   */\n      iszero\n      tag_177\n      jumpi\n        /* \"#utility.yul\":6768:6847   */\n      tag_178\n      tag_90\n      jump\t// in\n    tag_178:\n        /* \"#utility.yul\":6730:6849   */\n    tag_177:\n        /* \"#utility.yul\":6888:6889   */\n      0x00\n        /* \"#utility.yul\":6913:6977   */\n      tag_179\n        /* \"#utility.yul\":6969:6976   */\n      dup5\n        /* \"#utility.yul\":6960:6966   */\n      dup3\n        /* \"#utility.yul\":6949:6958   */\n      dup6\n        /* \"#utility.yul\":6945:6967   */\n      add\n        /* \"#utility.yul\":6913:6977   */\n      tag_110\n      jump\t// in\n    tag_179:\n        /* \"#utility.yul\":6903:6977   */\n      swap2\n      pop\n        /* \"#utility.yul\":6859:6987   */\n      pop\n        /* \"#utility.yul\":6643:6994   */\n      swap3\n      swap2\n      pop\n      pop\n      jump\t// out\n        /* \"#utility.yul\":7000:7172   */\n    tag_111:\n        /* \"#utility.yul\":7140:7164   */\n      0x6469646e27742073656e6420656e6f7567682045544800000000000000000000\n        /* \"#utility.yul\":7136:7137   */\n      0x00\n        /* \"#utility.yul\":7128:7134   */\n      dup3\n        /* \"#utility.yul\":7124:7138   */\n      add\n        /* \"#utility.yul\":7117:7165   */\n      mstore\n        /* \"#utility.yul\":7000:7172   */\n      pop\n      jump\t// out\n        /* \"#utility.yul\":7178:7544   */\n    tag_112:\n        /* \"#utility.yul\":7320:7323   */\n      0x00\n        /* \"#utility.yul\":7341:7408   */\n      tag_182\n        /* \"#utility.yul\":7405:7407   */\n      0x16\n        /* \"#utility.yul\":7400:7403   */\n      dup4\n        /* \"#utility.yul\":7341:7408   */\n      tag_101\n      jump\t// in\n    tag_182:\n        /* \"#utility.yul\":7334:7408   */\n      swap2\n      pop\n        /* \"#utility.yul\":7417:7510   */\n      tag_183\n        /* \"#utility.yul\":7506:7509   */\n      dup3\n        /* \"#utility.yul\":7417:7510   */\n      tag_111\n      jump\t// in\n    tag_183:\n        /* \"#utility.yul\":7535:7537   */\n      0x20\n        /* \"#utility.yul\":7530:7533   */\n      dup3\n        /* \"#utility.yul\":7526:7538   */\n      add\n        /* \"#utility.yul\":7519:7538   */\n      swap1\n      pop\n        /* \"#utility.yul\":7178:7544   */\n      swap2\n      swap1\n      pop\n      jump\t// out\n        /* \"#utility.yul\":7550:7969   */\n    tag_76:\n        /* \"#utility.yul\":7716:7720   */\n      0x00\n        /* \"#utility.yul\":7754:7756   */\n      0x20\n        /* \"#utility.yul\":7743:7752   */\n      dup3\n        /* \"#utility.yul\":7739:7757   */\n      add\n        /* \"#utility.yul\":7731:7757   */\n      swap1\n      pop\n        /* \"#utility.yul\":7803:7812   */\n      dup2\n        /* \"#utility.yul\":7797:7801   */\n      dup2\n        /* \"#utility.yul\":7793:7813   */\n      sub\n        /* \"#utility.yul\":7789:7790   */\n      0x00\n        /* \"#utility.yul\":7778:7787   */\n      dup4\n        /* \"#utility.yul\":7774:7791   */\n      add\n        /* \"#utility.yul\":7767:7814   */\n      mstore\n        /* \"#utility.yul\":7831:7962   */\n      tag_185\n        /* \"#utility.yul\":7957:7961   */\n      dup2\n        /* \"#utility.yul\":7831:7962   */\n      tag_112\n      jump\t// in\n    tag_185:\n        /* \"#utility.yul\":7823:7962   */\n      swap1\n      pop\n        /* \"#utility.yul\":7550:7969   */\n      swap2\n      swap1\n      pop\n      jump\t// out\n        /* \"#utility.yul\":7975:8155   */\n    tag_113:\n        /* \"#utility.yul\":8023:8100   */\n      0x4e487b7100000000000000000000000000000000000000000000000000000000\n        /* \"#utility.yul\":8020:8021   */\n      0x00\n        /* \"#utility.yul\":8013:8101   */\n      mstore\n        /* \"#utility.yul\":8120:8124   */\n      0x11\n        /* \"#utility.yul\":8117:8118   */\n      0x04\n        /* \"#utility.yul\":8110:8125   */\n      mstore\n        /* \"#utility.yul\":8144:8148   */\n      0x24\n        /* \"#utility.yul\":8141:8142   */\n      0x00\n        /* \"#utility.yul\":8134:8149   */\n      revert\n        /* \"#utility.yul\":8161:8352   */\n    tag_79:\n        /* \"#utility.yul\":8201:8204   */\n      0x00\n        /* \"#utility.yul\":8220:8240   */\n      tag_188\n        /* \"#utility.yul\":8238:8239   */\n      dup3\n        /* \"#utility.yul\":8220:8240   */\n      tag_96\n      jump\t// in\n    tag_188:\n        /* \"#utility.yul\":8215:8240   */\n      swap2\n      pop\n        /* \"#utility.yul\":8254:8274   */\n      tag_189\n        /* \"#utility.yul\":8272:8273   */\n      dup4\n        /* \"#utility.yul\":8254:8274   */\n      tag_96\n      jump\t// in\n    tag_189:\n        /* \"#utility.yul\":8249:8274   */\n      swap3\n      pop\n        /* \"#utility.yul\":8297:8298   */\n      dup3\n        /* \"#utility.yul\":8294:8295   */\n      dup3\n        /* \"#utility.yul\":8290:8299   */\n      add\n        /* \"#utility.yul\":8283:8299   */\n      swap1\n      pop\n        /* \"#utility.yul\":8318:8321   */\n      dup1\n        /* \"#utility.yul\":8315:8316   */\n      dup3\n        /* \"#utility.yul\":8312:8322   */\n      gt\n        /* \"#utility.yul\":8309:8345   */\n      iszero\n      tag_190\n      jumpi\n        /* \"#utility.yul\":8325:8343   */\n      tag_191\n      tag_113\n      jump\t// in\n    tag_191:\n        /* \"#utility.yul\":8309:8345   */\n    tag_190:\n        /* \"#utility.yul\":8161:8352   */\n      swap3\n      swap2\n      pop\n      pop\n      jump\t// out\n\n    auxdata: 0xa2646970667358221220fad48ac7c45db4cb4313454bf383a4a7f4730ef34d0ba4a7b02fa8607cd3ea6a64736f6c634300081e0033\n}\n",
				"bytecode": {
					"linkReferences": {
						"learning/Solidity Smart Contract Development/Fund Me/PriceConverter.sol": {
							"PriceConverter": [
								{
									"length": 20,
									"start": 1150
								}
							]
						}
					},
					"object": "60a060405260016002553480156013575f5ffd5b503373ffffffffffffffffffffffffffffffffffffffff1660808173ffffffffffffffffffffffffffffffffffffffff1681525050608051610a746100675f395f818161018b01526103e90152610a745ff3fe60806040526004361061006f575f3560e01c80636b69a5921161004d5780636b69a592146100ef5780638da5cb5b14610119578063b60d428814610143578063dc0d3dff1461014d5761006f565b80633ccfd60b146100735780633e47d6f31461008957806347f1aae7146100c5575b5f5ffd5b34801561007e575f5ffd5b50610087610189565b005b348015610094575f5ffd5b506100af60048036038101906100aa91906106bb565b6103c0565b6040516100bc91906106fe565b60405180910390f35b3480156100d0575f5ffd5b506100d96103d5565b6040516100e691906106fe565b60405180910390f35b3480156100fa575f5ffd5b506101036103db565b60405161011091906106fe565b60405180910390f35b348015610124575f5ffd5b5061012d6103e7565b60405161013a9190610726565b60405180910390f35b61014b61040b565b005b348015610158575f5ffd5b50610173600480360381019061016e9190610769565b610581565b6040516101809190610726565b60405180910390f35b7f000000000000000000000000000000000000000000000000000000000000000073ffffffffffffffffffffffffffffffffffffffff163373ffffffffffffffffffffffffffffffffffffffff1614610217576040517f08c379a000000000000000000000000000000000000000000000000000000000815260040161020e906107ee565b60405180910390fd5b5f5f90505b5f805490508110156102b6575f5f828154811061023c5761023b61080c565b5b905f5260205f20015f9054906101000a900473ffffffffffffffffffffffffffffffffffffffff1690505f60015f8373ffffffffffffffffffffffffffffffffffffffff1673ffffffffffffffffffffffffffffffffffffffff1681526020019081526020015f208190555050808060010191505061021c565b505f67ffffffffffffffff8111156102d1576102d0610839565b5b6040519080825280602002602001820160405280156102ff5781602001602082028036833780820191505090505b505f90805190602001906103149291906105bb565b505f3373ffffffffffffffffffffffffffffffffffffffff164760405161033a90610893565b5f6040518083038185875af1925050503d805f8114610374576040519150601f19603f3d011682016040523d82523d5f602084013e610379565b606091505b50509050806103bd576040517f08c379a00000000000000000000000000000000000000000000000000000000081526004016103b4906108f1565b60405180910390fd5b50565b6001602052805f5260405f205f915090505481565b60025481565b674563918244f4000081565b7f000000000000000000000000000000000000000000000000000000000000000081565b674563918244f400003473__$eb1accbc40c030346ea7971cc9883981e2$__636e5b6b2890916040518263ffffffff1660e01b815260040161044d919061091e565b602060405180830381865af4158015610468573d5f5f3e3d5ffd5b505050506040513d601f19601f8201168201806040525081019061048c919061094b565b10156104cd576040517f08c379a00000000000000000000000000000000000000000000000000000000081526004016104c4906109c0565b60405180910390fd5b5f33908060018154018082558091505060019003905f5260205f20015f9091909190916101000a81548173ffffffffffffffffffffffffffffffffffffffff021916908373ffffffffffffffffffffffffffffffffffffffff1602179055503460015f3373ffffffffffffffffffffffffffffffffffffffff1673ffffffffffffffffffffffffffffffffffffffff1681526020019081526020015f205f8282546105789190610a0b565b92505081905550565b5f818154811061058f575f80fd5b905f5260205f20015f915054906101000a900473ffffffffffffffffffffffffffffffffffffffff1681565b828054828255905f5260205f20908101928215610631579160200282015b82811115610630578251825f6101000a81548173ffffffffffffffffffffffffffffffffffffffff021916908373ffffffffffffffffffffffffffffffffffffffff160217905550916020019190600101906105d9565b5b50905061063e9190610642565b5090565b5b80821115610659575f815f905550600101610643565b5090565b5f5ffd5b5f73ffffffffffffffffffffffffffffffffffffffff82169050919050565b5f61068a82610661565b9050919050565b61069a81610680565b81146106a4575f5ffd5b50565b5f813590506106b581610691565b92915050565b5f602082840312156106d0576106cf61065d565b5b5f6106dd848285016106a7565b91505092915050565b5f819050919050565b6106f8816106e6565b82525050565b5f6020820190506107115f8301846106ef565b92915050565b61072081610680565b82525050565b5f6020820190506107395f830184610717565b92915050565b610748816106e6565b8114610752575f5ffd5b50565b5f813590506107638161073f565b92915050565b5f6020828403121561077e5761077d61065d565b5b5f61078b84828501610755565b91505092915050565b5f82825260208201905092915050565b7f53656e646572206973206e6f74206f776e6572210000000000000000000000005f82015250565b5f6107d8601483610794565b91506107e3826107a4565b602082019050919050565b5f6020820190508181035f830152610805816107cc565b9050919050565b7f4e487b71000000000000000000000000000000000000000000000000000000005f52603260045260245ffd5b7f4e487b71000000000000000000000000000000000000000000000000000000005f52604160045260245ffd5b5f81905092915050565b50565b5f61087e5f83610866565b915061088982610870565b5f82019050919050565b5f61089d82610873565b9150819050919050565b7f63616c6c206661696c65642100000000000000000000000000000000000000005f82015250565b5f6108db600c83610794565b91506108e6826108a7565b602082019050919050565b5f6020820190508181035f830152610908816108cf565b9050919050565b610918816106e6565b82525050565b5f6020820190506109315f83018461090f565b92915050565b5f815190506109458161073f565b92915050565b5f602082840312156109605761095f61065d565b5b5f61096d84828501610937565b91505092915050565b7f6469646e27742073656e6420656e6f75676820455448000000000000000000005f82015250565b5f6109aa601683610794565b91506109b582610976565b602082019050919050565b5f6020820190508181035f8301526109d78161099e565b9050919050565b7f4e487b71000000000000000000000000000000000000000000000000000000005f52601160045260245ffd5b5f610a15826106e6565b9150610a20836106e6565b9250828201905080821115610a3857610a376109de565b5b9291505056fea2646970667358221220fad48ac7c45db4cb4313454bf383a4a7f4730ef34d0ba4a7b02fa8607cd3ea6a64736f6c634300081e0033",
					"opcodes": "PUSH1 0xA0 PUSH1 0x40 MSTORE PUSH1 0x1 PUSH1 0x2 SSTORE CALLVALUE DUP1 ISZERO PUSH1 0x13 JUMPI PUSH0 PUSH0 REVERT JUMPDEST POP CALLER PUSH20 0xFFFFFFFFFFFFFFFFFFFFFFFFFFFFFFFFFFFFFFFF AND PUSH1 0x80 DUP2 PUSH20 0xFFFFFFFFFFFFFFFFFFFFFFFFFFFFFFFFFFFFFFFF AND DUP2 MSTORE POP POP PUSH1 0x80 MLOAD PUSH2 0xA74 PUSH2 0x67 PUSH0 CODECOPY PUSH0 DUP2 DUP2 PUSH2 0x18B ADD MSTORE PUSH2 0x3E9 ADD MSTORE PUSH2 0xA74 PUSH0 RETURN INVALID PUSH1 0x80 PUSH1 0x40 MSTORE PUSH1 0x4 CALLDATASIZE LT PUSH2 0x6F JUMPI PUSH0 CALLDATALOAD PUSH1 0xE0 SHR DUP1 PUSH4 0x6B69A592 GT PUSH2 0x4D JUMPI DUP1 PUSH4 0x6B69A592 EQ PUSH2 0xEF JUMPI DUP1 PUSH4 0x8DA5CB5B EQ PUSH2 0x119 JUMPI DUP1 PUSH4 0xB60D4288 EQ PUSH2 0x143 JUMPI DUP1 PUSH4 0xDC0D3DFF EQ PUSH2 0x14D JUMPI PUSH2 0x6F JUMP JUMPDEST DUP1 PUSH4 0x3CCFD60B EQ PUSH2 0x73 JUMPI DUP1 PUSH4 0x3E47D6F3 EQ PUSH2 0x89 JUMPI DUP1 PUSH4 0x47F1AAE7 EQ PUSH2 0xC5 JUMPI JUMPDEST PUSH0 PUSH0 REVERT JUMPDEST CALLVALUE DUP1 ISZERO PUSH2 0x7E JUMPI PUSH0 PUSH0 REVERT JUMPDEST POP PUSH2 0x87 PUSH2 0x189 JUMP JUMPDEST STOP JUMPDEST CALLVALUE DUP1 ISZERO PUSH2 0x94 JUMPI PUSH0 PUSH0 REVERT JUMPDEST POP PUSH2 0xAF PUSH1 0x4 DUP1 CALLDATASIZE SUB DUP2 ADD SWAP1 PUSH2 0xAA SWAP2 SWAP1 PUSH2 0x6BB JUMP JUMPDEST PUSH2 0x3C0 JUMP JUMPDEST PUSH1 0x40 MLOAD PUSH2 0xBC SWAP2 SWAP1 PUSH2 0x6FE JUMP JUMPDEST PUSH1 0x40 MLOAD DUP1 SWAP2 SUB SWAP1 RETURN JUMPDEST CALLVALUE DUP1 ISZERO PUSH2 0xD0 JUMPI PUSH0 PUSH0 REVERT JUMPDEST POP PUSH2 0xD9 PUSH2 0x3D5 JUMP JUMPDEST PUSH1 0x40 MLOAD PUSH2 0xE6 SWAP2 SWAP1 PUSH2 0x6FE JUMP JUMPDEST PUSH1 0x40 MLOAD DUP1 SWAP2 SUB SWAP1 RETURN JUMPDEST CALLVALUE DUP1 ISZERO PUSH2 0xFA JUMPI PUSH0 PUSH0 REVERT JUMPDEST POP PUSH2 0x103 PUSH2 0x3DB JUMP JUMPDEST PUSH1 0x40 MLOAD PUSH2 0x110 SWAP2 SWAP1 PUSH2 0x6FE JUMP JUMPDEST PUSH1 0x40 MLOAD DUP1 SWAP2 SUB SWAP1 RETURN JUMPDEST CALLVALUE DUP1 ISZERO PUSH2 0x124 JUMPI PUSH0 PUSH0 REVERT JUMPDEST POP PUSH2 0x12D PUSH2 0x3E7 JUMP JUMPDEST PUSH1 0x40 MLOAD PUSH2 0x13A SWAP2 SWAP1 PUSH2 0x726 JUMP JUMPDEST PUSH1 0x40 MLOAD DUP1 SWAP2 SUB SWAP1 RETURN JUMPDEST PUSH2 0x14B PUSH2 0x40B JUMP JUMPDEST STOP JUMPDEST CALLVALUE DUP1 ISZERO PUSH2 0x158 JUMPI PUSH0 PUSH0 REVERT JUMPDEST POP PUSH2 0x173 PUSH1 0x4 DUP1 CALLDATASIZE SUB DUP2 ADD SWAP1 PUSH2 0x16E SWAP2 SWAP1 PUSH2 0x769 JUMP JUMPDEST PUSH2 0x581 JUMP JUMPDEST PUSH1 0x40 MLOAD PUSH2 0x180 SWAP2 SWAP1 PUSH2 0x726 JUMP JUMPDEST PUSH1 0x40 MLOAD DUP1 SWAP2 SUB SWAP1 RETURN JUMPDEST PUSH32 0x0 PUSH20 0xFFFFFFFFFFFFFFFFFFFFFFFFFFFFFFFFFFFFFFFF AND CALLER PUSH20 0xFFFFFFFFFFFFFFFFFFFFFFFFFFFFFFFFFFFFFFFF AND EQ PUSH2 0x217 JUMPI PUSH1 0x40 MLOAD PUSH32 0x8C379A000000000000000000000000000000000000000000000000000000000 DUP2 MSTORE PUSH1 0x4 ADD PUSH2 0x20E SWAP1 PUSH2 0x7EE JUMP JUMPDEST PUSH1 0x40 MLOAD DUP1 SWAP2 SUB SWAP1 REVERT JUMPDEST PUSH0 PUSH0 SWAP1 POP JUMPDEST PUSH0 DUP1 SLOAD SWAP1 POP DUP2 LT ISZERO PUSH2 0x2B6 JUMPI PUSH0 PUSH0 DUP3 DUP2 SLOAD DUP2 LT PUSH2 0x23C JUMPI PUSH2 0x23B PUSH2 0x80C JUMP JUMPDEST JUMPDEST SWAP1 PUSH0 MSTORE PUSH1 0x20 PUSH0 KECCAK256 ADD PUSH0 SWAP1 SLOAD SWAP1 PUSH2 0x100 EXP SWAP1 DIV PUSH20 0xFFFFFFFFFFFFFFFFFFFFFFFFFFFFFFFFFFFFFFFF AND SWAP1 POP PUSH0 PUSH1 0x1 PUSH0 DUP4 PUSH20 0xFFFFFFFFFFFFFFFFFFFFFFFFFFFFFFFFFFFFFFFF AND PUSH20 0xFFFFFFFFFFFFFFFFFFFFFFFFFFFFFFFFFFFFFFFF AND DUP2 MSTORE PUSH1 0x20 ADD SWAP1 DUP2 MSTORE PUSH1 0x20 ADD PUSH0 KECCAK256 DUP2 SWAP1 SSTORE POP POP DUP1 DUP1 PUSH1 0x1 ADD SWAP2 POP POP PUSH2 0x21C JUMP JUMPDEST POP PUSH0 PUSH8 0xFFFFFFFFFFFFFFFF DUP2 GT ISZERO PUSH2 0x2D1 JUMPI PUSH2 0x2D0 PUSH2 0x839 JUMP JUMPDEST JUMPDEST PUSH1 0x40 MLOAD SWAP1 DUP1 DUP3 MSTORE DUP1 PUSH1 0x20 MUL PUSH1 0x20 ADD DUP3 ADD PUSH1 0x40 MSTORE DUP1 ISZERO PUSH2 0x2FF JUMPI DUP2 PUSH1 0x20 ADD PUSH1 0x20 DUP3 MUL DUP1 CALLDATASIZE DUP4 CALLDATACOPY DUP1 DUP3 ADD SWAP2 POP POP SWAP1 POP JUMPDEST POP PUSH0 SWAP1 DUP1 MLOAD SWAP1 PUSH1 0x20 ADD SWAP1 PUSH2 0x314 SWAP3 SWAP2 SWAP1 PUSH2 0x5BB JUMP JUMPDEST POP PUSH0 CALLER PUSH20 0xFFFFFFFFFFFFFFFFFFFFFFFFFFFFFFFFFFFFFFFF AND SELFBALANCE PUSH1 0x40 MLOAD PUSH2 0x33A SWAP1 PUSH2 0x893 JUMP JUMPDEST PUSH0 PUSH1 0x40 MLOAD DUP1 DUP4 SUB DUP2 DUP6 DUP8 GAS CALL SWAP3 POP POP POP RETURNDATASIZE DUP1 PUSH0 DUP2 EQ PUSH2 0x374 JUMPI PUSH1 0x40 MLOAD SWAP2 POP PUSH1 0x1F NOT PUSH1 0x3F RETURNDATASIZE ADD AND DUP3 ADD PUSH1 0x40 MSTORE RETURNDATASIZE DUP3 MSTORE RETURNDATASIZE PUSH0 PUSH1 0x20 DUP5 ADD RETURNDATACOPY PUSH2 0x379 JUMP JUMPDEST PUSH1 0x60 SWAP2 POP JUMPDEST POP POP SWAP1 POP DUP1 PUSH2 0x3BD JUMPI PUSH1 0x40 MLOAD PUSH32 0x8C379A000000000000000000000000000000000000000000000000000000000 DUP2 MSTORE PUSH1 0x4 ADD PUSH2 0x3B4 SWAP1 PUSH2 0x8F1 JUMP JUMPDEST PUSH1 0x40 MLOAD DUP1 SWAP2 SUB SWAP1 REVERT JUMPDEST POP JUMP JUMPDEST PUSH1 0x1 PUSH1 0x20 MSTORE DUP1 PUSH0 MSTORE PUSH1 0x40 PUSH0 KECCAK256 PUSH0 SWAP2 POP SWAP1 POP SLOAD DUP2 JUMP JUMPDEST PUSH1 0x2 SLOAD DUP2 JUMP JUMPDEST PUSH8 0x4563918244F40000 DUP2 JUMP JUMPDEST PUSH32 0x0 DUP2 JUMP JUMPDEST PUSH8 0x4563918244F40000 CALLVALUE PUSH20 0x0 PUSH4 0x6E5B6B28 SWAP1 SWAP2 PUSH1 0x40 MLOAD DUP3 PUSH4 0xFFFFFFFF AND PUSH1 0xE0 SHL DUP2 MSTORE PUSH1 0x4 ADD PUSH2 0x44D SWAP2 SWAP1 PUSH2 0x91E JUMP JUMPDEST PUSH1 0x20 PUSH1 0x40 MLOAD DUP1 DUP4 SUB DUP2 DUP7 GAS DELEGATECALL ISZERO DUP1 ISZERO PUSH2 0x468 JUMPI RETURNDATASIZE PUSH0 PUSH0 RETURNDATACOPY RETURNDATASIZE PUSH0 REVERT JUMPDEST POP POP POP POP PUSH1 0x40 MLOAD RETURNDATASIZE PUSH1 0x1F NOT PUSH1 0x1F DUP3 ADD AND DUP3 ADD DUP1 PUSH1 0x40 MSTORE POP DUP2 ADD SWAP1 PUSH2 0x48C SWAP2 SWAP1 PUSH2 0x94B JUMP JUMPDEST LT ISZERO PUSH2 0x4CD JUMPI PUSH1 0x40 MLOAD PUSH32 0x8C379A000000000000000000000000000000000000000000000000000000000 DUP2 MSTORE PUSH1 0x4 ADD PUSH2 0x4C4 SWAP1 PUSH2 0x9C0 JUMP JUMPDEST PUSH1 0x40 MLOAD DUP1 SWAP2 SUB SWAP1 REVERT JUMPDEST PUSH0 CALLER SWAP1 DUP1 PUSH1 0x1 DUP2 SLOAD ADD DUP1 DUP3 SSTORE DUP1 SWAP2 POP POP PUSH1 0x1 SWAP1 SUB SWAP1 PUSH0 MSTORE PUSH1 0x20 PUSH0 KECCAK256 ADD PUSH0 SWAP1 SWAP2 SWAP1 SWAP2 SWAP1 SWAP2 PUSH2 0x100 EXP DUP2 SLOAD DUP2 PUSH20 0xFFFFFFFFFFFFFFFFFFFFFFFFFFFFFFFFFFFFFFFF MUL NOT AND SWAP1 DUP4 PUSH20 0xFFFFFFFFFFFFFFFFFFFFFFFFFFFFFFFFFFFFFFFF AND MUL OR SWAP1 SSTORE POP CALLVALUE PUSH1 0x1 PUSH0 CALLER PUSH20 0xFFFFFFFFFFFFFFFFFFFFFFFFFFFFFFFFFFFFFFFF AND PUSH20 0xFFFFFFFFFFFFFFFFFFFFFFFFFFFFFFFFFFFFFFFF AND DUP2 MSTORE PUSH1 0x20 ADD SWAP1 DUP2 MSTORE PUSH1 0x20 ADD PUSH0 KECCAK256 PUSH0 DUP3 DUP3 SLOAD PUSH2 0x578 SWAP2 SWAP1 PUSH2 0xA0B JUMP JUMPDEST SWAP3 POP POP DUP2 SWAP1 SSTORE POP JUMP JUMPDEST PUSH0 DUP2 DUP2 SLOAD DUP2 LT PUSH2 0x58F JUMPI PUSH0 DUP1 REVERT JUMPDEST SWAP1 PUSH0 MSTORE PUSH1 0x20 PUSH0 KECCAK256 ADD PUSH0 SWAP2 POP SLOAD SWAP1 PUSH2 0x100 EXP SWAP1 DIV PUSH20 0xFFFFFFFFFFFFFFFFFFFFFFFFFFFFFFFFFFFFFFFF AND DUP2 JUMP JUMPDEST DUP3 DUP1 SLOAD DUP3 DUP3 SSTORE SWAP1 PUSH0 MSTORE PUSH1 0x20 PUSH0 KECCAK256 SWAP1 DUP2 ADD SWAP3 DUP3 ISZERO PUSH2 0x631 JUMPI SWAP2 PUSH1 0x20 MUL DUP3 ADD JUMPDEST DUP3 DUP2 GT ISZERO PUSH2 0x630 JUMPI DUP3 MLOAD DUP3 PUSH0 PUSH2 0x100 EXP DUP2 SLOAD DUP2 PUSH20 0xFFFFFFFFFFFFFFFFFFFFFFFFFFFFFFFFFFFFFFFF MUL NOT AND SWAP1 DUP4 PUSH20 0xFFFFFFFFFFFFFFFFFFFFFFFFFFFFFFFFFFFFFFFF AND MUL OR SWAP1 SSTORE POP SWAP2 PUSH1 0x20 ADD SWAP2 SWAP1 PUSH1 0x1 ADD SWAP1 PUSH2 0x5D9 JUMP JUMPDEST JUMPDEST POP SWAP1 POP PUSH2 0x63E SWAP2 SWAP1 PUSH2 0x642 JUMP JUMPDEST POP SWAP1 JUMP JUMPDEST JUMPDEST DUP1 DUP3 GT ISZERO PUSH2 0x659 JUMPI PUSH0 DUP2 PUSH0 SWAP1 SSTORE POP PUSH1 0x1 ADD PUSH2 0x643 JUMP JUMPDEST POP SWAP1 JUMP JUMPDEST PUSH0 PUSH0 REVERT JUMPDEST PUSH0 PUSH20 0xFFFFFFFFFFFFFFFFFFFFFFFFFFFFFFFFFFFFFFFF DUP3 AND SWAP1 POP SWAP2 SWAP1 POP JUMP JUMPDEST PUSH0 PUSH2 0x68A DUP3 PUSH2 0x661 JUMP JUMPDEST SWAP1 POP SWAP2 SWAP1 POP JUMP JUMPDEST PUSH2 0x69A DUP2 PUSH2 0x680 JUMP JUMPDEST DUP2 EQ PUSH2 0x6A4 JUMPI PUSH0 PUSH0 REVERT JUMPDEST POP JUMP JUMPDEST PUSH0 DUP2 CALLDATALOAD SWAP1 POP PUSH2 0x6B5 DUP2 PUSH2 0x691 JUMP JUMPDEST SWAP3 SWAP2 POP POP JUMP JUMPDEST PUSH0 PUSH1 0x20 DUP3 DUP5 SUB SLT ISZERO PUSH2 0x6D0 JUMPI PUSH2 0x6CF PUSH2 0x65D JUMP JUMPDEST JUMPDEST PUSH0 PUSH2 0x6DD DUP5 DUP3 DUP6 ADD PUSH2 0x6A7 JUMP JUMPDEST SWAP2 POP POP SWAP3 SWAP2 POP POP JUMP JUMPDEST PUSH0 DUP2 SWAP1 POP SWAP2 SWAP1 POP JUMP JUMPDEST PUSH2 0x6F8 DUP2 PUSH2 0x6E6 JUMP JUMPDEST DUP3 MSTORE POP POP JUMP JUMPDEST PUSH0 PUSH1 0x20 DUP3 ADD SWAP1 POP PUSH2 0x711 PUSH0 DUP4 ADD DUP5 PUSH2 0x6EF JUMP JUMPDEST SWAP3 SWAP2 POP POP JUMP JUMPDEST PUSH2 0x720 DUP2 PUSH2 0x680 JUMP JUMPDEST DUP3 MSTORE POP POP JUMP JUMPDEST PUSH0 PUSH1 0x20 DUP3 ADD SWAP1 POP PUSH2 0x739 PUSH0 DUP4 ADD DUP5 PUSH2 0x717 JUMP JUMPDEST SWAP3 SWAP2 POP POP JUMP JUMPDEST PUSH2 0x748 DUP2 PUSH2 0x6E6 JUMP JUMPDEST DUP2 EQ PUSH2 0x752 JUMPI PUSH0 PUSH0 REVERT JUMPDEST POP JUMP JUMPDEST PUSH0 DUP2 CALLDATALOAD SWAP1 POP PUSH2 0x763 DUP2 PUSH2 0x73F JUMP JUMPDEST SWAP3 SWAP2 POP POP JUMP JUMPDEST PUSH0 PUSH1 0x20 DUP3 DUP5 SUB SLT ISZERO PUSH2 0x77E JUMPI PUSH2 0x77D PUSH2 0x65D JUMP JUMPDEST JUMPDEST PUSH0 PUSH2 0x78B DUP5 DUP3 DUP6 ADD PUSH2 0x755 JUMP JUMPDEST SWAP2 POP POP SWAP3 SWAP2 POP POP JUMP JUMPDEST PUSH0 DUP3 DUP3 MSTORE PUSH1 0x20 DUP3 ADD SWAP1 POP SWAP3 SWAP2 POP POP JUMP JUMPDEST PUSH32 0x53656E646572206973206E6F74206F776E657221000000000000000000000000 PUSH0 DUP3 ADD MSTORE POP JUMP JUMPDEST PUSH0 PUSH2 0x7D8 PUSH1 0x14 DUP4 PUSH2 0x794 JUMP JUMPDEST SWAP2 POP PUSH2 0x7E3 DUP3 PUSH2 0x7A4 JUMP JUMPDEST PUSH1 0x20 DUP3 ADD SWAP1 POP SWAP2 SWAP1 POP JUMP JUMPDEST PUSH0 PUSH1 0x20 DUP3 ADD SWAP1 POP DUP2 DUP2 SUB PUSH0 DUP4 ADD MSTORE PUSH2 0x805 DUP2 PUSH2 0x7CC JUMP JUMPDEST SWAP1 POP SWAP2 SWAP1 POP JUMP JUMPDEST PUSH32 0x4E487B7100000000000000000000000000000000000000000000000000000000 PUSH0 MSTORE PUSH1 0x32 PUSH1 0x4 MSTORE PUSH1 0x24 PUSH0 REVERT JUMPDEST PUSH32 0x4E487B7100000000000000000000000000000000000000000000000000000000 PUSH0 MSTORE PUSH1 0x41 PUSH1 0x4 MSTORE PUSH1 0x24 PUSH0 REVERT JUMPDEST PUSH0 DUP2 SWAP1 POP SWAP3 SWAP2 POP POP JUMP JUMPDEST POP JUMP JUMPDEST PUSH0 PUSH2 0x87E PUSH0 DUP4 PUSH2 0x866 JUMP JUMPDEST SWAP2 POP PUSH2 0x889 DUP3 PUSH2 0x870 JUMP JUMPDEST PUSH0 DUP3 ADD SWAP1 POP SWAP2 SWAP1 POP JUMP JUMPDEST PUSH0 PUSH2 0x89D DUP3 PUSH2 0x873 JUMP JUMPDEST SWAP2 POP DUP2 SWAP1 POP SWAP2 SWAP1 POP JUMP JUMPDEST PUSH32 0x63616C6C206661696C6564210000000000000000000000000000000000000000 PUSH0 DUP3 ADD MSTORE POP JUMP JUMPDEST PUSH0 PUSH2 0x8DB PUSH1 0xC DUP4 PUSH2 0x794 JUMP JUMPDEST SWAP2 POP PUSH2 0x8E6 DUP3 PUSH2 0x8A7 JUMP JUMPDEST PUSH1 0x20 DUP3 ADD SWAP1 POP SWAP2 SWAP1 POP JUMP JUMPDEST PUSH0 PUSH1 0x20 DUP3 ADD SWAP1 POP DUP2 DUP2 SUB PUSH0 DUP4 ADD MSTORE PUSH2 0x908 DUP2 PUSH2 0x8CF JUMP JUMPDEST SWAP1 POP SWAP2 SWAP1 POP JUMP JUMPDEST PUSH2 0x918 DUP2 PUSH2 0x6E6 JUMP JUMPDEST DUP3 MSTORE POP POP JUMP JUMPDEST PUSH0 PUSH1 0x20 DUP3 ADD SWAP1 POP PUSH2 0x931 PUSH0 DUP4 ADD DUP5 PUSH2 0x90F JUMP JUMPDEST SWAP3 SWAP2 POP POP JUMP JUMPDEST PUSH0 DUP2 MLOAD SWAP1 POP PUSH2 0x945 DUP2 PUSH2 0x73F JUMP JUMPDEST SWAP3 SWAP2 POP POP JUMP JUMPDEST PUSH0 PUSH1 0x20 DUP3 DUP5 SUB SLT ISZERO PUSH2 0x960 JUMPI PUSH2 0x95F PUSH2 0x65D JUMP JUMPDEST JUMPDEST PUSH0 PUSH2 0x96D DUP5 DUP3 DUP6 ADD PUSH2 0x937 JUMP JUMPDEST SWAP2 POP POP SWAP3 SWAP2 POP POP JUMP JUMPDEST PUSH32 0x6469646E27742073656E6420656E6F7567682045544800000000000000000000 PUSH0 DUP3 ADD MSTORE POP JUMP JUMPDEST PUSH0 PUSH2 0x9AA PUSH1 0x16 DUP4 PUSH2 0x794 JUMP JUMPDEST SWAP2 POP PUSH2 0x9B5 DUP3 PUSH2 0x976 JUMP JUMPDEST PUSH1 0x20 DUP3 ADD SWAP1 POP SWAP2 SWAP1 POP JUMP JUMPDEST PUSH0 PUSH1 0x20 DUP3 ADD SWAP1 POP DUP2 DUP2 SUB PUSH0 DUP4 ADD MSTORE PUSH2 0x9D7 DUP2 PUSH2 0x99E JUMP JUMPDEST SWAP1 POP SWAP2 SWAP1 POP JUMP JUMPDEST PUSH32 0x4E487B7100000000000000000000000000000000000000000000000000000000 PUSH0 MSTORE PUSH1 0x11 PUSH1 0x4 MSTORE PUSH1 0x24 PUSH0 REVERT JUMPDEST PUSH0 PUSH2 0xA15 DUP3 PUSH2 0x6E6 JUMP JUMPDEST SWAP2 POP PUSH2 0xA20 DUP4 PUSH2 0x6E6 JUMP JUMPDEST SWAP3 POP DUP3 DUP3 ADD SWAP1 POP DUP1 DUP3 GT ISZERO PUSH2 0xA38 JUMPI PUSH2 0xA37 PUSH2 0x9DE JUMP JUMPDEST JUMPDEST SWAP3 SWAP2 POP POP JUMP INVALID LOG2 PUSH5 0x6970667358 0x22 SLT KECCAK256 STATICCALL 0xD4 DUP11 0xC7 0xC4 TSTORE 0xB4 0xCB NUMBER SGT GASLIMIT 0x4B RETURN DUP4 LOG4 0xA7 DELEGATECALL PUSH20 0xEF34D0BA4A7B02FA8607CD3EA6A64736F6C6343 STOP ADDMOD 0x1E STOP CALLER "
				},
				"gasEstimates": {
					"creation": {
						"codeDepositCost": "535200",
						"executionCost": "infinite",
						"totalCost": "infinite"
					},
					"external": {
						"MINIMUM_USD()": "325",
						"addressToAmountFunded(address)": "2825",
						"fund()": "infinite",
						"funders(uint256)": "5009",
						"myValue()": "2470",
						"owner()": "infinite",
						"withdraw()": "infinite"
					}
				},
				"methodIdentifiers": {
					"MINIMUM_USD()": "6b69a592",
					"addressToAmountFunded(address)": "3e47d6f3",
					"fund()": "b60d4288",
					"funders(uint256)": "dc0d3dff",
					"myValue()": "47f1aae7",
					"owner()": "8da5cb5b",
					"withdraw()": "3ccfd60b"
				}
			},
			"storageLayout": {
				"storage": [
					{
						"astId": 55,
						"contract": "learning/Solidity Smart Contract Development/Fund Me/FundMe.sol:FundMe",
						"label": "funders",
						"offset": 0,
						"slot": "0",
						"type": "t_array(t_address)dyn_storage"
					},
					{
						"astId": 59,
						"contract": "learning/Solidity Smart Contract Development/Fund Me/FundMe.sol:FundMe",
						"label": "addressToAmountFunded",
						"offset": 0,
						"slot": "1",
						"type": "t_mapping(t_address,t_uint256)"
					},
					{
						"astId": 67,
						"contract": "learning/Solidity Smart Contract Development/Fund Me/FundMe.sol:FundMe",
						"label": "myValue",
						"offset": 0,
						"slot": "2",
						"type": "t_uint256"
					}
				],
				"types": {
					"t_address": {
						"encoding": "inplace",
						"label": "address",
						"numberOfBytes": "20"
					},
					"t_array(t_address)dyn_storage": {
						"base": "t_address",
						"encoding": "dynamic_array",
						"label": "address[]",
						"numberOfBytes": "32"
					},
					"t_mapping(t_address,t_uint256)": {
						"encoding": "mapping",
						"key": "t_address",
						"label": "mapping(address => uint256)",
						"numberOfBytes": "32",
						"value": "t_uint256"
					},
					"t_uint256": {
						"encoding": "inplace",
						"label": "uint256",
						"numberOfBytes": "32"
					}
				}
			},
			"userdoc": {
				"kind": "user",
				"methods": {},
				"version": 1
			}
		}
	}
}