{
	"security/etheranut/Denial/Denia.sol": {
		"Denial": {
			"abi": [
				{
					"inputs": [],
					"name": "contractBalance",
					"outputs": [
						{
							"internalType": "uint256",
							"name": "",
							"type": "uint256"
						}
					],
					"stateMutability": "view",
					"type": "function"
				},
				{
					"inputs": [],
					"name": "owner",
					"outputs": [
						{
							"internalType": "address",
							"name": "",
							"type": "address"
						}
					],
					"stateMutability": "view",
					"type": "function"
				},
				{
					"inputs": [],
					"name": "partner",
					"outputs": [
						{
							"internalType": "address",
							"name": "",
							"type": "address"
						}
					],
					"stateMutability": "view",
					"type": "function"
				},
				{
					"inputs": [
						{
							"internalType": "address",
							"name": "_partner",
							"type": "address"
						}
					],
					"name": "setWithdrawPartner",
					"outputs": [],
					"stateMutability": "nonpayable",
					"type": "function"
				},
				{
					"inputs": [],
					"name": "withdraw",
					"outputs": [],
					"stateMutability": "nonpayable",
					"type": "function"
				},
				{
					"stateMutability": "payable",
					"type": "receive"
				}
			],
			"devdoc": {
				"kind": "dev",
				"methods": {},
				"version": 1
			},
			"evm": {
				"assembly": "    /* \"security/etheranut/Denial/Denia.sol\":60:1177  contract Denial {... */\n  mstore(0x40, 0x80)\n  callvalue\n  dup1\n  iszero\n  tag_1\n  jumpi\n  revert(0x00, 0x00)\ntag_1:\n  pop\n  dataSize(sub_0)\n  dup1\n  dataOffset(sub_0)\n  0x00\n  codecopy\n  0x00\n  return\nstop\n\nsub_0: assembly {\n        /* \"security/etheranut/Denial/Denia.sol\":60:1177  contract Denial {... */\n      mstore(0x40, 0x80)\n      jumpi(tag_1, lt(calldatasize, 0x04))\n      shr(0xe0, calldataload(0x00))\n      dup1\n      0x3ccfd60b\n      eq\n      tag_3\n      jumpi\n      dup1\n      0x4e1c5914\n      eq\n      tag_4\n      jumpi\n      dup1\n      0x8b7afe2e\n      eq\n      tag_5\n      jumpi\n      dup1\n      0x8da5cb5b\n      eq\n      tag_6\n      jumpi\n      dup1\n      0xbe10862b\n      eq\n      tag_7\n      jumpi\n      jump(tag_2)\n    tag_1:\n      jumpi(tag_2, calldatasize)\n      stop\n    tag_2:\n      revert(0x00, 0x00)\n        /* \"security/etheranut/Denial/Denia.sol\":495:965  function withdraw() public {... */\n    tag_3:\n      callvalue\n      dup1\n      iszero\n      tag_10\n      jumpi\n      revert(0x00, 0x00)\n    tag_10:\n      pop\n      tag_11\n      tag_12\n      jump\t// in\n    tag_11:\n      stop\n        /* \"security/etheranut/Denial/Denia.sol\":348:438  function setWithdrawPartner(address _partner) public {... */\n    tag_4:\n      callvalue\n      dup1\n      iszero\n      tag_13\n      jumpi\n      revert(0x00, 0x00)\n    tag_13:\n      pop\n      tag_14\n      0x04\n      dup1\n      calldatasize\n      sub\n      dup2\n      add\n      swap1\n      tag_15\n      swap2\n      swap1\n      tag_16\n      jump\t// in\n    tag_15:\n      tag_17\n      jump\t// in\n    tag_14:\n      stop\n        /* \"security/etheranut/Denial/Denia.sol\":1070:1174  function contractBalance() public view returns (uint256) {... */\n    tag_5:\n      callvalue\n      dup1\n      iszero\n      tag_18\n      jumpi\n      revert(0x00, 0x00)\n    tag_18:\n      pop\n      tag_19\n      tag_20\n      jump\t// in\n    tag_19:\n      mload(0x40)\n      tag_21\n      swap2\n      swap1\n      tag_22\n      jump\t// in\n    tag_21:\n      mload(0x40)\n      dup1\n      swap2\n      sub\n      swap1\n      return\n        /* \"security/etheranut/Denial/Denia.sol\":168:214  address public constant owner = address(0xA9E) */\n    tag_6:\n      callvalue\n      dup1\n      iszero\n      tag_23\n      jumpi\n      revert(0x00, 0x00)\n    tag_23:\n      pop\n      tag_24\n      tag_25\n      jump\t// in\n    tag_24:\n      mload(0x40)\n      tag_26\n      swap2\n      swap1\n      tag_27\n      jump\t// in\n    tag_26:\n      mload(0x40)\n      dup1\n      swap2\n      sub\n      swap1\n      return\n        /* \"security/etheranut/Denial/Denia.sol\":83:105  address public partner */\n    tag_7:\n      callvalue\n      dup1\n      iszero\n      tag_28\n      jumpi\n      revert(0x00, 0x00)\n    tag_28:\n      pop\n      tag_29\n      tag_30\n      jump\t// in\n    tag_29:\n      mload(0x40)\n      tag_31\n      swap2\n      swap1\n      tag_27\n      jump\t// in\n    tag_31:\n      mload(0x40)\n      dup1\n      swap2\n      sub\n      swap1\n      return\n        /* \"security/etheranut/Denial/Denia.sol\":495:965  function withdraw() public {... */\n    tag_12:\n        /* \"security/etheranut/Denial/Denia.sol\":533:553  uint256 amountToSend */\n      0x00\n        /* \"security/etheranut/Denial/Denia.sol\":580:583  100 */\n      0x64\n        /* \"security/etheranut/Denial/Denia.sol\":556:577  address(this).balance */\n      selfbalance\n        /* \"security/etheranut/Denial/Denia.sol\":556:583  address(this).balance / 100 */\n      tag_33\n      swap2\n      swap1\n      tag_34\n      jump\t// in\n    tag_33:\n        /* \"security/etheranut/Denial/Denia.sol\":533:583  uint256 amountToSend = address(this).balance / 100 */\n      swap1\n      pop\n        /* \"security/etheranut/Denial/Denia.sol\":720:727  partner */\n      0x00\n      0x00\n      swap1\n      sload\n      swap1\n      0x0100\n      exp\n      swap1\n      div\n      0xffffffffffffffffffffffffffffffffffffffff\n      and\n        /* \"security/etheranut/Denial/Denia.sol\":720:732  partner.call */\n      0xffffffffffffffffffffffffffffffffffffffff\n      and\n        /* \"security/etheranut/Denial/Denia.sol\":740:752  amountToSend */\n      dup2\n        /* \"security/etheranut/Denial/Denia.sol\":720:757  partner.call{value: amountToSend}(\"\") */\n      mload(0x40)\n      tag_35\n      swap1\n      tag_36\n      jump\t// in\n    tag_35:\n      0x00\n      mload(0x40)\n      dup1\n      dup4\n      sub\n      dup2\n      dup6\n      dup8\n      gas\n      call\n      swap3\n      pop\n      pop\n      pop\n      returndatasize\n      dup1\n      0x00\n      dup2\n      eq\n      tag_39\n      jumpi\n      mload(0x40)\n      swap2\n      pop\n      and(add(returndatasize, 0x3f), not(0x1f))\n      dup3\n      add\n      0x40\n      mstore\n      returndatasize\n      dup3\n      mstore\n      returndatasize\n      0x00\n      0x20\n      dup5\n      add\n      returndatacopy\n      jump(tag_38)\n    tag_39:\n      0x60\n      swap2\n      pop\n    tag_38:\n      pop\n      pop\n      pop\n        /* \"security/etheranut/Denial/Denia.sol\":208:213  0xA9E */\n      0x0a9e\n        /* \"security/etheranut/Denial/Denia.sol\":768:791  payable(owner).transfer */\n      0xffffffffffffffffffffffffffffffffffffffff\n      and\n        /* \"security/etheranut/Denial/Denia.sol\":768:805  payable(owner).transfer(amountToSend) */\n      0x08fc\n        /* \"security/etheranut/Denial/Denia.sol\":792:804  amountToSend */\n      dup3\n        /* \"security/etheranut/Denial/Denia.sol\":768:805  payable(owner).transfer(amountToSend) */\n      swap1\n      dup2\n      iszero\n      mul\n      swap1\n      mload(0x40)\n      0x00\n      mload(0x40)\n      dup1\n      dup4\n      sub\n      dup2\n      dup6\n      dup9\n      dup9\n      call\n      swap4\n      pop\n      pop\n      pop\n      pop\n      iszero\n      dup1\n      iszero\n      tag_41\n      jumpi\n      returndatacopy(0x00, 0x00, returndatasize)\n      revert(0x00, returndatasize)\n    tag_41:\n      pop\n        /* \"security/etheranut/Denial/Denia.sol\":883:898  block.timestamp */\n      timestamp\n        /* \"security/etheranut/Denial/Denia.sol\":863:880  timeLastWithdrawn */\n      0x01\n        /* \"security/etheranut/Denial/Denia.sol\":863:898  timeLastWithdrawn = block.timestamp */\n      dup2\n      swap1\n      sstore\n      pop\n        /* \"security/etheranut/Denial/Denia.sol\":945:957  amountToSend */\n      dup1\n        /* \"security/etheranut/Denial/Denia.sol\":909:932  withdrawPartnerBalances */\n      0x02\n        /* \"security/etheranut/Denial/Denia.sol\":909:941  withdrawPartnerBalances[partner] */\n      0x00\n        /* \"security/etheranut/Denial/Denia.sol\":933:940  partner */\n      0x00\n      0x00\n      swap1\n      sload\n      swap1\n      0x0100\n      exp\n      swap1\n      div\n      0xffffffffffffffffffffffffffffffffffffffff\n      and\n        /* \"security/etheranut/Denial/Denia.sol\":909:941  withdrawPartnerBalances[partner] */\n      0xffffffffffffffffffffffffffffffffffffffff\n      and\n      0xffffffffffffffffffffffffffffffffffffffff\n      and\n      dup2\n      mstore\n      0x20\n      add\n      swap1\n      dup2\n      mstore\n      0x20\n      add\n      0x00\n      keccak256\n      0x00\n        /* \"security/etheranut/Denial/Denia.sol\":909:957  withdrawPartnerBalances[partner] += amountToSend */\n      dup3\n      dup3\n      sload\n      tag_42\n      swap2\n      swap1\n      tag_43\n      jump\t// in\n    tag_42:\n      swap3\n      pop\n      pop\n      dup2\n      swap1\n      sstore\n      pop\n        /* \"security/etheranut/Denial/Denia.sol\":522:965  {... */\n      pop\n        /* \"security/etheranut/Denial/Denia.sol\":495:965  function withdraw() public {... */\n      jump\t// out\n        /* \"security/etheranut/Denial/Denia.sol\":348:438  function setWithdrawPartner(address _partner) public {... */\n    tag_17:\n        /* \"security/etheranut/Denial/Denia.sol\":422:430  _partner */\n      dup1\n        /* \"security/etheranut/Denial/Denia.sol\":412:419  partner */\n      0x00\n      0x00\n        /* \"security/etheranut/Denial/Denia.sol\":412:430  partner = _partner */\n      0x0100\n      exp\n      dup2\n      sload\n      dup2\n      0xffffffffffffffffffffffffffffffffffffffff\n      mul\n      not\n      and\n      swap1\n      dup4\n      0xffffffffffffffffffffffffffffffffffffffff\n      and\n      mul\n      or\n      swap1\n      sstore\n      pop\n        /* \"security/etheranut/Denial/Denia.sol\":348:438  function setWithdrawPartner(address _partner) public {... */\n      pop\n      jump\t// out\n        /* \"security/etheranut/Denial/Denia.sol\":1070:1174  function contractBalance() public view returns (uint256) {... */\n    tag_20:\n        /* \"security/etheranut/Denial/Denia.sol\":1118:1125  uint256 */\n      0x00\n        /* \"security/etheranut/Denial/Denia.sol\":1145:1166  address(this).balance */\n      selfbalance\n        /* \"security/etheranut/Denial/Denia.sol\":1138:1166  return address(this).balance */\n      swap1\n      pop\n        /* \"security/etheranut/Denial/Denia.sol\":1070:1174  function contractBalance() public view returns (uint256) {... */\n      swap1\n      jump\t// out\n        /* \"security/etheranut/Denial/Denia.sol\":168:214  address public constant owner = address(0xA9E) */\n    tag_25:\n        /* \"security/etheranut/Denial/Denia.sol\":208:213  0xA9E */\n      0x0a9e\n        /* \"security/etheranut/Denial/Denia.sol\":168:214  address public constant owner = address(0xA9E) */\n      dup2\n      jump\t// out\n        /* \"security/etheranut/Denial/Denia.sol\":83:105  address public partner */\n    tag_30:\n      0x00\n      0x00\n      swap1\n      sload\n      swap1\n      0x0100\n      exp\n      swap1\n      div\n      0xffffffffffffffffffffffffffffffffffffffff\n      and\n      dup2\n      jump\t// out\n        /* \"#utility.yul\":88:205   */\n    tag_47:\n        /* \"#utility.yul\":197:198   */\n      0x00\n        /* \"#utility.yul\":194:195   */\n      0x00\n        /* \"#utility.yul\":187:199   */\n      revert\n        /* \"#utility.yul\":334:460   */\n    tag_49:\n        /* \"#utility.yul\":371:378   */\n      0x00\n        /* \"#utility.yul\":411:453   */\n      0xffffffffffffffffffffffffffffffffffffffff\n        /* \"#utility.yul\":404:409   */\n      dup3\n        /* \"#utility.yul\":400:454   */\n      and\n        /* \"#utility.yul\":389:454   */\n      swap1\n      pop\n        /* \"#utility.yul\":334:460   */\n      swap2\n      swap1\n      pop\n      jump\t// out\n        /* \"#utility.yul\":466:562   */\n    tag_50:\n        /* \"#utility.yul\":503:510   */\n      0x00\n        /* \"#utility.yul\":532:556   */\n      tag_67\n        /* \"#utility.yul\":550:555   */\n      dup3\n        /* \"#utility.yul\":532:556   */\n      tag_49\n      jump\t// in\n    tag_67:\n        /* \"#utility.yul\":521:556   */\n      swap1\n      pop\n        /* \"#utility.yul\":466:562   */\n      swap2\n      swap1\n      pop\n      jump\t// out\n        /* \"#utility.yul\":568:690   */\n    tag_51:\n        /* \"#utility.yul\":641:665   */\n      tag_69\n        /* \"#utility.yul\":659:664   */\n      dup2\n        /* \"#utility.yul\":641:665   */\n      tag_50\n      jump\t// in\n    tag_69:\n        /* \"#utility.yul\":634:639   */\n      dup2\n        /* \"#utility.yul\":631:666   */\n      eq\n        /* \"#utility.yul\":621:684   */\n      tag_70\n      jumpi\n        /* \"#utility.yul\":680:681   */\n      0x00\n        /* \"#utility.yul\":677:678   */\n      0x00\n        /* \"#utility.yul\":670:682   */\n      revert\n        /* \"#utility.yul\":621:684   */\n    tag_70:\n        /* \"#utility.yul\":568:690   */\n      pop\n      jump\t// out\n        /* \"#utility.yul\":696:835   */\n    tag_52:\n        /* \"#utility.yul\":742:747   */\n      0x00\n        /* \"#utility.yul\":780:786   */\n      dup2\n        /* \"#utility.yul\":767:787   */\n      calldataload\n        /* \"#utility.yul\":758:787   */\n      swap1\n      pop\n        /* \"#utility.yul\":796:829   */\n      tag_72\n        /* \"#utility.yul\":823:828   */\n      dup2\n        /* \"#utility.yul\":796:829   */\n      tag_51\n      jump\t// in\n    tag_72:\n        /* \"#utility.yul\":696:835   */\n      swap3\n      swap2\n      pop\n      pop\n      jump\t// out\n        /* \"#utility.yul\":841:1170   */\n    tag_16:\n        /* \"#utility.yul\":900:906   */\n      0x00\n        /* \"#utility.yul\":949:951   */\n      0x20\n        /* \"#utility.yul\":937:946   */\n      dup3\n        /* \"#utility.yul\":928:935   */\n      dup5\n        /* \"#utility.yul\":924:947   */\n      sub\n        /* \"#utility.yul\":920:952   */\n      slt\n        /* \"#utility.yul\":917:1036   */\n      iszero\n      tag_74\n      jumpi\n        /* \"#utility.yul\":955:1034   */\n      tag_75\n      tag_47\n      jump\t// in\n    tag_75:\n        /* \"#utility.yul\":917:1036   */\n    tag_74:\n        /* \"#utility.yul\":1075:1076   */\n      0x00\n        /* \"#utility.yul\":1100:1153   */\n      tag_76\n        /* \"#utility.yul\":1145:1152   */\n      dup5\n        /* \"#utility.yul\":1136:1142   */\n      dup3\n        /* \"#utility.yul\":1125:1134   */\n      dup6\n        /* \"#utility.yul\":1121:1143   */\n      add\n        /* \"#utility.yul\":1100:1153   */\n      tag_52\n      jump\t// in\n    tag_76:\n        /* \"#utility.yul\":1090:1153   */\n      swap2\n      pop\n        /* \"#utility.yul\":1046:1163   */\n      pop\n        /* \"#utility.yul\":841:1170   */\n      swap3\n      swap2\n      pop\n      pop\n      jump\t// out\n        /* \"#utility.yul\":1176:1253   */\n    tag_53:\n        /* \"#utility.yul\":1213:1220   */\n      0x00\n        /* \"#utility.yul\":1242:1247   */\n      dup2\n        /* \"#utility.yul\":1231:1247   */\n      swap1\n      pop\n        /* \"#utility.yul\":1176:1253   */\n      swap2\n      swap1\n      pop\n      jump\t// out\n        /* \"#utility.yul\":1259:1377   */\n    tag_54:\n        /* \"#utility.yul\":1346:1370   */\n      tag_79\n        /* \"#utility.yul\":1364:1369   */\n      dup2\n        /* \"#utility.yul\":1346:1370   */\n      tag_53\n      jump\t// in\n    tag_79:\n        /* \"#utility.yul\":1341:1344   */\n      dup3\n        /* \"#utility.yul\":1334:1371   */\n      mstore\n        /* \"#utility.yul\":1259:1377   */\n      pop\n      pop\n      jump\t// out\n        /* \"#utility.yul\":1383:1605   */\n    tag_22:\n        /* \"#utility.yul\":1476:1480   */\n      0x00\n        /* \"#utility.yul\":1514:1516   */\n      0x20\n        /* \"#utility.yul\":1503:1512   */\n      dup3\n        /* \"#utility.yul\":1499:1517   */\n      add\n        /* \"#utility.yul\":1491:1517   */\n      swap1\n      pop\n        /* \"#utility.yul\":1527:1598   */\n      tag_81\n        /* \"#utility.yul\":1595:1596   */\n      0x00\n        /* \"#utility.yul\":1584:1593   */\n      dup4\n        /* \"#utility.yul\":1580:1597   */\n      add\n        /* \"#utility.yul\":1571:1577   */\n      dup5\n        /* \"#utility.yul\":1527:1598   */\n      tag_54\n      jump\t// in\n    tag_81:\n        /* \"#utility.yul\":1383:1605   */\n      swap3\n      swap2\n      pop\n      pop\n      jump\t// out\n        /* \"#utility.yul\":1611:1729   */\n    tag_55:\n        /* \"#utility.yul\":1698:1722   */\n      tag_83\n        /* \"#utility.yul\":1716:1721   */\n      dup2\n        /* \"#utility.yul\":1698:1722   */\n      tag_50\n      jump\t// in\n    tag_83:\n        /* \"#utility.yul\":1693:1696   */\n      dup3\n        /* \"#utility.yul\":1686:1723   */\n      mstore\n        /* \"#utility.yul\":1611:1729   */\n      pop\n      pop\n      jump\t// out\n        /* \"#utility.yul\":1735:1957   */\n    tag_27:\n        /* \"#utility.yul\":1828:1832   */\n      0x00\n        /* \"#utility.yul\":1866:1868   */\n      0x20\n        /* \"#utility.yul\":1855:1864   */\n      dup3\n        /* \"#utility.yul\":1851:1869   */\n      add\n        /* \"#utility.yul\":1843:1869   */\n      swap1\n      pop\n        /* \"#utility.yul\":1879:1950   */\n      tag_85\n        /* \"#utility.yul\":1947:1948   */\n      0x00\n        /* \"#utility.yul\":1936:1945   */\n      dup4\n        /* \"#utility.yul\":1932:1949   */\n      add\n        /* \"#utility.yul\":1923:1929   */\n      dup5\n        /* \"#utility.yul\":1879:1950   */\n      tag_55\n      jump\t// in\n    tag_85:\n        /* \"#utility.yul\":1735:1957   */\n      swap3\n      swap2\n      pop\n      pop\n      jump\t// out\n        /* \"#utility.yul\":1963:2143   */\n    tag_56:\n        /* \"#utility.yul\":2011:2088   */\n      0x4e487b7100000000000000000000000000000000000000000000000000000000\n        /* \"#utility.yul\":2008:2009   */\n      0x00\n        /* \"#utility.yul\":2001:2089   */\n      mstore\n        /* \"#utility.yul\":2108:2112   */\n      0x12\n        /* \"#utility.yul\":2105:2106   */\n      0x04\n        /* \"#utility.yul\":2098:2113   */\n      mstore\n        /* \"#utility.yul\":2132:2136   */\n      0x24\n        /* \"#utility.yul\":2129:2130   */\n      0x00\n        /* \"#utility.yul\":2122:2137   */\n      revert\n        /* \"#utility.yul\":2149:2329   */\n    tag_57:\n        /* \"#utility.yul\":2197:2274   */\n      0x4e487b7100000000000000000000000000000000000000000000000000000000\n        /* \"#utility.yul\":2194:2195   */\n      0x00\n        /* \"#utility.yul\":2187:2275   */\n      mstore\n        /* \"#utility.yul\":2294:2298   */\n      0x11\n        /* \"#utility.yul\":2291:2292   */\n      0x04\n        /* \"#utility.yul\":2284:2299   */\n      mstore\n        /* \"#utility.yul\":2318:2322   */\n      0x24\n        /* \"#utility.yul\":2315:2316   */\n      0x00\n        /* \"#utility.yul\":2308:2323   */\n      revert\n        /* \"#utility.yul\":2335:2520   */\n    tag_34:\n        /* \"#utility.yul\":2375:2376   */\n      0x00\n        /* \"#utility.yul\":2392:2412   */\n      tag_89\n        /* \"#utility.yul\":2410:2411   */\n      dup3\n        /* \"#utility.yul\":2392:2412   */\n      tag_53\n      jump\t// in\n    tag_89:\n        /* \"#utility.yul\":2387:2412   */\n      swap2\n      pop\n        /* \"#utility.yul\":2426:2446   */\n      tag_90\n        /* \"#utility.yul\":2444:2445   */\n      dup4\n        /* \"#utility.yul\":2426:2446   */\n      tag_53\n      jump\t// in\n    tag_90:\n        /* \"#utility.yul\":2421:2446   */\n      swap3\n      pop\n        /* \"#utility.yul\":2465:2466   */\n      dup3\n        /* \"#utility.yul\":2455:2490   */\n      tag_91\n      jumpi\n        /* \"#utility.yul\":2470:2488   */\n      tag_92\n      tag_56\n      jump\t// in\n    tag_92:\n        /* \"#utility.yul\":2455:2490   */\n    tag_91:\n        /* \"#utility.yul\":2512:2513   */\n      dup3\n        /* \"#utility.yul\":2509:2510   */\n      dup3\n        /* \"#utility.yul\":2505:2514   */\n      div\n        /* \"#utility.yul\":2500:2514   */\n      swap1\n      pop\n        /* \"#utility.yul\":2335:2520   */\n      swap3\n      swap2\n      pop\n      pop\n      jump\t// out\n        /* \"#utility.yul\":2526:2673   */\n    tag_58:\n        /* \"#utility.yul\":2627:2638   */\n      0x00\n        /* \"#utility.yul\":2664:2667   */\n      dup2\n        /* \"#utility.yul\":2649:2667   */\n      swap1\n      pop\n        /* \"#utility.yul\":2526:2673   */\n      swap3\n      swap2\n      pop\n      pop\n      jump\t// out\n        /* \"#utility.yul\":2679:2793   */\n    tag_59:\n      pop\n      jump\t// out\n        /* \"#utility.yul\":2799:3197   */\n    tag_60:\n        /* \"#utility.yul\":2958:2961   */\n      0x00\n        /* \"#utility.yul\":2979:3062   */\n      tag_96\n        /* \"#utility.yul\":3060:3061   */\n      0x00\n        /* \"#utility.yul\":3055:3058   */\n      dup4\n        /* \"#utility.yul\":2979:3062   */\n      tag_58\n      jump\t// in\n    tag_96:\n        /* \"#utility.yul\":2972:3062   */\n      swap2\n      pop\n        /* \"#utility.yul\":3071:3164   */\n      tag_97\n        /* \"#utility.yul\":3160:3163   */\n      dup3\n        /* \"#utility.yul\":3071:3164   */\n      tag_59\n      jump\t// in\n    tag_97:\n        /* \"#utility.yul\":3189:3190   */\n      0x00\n        /* \"#utility.yul\":3184:3187   */\n      dup3\n        /* \"#utility.yul\":3180:3191   */\n      add\n        /* \"#utility.yul\":3173:3191   */\n      swap1\n      pop\n        /* \"#utility.yul\":2799:3197   */\n      swap2\n      swap1\n      pop\n      jump\t// out\n        /* \"#utility.yul\":3203:3582   */\n    tag_36:\n        /* \"#utility.yul\":3387:3390   */\n      0x00\n        /* \"#utility.yul\":3409:3556   */\n      tag_99\n        /* \"#utility.yul\":3552:3555   */\n      dup3\n        /* \"#utility.yul\":3409:3556   */\n      tag_60\n      jump\t// in\n    tag_99:\n        /* \"#utility.yul\":3402:3556   */\n      swap2\n      pop\n        /* \"#utility.yul\":3573:3576   */\n      dup2\n        /* \"#utility.yul\":3566:3576   */\n      swap1\n      pop\n        /* \"#utility.yul\":3203:3582   */\n      swap2\n      swap1\n      pop\n      jump\t// out\n        /* \"#utility.yul\":3588:3779   */\n    tag_43:\n        /* \"#utility.yul\":3628:3631   */\n      0x00\n        /* \"#utility.yul\":3647:3667   */\n      tag_101\n        /* \"#utility.yul\":3665:3666   */\n      dup3\n        /* \"#utility.yul\":3647:3667   */\n      tag_53\n      jump\t// in\n    tag_101:\n        /* \"#utility.yul\":3642:3667   */\n      swap2\n      pop\n        /* \"#utility.yul\":3681:3701   */\n      tag_102\n        /* \"#utility.yul\":3699:3700   */\n      dup4\n        /* \"#utility.yul\":3681:3701   */\n      tag_53\n      jump\t// in\n    tag_102:\n        /* \"#utility.yul\":3676:3701   */\n      swap3\n      pop\n        /* \"#utility.yul\":3724:3725   */\n      dup3\n        /* \"#utility.yul\":3721:3722   */\n      dup3\n        /* \"#utility.yul\":3717:3726   */\n      add\n        /* \"#utility.yul\":3710:3726   */\n      swap1\n      pop\n        /* \"#utility.yul\":3745:3748   */\n      dup1\n        /* \"#utility.yul\":3742:3743   */\n      dup3\n        /* \"#utility.yul\":3739:3749   */\n      gt\n        /* \"#utility.yul\":3736:3772   */\n      iszero\n      tag_103\n      jumpi\n        /* \"#utility.yul\":3752:3770   */\n      tag_104\n      tag_57\n      jump\t// in\n    tag_104:\n        /* \"#utility.yul\":3736:3772   */\n    tag_103:\n        /* \"#utility.yul\":3588:3779   */\n      swap3\n      swap2\n      pop\n      pop\n      jump\t// out\n\n    auxdata: 0xa26469706673582212208056f54578e4d58e9f21100266994c15a051d804fbbd46fc41f59b0cee1be0b764736f6c634300081e0033\n}\n",
				"bytecode": {
					"linkReferences": {},
					"object": "6080604052348015600e575f5ffd5b506104f68061001c5f395ff3fe60806040526004361061004d575f3560e01c80633ccfd60b146100585780634e1c59141461006e5780638b7afe2e146100965780638da5cb5b146100c0578063be10862b146100ea57610054565b3661005457005b5f5ffd5b348015610063575f5ffd5b5061006c610114565b005b348015610079575f5ffd5b50610094600480360381019061008f919061033e565b61026d565b005b3480156100a1575f5ffd5b506100aa6102af565b6040516100b79190610381565b60405180910390f35b3480156100cb575f5ffd5b506100d46102b6565b6040516100e191906103a9565b60405180910390f35b3480156100f5575f5ffd5b506100fe6102bc565b60405161010b91906103a9565b60405180910390f35b5f606447610122919061041c565b90505f5f9054906101000a900473ffffffffffffffffffffffffffffffffffffffff1673ffffffffffffffffffffffffffffffffffffffff168160405161016890610479565b5f6040518083038185875af1925050503d805f81146101a2576040519150601f19603f3d011682016040523d82523d5f602084013e6101a7565b606091505b505050610a9e73ffffffffffffffffffffffffffffffffffffffff166108fc8290811502906040515f60405180830381858888f193505050501580156101ef573d5f5f3e3d5ffd5b50426001819055508060025f5f5f9054906101000a900473ffffffffffffffffffffffffffffffffffffffff1673ffffffffffffffffffffffffffffffffffffffff1673ffffffffffffffffffffffffffffffffffffffff1681526020019081526020015f205f828254610263919061048d565b9250508190555050565b805f5f6101000a81548173ffffffffffffffffffffffffffffffffffffffff021916908373ffffffffffffffffffffffffffffffffffffffff16021790555050565b5f47905090565b610a9e81565b5f5f9054906101000a900473ffffffffffffffffffffffffffffffffffffffff1681565b5f5ffd5b5f73ffffffffffffffffffffffffffffffffffffffff82169050919050565b5f61030d826102e4565b9050919050565b61031d81610303565b8114610327575f5ffd5b50565b5f8135905061033881610314565b92915050565b5f60208284031215610353576103526102e0565b5b5f6103608482850161032a565b91505092915050565b5f819050919050565b61037b81610369565b82525050565b5f6020820190506103945f830184610372565b92915050565b6103a381610303565b82525050565b5f6020820190506103bc5f83018461039a565b92915050565b7f4e487b71000000000000000000000000000000000000000000000000000000005f52601260045260245ffd5b7f4e487b71000000000000000000000000000000000000000000000000000000005f52601160045260245ffd5b5f61042682610369565b915061043183610369565b925082610441576104406103c2565b5b828204905092915050565b5f81905092915050565b50565b5f6104645f8361044c565b915061046f82610456565b5f82019050919050565b5f61048382610459565b9150819050919050565b5f61049782610369565b91506104a283610369565b92508282019050808211156104ba576104b96103ef565b5b9291505056fea26469706673582212208056f54578e4d58e9f21100266994c15a051d804fbbd46fc41f59b0cee1be0b764736f6c634300081e0033",
					"opcodes": "PUSH1 0x80 PUSH1 0x40 MSTORE CALLVALUE DUP1 ISZERO PUSH1 0xE JUMPI PUSH0 PUSH0 REVERT JUMPDEST POP PUSH2 0x4F6 DUP1 PUSH2 0x1C PUSH0 CODECOPY PUSH0 RETURN INVALID PUSH1 0x80 PUSH1 0x40 MSTORE PUSH1 0x4 CALLDATASIZE LT PUSH2 0x4D JUMPI PUSH0 CALLDATALOAD PUSH1 0xE0 SHR DUP1 PUSH4 0x3CCFD60B EQ PUSH2 0x58 JUMPI DUP1 PUSH4 0x4E1C5914 EQ PUSH2 0x6E JUMPI DUP1 PUSH4 0x8B7AFE2E EQ PUSH2 0x96 JUMPI DUP1 PUSH4 0x8DA5CB5B EQ PUSH2 0xC0 JUMPI DUP1 PUSH4 0xBE10862B EQ PUSH2 0xEA JUMPI PUSH2 0x54 JUMP JUMPDEST CALLDATASIZE PUSH2 0x54 JUMPI STOP JUMPDEST PUSH0 PUSH0 REVERT JUMPDEST CALLVALUE DUP1 ISZERO PUSH2 0x63 JUMPI PUSH0 PUSH0 REVERT JUMPDEST POP PUSH2 0x6C PUSH2 0x114 JUMP JUMPDEST STOP JUMPDEST CALLVALUE DUP1 ISZERO PUSH2 0x79 JUMPI PUSH0 PUSH0 REVERT JUMPDEST POP PUSH2 0x94 PUSH1 0x4 DUP1 CALLDATASIZE SUB DUP2 ADD SWAP1 PUSH2 0x8F SWAP2 SWAP1 PUSH2 0x33E JUMP JUMPDEST PUSH2 0x26D JUMP JUMPDEST STOP JUMPDEST CALLVALUE DUP1 ISZERO PUSH2 0xA1 JUMPI PUSH0 PUSH0 REVERT JUMPDEST POP PUSH2 0xAA PUSH2 0x2AF JUMP JUMPDEST PUSH1 0x40 MLOAD PUSH2 0xB7 SWAP2 SWAP1 PUSH2 0x381 JUMP JUMPDEST PUSH1 0x40 MLOAD DUP1 SWAP2 SUB SWAP1 RETURN JUMPDEST CALLVALUE DUP1 ISZERO PUSH2 0xCB JUMPI PUSH0 PUSH0 REVERT JUMPDEST POP PUSH2 0xD4 PUSH2 0x2B6 JUMP JUMPDEST PUSH1 0x40 MLOAD PUSH2 0xE1 SWAP2 SWAP1 PUSH2 0x3A9 JUMP JUMPDEST PUSH1 0x40 MLOAD DUP1 SWAP2 SUB SWAP1 RETURN JUMPDEST CALLVALUE DUP1 ISZERO PUSH2 0xF5 JUMPI PUSH0 PUSH0 REVERT JUMPDEST POP PUSH2 0xFE PUSH2 0x2BC JUMP JUMPDEST PUSH1 0x40 MLOAD PUSH2 0x10B SWAP2 SWAP1 PUSH2 0x3A9 JUMP JUMPDEST PUSH1 0x40 MLOAD DUP1 SWAP2 SUB SWAP1 RETURN JUMPDEST PUSH0 PUSH1 0x64 SELFBALANCE PUSH2 0x122 SWAP2 SWAP1 PUSH2 0x41C JUMP JUMPDEST SWAP1 POP PUSH0 PUSH0 SWAP1 SLOAD SWAP1 PUSH2 0x100 EXP SWAP1 DIV PUSH20 0xFFFFFFFFFFFFFFFFFFFFFFFFFFFFFFFFFFFFFFFF AND PUSH20 0xFFFFFFFFFFFFFFFFFFFFFFFFFFFFFFFFFFFFFFFF AND DUP2 PUSH1 0x40 MLOAD PUSH2 0x168 SWAP1 PUSH2 0x479 JUMP JUMPDEST PUSH0 PUSH1 0x40 MLOAD DUP1 DUP4 SUB DUP2 DUP6 DUP8 GAS CALL SWAP3 POP POP POP RETURNDATASIZE DUP1 PUSH0 DUP2 EQ PUSH2 0x1A2 JUMPI PUSH1 0x40 MLOAD SWAP2 POP PUSH1 0x1F NOT PUSH1 0x3F RETURNDATASIZE ADD AND DUP3 ADD PUSH1 0x40 MSTORE RETURNDATASIZE DUP3 MSTORE RETURNDATASIZE PUSH0 PUSH1 0x20 DUP5 ADD RETURNDATACOPY PUSH2 0x1A7 JUMP JUMPDEST PUSH1 0x60 SWAP2 POP JUMPDEST POP POP POP PUSH2 0xA9E PUSH20 0xFFFFFFFFFFFFFFFFFFFFFFFFFFFFFFFFFFFFFFFF AND PUSH2 0x8FC DUP3 SWAP1 DUP2 ISZERO MUL SWAP1 PUSH1 0x40 MLOAD PUSH0 PUSH1 0x40 MLOAD DUP1 DUP4 SUB DUP2 DUP6 DUP9 DUP9 CALL SWAP4 POP POP POP POP ISZERO DUP1 ISZERO PUSH2 0x1EF JUMPI RETURNDATASIZE PUSH0 PUSH0 RETURNDATACOPY RETURNDATASIZE PUSH0 REVERT JUMPDEST POP TIMESTAMP PUSH1 0x1 DUP2 SWAP1 SSTORE POP DUP1 PUSH1 0x2 PUSH0 PUSH0 PUSH0 SWAP1 SLOAD SWAP1 PUSH2 0x100 EXP SWAP1 DIV PUSH20 0xFFFFFFFFFFFFFFFFFFFFFFFFFFFFFFFFFFFFFFFF AND PUSH20 0xFFFFFFFFFFFFFFFFFFFFFFFFFFFFFFFFFFFFFFFF AND PUSH20 0xFFFFFFFFFFFFFFFFFFFFFFFFFFFFFFFFFFFFFFFF AND DUP2 MSTORE PUSH1 0x20 ADD SWAP1 DUP2 MSTORE PUSH1 0x20 ADD PUSH0 KECCAK256 PUSH0 DUP3 DUP3 SLOAD PUSH2 0x263 SWAP2 SWAP1 PUSH2 0x48D JUMP JUMPDEST SWAP3 POP POP DUP2 SWAP1 SSTORE POP POP JUMP JUMPDEST DUP1 PUSH0 PUSH0 PUSH2 0x100 EXP DUP2 SLOAD DUP2 PUSH20 0xFFFFFFFFFFFFFFFFFFFFFFFFFFFFFFFFFFFFFFFF MUL NOT AND SWAP1 DUP4 PUSH20 0xFFFFFFFFFFFFFFFFFFFFFFFFFFFFFFFFFFFFFFFF AND MUL OR SWAP1 SSTORE POP POP JUMP JUMPDEST PUSH0 SELFBALANCE SWAP1 POP SWAP1 JUMP JUMPDEST PUSH2 0xA9E DUP2 JUMP JUMPDEST PUSH0 PUSH0 SWAP1 SLOAD SWAP1 PUSH2 0x100 EXP SWAP1 DIV PUSH20 0xFFFFFFFFFFFFFFFFFFFFFFFFFFFFFFFFFFFFFFFF AND DUP2 JUMP JUMPDEST PUSH0 PUSH0 REVERT JUMPDEST PUSH0 PUSH20 0xFFFFFFFFFFFFFFFFFFFFFFFFFFFFFFFFFFFFFFFF DUP3 AND SWAP1 POP SWAP2 SWAP1 POP JUMP JUMPDEST PUSH0 PUSH2 0x30D DUP3 PUSH2 0x2E4 JUMP JUMPDEST SWAP1 POP SWAP2 SWAP1 POP JUMP JUMPDEST PUSH2 0x31D DUP2 PUSH2 0x303 JUMP JUMPDEST DUP2 EQ PUSH2 0x327 JUMPI PUSH0 PUSH0 REVERT JUMPDEST POP JUMP JUMPDEST PUSH0 DUP2 CALLDATALOAD SWAP1 POP PUSH2 0x338 DUP2 PUSH2 0x314 JUMP JUMPDEST SWAP3 SWAP2 POP POP JUMP JUMPDEST PUSH0 PUSH1 0x20 DUP3 DUP5 SUB SLT ISZERO PUSH2 0x353 JUMPI PUSH2 0x352 PUSH2 0x2E0 JUMP JUMPDEST JUMPDEST PUSH0 PUSH2 0x360 DUP5 DUP3 DUP6 ADD PUSH2 0x32A JUMP JUMPDEST SWAP2 POP POP SWAP3 SWAP2 POP POP JUMP JUMPDEST PUSH0 DUP2 SWAP1 POP SWAP2 SWAP1 POP JUMP JUMPDEST PUSH2 0x37B DUP2 PUSH2 0x369 JUMP JUMPDEST DUP3 MSTORE POP POP JUMP JUMPDEST PUSH0 PUSH1 0x20 DUP3 ADD SWAP1 POP PUSH2 0x394 PUSH0 DUP4 ADD DUP5 PUSH2 0x372 JUMP JUMPDEST SWAP3 SWAP2 POP POP JUMP JUMPDEST PUSH2 0x3A3 DUP2 PUSH2 0x303 JUMP JUMPDEST DUP3 MSTORE POP POP JUMP JUMPDEST PUSH0 PUSH1 0x20 DUP3 ADD SWAP1 POP PUSH2 0x3BC PUSH0 DUP4 ADD DUP5 PUSH2 0x39A JUMP JUMPDEST SWAP3 SWAP2 POP POP JUMP JUMPDEST PUSH32 0x4E487B7100000000000000000000000000000000000000000000000000000000 PUSH0 MSTORE PUSH1 0x12 PUSH1 0x4 MSTORE PUSH1 0x24 PUSH0 REVERT JUMPDEST PUSH32 0x4E487B7100000000000000000000000000000000000000000000000000000000 PUSH0 MSTORE PUSH1 0x11 PUSH1 0x4 MSTORE PUSH1 0x24 PUSH0 REVERT JUMPDEST PUSH0 PUSH2 0x426 DUP3 PUSH2 0x369 JUMP JUMPDEST SWAP2 POP PUSH2 0x431 DUP4 PUSH2 0x369 JUMP JUMPDEST SWAP3 POP DUP3 PUSH2 0x441 JUMPI PUSH2 0x440 PUSH2 0x3C2 JUMP JUMPDEST JUMPDEST DUP3 DUP3 DIV SWAP1 POP SWAP3 SWAP2 POP POP JUMP JUMPDEST PUSH0 DUP2 SWAP1 POP SWAP3 SWAP2 POP POP JUMP JUMPDEST POP JUMP JUMPDEST PUSH0 PUSH2 0x464 PUSH0 DUP4 PUSH2 0x44C JUMP JUMPDEST SWAP2 POP PUSH2 0x46F DUP3 PUSH2 0x456 JUMP JUMPDEST PUSH0 DUP3 ADD SWAP1 POP SWAP2 SWAP1 POP JUMP JUMPDEST PUSH0 PUSH2 0x483 DUP3 PUSH2 0x459 JUMP JUMPDEST SWAP2 POP DUP2 SWAP1 POP SWAP2 SWAP1 POP JUMP JUMPDEST PUSH0 PUSH2 0x497 DUP3 PUSH2 0x369 JUMP JUMPDEST SWAP2 POP PUSH2 0x4A2 DUP4 PUSH2 0x369 JUMP JUMPDEST SWAP3 POP DUP3 DUP3 ADD SWAP1 POP DUP1 DUP3 GT ISZERO PUSH2 0x4BA JUMPI PUSH2 0x4B9 PUSH2 0x3EF JUMP JUMPDEST JUMPDEST SWAP3 SWAP2 POP POP JUMP INVALID LOG2 PUSH5 0x6970667358 0x22 SLT KECCAK256 DUP1 JUMP CREATE2 GASLIMIT PUSH25 0xE4D58E9F21100266994C15A051D804FBBD46FC41F59B0CEE1B RJUMP 0xB764 PUSH20 0x6F6C634300081E00330000000000000000000000 "
				},
				"gasEstimates": {
					"creation": {
						"codeDepositCost": "254000",
						"executionCost": "292",
						"totalCost": "254292"
					},
					"external": {
						"contractBalance()": "356",
						"owner()": "417",
						"partner()": "2573",
						"setWithdrawPartner(address)": "24714",
						"withdraw()": "infinite"
					}
				},
				"methodIdentifiers": {
					"contractBalance()": "8b7afe2e",
					"owner()": "8da5cb5b",
					"partner()": "be10862b",
					"setWithdrawPartner(address)": "4e1c5914",
					"withdraw()": "3ccfd60b"
				}
			},
			"storageLayout": {
				"storage": [
					{
						"astId": 3,
						"contract": "security/etheranut/Denial/Denia.sol:Denial",
						"label": "partner",
						"offset": 0,
						"slot": "0",
						"type": "t_address"
					},
					{
						"astId": 11,
						"contract": "security/etheranut/Denial/Denia.sol:Denial",
						"label": "timeLastWithdrawn",
						"offset": 0,
						"slot": "1",
						"type": "t_uint256"
					},
					{
						"astId": 15,
						"contract": "security/etheranut/Denial/Denia.sol:Denial",
						"label": "withdrawPartnerBalances",
						"offset": 0,
						"slot": "2",
						"type": "t_mapping(t_address,t_uint256)"
					}
				],
				"types": {
					"t_address": {
						"encoding": "inplace",
						"label": "address",
						"numberOfBytes": "20"
					},
					"t_mapping(t_address,t_uint256)": {
						"encoding": "mapping",
						"key": "t_address",
						"label": "mapping(address => uint256)",
						"numberOfBytes": "32",
						"value": "t_uint256"
					},
					"t_uint256": {
						"encoding": "inplace",
						"label": "uint256",
						"numberOfBytes": "32"
					}
				}
			},
			"userdoc": {
				"kind": "user",
				"methods": {},
				"version": 1
			}
		}
	}
}