{"abi":[{"type":"constructor","inputs":[{"name":"_entranceFee","type":"uint256","internalType":"uint256"},{"name":"_interval","type":"uint256","internalType":"uint256"},{"name":"_vrfCoordinator","type":"address","internalType":"address"},{"name":"_gasLane","type":"bytes32","internalType":"bytes32"},{"name":"_subscriptionId","type":"uint256","internalType":"uint256"},{"name":"_callbackGasLimit","type":"uint32","internalType":"uint32"}],"stateMutability":"nonpayable"},{"type":"function","name":"acceptOwnership","inputs":[],"outputs":[],"stateMutability":"nonpayable"},{"type":"function","name":"enterRaffle","inputs":[],"outputs":[],"stateMutability":"payable"},{"type":"function","name":"getEntranceFee","inputs":[],"outputs":[{"name":"","type":"uint256","internalType":"uint256"}],"stateMutability":"view"},{"type":"function","name":"owner","inputs":[],"outputs":[{"name":"","type":"address","internalType":"address"}],"stateMutability":"view"},{"type":"function","name":"pickWinner","inputs":[],"outputs":[],"stateMutability":"nonpayable"},{"type":"function","name":"rawFulfillRandomWords","inputs":[{"name":"requestId","type":"uint256","internalType":"uint256"},{"name":"randomWords","type":"uint256[]","internalType":"uint256[]"}],"outputs":[],"stateMutability":"nonpayable"},{"type":"function","name":"s_vrfCoordinator","inputs":[],"outputs":[{"name":"","type":"address","internalType":"contract IVRFCoordinatorV2Plus"}],"stateMutability":"view"},{"type":"function","name":"setCoordinator","inputs":[{"name":"_vrfCoordinator","type":"address","internalType":"address"}],"outputs":[],"stateMutability":"nonpayable"},{"type":"function","name":"transferOwnership","inputs":[{"name":"to","type":"address","internalType":"address"}],"outputs":[],"stateMutability":"nonpayable"},{"type":"event","name":"CoordinatorSet","inputs":[{"name":"vrfCoordinator","type":"address","indexed":false,"internalType":"address"}],"anonymous":false},{"type":"event","name":"OwnershipTransferRequested","inputs":[{"name":"from","type":"address","indexed":true,"internalType":"address"},{"name":"to","type":"address","indexed":true,"internalType":"address"}],"anonymous":false},{"type":"event","name":"OwnershipTransferred","inputs":[{"name":"from","type":"address","indexed":true,"internalType":"address"},{"name":"to","type":"address","indexed":true,"internalType":"address"}],"anonymous":false},{"type":"event","name":"RaffleEntered","inputs":[{"name":"player","type":"address","indexed":true,"internalType":"address"}],"anonymous":false},{"type":"error","name":"OnlyCoordinatorCanFulfill","inputs":[{"name":"have","type":"address","internalType":"address"},{"name":"want","type":"address","internalType":"address"}]},{"type":"error","name":"OnlyOwnerOrCoordinator","inputs":[{"name":"have","type":"address","internalType":"address"},{"name":"owner","type":"address","internalType":"address"},{"name":"coordinator","type":"address","internalType":"address"}]},{"type":"error","name":"Raffle__ETHAmountError","inputs":[]},{"type":"error","name":"Raffle__ShouldExceedInternal","inputs":[]},{"type":"error","name":"ZeroAddress","inputs":[]}],"bytecode":{"object":"0x610120604052348015610010575f5ffd5b506040516117ee3803806117ee8339818101604052810190610032919061043e565b8333805f5f73ffffffffffffffffffffffffffffffffffffffff168273ffffffffffffffffffffffffffffffffffffffff16036100a4576040517f08c379a000000000000000000000000000000000000000000000000000000000815260040161009b90610521565b60405180910390fd5b815f5f6101000a81548173ffffffffffffffffffffffffffffffffffffffff021916908373ffffffffffffffffffffffffffffffffffffffff1602179055505f73ffffffffffffffffffffffffffffffffffffffff168173ffffffffffffffffffffffffffffffffffffffff1614610126576101258161021660201b60201c565b5b5050505f73ffffffffffffffffffffffffffffffffffffffff168173ffffffffffffffffffffffffffffffffffffffff160361018e576040517fd92e233d00000000000000000000000000000000000000000000000000000000815260040160405180910390fd5b8060025f6101000a81548173ffffffffffffffffffffffffffffffffffffffff021916908373ffffffffffffffffffffffffffffffffffffffff160217905550508560a081815250508460c081815250508160e081815250508261010081815250508063ffffffff1660808163ffffffff1681525050426003819055505050505050506105a7565b3373ffffffffffffffffffffffffffffffffffffffff168173ffffffffffffffffffffffffffffffffffffffff1603610284576040517f08c379a000000000000000000000000000000000000000000000000000000000815260040161027b90610589565b60405180910390fd5b8060015f6101000a81548173ffffffffffffffffffffffffffffffffffffffff021916908373ffffffffffffffffffffffffffffffffffffffff1602179055508073ffffffffffffffffffffffffffffffffffffffff165f5f9054906101000a900473ffffffffffffffffffffffffffffffffffffffff1673ffffffffffffffffffffffffffffffffffffffff167fed8889f560326eb138920d842192f0eb3dd22b4f139c87a2c57538e05bae127860405160405180910390a350565b5f5ffd5b5f819050919050565b61035781610345565b8114610361575f5ffd5b50565b5f815190506103728161034e565b92915050565b5f73ffffffffffffffffffffffffffffffffffffffff82169050919050565b5f6103a182610378565b9050919050565b6103b181610397565b81146103bb575f5ffd5b50565b5f815190506103cc816103a8565b92915050565b5f819050919050565b6103e4816103d2565b81146103ee575f5ffd5b50565b5f815190506103ff816103db565b92915050565b5f63ffffffff82169050919050565b61041d81610405565b8114610427575f5ffd5b50565b5f8151905061043881610414565b92915050565b5f5f5f5f5f5f60c0878903121561045857610457610341565b5b5f61046589828a01610364565b965050602061047689828a01610364565b955050604061048789828a016103be565b945050606061049889828a016103f1565b93505060806104a989828a01610364565b92505060a06104ba89828a0161042a565b9150509295509295509295565b5f82825260208201905092915050565b7f43616e6e6f7420736574206f776e657220746f207a65726f00000000000000005f82015250565b5f61050b6018836104c7565b9150610516826104d7565b602082019050919050565b5f6020820190508181035f830152610538816104ff565b9050919050565b7f43616e6e6f74207472616e7366657220746f2073656c660000000000000000005f82015250565b5f6105736017836104c7565b915061057e8261053f565b602082019050919050565b5f6020820190508181035f8301526105a081610567565b9050919050565b60805160a05160c05160e051610100516112036105eb5f395f61041301525f61043901525f6103a001525f81816101b801526102a201525f61046a01526112035ff3fe608060405260043610610085575f3560e01c806379ba50971161005857806379ba5097146100fb5780638da5cb5b146101115780638ea981171461013b5780639eccacf614610163578063f2fde38b1461018d57610085565b806309bc33a7146100895780631fe543e3146100b35780632cfcc539146100db5780635d495aea146100e5575b5f5ffd5b348015610094575f5ffd5b5061009d6101b5565b6040516100aa9190610b9c565b60405180910390f35b3480156100be575f5ffd5b506100d960048036038101906100d49190610c48565b6101dc565b005b6100e36102a0565b005b3480156100f0575f5ffd5b506100f961039e565b005b348015610106575f5ffd5b5061010f610560565b005b34801561011c575f5ffd5b506101256106ef565b6040516101329190610ce4565b60405180910390f35b348015610146575f5ffd5b50610161600480360381019061015c9190610d27565b610716565b005b34801561016e575f5ffd5b506101776108f3565b6040516101849190610dad565b60405180910390f35b348015610198575f5ffd5b506101b360048036038101906101ae9190610d27565b610918565b005b5f7f0000000000000000000000000000000000000000000000000000000000000000905090565b60025f9054906101000a900473ffffffffffffffffffffffffffffffffffffffff1673ffffffffffffffffffffffffffffffffffffffff163373ffffffffffffffffffffffffffffffffffffffff1614610290573360025f9054906101000a900473ffffffffffffffffffffffffffffffffffffffff166040517f1cf993f4000000000000000000000000000000000000000000000000000000008152600401610287929190610dc6565b60405180910390fd5b61029b83838361092c565b505050565b7f000000000000000000000000000000000000000000000000000000000000000034146102f9576040517f454b4d9d00000000000000000000000000000000000000000000000000000000815260040160405180910390fd5b600433908060018154018082558091505060019003905f5260205f20015f9091909190916101000a81548173ffffffffffffffffffffffffffffffffffffffff021916908373ffffffffffffffffffffffffffffffffffffffff1602179055503373ffffffffffffffffffffffffffffffffffffffff167f634f3211e3a4e43fee5a21ad9f87ca153b300fc78b1c557a2057dbe9c63bcb4760405160405180910390a2565b7f0000000000000000000000000000000000000000000000000000000000000000600354426103cd9190610e1a565b1015610405576040517f482322c800000000000000000000000000000000000000000000000000000000815260040160405180910390fd5b5f6040518060c001604052807f000000000000000000000000000000000000000000000000000000000000000081526020017f00000000000000000000000000000000000000000000000000000000000000008152602001600361ffff1681526020017f000000000000000000000000000000000000000000000000000000000000000063ffffffff168152602001600163ffffffff1681526020016104ba60405180602001604052805f1515815250610931565b81525090505f60025f9054906101000a900473ffffffffffffffffffffffffffffffffffffffff1673ffffffffffffffffffffffffffffffffffffffff16639b1c385e836040518263ffffffff1660e01b815260040161051a9190610fa4565b6020604051808303815f875af1158015610536573d5f5f3e3d5ffd5b505050506040513d601f19601f8201168201806040525081019061055a9190610fd8565b90505050565b60015f9054906101000a900473ffffffffffffffffffffffffffffffffffffffff1673ffffffffffffffffffffffffffffffffffffffff163373ffffffffffffffffffffffffffffffffffffffff16146105ef576040517f08c379a00000000000000000000000000000000000000000000000000000000081526004016105e69061105d565b60405180910390fd5b5f5f5f9054906101000a900473ffffffffffffffffffffffffffffffffffffffff169050335f5f6101000a81548173ffffffffffffffffffffffffffffffffffffffff021916908373ffffffffffffffffffffffffffffffffffffffff1602179055505f60015f6101000a81548173ffffffffffffffffffffffffffffffffffffffff021916908373ffffffffffffffffffffffffffffffffffffffff1602179055503373ffffffffffffffffffffffffffffffffffffffff168173ffffffffffffffffffffffffffffffffffffffff167f8be0079c531659141344cd1fd0a4f28419497f9722a3daafe3b4186f6b6457e060405160405180910390a350565b5f5f5f9054906101000a900473ffffffffffffffffffffffffffffffffffffffff16905090565b61071e6106ef565b73ffffffffffffffffffffffffffffffffffffffff163373ffffffffffffffffffffffffffffffffffffffff16141580156107a6575060025f9054906101000a900473ffffffffffffffffffffffffffffffffffffffff1673ffffffffffffffffffffffffffffffffffffffff163373ffffffffffffffffffffffffffffffffffffffff1614155b1561081457336107b46106ef565b60025f9054906101000a900473ffffffffffffffffffffffffffffffffffffffff166040517f061db9c100000000000000000000000000000000000000000000000000000000815260040161080b9392919061107b565b60405180910390fd5b5f73ffffffffffffffffffffffffffffffffffffffff168173ffffffffffffffffffffffffffffffffffffffff1603610879576040517fd92e233d00000000000000000000000000000000000000000000000000000000815260040160405180910390fd5b8060025f6101000a81548173ffffffffffffffffffffffffffffffffffffffff021916908373ffffffffffffffffffffffffffffffffffffffff1602179055507fd1a6a14209a385a964d036e404cb5cfb71f4000cdb03c9366292430787261be6816040516108e89190610ce4565b60405180910390a150565b60025f9054906101000a900473ffffffffffffffffffffffffffffffffffffffff1681565b6109206109c9565b61092981610a59565b50565b505050565b60607f92fd13387c7fe7befbc38d303d6468778fb9731bc4583f17d92989c6fcfdeaaa8260405160240161096591906110e4565b604051602081830303815290604052907bffffffffffffffffffffffffffffffffffffffffffffffffffffffff19166020820180517bffffffffffffffffffffffffffffffffffffffffffffffffffffffff83818316178352505050509050919050565b5f5f9054906101000a900473ffffffffffffffffffffffffffffffffffffffff1673ffffffffffffffffffffffffffffffffffffffff163373ffffffffffffffffffffffffffffffffffffffff1614610a57576040517f08c379a0000000000000000000000000000000000000000000000000000000008152600401610a4e90611147565b60405180910390fd5b565b3373ffffffffffffffffffffffffffffffffffffffff168173ffffffffffffffffffffffffffffffffffffffff1603610ac7576040517f08c379a0000000000000000000000000000000000000000000000000000000008152600401610abe906111af565b60405180910390fd5b8060015f6101000a81548173ffffffffffffffffffffffffffffffffffffffff021916908373ffffffffffffffffffffffffffffffffffffffff1602179055508073ffffffffffffffffffffffffffffffffffffffff165f5f9054906101000a900473ffffffffffffffffffffffffffffffffffffffff1673ffffffffffffffffffffffffffffffffffffffff167fed8889f560326eb138920d842192f0eb3dd22b4f139c87a2c57538e05bae127860405160405180910390a350565b5f819050919050565b610b9681610b84565b82525050565b5f602082019050610baf5f830184610b8d565b92915050565b5f5ffd5b5f5ffd5b610bc681610b84565b8114610bd0575f5ffd5b50565b5f81359050610be181610bbd565b92915050565b5f5ffd5b5f5ffd5b5f5ffd5b5f5f83601f840112610c0857610c07610be7565b5b8235905067ffffffffffffffff811115610c2557610c24610beb565b5b602083019150836020820283011115610c4157610c40610bef565b5b9250929050565b5f5f5f60408486031215610c5f57610c5e610bb5565b5b5f610c6c86828701610bd3565b935050602084013567ffffffffffffffff811115610c8d57610c8c610bb9565b5b610c9986828701610bf3565b92509250509250925092565b5f73ffffffffffffffffffffffffffffffffffffffff82169050919050565b5f610cce82610ca5565b9050919050565b610cde81610cc4565b82525050565b5f602082019050610cf75f830184610cd5565b92915050565b610d0681610cc4565b8114610d10575f5ffd5b50565b5f81359050610d2181610cfd565b92915050565b5f60208284031215610d3c57610d3b610bb5565b5b5f610d4984828501610d13565b91505092915050565b5f819050919050565b5f610d75610d70610d6b84610ca5565b610d52565b610ca5565b9050919050565b5f610d8682610d5b565b9050919050565b5f610d9782610d7c565b9050919050565b610da781610d8d565b82525050565b5f602082019050610dc05f830184610d9e565b92915050565b5f604082019050610dd95f830185610cd5565b610de66020830184610cd5565b9392505050565b7f4e487b71000000000000000000000000000000000000000000000000000000005f52601160045260245ffd5b5f610e2482610b84565b9150610e2f83610b84565b9250828203905081811115610e4757610e46610ded565b5b92915050565b5f819050919050565b610e5f81610e4d565b82525050565b610e6e81610b84565b82525050565b5f61ffff82169050919050565b610e8a81610e74565b82525050565b5f63ffffffff82169050919050565b610ea881610e90565b82525050565b5f81519050919050565b5f82825260208201905092915050565b8281835e5f83830152505050565b5f601f19601f8301169050919050565b5f610ef082610eae565b610efa8185610eb8565b9350610f0a818560208601610ec8565b610f1381610ed6565b840191505092915050565b5f60c083015f830151610f335f860182610e56565b506020830151610f466020860182610e65565b506040830151610f596040860182610e81565b506060830151610f6c6060860182610e9f565b506080830151610f7f6080860182610e9f565b5060a083015184820360a0860152610f978282610ee6565b9150508091505092915050565b5f6020820190508181035f830152610fbc8184610f1e565b905092915050565b5f81519050610fd281610bbd565b92915050565b5f60208284031215610fed57610fec610bb5565b5b5f610ffa84828501610fc4565b91505092915050565b5f82825260208201905092915050565b7f4d7573742062652070726f706f736564206f776e6572000000000000000000005f82015250565b5f611047601683611003565b915061105282611013565b602082019050919050565b5f6020820190508181035f8301526110748161103b565b9050919050565b5f60608201905061108e5f830186610cd5565b61109b6020830185610cd5565b6110a86040830184610cd5565b949350505050565b5f8115159050919050565b6110c4816110b0565b82525050565b602082015f8201516110de5f8501826110bb565b50505050565b5f6020820190506110f75f8301846110ca565b92915050565b7f4f6e6c792063616c6c61626c65206279206f776e6572000000000000000000005f82015250565b5f611131601683611003565b915061113c826110fd565b602082019050919050565b5f6020820190508181035f83015261115e81611125565b9050919050565b7f43616e6e6f74207472616e7366657220746f2073656c660000000000000000005f82015250565b5f611199601783611003565b91506111a482611165565b602082019050919050565b5f6020820190508181035f8301526111c68161118d565b905091905056fea26469706673582212200e34c840926ff6cb17f303a5d1beb007f37185931cee0b87ded60015728686d864736f6c634300081e0033","linkReferences":{}},"methodIdentifiers":{"acceptOwnership()":"79ba5097","enterRaffle()":"2cfcc539","getEntranceFee()":"09bc33a7","owner()":"8da5cb5b","pickWinner()":"5d495aea","rawFulfillRandomWords(uint256,uint256[])":"1fe543e3","s_vrfCoordinator()":"9eccacf6","setCoordinator(address)":"8ea98117","transferOwnership(address)":"f2fde38b"},"id":8}