{"abi":[{"type":"constructor","inputs":[{"name":"_entranceFee","type":"uint256","internalType":"uint256"}],"stateMutability":"nonpayable"},{"type":"function","name":"enterRaffle","inputs":[],"outputs":[],"stateMutability":"payable"},{"type":"function","name":"getEntranceFee","inputs":[],"outputs":[{"name":"","type":"uint256","internalType":"uint256"}],"stateMutability":"view"},{"type":"function","name":"pickWinner","inputs":[],"outputs":[],"stateMutability":"nonpayable"},{"type":"event","name":"RaffleEntered","inputs":[{"name":"player","type":"address","indexed":true,"internalType":"address"}],"anonymous":false},{"type":"error","name":"Raffle__ETHAmountError","inputs":[]}],"bytecode":{"object":"0x60a060405234801561000f575f5ffd5b506040516102cc3803806102cc83398181016040528101906100319190610076565b8060808181525050506100a1565b5f5ffd5b5f819050919050565b61005581610043565b811461005f575f5ffd5b50565b5f815190506100708161004c565b92915050565b5f6020828403121561008b5761008a61003f565b5b5f61009884828501610062565b91505092915050565b60805161020e6100be5f395f81816084015260aa015261020e5ff3fe608060405260043610610033575f3560e01c806309bc33a7146100375780632cfcc539146100615780635d495aea1461006b575b5f5ffd5b348015610042575f5ffd5b5061004b610081565b60405161005891906101bf565b60405180910390f35b6100696100a8565b005b348015610076575f5ffd5b5061007f6101a5565b005b5f7f0000000000000000000000000000000000000000000000000000000000000000905090565b7f00000000000000000000000000000000000000000000000000000000000000003414610101576040517f454b4d9d00000000000000000000000000000000000000000000000000000000815260040160405180910390fd5b5f33908060018154018082558091505060019003905f5260205f20015f9091909190916101000a81548173ffffffffffffffffffffffffffffffffffffffff021916908373ffffffffffffffffffffffffffffffffffffffff1602179055503373ffffffffffffffffffffffffffffffffffffffff167f634f3211e3a4e43fee5a21ad9f87ca153b300fc78b1c557a2057dbe9c63bcb4760405160405180910390a2565b565b5f819050919050565b6101b9816101a7565b82525050565b5f6020820190506101d25f8301846101b0565b9291505056fea264697066735822122066301fe05dc925e1a0361cb85d37c7b3d313bdcb22e0afdcd9d755660b77ba6764736f6c634300081e0033","linkReferences":{}},"methodIdentifiers":{"enterRaffle()":"2cfcc539","getEntranceFee()":"09bc33a7","pickWinner()":"5d495aea"},"id":0}