{"abi":[{"type":"constructor","inputs":[{"name":"_entranceFee","type":"uint256","internalType":"uint256"},{"name":"_interval","type":"uint256","internalType":"uint256"},{"name":"_vrfCoordinator","type":"address","internalType":"address"},{"name":"_gasLane","type":"bytes32","internalType":"bytes32"},{"name":"_subscriptionId","type":"uint256","internalType":"uint256"},{"name":"_callbackGasLimit","type":"uint32","internalType":"uint32"}],"stateMutability":"nonpayable"},{"type":"function","name":"acceptOwnership","inputs":[],"outputs":[],"stateMutability":"nonpayable"},{"type":"function","name":"enterRaffle","inputs":[],"outputs":[],"stateMutability":"payable"},{"type":"function","name":"getEntranceFee","inputs":[],"outputs":[{"name":"","type":"uint256","internalType":"uint256"}],"stateMutability":"view"},{"type":"function","name":"owner","inputs":[],"outputs":[{"name":"","type":"address","internalType":"address"}],"stateMutability":"view"},{"type":"function","name":"pickWinner","inputs":[],"outputs":[],"stateMutability":"nonpayable"},{"type":"function","name":"rawFulfillRandomWords","inputs":[{"name":"requestId","type":"uint256","internalType":"uint256"},{"name":"randomWords","type":"uint256[]","internalType":"uint256[]"}],"outputs":[],"stateMutability":"nonpayable"},{"type":"function","name":"s_vrfCoordinator","inputs":[],"outputs":[{"name":"","type":"address","internalType":"contract IVRFCoordinatorV2Plus"}],"stateMutability":"view"},{"type":"function","name":"setCoordinator","inputs":[{"name":"_vrfCoordinator","type":"address","internalType":"address"}],"outputs":[],"stateMutability":"nonpayable"},{"type":"function","name":"transferOwnership","inputs":[{"name":"to","type":"address","internalType":"address"}],"outputs":[],"stateMutability":"nonpayable"},{"type":"event","name":"CoordinatorSet","inputs":[{"name":"vrfCoordinator","type":"address","indexed":false,"internalType":"address"}],"anonymous":false},{"type":"event","name":"OwnershipTransferRequested","inputs":[{"name":"from","type":"address","indexed":true,"internalType":"address"},{"name":"to","type":"address","indexed":true,"internalType":"address"}],"anonymous":false},{"type":"event","name":"OwnershipTransferred","inputs":[{"name":"from","type":"address","indexed":true,"internalType":"address"},{"name":"to","type":"address","indexed":true,"internalType":"address"}],"anonymous":false},{"type":"event","name":"RaffleEntered","inputs":[{"name":"player","type":"address","indexed":true,"internalType":"address"}],"anonymous":false},{"type":"error","name":"OnlyCoordinatorCanFulfill","inputs":[{"name":"have","type":"address","internalType":"address"},{"name":"want","type":"address","internalType":"address"}]},{"type":"error","name":"OnlyOwnerOrCoordinator","inputs":[{"name":"have","type":"address","internalType":"address"},{"name":"owner","type":"address","internalType":"address"},{"name":"coordinator","type":"address","internalType":"address"}]},{"type":"error","name":"Raffle__ETHAmountError","inputs":[]},{"type":"error","name":"Raffle__ShouldExceedInternal","inputs":[]},{"type":"error","name":"ZeroAddress","inputs":[]}],"bytecode":{"object":"0x610120604052348015610010575f5ffd5b506040516118e63803806118e68339818101604052810190610032919061043e565b8333805f5f73ffffffffffffffffffffffffffffffffffffffff168273ffffffffffffffffffffffffffffffffffffffff16036100a4576040517f08c379a000000000000000000000000000000000000000000000000000000000815260040161009b90610521565b60405180910390fd5b815f5f6101000a81548173ffffffffffffffffffffffffffffffffffffffff021916908373ffffffffffffffffffffffffffffffffffffffff1602179055505f73ffffffffffffffffffffffffffffffffffffffff168173ffffffffffffffffffffffffffffffffffffffff1614610126576101258161021660201b60201c565b5b5050505f73ffffffffffffffffffffffffffffffffffffffff168173ffffffffffffffffffffffffffffffffffffffff160361018e576040517fd92e233d00000000000000000000000000000000000000000000000000000000815260040160405180910390fd5b8060025f6101000a81548173ffffffffffffffffffffffffffffffffffffffff021916908373ffffffffffffffffffffffffffffffffffffffff160217905550508560a081815250508460c081815250508160e081815250508261010081815250508063ffffffff1660808163ffffffff1681525050426003819055505050505050506105a7565b3373ffffffffffffffffffffffffffffffffffffffff168173ffffffffffffffffffffffffffffffffffffffff1603610284576040517f08c379a000000000000000000000000000000000000000000000000000000000815260040161027b90610589565b60405180910390fd5b8060015f6101000a81548173ffffffffffffffffffffffffffffffffffffffff021916908373ffffffffffffffffffffffffffffffffffffffff1602179055508073ffffffffffffffffffffffffffffffffffffffff165f5f9054906101000a900473ffffffffffffffffffffffffffffffffffffffff1673ffffffffffffffffffffffffffffffffffffffff167fed8889f560326eb138920d842192f0eb3dd22b4f139c87a2c57538e05bae127860405160405180910390a350565b5f5ffd5b5f819050919050565b61035781610345565b8114610361575f5ffd5b50565b5f815190506103728161034e565b92915050565b5f73ffffffffffffffffffffffffffffffffffffffff82169050919050565b5f6103a182610378565b9050919050565b6103b181610397565b81146103bb575f5ffd5b50565b5f815190506103cc816103a8565b92915050565b5f819050919050565b6103e4816103d2565b81146103ee575f5ffd5b50565b5f815190506103ff816103db565b92915050565b5f63ffffffff82169050919050565b61041d81610405565b8114610427575f5ffd5b50565b5f8151905061043881610414565b92915050565b5f5f5f5f5f5f60c0878903121561045857610457610341565b5b5f61046589828a01610364565b965050602061047689828a01610364565b955050604061048789828a016103be565b945050606061049889828a016103f1565b93505060806104a989828a01610364565b92505060a06104ba89828a0161042a565b9150509295509295509295565b5f82825260208201905092915050565b7f43616e6e6f7420736574206f776e657220746f207a65726f00000000000000005f82015250565b5f61050b6018836104c7565b9150610516826104d7565b602082019050919050565b5f6020820190508181035f830152610538816104ff565b9050919050565b7f43616e6e6f74207472616e7366657220746f2073656c660000000000000000005f82015250565b5f6105736017836104c7565b915061057e8261053f565b602082019050919050565b5f6020820190508181035f8301526105a081610567565b9050919050565b60805160a05160c05160e051610100516112fb6105eb5f395f61041301525f61043901525f6103a001525f81816101b801526102a201525f61046a01526112fb5ff3fe608060405260043610610085575f3560e01c806379ba50971161005857806379ba5097146100fb5780638da5cb5b146101115780638ea981171461013b5780639eccacf614610163578063f2fde38b1461018d57610085565b806309bc33a7146100895780631fe543e3146100b35780632cfcc539146100db5780635d495aea146100e5575b5f5ffd5b348015610094575f5ffd5b5061009d6101b5565b6040516100aa9190610c0a565b60405180910390f35b3480156100be575f5ffd5b506100d960048036038101906100d49190610cb6565b6101dc565b005b6100e36102a0565b005b3480156100f0575f5ffd5b506100f961039e565b005b348015610106575f5ffd5b5061010f610560565b005b34801561011c575f5ffd5b506101256106ef565b6040516101329190610d52565b60405180910390f35b348015610146575f5ffd5b50610161600480360381019061015c9190610d95565b610716565b005b34801561016e575f5ffd5b506101776108f3565b6040516101849190610e1b565b60405180910390f35b348015610198575f5ffd5b506101b360048036038101906101ae9190610d95565b610918565b005b5f7f0000000000000000000000000000000000000000000000000000000000000000905090565b60025f9054906101000a900473ffffffffffffffffffffffffffffffffffffffff1673ffffffffffffffffffffffffffffffffffffffff163373ffffffffffffffffffffffffffffffffffffffff1614610290573360025f9054906101000a900473ffffffffffffffffffffffffffffffffffffffff166040517f1cf993f4000000000000000000000000000000000000000000000000000000008152600401610287929190610e34565b60405180910390fd5b61029b83838361092c565b505050565b7f000000000000000000000000000000000000000000000000000000000000000034146102f9576040517f454b4d9d00000000000000000000000000000000000000000000000000000000815260040160405180910390fd5b600433908060018154018082558091505060019003905f5260205f20015f9091909190916101000a81548173ffffffffffffffffffffffffffffffffffffffff021916908373ffffffffffffffffffffffffffffffffffffffff1602179055503373ffffffffffffffffffffffffffffffffffffffff167f634f3211e3a4e43fee5a21ad9f87ca153b300fc78b1c557a2057dbe9c63bcb4760405160405180910390a2565b7f0000000000000000000000000000000000000000000000000000000000000000600354426103cd9190610e88565b1015610405576040517f482322c800000000000000000000000000000000000000000000000000000000815260040160405180910390fd5b5f6040518060c001604052807f000000000000000000000000000000000000000000000000000000000000000081526020017f00000000000000000000000000000000000000000000000000000000000000008152602001600361ffff1681526020017f000000000000000000000000000000000000000000000000000000000000000063ffffffff168152602001600163ffffffff1681526020016104ba60405180602001604052805f151581525061099f565b81525090505f60025f9054906101000a900473ffffffffffffffffffffffffffffffffffffffff1673ffffffffffffffffffffffffffffffffffffffff16639b1c385e836040518263ffffffff1660e01b815260040161051a9190611012565b6020604051808303815f875af1158015610536573d5f5f3e3d5ffd5b505050506040513d601f19601f8201168201806040525081019061055a9190611046565b90505050565b60015f9054906101000a900473ffffffffffffffffffffffffffffffffffffffff1673ffffffffffffffffffffffffffffffffffffffff163373ffffffffffffffffffffffffffffffffffffffff16146105ef576040517f08c379a00000000000000000000000000000000000000000000000000000000081526004016105e6906110cb565b60405180910390fd5b5f5f5f9054906101000a900473ffffffffffffffffffffffffffffffffffffffff169050335f5f6101000a81548173ffffffffffffffffffffffffffffffffffffffff021916908373ffffffffffffffffffffffffffffffffffffffff1602179055505f60015f6101000a81548173ffffffffffffffffffffffffffffffffffffffff021916908373ffffffffffffffffffffffffffffffffffffffff1602179055503373ffffffffffffffffffffffffffffffffffffffff168173ffffffffffffffffffffffffffffffffffffffff167f8be0079c531659141344cd1fd0a4f28419497f9722a3daafe3b4186f6b6457e060405160405180910390a350565b5f5f5f9054906101000a900473ffffffffffffffffffffffffffffffffffffffff16905090565b61071e6106ef565b73ffffffffffffffffffffffffffffffffffffffff163373ffffffffffffffffffffffffffffffffffffffff16141580156107a6575060025f9054906101000a900473ffffffffffffffffffffffffffffffffffffffff1673ffffffffffffffffffffffffffffffffffffffff163373ffffffffffffffffffffffffffffffffffffffff1614155b1561081457336107b46106ef565b60025f9054906101000a900473ffffffffffffffffffffffffffffffffffffffff166040517f061db9c100000000000000000000000000000000000000000000000000000000815260040161080b939291906110e9565b60405180910390fd5b5f73ffffffffffffffffffffffffffffffffffffffff168173ffffffffffffffffffffffffffffffffffffffff1603610879576040517fd92e233d00000000000000000000000000000000000000000000000000000000815260040160405180910390fd5b8060025f6101000a81548173ffffffffffffffffffffffffffffffffffffffff021916908373ffffffffffffffffffffffffffffffffffffffff1602179055507fd1a6a14209a385a964d036e404cb5cfb71f4000cdb03c9366292430787261be6816040516108e89190610d52565b60405180910390a150565b60025f9054906101000a900473ffffffffffffffffffffffffffffffffffffffff1681565b610920610a37565b61092981610ac7565b50565b5f60048054905083835f8181106109465761094561111e565b5b905060200201356109579190611178565b90505f6004828154811061096e5761096d61111e565b5b905f5260205f20015f9054906101000a900473ffffffffffffffffffffffffffffffffffffffff1690505050505050565b60607f92fd13387c7fe7befbc38d303d6468778fb9731bc4583f17d92989c6fcfdeaaa826040516024016109d391906111dc565b604051602081830303815290604052907bffffffffffffffffffffffffffffffffffffffffffffffffffffffff19166020820180517bffffffffffffffffffffffffffffffffffffffffffffffffffffffff83818316178352505050509050919050565b5f5f9054906101000a900473ffffffffffffffffffffffffffffffffffffffff1673ffffffffffffffffffffffffffffffffffffffff163373ffffffffffffffffffffffffffffffffffffffff1614610ac5576040517f08c379a0000000000000000000000000000000000000000000000000000000008152600401610abc9061123f565b60405180910390fd5b565b3373ffffffffffffffffffffffffffffffffffffffff168173ffffffffffffffffffffffffffffffffffffffff1603610b35576040517f08c379a0000000000000000000000000000000000000000000000000000000008152600401610b2c906112a7565b60405180910390fd5b8060015f6101000a81548173ffffffffffffffffffffffffffffffffffffffff021916908373ffffffffffffffffffffffffffffffffffffffff1602179055508073ffffffffffffffffffffffffffffffffffffffff165f5f9054906101000a900473ffffffffffffffffffffffffffffffffffffffff1673ffffffffffffffffffffffffffffffffffffffff167fed8889f560326eb138920d842192f0eb3dd22b4f139c87a2c57538e05bae127860405160405180910390a350565b5f819050919050565b610c0481610bf2565b82525050565b5f602082019050610c1d5f830184610bfb565b92915050565b5f5ffd5b5f5ffd5b610c3481610bf2565b8114610c3e575f5ffd5b50565b5f81359050610c4f81610c2b565b92915050565b5f5ffd5b5f5ffd5b5f5ffd5b5f5f83601f840112610c7657610c75610c55565b5b8235905067ffffffffffffffff811115610c9357610c92610c59565b5b602083019150836020820283011115610caf57610cae610c5d565b5b9250929050565b5f5f5f60408486031215610ccd57610ccc610c23565b5b5f610cda86828701610c41565b935050602084013567ffffffffffffffff811115610cfb57610cfa610c27565b5b610d0786828701610c61565b92509250509250925092565b5f73ffffffffffffffffffffffffffffffffffffffff82169050919050565b5f610d3c82610d13565b9050919050565b610d4c81610d32565b82525050565b5f602082019050610d655f830184610d43565b92915050565b610d7481610d32565b8114610d7e575f5ffd5b50565b5f81359050610d8f81610d6b565b92915050565b5f60208284031215610daa57610da9610c23565b5b5f610db784828501610d81565b91505092915050565b5f819050919050565b5f610de3610dde610dd984610d13565b610dc0565b610d13565b9050919050565b5f610df482610dc9565b9050919050565b5f610e0582610dea565b9050919050565b610e1581610dfb565b82525050565b5f602082019050610e2e5f830184610e0c565b92915050565b5f604082019050610e475f830185610d43565b610e546020830184610d43565b9392505050565b7f4e487b71000000000000000000000000000000000000000000000000000000005f52601160045260245ffd5b5f610e9282610bf2565b9150610e9d83610bf2565b9250828203905081811115610eb557610eb4610e5b565b5b92915050565b5f819050919050565b610ecd81610ebb565b82525050565b610edc81610bf2565b82525050565b5f61ffff82169050919050565b610ef881610ee2565b82525050565b5f63ffffffff82169050919050565b610f1681610efe565b82525050565b5f81519050919050565b5f82825260208201905092915050565b8281835e5f83830152505050565b5f601f19601f8301169050919050565b5f610f5e82610f1c565b610f688185610f26565b9350610f78818560208601610f36565b610f8181610f44565b840191505092915050565b5f60c083015f830151610fa15f860182610ec4565b506020830151610fb46020860182610ed3565b506040830151610fc76040860182610eef565b506060830151610fda6060860182610f0d565b506080830151610fed6080860182610f0d565b5060a083015184820360a08601526110058282610f54565b9150508091505092915050565b5f6020820190508181035f83015261102a8184610f8c565b905092915050565b5f8151905061104081610c2b565b92915050565b5f6020828403121561105b5761105a610c23565b5b5f61106884828501611032565b91505092915050565b5f82825260208201905092915050565b7f4d7573742062652070726f706f736564206f776e6572000000000000000000005f82015250565b5f6110b5601683611071565b91506110c082611081565b602082019050919050565b5f6020820190508181035f8301526110e2816110a9565b9050919050565b5f6060820190506110fc5f830186610d43565b6111096020830185610d43565b6111166040830184610d43565b949350505050565b7f4e487b71000000000000000000000000000000000000000000000000000000005f52603260045260245ffd5b7f4e487b71000000000000000000000000000000000000000000000000000000005f52601260045260245ffd5b5f61118282610bf2565b915061118d83610bf2565b92508261119d5761119c61114b565b5b828206905092915050565b5f8115159050919050565b6111bc816111a8565b82525050565b602082015f8201516111d65f8501826111b3565b50505050565b5f6020820190506111ef5f8301846111c2565b92915050565b7f4f6e6c792063616c6c61626c65206279206f776e6572000000000000000000005f82015250565b5f611229601683611071565b9150611234826111f5565b602082019050919050565b5f6020820190508181035f8301526112568161121d565b9050919050565b7f43616e6e6f74207472616e7366657220746f2073656c660000000000000000005f82015250565b5f611291601783611071565b915061129c8261125d565b602082019050919050565b5f6020820190508181035f8301526112be81611285565b905091905056fea264697066735822122068b73bb07ba314417560c147890836e493d6d6eb221f76d6b9fc2a952bfc7d0064736f6c634300081e0033","linkReferences":{}},"methodIdentifiers":{"acceptOwnership()":"79ba5097","enterRaffle()":"2cfcc539","getEntranceFee()":"09bc33a7","owner()":"8da5cb5b","pickWinner()":"5d495aea","rawFulfillRandomWords(uint256,uint256[])":"1fe543e3","s_vrfCoordinator()":"9eccacf6","setCoordinator(address)":"8ea98117","transferOwnership(address)":"f2fde38b"},"id":8}