{
	"data": {
		"bytecode": {
			"linkReferences": {},
			"object": "6080604052738b611331683fec3c0e32ee47859c049d0c8870645f5f6101000a81548173ffffffffffffffffffffffffffffffffffffffff021916908373ffffffffffffffffffffffffffffffffffffffff160217905550600167ffffffffffffffff811115610072576100716102c4565b5b6040519080825280602002602001820160405280156100a557816020015b60608152602001906001900390816100905790505b50600190805190602001906100bb9291906101f2565b50600267ffffffffffffffff8111156100d7576100d66102c4565b5b60405190808252806020026020018201604052801561010a57816020015b60608152602001906001900390816100f55790505b50600290805190602001906101209291906101f2565b505f5f9054906101000a900473ffffffffffffffffffffffffffffffffffffffff1660035f6101000a81548173ffffffffffffffffffffffffffffffffffffffff021916908373ffffffffffffffffffffffffffffffffffffffff1602179055505f5f9054906101000a900473ffffffffffffffffffffffffffffffffffffffff1660045f6101000a81548173ffffffffffffffffffffffffffffffffffffffff021916908373ffffffffffffffffffffffffffffffffffffffff1602179055503480156101ec575f5ffd5b506105d0565b828054828255905f5260205f20908101928215610238579160200282015b828111156102375782518290816102279190610501565b5091602001919060010190610210565b5b5090506102459190610249565b5090565b5b80821115610268575f818161025f919061026c565b5060010161024a565b5090565b50805461027890610328565b5f825580601f1061028957506102a6565b601f0160209004905f5260205f20908101906102a591906102a9565b5b50565b5b808211156102c0575f815f9055506001016102aa565b5090565b7f4e487b71000000000000000000000000000000000000000000000000000000005f52604160045260245ffd5b5f81519050919050565b7f4e487b71000000000000000000000000000000000000000000000000000000005f52602260045260245ffd5b5f600282049050600182168061033f57607f821691505b602082108103610352576103516102fb565b5b50919050565b5f819050815f5260205f209050919050565b5f6020601f8301049050919050565b5f82821b905092915050565b5f600883026103b47fffffffffffffffffffffffffffffffffffffffffffffffffffffffffffffffff82610379565b6103be8683610379565b95508019841693508086168417925050509392505050565b5f819050919050565b5f819050919050565b5f6104026103fd6103f8846103d6565b6103df565b6103d6565b9050919050565b5f819050919050565b61041b836103e8565b61042f61042782610409565b848454610385565b825550505050565b5f5f905090565b610446610437565b610451818484610412565b505050565b5b81811015610474576104695f8261043e565b600181019050610457565b5050565b601f8211156104b95761048a81610358565b6104938461036a565b810160208510156104a2578190505b6104b66104ae8561036a565b830182610456565b50505b505050565b5f82821c905092915050565b5f6104d95f19846008026104be565b1980831691505092915050565b5f6104f183836104ca565b9150826002028217905092915050565b61050a826102f1565b67ffffffffffffffff811115610523576105226102c4565b5b61052d8254610328565b610538828285610478565b5f60209050601f831160018114610569575f8415610557578287015190505b61056185826104e6565b8655506105c8565b601f19841661057786610358565b5f5b8281101561059e57848901518255600182019150602085019450602081019050610579565b868310156105bb57848901516105b7601f8916826104ca565b8355505b6001600288020188555050505b505050505050565b610cb1806105dd5f395ff3fe608060405260043610610037575f3560e01c8063087fc0de146100425780630ff0a4df146100585780639e5faafc146100625761003e565b3661003e57005b5f5ffd5b34801561004d575f5ffd5b5061005661006c565b005b61006061025e565b005b61006a610322565b005b60045f9054906101000a90505063d0e30db060e01b604051602401604051602081830303815290604052907bffffffffffffffffffffffffffffffffffffffffffffffffffffffff19166020820180517bffffffffffffffffffffffffffffffffffffffffffffffffffffffff838183161783525050505060015f815481106100f8576100f76105f8565b5b905f5260205f2001908161010c9190610862565b5060045f9054906101000a90505063d0e30db060e01b604051602401604051602081830303815290604052907bffffffffffffffffffffffffffffffffffffffffffffffffffffffff19166020820180517bffffffffffffffffffffffffffffffffffffffffffffffffffffffff838183161783525050505060025f81548110610199576101986105f8565b5b905f5260205f200190816101ad9190610862565b5060045f9054906101000a90505063ac9650d860e01b60016040516024016101d59190610a7f565b604051602081830303815290604052907bffffffffffffffffffffffffffffffffffffffffffffffffffffffff19166020820180517bffffffffffffffffffffffffffffffffffffffffffffffffffffffff83818316178352505050506002600181548110610247576102466105f8565b5b905f5260205f2001908161025b9190610862565b50565b5f732797f5291a7faa3368ff031807b6b70c7bbeef6590505f8173ffffffffffffffffffffffffffffffffffffffff164760405161029b90610acc565b5f6040518083038185875af1925050503d805f81146102d5576040519150601f19603f3d011682016040523d82523d5f602084013e6102da565b606091505b505090508061031e576040517f08c379a000000000000000000000000000000000000000000000000000000000815260040161031590610b3a565b60405180910390fd5b5050565b60035f9054906101000a900473ffffffffffffffffffffffffffffffffffffffff1673ffffffffffffffffffffffffffffffffffffffff1663a6376746306040518263ffffffff1660e01b815260040161037c9190610b97565b5f604051808303815f87803b158015610393575f5ffd5b505af11580156103a5573d5f5f3e3d5ffd5b5050505060045f9054906101000a900473ffffffffffffffffffffffffffffffffffffffff1673ffffffffffffffffffffffffffffffffffffffff1663e43252d7306040518263ffffffff1660e01b81526004016104039190610b97565b5f604051808303815f87803b15801561041a575f5ffd5b505af115801561042c573d5f5f3e3d5ffd5b5050505061043861006c565b60045f9054906101000a900473ffffffffffffffffffffffffffffffffffffffff1673ffffffffffffffffffffffffffffffffffffffff1663ac9650d866038d7ea4c6800060026040518363ffffffff1660e01b815260040161049b9190610a7f565b5f604051808303818588803b1580156104b2575f5ffd5b505af11580156104c4573d5f5f3e3d5ffd5b505050505060045f9054906101000a900473ffffffffffffffffffffffffffffffffffffffff1673ffffffffffffffffffffffffffffffffffffffff1663b61d27f63066071afd498d00006040518363ffffffff1660e01b815260040161052c929190610c19565b5f604051808303815f87803b158015610543575f5ffd5b505af1158015610555573d5f5f3e3d5ffd5b5050505060045f9054906101000a900473ffffffffffffffffffffffffffffffffffffffff1673ffffffffffffffffffffffffffffffffffffffff16639d51d9b73273ffffffffffffffffffffffffffffffffffffffff166040518263ffffffff1660e01b81526004016105c99190610c62565b5f604051808303815f87803b1580156105e0575f5ffd5b505af11580156105f2573d5f5f3e3d5ffd5b50505050565b7f4e487b71000000000000000000000000000000000000000000000000000000005f52603260045260245ffd5b5f81519050919050565b7f4e487b71000000000000000000000000000000000000000000000000000000005f52604160045260245ffd5b7f4e487b71000000000000000000000000000000000000000000000000000000005f52602260045260245ffd5b5f60028204905060018216806106a057607f821691505b6020821081036106b3576106b261065c565b5b50919050565b5f819050815f5260205f209050919050565b5f6020601f8301049050919050565b5f82821b905092915050565b5f600883026107157fffffffffffffffffffffffffffffffffffffffffffffffffffffffffffffffff826106da565b61071f86836106da565b95508019841693508086168417925050509392505050565b5f819050919050565b5f819050919050565b5f61076361075e61075984610737565b610740565b610737565b9050919050565b5f819050919050565b61077c83610749565b6107906107888261076a565b8484546106e6565b825550505050565b5f5f905090565b6107a7610798565b6107b2818484610773565b505050565b5b818110156107d5576107ca5f8261079f565b6001810190506107b8565b5050565b601f82111561081a576107eb816106b9565b6107f4846106cb565b81016020851015610803578190505b61081761080f856106cb565b8301826107b7565b50505b505050565b5f82821c905092915050565b5f61083a5f198460080261081f565b1980831691505092915050565b5f610852838361082b565b9150826002028217905092915050565b61086b82610625565b67ffffffffffffffff8111156108845761088361062f565b5b61088e8254610689565b6108998282856107d9565b5f60209050601f8311600181146108ca575f84156108b8578287015190505b6108c28582610847565b865550610929565b601f1984166108d8866106b9565b5f5b828110156108ff578489015182556001820191506020850194506020810190506108da565b8683101561091c5784890151610918601f89168261082b565b8355505b6001600288020188555050505b505050505050565b5f81549050919050565b5f82825260208201905092915050565b5f819050815f5260205f209050919050565b5f82825260208201905092915050565b5f815461097981610689565b610983818661095d565b9450600182165f811461099d57600181146109b3576109e5565b60ff1983168652811515602002860193506109e5565b6109bc856106b9565b5f5b838110156109dd578154818901526001820191506020810190506109be565b808801955050505b50505092915050565b5f6109f9838361096d565b905092915050565b5f600182019050919050565b5f610a1782610931565b610a21818561093b565b935083602082028501610a338561094b565b805f5b85811015610a6d57848403895281610a4e85826109ee565b9450610a5983610a01565b925060208a01995050600181019050610a36565b50829750879550505050505092915050565b5f6020820190508181035f830152610a978184610a0d565b905092915050565b5f81905092915050565b50565b5f610ab75f83610a9f565b9150610ac282610aa9565b5f82019050919050565b5f610ad682610aac565b9150819050919050565b5f82825260208201905092915050565b7f726546756e64206661696c6564000000000000000000000000000000000000005f82015250565b5f610b24600d83610ae0565b9150610b2f82610af0565b602082019050919050565b5f6020820190508181035f830152610b5181610b18565b9050919050565b5f73ffffffffffffffffffffffffffffffffffffffff82169050919050565b5f610b8182610b58565b9050919050565b610b9181610b77565b82525050565b5f602082019050610baa5f830184610b88565b92915050565b5f819050919050565b5f610bd3610bce610bc984610bb0565b610740565b610737565b9050919050565b610be381610bb9565b82525050565b5f82825260208201905092915050565b5f610c045f83610be9565b9150610c0f82610aa9565b5f82019050919050565b5f606082019050610c2c5f830185610b88565b610c396020830184610bda565b8181036040830152610c4a81610bf9565b90509392505050565b610c5c81610737565b82525050565b5f602082019050610c755f830184610c53565b9291505056fea264697066735822122099912813fda1167f756cc03b7eb30a60a92a294a0532a57df0f0599691f8d75664736f6c634300081e0033",
			"opcodes": "PUSH1 0x80 PUSH1 0x40 MSTORE PUSH20 0x8B611331683FEC3C0E32EE47859C049D0C887064 PUSH0 PUSH0 PUSH2 0x100 EXP DUP2 SLOAD DUP2 PUSH20 0xFFFFFFFFFFFFFFFFFFFFFFFFFFFFFFFFFFFFFFFF MUL NOT AND SWAP1 DUP4 PUSH20 0xFFFFFFFFFFFFFFFFFFFFFFFFFFFFFFFFFFFFFFFF AND MUL OR SWAP1 SSTORE POP PUSH1 0x1 PUSH8 0xFFFFFFFFFFFFFFFF DUP2 GT ISZERO PUSH2 0x72 JUMPI PUSH2 0x71 PUSH2 0x2C4 JUMP JUMPDEST JUMPDEST PUSH1 0x40 MLOAD SWAP1 DUP1 DUP3 MSTORE DUP1 PUSH1 0x20 MUL PUSH1 0x20 ADD DUP3 ADD PUSH1 0x40 MSTORE DUP1 ISZERO PUSH2 0xA5 JUMPI DUP2 PUSH1 0x20 ADD JUMPDEST PUSH1 0x60 DUP2 MSTORE PUSH1 0x20 ADD SWAP1 PUSH1 0x1 SWAP1 SUB SWAP1 DUP2 PUSH2 0x90 JUMPI SWAP1 POP JUMPDEST POP PUSH1 0x1 SWAP1 DUP1 MLOAD SWAP1 PUSH1 0x20 ADD SWAP1 PUSH2 0xBB SWAP3 SWAP2 SWAP1 PUSH2 0x1F2 JUMP JUMPDEST POP PUSH1 0x2 PUSH8 0xFFFFFFFFFFFFFFFF DUP2 GT ISZERO PUSH2 0xD7 JUMPI PUSH2 0xD6 PUSH2 0x2C4 JUMP JUMPDEST JUMPDEST PUSH1 0x40 MLOAD SWAP1 DUP1 DUP3 MSTORE DUP1 PUSH1 0x20 MUL PUSH1 0x20 ADD DUP3 ADD PUSH1 0x40 MSTORE DUP1 ISZERO PUSH2 0x10A JUMPI DUP2 PUSH1 0x20 ADD JUMPDEST PUSH1 0x60 DUP2 MSTORE PUSH1 0x20 ADD SWAP1 PUSH1 0x1 SWAP1 SUB SWAP1 DUP2 PUSH2 0xF5 JUMPI SWAP1 POP JUMPDEST POP PUSH1 0x2 SWAP1 DUP1 MLOAD SWAP1 PUSH1 0x20 ADD SWAP1 PUSH2 0x120 SWAP3 SWAP2 SWAP1 PUSH2 0x1F2 JUMP JUMPDEST POP PUSH0 PUSH0 SWAP1 SLOAD SWAP1 PUSH2 0x100 EXP SWAP1 DIV PUSH20 0xFFFFFFFFFFFFFFFFFFFFFFFFFFFFFFFFFFFFFFFF AND PUSH1 0x3 PUSH0 PUSH2 0x100 EXP DUP2 SLOAD DUP2 PUSH20 0xFFFFFFFFFFFFFFFFFFFFFFFFFFFFFFFFFFFFFFFF MUL NOT AND SWAP1 DUP4 PUSH20 0xFFFFFFFFFFFFFFFFFFFFFFFFFFFFFFFFFFFFFFFF AND MUL OR SWAP1 SSTORE POP PUSH0 PUSH0 SWAP1 SLOAD SWAP1 PUSH2 0x100 EXP SWAP1 DIV PUSH20 0xFFFFFFFFFFFFFFFFFFFFFFFFFFFFFFFFFFFFFFFF AND PUSH1 0x4 PUSH0 PUSH2 0x100 EXP DUP2 SLOAD DUP2 PUSH20 0xFFFFFFFFFFFFFFFFFFFFFFFFFFFFFFFFFFFFFFFF MUL NOT AND SWAP1 DUP4 PUSH20 0xFFFFFFFFFFFFFFFFFFFFFFFFFFFFFFFFFFFFFFFF AND MUL OR SWAP1 SSTORE POP CALLVALUE DUP1 ISZERO PUSH2 0x1EC JUMPI PUSH0 PUSH0 REVERT JUMPDEST POP PUSH2 0x5D0 JUMP JUMPDEST DUP3 DUP1 SLOAD DUP3 DUP3 SSTORE SWAP1 PUSH0 MSTORE PUSH1 0x20 PUSH0 KECCAK256 SWAP1 DUP2 ADD SWAP3 DUP3 ISZERO PUSH2 0x238 JUMPI SWAP2 PUSH1 0x20 MUL DUP3 ADD JUMPDEST DUP3 DUP2 GT ISZERO PUSH2 0x237 JUMPI DUP3 MLOAD DUP3 SWAP1 DUP2 PUSH2 0x227 SWAP2 SWAP1 PUSH2 0x501 JUMP JUMPDEST POP SWAP2 PUSH1 0x20 ADD SWAP2 SWAP1 PUSH1 0x1 ADD SWAP1 PUSH2 0x210 JUMP JUMPDEST JUMPDEST POP SWAP1 POP PUSH2 0x245 SWAP2 SWAP1 PUSH2 0x249 JUMP JUMPDEST POP SWAP1 JUMP JUMPDEST JUMPDEST DUP1 DUP3 GT ISZERO PUSH2 0x268 JUMPI PUSH0 DUP2 DUP2 PUSH2 0x25F SWAP2 SWAP1 PUSH2 0x26C JUMP JUMPDEST POP PUSH1 0x1 ADD PUSH2 0x24A JUMP JUMPDEST POP SWAP1 JUMP JUMPDEST POP DUP1 SLOAD PUSH2 0x278 SWAP1 PUSH2 0x328 JUMP JUMPDEST PUSH0 DUP3 SSTORE DUP1 PUSH1 0x1F LT PUSH2 0x289 JUMPI POP PUSH2 0x2A6 JUMP JUMPDEST PUSH1 0x1F ADD PUSH1 0x20 SWAP1 DIV SWAP1 PUSH0 MSTORE PUSH1 0x20 PUSH0 KECCAK256 SWAP1 DUP2 ADD SWAP1 PUSH2 0x2A5 SWAP2 SWAP1 PUSH2 0x2A9 JUMP JUMPDEST JUMPDEST POP JUMP JUMPDEST JUMPDEST DUP1 DUP3 GT ISZERO PUSH2 0x2C0 JUMPI PUSH0 DUP2 PUSH0 SWAP1 SSTORE POP PUSH1 0x1 ADD PUSH2 0x2AA JUMP JUMPDEST POP SWAP1 JUMP JUMPDEST PUSH32 0x4E487B7100000000000000000000000000000000000000000000000000000000 PUSH0 MSTORE PUSH1 0x41 PUSH1 0x4 MSTORE PUSH1 0x24 PUSH0 REVERT JUMPDEST PUSH0 DUP2 MLOAD SWAP1 POP SWAP2 SWAP1 POP JUMP JUMPDEST PUSH32 0x4E487B7100000000000000000000000000000000000000000000000000000000 PUSH0 MSTORE PUSH1 0x22 PUSH1 0x4 MSTORE PUSH1 0x24 PUSH0 REVERT JUMPDEST PUSH0 PUSH1 0x2 DUP3 DIV SWAP1 POP PUSH1 0x1 DUP3 AND DUP1 PUSH2 0x33F JUMPI PUSH1 0x7F DUP3 AND SWAP2 POP JUMPDEST PUSH1 0x20 DUP3 LT DUP2 SUB PUSH2 0x352 JUMPI PUSH2 0x351 PUSH2 0x2FB JUMP JUMPDEST JUMPDEST POP SWAP2 SWAP1 POP JUMP JUMPDEST PUSH0 DUP2 SWAP1 POP DUP2 PUSH0 MSTORE PUSH1 0x20 PUSH0 KECCAK256 SWAP1 POP SWAP2 SWAP1 POP JUMP JUMPDEST PUSH0 PUSH1 0x20 PUSH1 0x1F DUP4 ADD DIV SWAP1 POP SWAP2 SWAP1 POP JUMP JUMPDEST PUSH0 DUP3 DUP3 SHL SWAP1 POP SWAP3 SWAP2 POP POP JUMP JUMPDEST PUSH0 PUSH1 0x8 DUP4 MUL PUSH2 0x3B4 PUSH32 0xFFFFFFFFFFFFFFFFFFFFFFFFFFFFFFFFFFFFFFFFFFFFFFFFFFFFFFFFFFFFFFFF DUP3 PUSH2 0x379 JUMP JUMPDEST PUSH2 0x3BE DUP7 DUP4 PUSH2 0x379 JUMP JUMPDEST SWAP6 POP DUP1 NOT DUP5 AND SWAP4 POP DUP1 DUP7 AND DUP5 OR SWAP3 POP POP POP SWAP4 SWAP3 POP POP POP JUMP JUMPDEST PUSH0 DUP2 SWAP1 POP SWAP2 SWAP1 POP JUMP JUMPDEST PUSH0 DUP2 SWAP1 POP SWAP2 SWAP1 POP JUMP JUMPDEST PUSH0 PUSH2 0x402 PUSH2 0x3FD PUSH2 0x3F8 DUP5 PUSH2 0x3D6 JUMP JUMPDEST PUSH2 0x3DF JUMP JUMPDEST PUSH2 0x3D6 JUMP JUMPDEST SWAP1 POP SWAP2 SWAP1 POP JUMP JUMPDEST PUSH0 DUP2 SWAP1 POP SWAP2 SWAP1 POP JUMP JUMPDEST PUSH2 0x41B DUP4 PUSH2 0x3E8 JUMP JUMPDEST PUSH2 0x42F PUSH2 0x427 DUP3 PUSH2 0x409 JUMP JUMPDEST DUP5 DUP5 SLOAD PUSH2 0x385 JUMP JUMPDEST DUP3 SSTORE POP POP POP POP JUMP JUMPDEST PUSH0 PUSH0 SWAP1 POP SWAP1 JUMP JUMPDEST PUSH2 0x446 PUSH2 0x437 JUMP JUMPDEST PUSH2 0x451 DUP2 DUP5 DUP5 PUSH2 0x412 JUMP JUMPDEST POP POP POP JUMP JUMPDEST JUMPDEST DUP2 DUP2 LT ISZERO PUSH2 0x474 JUMPI PUSH2 0x469 PUSH0 DUP3 PUSH2 0x43E JUMP JUMPDEST PUSH1 0x1 DUP2 ADD SWAP1 POP PUSH2 0x457 JUMP JUMPDEST POP POP JUMP JUMPDEST PUSH1 0x1F DUP3 GT ISZERO PUSH2 0x4B9 JUMPI PUSH2 0x48A DUP2 PUSH2 0x358 JUMP JUMPDEST PUSH2 0x493 DUP5 PUSH2 0x36A JUMP JUMPDEST DUP2 ADD PUSH1 0x20 DUP6 LT ISZERO PUSH2 0x4A2 JUMPI DUP2 SWAP1 POP JUMPDEST PUSH2 0x4B6 PUSH2 0x4AE DUP6 PUSH2 0x36A JUMP JUMPDEST DUP4 ADD DUP3 PUSH2 0x456 JUMP JUMPDEST POP POP JUMPDEST POP POP POP JUMP JUMPDEST PUSH0 DUP3 DUP3 SHR SWAP1 POP SWAP3 SWAP2 POP POP JUMP JUMPDEST PUSH0 PUSH2 0x4D9 PUSH0 NOT DUP5 PUSH1 0x8 MUL PUSH2 0x4BE JUMP JUMPDEST NOT DUP1 DUP4 AND SWAP2 POP POP SWAP3 SWAP2 POP POP JUMP JUMPDEST PUSH0 PUSH2 0x4F1 DUP4 DUP4 PUSH2 0x4CA JUMP JUMPDEST SWAP2 POP DUP3 PUSH1 0x2 MUL DUP3 OR SWAP1 POP SWAP3 SWAP2 POP POP JUMP JUMPDEST PUSH2 0x50A DUP3 PUSH2 0x2F1 JUMP JUMPDEST PUSH8 0xFFFFFFFFFFFFFFFF DUP2 GT ISZERO PUSH2 0x523 JUMPI PUSH2 0x522 PUSH2 0x2C4 JUMP JUMPDEST JUMPDEST PUSH2 0x52D DUP3 SLOAD PUSH2 0x328 JUMP JUMPDEST PUSH2 0x538 DUP3 DUP3 DUP6 PUSH2 0x478 JUMP JUMPDEST PUSH0 PUSH1 0x20 SWAP1 POP PUSH1 0x1F DUP4 GT PUSH1 0x1 DUP2 EQ PUSH2 0x569 JUMPI PUSH0 DUP5 ISZERO PUSH2 0x557 JUMPI DUP3 DUP8 ADD MLOAD SWAP1 POP JUMPDEST PUSH2 0x561 DUP6 DUP3 PUSH2 0x4E6 JUMP JUMPDEST DUP7 SSTORE POP PUSH2 0x5C8 JUMP JUMPDEST PUSH1 0x1F NOT DUP5 AND PUSH2 0x577 DUP7 PUSH2 0x358 JUMP JUMPDEST PUSH0 JUMPDEST DUP3 DUP2 LT ISZERO PUSH2 0x59E JUMPI DUP5 DUP10 ADD MLOAD DUP3 SSTORE PUSH1 0x1 DUP3 ADD SWAP2 POP PUSH1 0x20 DUP6 ADD SWAP5 POP PUSH1 0x20 DUP2 ADD SWAP1 POP PUSH2 0x579 JUMP JUMPDEST DUP7 DUP4 LT ISZERO PUSH2 0x5BB JUMPI DUP5 DUP10 ADD MLOAD PUSH2 0x5B7 PUSH1 0x1F DUP10 AND DUP3 PUSH2 0x4CA JUMP JUMPDEST DUP4 SSTORE POP JUMPDEST PUSH1 0x1 PUSH1 0x2 DUP9 MUL ADD DUP9 SSTORE POP POP POP JUMPDEST POP POP POP POP POP POP JUMP JUMPDEST PUSH2 0xCB1 DUP1 PUSH2 0x5DD PUSH0 CODECOPY PUSH0 RETURN INVALID PUSH1 0x80 PUSH1 0x40 MSTORE PUSH1 0x4 CALLDATASIZE LT PUSH2 0x37 JUMPI PUSH0 CALLDATALOAD PUSH1 0xE0 SHR DUP1 PUSH4 0x87FC0DE EQ PUSH2 0x42 JUMPI DUP1 PUSH4 0xFF0A4DF EQ PUSH2 0x58 JUMPI DUP1 PUSH4 0x9E5FAAFC EQ PUSH2 0x62 JUMPI PUSH2 0x3E JUMP JUMPDEST CALLDATASIZE PUSH2 0x3E JUMPI STOP JUMPDEST PUSH0 PUSH0 REVERT JUMPDEST CALLVALUE DUP1 ISZERO PUSH2 0x4D JUMPI PUSH0 PUSH0 REVERT JUMPDEST POP PUSH2 0x56 PUSH2 0x6C JUMP JUMPDEST STOP JUMPDEST PUSH2 0x60 PUSH2 0x25E JUMP JUMPDEST STOP JUMPDEST PUSH2 0x6A PUSH2 0x322 JUMP JUMPDEST STOP JUMPDEST PUSH1 0x4 PUSH0 SWAP1 SLOAD SWAP1 PUSH2 0x100 EXP SWAP1 POP POP PUSH4 0xD0E30DB0 PUSH1 0xE0 SHL PUSH1 0x40 MLOAD PUSH1 0x24 ADD PUSH1 0x40 MLOAD PUSH1 0x20 DUP2 DUP4 SUB SUB DUP2 MSTORE SWAP1 PUSH1 0x40 MSTORE SWAP1 PUSH28 0xFFFFFFFFFFFFFFFFFFFFFFFFFFFFFFFFFFFFFFFFFFFFFFFFFFFFFFFF NOT AND PUSH1 0x20 DUP3 ADD DUP1 MLOAD PUSH28 0xFFFFFFFFFFFFFFFFFFFFFFFFFFFFFFFFFFFFFFFFFFFFFFFFFFFFFFFF DUP4 DUP2 DUP4 AND OR DUP4 MSTORE POP POP POP POP PUSH1 0x1 PUSH0 DUP2 SLOAD DUP2 LT PUSH2 0xF8 JUMPI PUSH2 0xF7 PUSH2 0x5F8 JUMP JUMPDEST JUMPDEST SWAP1 PUSH0 MSTORE PUSH1 0x20 PUSH0 KECCAK256 ADD SWAP1 DUP2 PUSH2 0x10C SWAP2 SWAP1 PUSH2 0x862 JUMP JUMPDEST POP PUSH1 0x4 PUSH0 SWAP1 SLOAD SWAP1 PUSH2 0x100 EXP SWAP1 POP POP PUSH4 0xD0E30DB0 PUSH1 0xE0 SHL PUSH1 0x40 MLOAD PUSH1 0x24 ADD PUSH1 0x40 MLOAD PUSH1 0x20 DUP2 DUP4 SUB SUB DUP2 MSTORE SWAP1 PUSH1 0x40 MSTORE SWAP1 PUSH28 0xFFFFFFFFFFFFFFFFFFFFFFFFFFFFFFFFFFFFFFFFFFFFFFFFFFFFFFFF NOT AND PUSH1 0x20 DUP3 ADD DUP1 MLOAD PUSH28 0xFFFFFFFFFFFFFFFFFFFFFFFFFFFFFFFFFFFFFFFFFFFFFFFFFFFFFFFF DUP4 DUP2 DUP4 AND OR DUP4 MSTORE POP POP POP POP PUSH1 0x2 PUSH0 DUP2 SLOAD DUP2 LT PUSH2 0x199 JUMPI PUSH2 0x198 PUSH2 0x5F8 JUMP JUMPDEST JUMPDEST SWAP1 PUSH0 MSTORE PUSH1 0x20 PUSH0 KECCAK256 ADD SWAP1 DUP2 PUSH2 0x1AD SWAP2 SWAP1 PUSH2 0x862 JUMP JUMPDEST POP PUSH1 0x4 PUSH0 SWAP1 SLOAD SWAP1 PUSH2 0x100 EXP SWAP1 POP POP PUSH4 0xAC9650D8 PUSH1 0xE0 SHL PUSH1 0x1 PUSH1 0x40 MLOAD PUSH1 0x24 ADD PUSH2 0x1D5 SWAP2 SWAP1 PUSH2 0xA7F JUMP JUMPDEST PUSH1 0x40 MLOAD PUSH1 0x20 DUP2 DUP4 SUB SUB DUP2 MSTORE SWAP1 PUSH1 0x40 MSTORE SWAP1 PUSH28 0xFFFFFFFFFFFFFFFFFFFFFFFFFFFFFFFFFFFFFFFFFFFFFFFFFFFFFFFF NOT AND PUSH1 0x20 DUP3 ADD DUP1 MLOAD PUSH28 0xFFFFFFFFFFFFFFFFFFFFFFFFFFFFFFFFFFFFFFFFFFFFFFFFFFFFFFFF DUP4 DUP2 DUP4 AND OR DUP4 MSTORE POP POP POP POP PUSH1 0x2 PUSH1 0x1 DUP2 SLOAD DUP2 LT PUSH2 0x247 JUMPI PUSH2 0x246 PUSH2 0x5F8 JUMP JUMPDEST JUMPDEST SWAP1 PUSH0 MSTORE PUSH1 0x20 PUSH0 KECCAK256 ADD SWAP1 DUP2 PUSH2 0x25B SWAP2 SWAP1 PUSH2 0x862 JUMP JUMPDEST POP JUMP JUMPDEST PUSH0 PUSH20 0x2797F5291A7FAA3368FF031807B6B70C7BBEEF65 SWAP1 POP PUSH0 DUP2 PUSH20 0xFFFFFFFFFFFFFFFFFFFFFFFFFFFFFFFFFFFFFFFF AND SELFBALANCE PUSH1 0x40 MLOAD PUSH2 0x29B SWAP1 PUSH2 0xACC JUMP JUMPDEST PUSH0 PUSH1 0x40 MLOAD DUP1 DUP4 SUB DUP2 DUP6 DUP8 GAS CALL SWAP3 POP POP POP RETURNDATASIZE DUP1 PUSH0 DUP2 EQ PUSH2 0x2D5 JUMPI PUSH1 0x40 MLOAD SWAP2 POP PUSH1 0x1F NOT PUSH1 0x3F RETURNDATASIZE ADD AND DUP3 ADD PUSH1 0x40 MSTORE RETURNDATASIZE DUP3 MSTORE RETURNDATASIZE PUSH0 PUSH1 0x20 DUP5 ADD RETURNDATACOPY PUSH2 0x2DA JUMP JUMPDEST PUSH1 0x60 SWAP2 POP JUMPDEST POP POP SWAP1 POP DUP1 PUSH2 0x31E JUMPI PUSH1 0x40 MLOAD PUSH32 0x8C379A000000000000000000000000000000000000000000000000000000000 DUP2 MSTORE PUSH1 0x4 ADD PUSH2 0x315 SWAP1 PUSH2 0xB3A JUMP JUMPDEST PUSH1 0x40 MLOAD DUP1 SWAP2 SUB SWAP1 REVERT JUMPDEST POP POP JUMP JUMPDEST PUSH1 0x3 PUSH0 SWAP1 SLOAD SWAP1 PUSH2 0x100 EXP SWAP1 DIV PUSH20 0xFFFFFFFFFFFFFFFFFFFFFFFFFFFFFFFFFFFFFFFF AND PUSH20 0xFFFFFFFFFFFFFFFFFFFFFFFFFFFFFFFFFFFFFFFF AND PUSH4 0xA6376746 ADDRESS PUSH1 0x40 MLOAD DUP3 PUSH4 0xFFFFFFFF AND PUSH1 0xE0 SHL DUP2 MSTORE PUSH1 0x4 ADD PUSH2 0x37C SWAP2 SWAP1 PUSH2 0xB97 JUMP JUMPDEST PUSH0 PUSH1 0x40 MLOAD DUP1 DUP4 SUB DUP2 PUSH0 DUP8 DUP1 EXTCODESIZE ISZERO DUP1 ISZERO PUSH2 0x393 JUMPI PUSH0 PUSH0 REVERT JUMPDEST POP GAS CALL ISZERO DUP1 ISZERO PUSH2 0x3A5 JUMPI RETURNDATASIZE PUSH0 PUSH0 RETURNDATACOPY RETURNDATASIZE PUSH0 REVERT JUMPDEST POP POP POP POP PUSH1 0x4 PUSH0 SWAP1 SLOAD SWAP1 PUSH2 0x100 EXP SWAP1 DIV PUSH20 0xFFFFFFFFFFFFFFFFFFFFFFFFFFFFFFFFFFFFFFFF AND PUSH20 0xFFFFFFFFFFFFFFFFFFFFFFFFFFFFFFFFFFFFFFFF AND PUSH4 0xE43252D7 ADDRESS PUSH1 0x40 MLOAD DUP3 PUSH4 0xFFFFFFFF AND PUSH1 0xE0 SHL DUP2 MSTORE PUSH1 0x4 ADD PUSH2 0x403 SWAP2 SWAP1 PUSH2 0xB97 JUMP JUMPDEST PUSH0 PUSH1 0x40 MLOAD DUP1 DUP4 SUB DUP2 PUSH0 DUP8 DUP1 EXTCODESIZE ISZERO DUP1 ISZERO PUSH2 0x41A JUMPI PUSH0 PUSH0 REVERT JUMPDEST POP GAS CALL ISZERO DUP1 ISZERO PUSH2 0x42C JUMPI RETURNDATASIZE PUSH0 PUSH0 RETURNDATACOPY RETURNDATASIZE PUSH0 REVERT JUMPDEST POP POP POP POP PUSH2 0x438 PUSH2 0x6C JUMP JUMPDEST PUSH1 0x4 PUSH0 SWAP1 SLOAD SWAP1 PUSH2 0x100 EXP SWAP1 DIV PUSH20 0xFFFFFFFFFFFFFFFFFFFFFFFFFFFFFFFFFFFFFFFF AND PUSH20 0xFFFFFFFFFFFFFFFFFFFFFFFFFFFFFFFFFFFFFFFF AND PUSH4 0xAC9650D8 PUSH7 0x38D7EA4C68000 PUSH1 0x2 PUSH1 0x40 MLOAD DUP4 PUSH4 0xFFFFFFFF AND PUSH1 0xE0 SHL DUP2 MSTORE PUSH1 0x4 ADD PUSH2 0x49B SWAP2 SWAP1 PUSH2 0xA7F JUMP JUMPDEST PUSH0 PUSH1 0x40 MLOAD DUP1 DUP4 SUB DUP2 DUP6 DUP9 DUP1 EXTCODESIZE ISZERO DUP1 ISZERO PUSH2 0x4B2 JUMPI PUSH0 PUSH0 REVERT JUMPDEST POP GAS CALL ISZERO DUP1 ISZERO PUSH2 0x4C4 JUMPI RETURNDATASIZE PUSH0 PUSH0 RETURNDATACOPY RETURNDATASIZE PUSH0 REVERT JUMPDEST POP POP POP POP POP PUSH1 0x4 PUSH0 SWAP1 SLOAD SWAP1 PUSH2 0x100 EXP SWAP1 DIV PUSH20 0xFFFFFFFFFFFFFFFFFFFFFFFFFFFFFFFFFFFFFFFF AND PUSH20 0xFFFFFFFFFFFFFFFFFFFFFFFFFFFFFFFFFFFFFFFF AND PUSH4 0xB61D27F6 ADDRESS PUSH7 0x71AFD498D0000 PUSH1 0x40 MLOAD DUP4 PUSH4 0xFFFFFFFF AND PUSH1 0xE0 SHL DUP2 MSTORE PUSH1 0x4 ADD PUSH2 0x52C SWAP3 SWAP2 SWAP1 PUSH2 0xC19 JUMP JUMPDEST PUSH0 PUSH1 0x40 MLOAD DUP1 DUP4 SUB DUP2 PUSH0 DUP8 DUP1 EXTCODESIZE ISZERO DUP1 ISZERO PUSH2 0x543 JUMPI PUSH0 PUSH0 REVERT JUMPDEST POP GAS CALL ISZERO DUP1 ISZERO PUSH2 0x555 JUMPI RETURNDATASIZE PUSH0 PUSH0 RETURNDATACOPY RETURNDATASIZE PUSH0 REVERT JUMPDEST POP POP POP POP PUSH1 0x4 PUSH0 SWAP1 SLOAD SWAP1 PUSH2 0x100 EXP SWAP1 DIV PUSH20 0xFFFFFFFFFFFFFFFFFFFFFFFFFFFFFFFFFFFFFFFF AND PUSH20 0xFFFFFFFFFFFFFFFFFFFFFFFFFFFFFFFFFFFFFFFF AND PUSH4 0x9D51D9B7 ORIGIN PUSH20 0xFFFFFFFFFFFFFFFFFFFFFFFFFFFFFFFFFFFFFFFF AND PUSH1 0x40 MLOAD DUP3 PUSH4 0xFFFFFFFF AND PUSH1 0xE0 SHL DUP2 MSTORE PUSH1 0x4 ADD PUSH2 0x5C9 SWAP2 SWAP1 PUSH2 0xC62 JUMP JUMPDEST PUSH0 PUSH1 0x40 MLOAD DUP1 DUP4 SUB DUP2 PUSH0 DUP8 DUP1 EXTCODESIZE ISZERO DUP1 ISZERO PUSH2 0x5E0 JUMPI PUSH0 PUSH0 REVERT JUMPDEST POP GAS CALL ISZERO DUP1 ISZERO PUSH2 0x5F2 JUMPI RETURNDATASIZE PUSH0 PUSH0 RETURNDATACOPY RETURNDATASIZE PUSH0 REVERT JUMPDEST POP POP POP POP JUMP JUMPDEST PUSH32 0x4E487B7100000000000000000000000000000000000000000000000000000000 PUSH0 MSTORE PUSH1 0x32 PUSH1 0x4 MSTORE PUSH1 0x24 PUSH0 REVERT JUMPDEST PUSH0 DUP2 MLOAD SWAP1 POP SWAP2 SWAP1 POP JUMP JUMPDEST PUSH32 0x4E487B7100000000000000000000000000000000000000000000000000000000 PUSH0 MSTORE PUSH1 0x41 PUSH1 0x4 MSTORE PUSH1 0x24 PUSH0 REVERT JUMPDEST PUSH32 0x4E487B7100000000000000000000000000000000000000000000000000000000 PUSH0 MSTORE PUSH1 0x22 PUSH1 0x4 MSTORE PUSH1 0x24 PUSH0 REVERT JUMPDEST PUSH0 PUSH1 0x2 DUP3 DIV SWAP1 POP PUSH1 0x1 DUP3 AND DUP1 PUSH2 0x6A0 JUMPI PUSH1 0x7F DUP3 AND SWAP2 POP JUMPDEST PUSH1 0x20 DUP3 LT DUP2 SUB PUSH2 0x6B3 JUMPI PUSH2 0x6B2 PUSH2 0x65C JUMP JUMPDEST JUMPDEST POP SWAP2 SWAP1 POP JUMP JUMPDEST PUSH0 DUP2 SWAP1 POP DUP2 PUSH0 MSTORE PUSH1 0x20 PUSH0 KECCAK256 SWAP1 POP SWAP2 SWAP1 POP JUMP JUMPDEST PUSH0 PUSH1 0x20 PUSH1 0x1F DUP4 ADD DIV SWAP1 POP SWAP2 SWAP1 POP JUMP JUMPDEST PUSH0 DUP3 DUP3 SHL SWAP1 POP SWAP3 SWAP2 POP POP JUMP JUMPDEST PUSH0 PUSH1 0x8 DUP4 MUL PUSH2 0x715 PUSH32 0xFFFFFFFFFFFFFFFFFFFFFFFFFFFFFFFFFFFFFFFFFFFFFFFFFFFFFFFFFFFFFFFF DUP3 PUSH2 0x6DA JUMP JUMPDEST PUSH2 0x71F DUP7 DUP4 PUSH2 0x6DA JUMP JUMPDEST SWAP6 POP DUP1 NOT DUP5 AND SWAP4 POP DUP1 DUP7 AND DUP5 OR SWAP3 POP POP POP SWAP4 SWAP3 POP POP POP JUMP JUMPDEST PUSH0 DUP2 SWAP1 POP SWAP2 SWAP1 POP JUMP JUMPDEST PUSH0 DUP2 SWAP1 POP SWAP2 SWAP1 POP JUMP JUMPDEST PUSH0 PUSH2 0x763 PUSH2 0x75E PUSH2 0x759 DUP5 PUSH2 0x737 JUMP JUMPDEST PUSH2 0x740 JUMP JUMPDEST PUSH2 0x737 JUMP JUMPDEST SWAP1 POP SWAP2 SWAP1 POP JUMP JUMPDEST PUSH0 DUP2 SWAP1 POP SWAP2 SWAP1 POP JUMP JUMPDEST PUSH2 0x77C DUP4 PUSH2 0x749 JUMP JUMPDEST PUSH2 0x790 PUSH2 0x788 DUP3 PUSH2 0x76A JUMP JUMPDEST DUP5 DUP5 SLOAD PUSH2 0x6E6 JUMP JUMPDEST DUP3 SSTORE POP POP POP POP JUMP JUMPDEST PUSH0 PUSH0 SWAP1 POP SWAP1 JUMP JUMPDEST PUSH2 0x7A7 PUSH2 0x798 JUMP JUMPDEST PUSH2 0x7B2 DUP2 DUP5 DUP5 PUSH2 0x773 JUMP JUMPDEST POP POP POP JUMP JUMPDEST JUMPDEST DUP2 DUP2 LT ISZERO PUSH2 0x7D5 JUMPI PUSH2 0x7CA PUSH0 DUP3 PUSH2 0x79F JUMP JUMPDEST PUSH1 0x1 DUP2 ADD SWAP1 POP PUSH2 0x7B8 JUMP JUMPDEST POP POP JUMP JUMPDEST PUSH1 0x1F DUP3 GT ISZERO PUSH2 0x81A JUMPI PUSH2 0x7EB DUP2 PUSH2 0x6B9 JUMP JUMPDEST PUSH2 0x7F4 DUP5 PUSH2 0x6CB JUMP JUMPDEST DUP2 ADD PUSH1 0x20 DUP6 LT ISZERO PUSH2 0x803 JUMPI DUP2 SWAP1 POP JUMPDEST PUSH2 0x817 PUSH2 0x80F DUP6 PUSH2 0x6CB JUMP JUMPDEST DUP4 ADD DUP3 PUSH2 0x7B7 JUMP JUMPDEST POP POP JUMPDEST POP POP POP JUMP JUMPDEST PUSH0 DUP3 DUP3 SHR SWAP1 POP SWAP3 SWAP2 POP POP JUMP JUMPDEST PUSH0 PUSH2 0x83A PUSH0 NOT DUP5 PUSH1 0x8 MUL PUSH2 0x81F JUMP JUMPDEST NOT DUP1 DUP4 AND SWAP2 POP POP SWAP3 SWAP2 POP POP JUMP JUMPDEST PUSH0 PUSH2 0x852 DUP4 DUP4 PUSH2 0x82B JUMP JUMPDEST SWAP2 POP DUP3 PUSH1 0x2 MUL DUP3 OR SWAP1 POP SWAP3 SWAP2 POP POP JUMP JUMPDEST PUSH2 0x86B DUP3 PUSH2 0x625 JUMP JUMPDEST PUSH8 0xFFFFFFFFFFFFFFFF DUP2 GT ISZERO PUSH2 0x884 JUMPI PUSH2 0x883 PUSH2 0x62F JUMP JUMPDEST JUMPDEST PUSH2 0x88E DUP3 SLOAD PUSH2 0x689 JUMP JUMPDEST PUSH2 0x899 DUP3 DUP3 DUP6 PUSH2 0x7D9 JUMP JUMPDEST PUSH0 PUSH1 0x20 SWAP1 POP PUSH1 0x1F DUP4 GT PUSH1 0x1 DUP2 EQ PUSH2 0x8CA JUMPI PUSH0 DUP5 ISZERO PUSH2 0x8B8 JUMPI DUP3 DUP8 ADD MLOAD SWAP1 POP JUMPDEST PUSH2 0x8C2 DUP6 DUP3 PUSH2 0x847 JUMP JUMPDEST DUP7 SSTORE POP PUSH2 0x929 JUMP JUMPDEST PUSH1 0x1F NOT DUP5 AND PUSH2 0x8D8 DUP7 PUSH2 0x6B9 JUMP JUMPDEST PUSH0 JUMPDEST DUP3 DUP2 LT ISZERO PUSH2 0x8FF JUMPI DUP5 DUP10 ADD MLOAD DUP3 SSTORE PUSH1 0x1 DUP3 ADD SWAP2 POP PUSH1 0x20 DUP6 ADD SWAP5 POP PUSH1 0x20 DUP2 ADD SWAP1 POP PUSH2 0x8DA JUMP JUMPDEST DUP7 DUP4 LT ISZERO PUSH2 0x91C JUMPI DUP5 DUP10 ADD MLOAD PUSH2 0x918 PUSH1 0x1F DUP10 AND DUP3 PUSH2 0x82B JUMP JUMPDEST DUP4 SSTORE POP JUMPDEST PUSH1 0x1 PUSH1 0x2 DUP9 MUL ADD DUP9 SSTORE POP POP POP JUMPDEST POP POP POP POP POP POP JUMP JUMPDEST PUSH0 DUP2 SLOAD SWAP1 POP SWAP2 SWAP1 POP JUMP JUMPDEST PUSH0 DUP3 DUP3 MSTORE PUSH1 0x20 DUP3 ADD SWAP1 POP SWAP3 SWAP2 POP POP JUMP JUMPDEST PUSH0 DUP2 SWAP1 POP DUP2 PUSH0 MSTORE PUSH1 0x20 PUSH0 KECCAK256 SWAP1 POP SWAP2 SWAP1 POP JUMP JUMPDEST PUSH0 DUP3 DUP3 MSTORE PUSH1 0x20 DUP3 ADD SWAP1 POP SWAP3 SWAP2 POP POP JUMP JUMPDEST PUSH0 DUP2 SLOAD PUSH2 0x979 DUP2 PUSH2 0x689 JUMP JUMPDEST PUSH2 0x983 DUP2 DUP7 PUSH2 0x95D JUMP JUMPDEST SWAP5 POP PUSH1 0x1 DUP3 AND PUSH0 DUP2 EQ PUSH2 0x99D JUMPI PUSH1 0x1 DUP2 EQ PUSH2 0x9B3 JUMPI PUSH2 0x9E5 JUMP JUMPDEST PUSH1 0xFF NOT DUP4 AND DUP7 MSTORE DUP2 ISZERO ISZERO PUSH1 0x20 MUL DUP7 ADD SWAP4 POP PUSH2 0x9E5 JUMP JUMPDEST PUSH2 0x9BC DUP6 PUSH2 0x6B9 JUMP JUMPDEST PUSH0 JUMPDEST DUP4 DUP2 LT ISZERO PUSH2 0x9DD JUMPI DUP2 SLOAD DUP2 DUP10 ADD MSTORE PUSH1 0x1 DUP3 ADD SWAP2 POP PUSH1 0x20 DUP2 ADD SWAP1 POP PUSH2 0x9BE JUMP JUMPDEST DUP1 DUP9 ADD SWAP6 POP POP POP JUMPDEST POP POP POP SWAP3 SWAP2 POP POP JUMP JUMPDEST PUSH0 PUSH2 0x9F9 DUP4 DUP4 PUSH2 0x96D JUMP JUMPDEST SWAP1 POP SWAP3 SWAP2 POP POP JUMP JUMPDEST PUSH0 PUSH1 0x1 DUP3 ADD SWAP1 POP SWAP2 SWAP1 POP JUMP JUMPDEST PUSH0 PUSH2 0xA17 DUP3 PUSH2 0x931 JUMP JUMPDEST PUSH2 0xA21 DUP2 DUP6 PUSH2 0x93B JUMP JUMPDEST SWAP4 POP DUP4 PUSH1 0x20 DUP3 MUL DUP6 ADD PUSH2 0xA33 DUP6 PUSH2 0x94B JUMP JUMPDEST DUP1 PUSH0 JUMPDEST DUP6 DUP2 LT ISZERO PUSH2 0xA6D JUMPI DUP5 DUP5 SUB DUP10 MSTORE DUP2 PUSH2 0xA4E DUP6 DUP3 PUSH2 0x9EE JUMP JUMPDEST SWAP5 POP PUSH2 0xA59 DUP4 PUSH2 0xA01 JUMP JUMPDEST SWAP3 POP PUSH1 0x20 DUP11 ADD SWAP10 POP POP PUSH1 0x1 DUP2 ADD SWAP1 POP PUSH2 0xA36 JUMP JUMPDEST POP DUP3 SWAP8 POP DUP8 SWAP6 POP POP POP POP POP POP SWAP3 SWAP2 POP POP JUMP JUMPDEST PUSH0 PUSH1 0x20 DUP3 ADD SWAP1 POP DUP2 DUP2 SUB PUSH0 DUP4 ADD MSTORE PUSH2 0xA97 DUP2 DUP5 PUSH2 0xA0D JUMP JUMPDEST SWAP1 POP SWAP3 SWAP2 POP POP JUMP JUMPDEST PUSH0 DUP2 SWAP1 POP SWAP3 SWAP2 POP POP JUMP JUMPDEST POP JUMP JUMPDEST PUSH0 PUSH2 0xAB7 PUSH0 DUP4 PUSH2 0xA9F JUMP JUMPDEST SWAP2 POP PUSH2 0xAC2 DUP3 PUSH2 0xAA9 JUMP JUMPDEST PUSH0 DUP3 ADD SWAP1 POP SWAP2 SWAP1 POP JUMP JUMPDEST PUSH0 PUSH2 0xAD6 DUP3 PUSH2 0xAAC JUMP JUMPDEST SWAP2 POP DUP2 SWAP1 POP SWAP2 SWAP1 POP JUMP JUMPDEST PUSH0 DUP3 DUP3 MSTORE PUSH1 0x20 DUP3 ADD SWAP1 POP SWAP3 SWAP2 POP POP JUMP JUMPDEST PUSH32 0x726546756E64206661696C656400000000000000000000000000000000000000 PUSH0 DUP3 ADD MSTORE POP JUMP JUMPDEST PUSH0 PUSH2 0xB24 PUSH1 0xD DUP4 PUSH2 0xAE0 JUMP JUMPDEST SWAP2 POP PUSH2 0xB2F DUP3 PUSH2 0xAF0 JUMP JUMPDEST PUSH1 0x20 DUP3 ADD SWAP1 POP SWAP2 SWAP1 POP JUMP JUMPDEST PUSH0 PUSH1 0x20 DUP3 ADD SWAP1 POP DUP2 DUP2 SUB PUSH0 DUP4 ADD MSTORE PUSH2 0xB51 DUP2 PUSH2 0xB18 JUMP JUMPDEST SWAP1 POP SWAP2 SWAP1 POP JUMP JUMPDEST PUSH0 PUSH20 0xFFFFFFFFFFFFFFFFFFFFFFFFFFFFFFFFFFFFFFFF DUP3 AND SWAP1 POP SWAP2 SWAP1 POP JUMP JUMPDEST PUSH0 PUSH2 0xB81 DUP3 PUSH2 0xB58 JUMP JUMPDEST SWAP1 POP SWAP2 SWAP1 POP JUMP JUMPDEST PUSH2 0xB91 DUP2 PUSH2 0xB77 JUMP JUMPDEST DUP3 MSTORE POP POP JUMP JUMPDEST PUSH0 PUSH1 0x20 DUP3 ADD SWAP1 POP PUSH2 0xBAA PUSH0 DUP4 ADD DUP5 PUSH2 0xB88 JUMP JUMPDEST SWAP3 SWAP2 POP POP JUMP JUMPDEST PUSH0 DUP2 SWAP1 POP SWAP2 SWAP1 POP JUMP JUMPDEST PUSH0 PUSH2 0xBD3 PUSH2 0xBCE PUSH2 0xBC9 DUP5 PUSH2 0xBB0 JUMP JUMPDEST PUSH2 0x740 JUMP JUMPDEST PUSH2 0x737 JUMP JUMPDEST SWAP1 POP SWAP2 SWAP1 POP JUMP JUMPDEST PUSH2 0xBE3 DUP2 PUSH2 0xBB9 JUMP JUMPDEST DUP3 MSTORE POP POP JUMP JUMPDEST PUSH0 DUP3 DUP3 MSTORE PUSH1 0x20 DUP3 ADD SWAP1 POP SWAP3 SWAP2 POP POP JUMP JUMPDEST PUSH0 PUSH2 0xC04 PUSH0 DUP4 PUSH2 0xBE9 JUMP JUMPDEST SWAP2 POP PUSH2 0xC0F DUP3 PUSH2 0xAA9 JUMP JUMPDEST PUSH0 DUP3 ADD SWAP1 POP SWAP2 SWAP1 POP JUMP JUMPDEST PUSH0 PUSH1 0x60 DUP3 ADD SWAP1 POP PUSH2 0xC2C PUSH0 DUP4 ADD DUP6 PUSH2 0xB88 JUMP JUMPDEST PUSH2 0xC39 PUSH1 0x20 DUP4 ADD DUP5 PUSH2 0xBDA JUMP JUMPDEST DUP2 DUP2 SUB PUSH1 0x40 DUP4 ADD MSTORE PUSH2 0xC4A DUP2 PUSH2 0xBF9 JUMP JUMPDEST SWAP1 POP SWAP4 SWAP3 POP POP POP JUMP JUMPDEST PUSH2 0xC5C DUP2 PUSH2 0x737 JUMP JUMPDEST DUP3 MSTORE POP POP JUMP JUMPDEST PUSH0 PUSH1 0x20 DUP3 ADD SWAP1 POP PUSH2 0xC75 PUSH0 DUP4 ADD DUP5 PUSH2 0xC53 JUMP JUMPDEST SWAP3 SWAP2 POP POP JUMP INVALID LOG2 PUSH5 0x6970667358 0x22 SLT KECCAK256 SWAP10 SWAP2 0x28 SGT REVERT LOG1 AND PUSH32 0x756CC03B7EB30A60A92A294A0532A57DF0F0599691F8D75664736F6C63430008 0x1E STOP CALLER "
		},
		"gasEstimates": {
			"creation": {
				"codeDepositCost": "649800",
				"executionCost": "infinite",
				"totalCost": "infinite"
			},
			"external": {
				"attack()": "infinite",
				"reFund()": "infinite",
				"setMulticall()": "infinite"
			}
		},
		"methodIdentifiers": {
			"attack()": "9e5faafc",
			"reFund()": "0ff0a4df",
			"setMulticall()": "087fc0de"
		}
	},
	"abi": [
		{
			"inputs": [],
			"name": "attack",
			"outputs": [],
			"stateMutability": "payable",
			"type": "function"
		},
		{
			"inputs": [],
			"name": "reFund",
			"outputs": [],
			"stateMutability": "payable",
			"type": "function"
		},
		{
			"inputs": [],
			"name": "setMulticall",
			"outputs": [],
			"stateMutability": "nonpayable",
			"type": "function"
		},
		{
			"stateMutability": "payable",
			"type": "receive"
		}
	]
}